:020000040000FA
:06000000D5EF37F01200FD
:0600080042EF25F012009A
:06002A000100D86F000088
:08003000E000000016000000D2
:0800380095688088809A0000A1
:1000400000008086020EE66EE1EC37F0E552835048
:10005000E86E0000000080968098900BE850EDE17B
:10006000956A1200D9CFE6FFE1CFD9FF0001885190
:10007000146E156AD890155004E6800E145C000EBC
:10008000155817E20001882BD7DF808A809800007E
:100090000000FE0EDB50836E010EE66EE1EC37F0E1
:1000A000E5528086020EE66EE1EC37F0E55280966E
:1000B0000000E552E7CFD9FF1200D9CFE6FFE1CF2C
:1000C000D9FFBADF809A809800000000FE0EDB5056
:1000D000836E010EE66EE1EC37F0E552808600009B
:1000E000000000000000000080960000E552E7CF0D
:1000F000D9FF1200D9CFE6FFE1CFD9FFE652DF6A80
:10010000000188513F0807E280828094400E000180
:10011000885DDF6E04D08092808488C0DFFF87C056
:10012000E8FFB809E850E66EC8DFE552DF50E86E38
:100130004009E850E66EC1DFE552E552E552E7CFEF
:10014000D9FF1200D9CFE6FFE1CFD9FF020EE12699
:10015000DF6A010EDB6A400EE66EAFDFE552C00ECD
:10016000E66EABDFE552DF6A080EDF5C1BE2DF50B4
:10017000E86EB809E850E66EA0DFE5520001886B32
:10018000010EDB6A400EF36E010EDBCFF4FFF3507D
:10019000F45C06E2E66A66DFE552010EDB2AF2D77E
:1001A000DF2AE2D7020EE15C02E2E16AE552E16E8B
:1001B000E552E7CFD9FF120080928084C3DF8082AE
:1001C0008094A2EF00F08092808480900000000074
:1001D00000000000000080800A0EE66E60EC37F040
:1001E000E5522ADF3F0EE66E68DFE552808280949A
:1001F00023DF3F0EE66E61DFE55280928084DCDF14
:100200000001876B0001886B75DF1200D9CFE6FF14
:10021000E1CFD9FF020EE12688C0DFFF0001886B25
:1002200069DF010EDB6A400EF36E010EDBCFF4FFD7
:10023000F350F45C06E2E66A15DFE552010EDB2AB4
:10024000F2D758DF010EDB6A400EF36E010EDBCFF2
:10025000F4FFF350F45C06E2E66A04DFE552010EB7
:10026000DB2AF2D7DFCF88F045DF020EE15C02E245
:10027000E16AE552E16EE552E7CFD9FF1200D9CF2E
:10028000E6FFE1CFD9FF040EE126FE0EDB50E66E5D
:10029000D950010FE96EDACFEAFFE552E750EE6E72
:1002A000ED6A060E086E096A010EDBCF0DF0020E34
:1002B000DBCF0EF00BEC37F0DE5206C0DEFF07C0DE
:1002C000DDFFDD52030EDB6A060EF36E030EDBCF9D
:1002D000F4FFF350F45C3EE2400E0001885D01E162
:1002E00009DF3A0E146E520E156E000E166E010ED8
:1002F000DBCF17F0020EDBCF18F0196A1450172469
:10030000F36E15501820F46E16501920F86EF4CFC5
:10031000F7FFF3CFF6FF0800F550DF6EFC0EDB04AD
:1003200005E1DF50E86E0109E850DF6EFD0EDB04E9
:1003300005E1DF50E86EFF0AE850DF6EDFCFE6FF31
:1003400091DEE552010EDB2A020E01E3DB2A030EE9
:10035000DB2ABAD7040EE15C02E2E16AE552E16E03
:10036000E552E7CFD9FF1200D9CFE6FFE1CFD9FFA1
:10037000030EE126FD0EDBCFE6FFFE0EDBCFE6FF30
:10038000B9EC37F0E552E552F350DF6EB3DE010E03
:10039000DB6ADF50F36E010EDBCFF4FFF350F45C49
:1003A0001CE2FB0EDBCFE6FFFC0EDBCFE6FF010E0F
:1003B000DB50E76EFD0EDBCFE9FFFE0EDBCFEAFF81
:1003C000E750E926000EEA22EF50E66E58DFE552CC
:1003D000E552E552010EDB2ADCD7030EE15C02E2B6
:1003E000E16AE552E16EE552E7CFD9FF1200D9CFBD
:1003F000E6FFE1CFD9FF030EE126010EDB6A84C2DE
:10040000F6FF85C2F7FF86C2F8FF0800F55021E02D
:1004100084C2F6FF85C2F7FF86C2F8FF0800F550D8
:10042000E66E010EDB50EA6A870FE96E020EEA22E1
:10043000E552E750EF6E020184C2F6FF842B85C2BD
:10044000F7FF000E852386C2F8FF8623010EDB2A04
:10045000D6D7010EDB50EA6A870FE96E020EEA2258
:10046000EF6A870EE66E020EE66EB9EC37F0E552E3
:10047000E552F350DF6E3EDE010EDB6ADF50F36EB5
:10048000010EDBCFF4FFF350F45C16E2FD0EDBCF80
:10049000E6FFFE0EDBCFE6FF010EDB50EA6A870FB8
:1004A000E96E020EEA22EF50E66EE9DEE552E55211
:1004B000E552010EDB2AE2D7030EE15C02E2E16ABB
:1004C000E552E16EE552E7CFD9FF1200D9CFE6FF42
:1004D000E1CFD9FF060EE126040E87C0DBFF050E33
:1004E00088C0DBFFFE0EDB50E66ED950010FE96ECF
:1004F000DACFEAFFE552E750EE6EED6A100E086EB5
:10050000096A010EDBCF0DF0020EDBCF0EF00BEC13
:1005100037F0DE5206C0DEFF07C0DDFFDD52030EFE
:10052000DB6A080EF36E030EDBCFF4FFF350F45CCE
:100530003EE2400E0001885D01E1DCDD3A0E146E02
:10054000580E156E000E166E010EDBCF17F0020E60
:10055000DBCF18F0196A14501724F36E15501820C9
:10056000F46E16501920F86EF4CFF7FFF3CFF6FFB4
:100570000800F550DF6EFC0EDB0405E1DF50E86E8D
:100580000109E850DF6EFD0EDB0405E1DF50E86E87
:10059000FF0AE850DF6EDFCFE6FF64DDE552010EB3
:1005A000DB2A020E01E3DB2A030EDB2ABAD7050E93
:1005B000DBCF88F00001872B9DDD030EDB6A080E80
:1005C000F36E030EDBCFF4FFF350F45C3EE2400E1B
:1005D0000001885D01E18EDD3A0E146E580E156E35
:1005E000000E166E010EDBCF17F0020EDBCF18F0F7
:1005F000196A14501724F36E15501820F46E165013
:100600001920F86EF4CFF7FFF3CFF6FF0800F5508E
:10061000DF6EFB0EDB0405E1DF50E86E8009E85079
:10062000DF6EFD0EDB0405E1DF50E86EFF0AE850E7
:10063000DF6EDFCFE6FF16DDE552010EDB2A020E8C
:1006400001E3DB2A030EDB2ABAD7040EDBCF87F0E7
:1006500051DD060EE15C02E2E16AE552E16EE5522F
:10066000E7CFD9FF1200D9CFE6FFE1CFD9FF030EC4
:10067000E126FD0EDBCFE6FFFE0EDBCFE6FFB9EC99
:1006800037F0E552E552F350DF6E34DD010EDB6AE0
:10069000DF50F36E010EDBCFF4FFF350F45C20E289
:1006A000FA0EDBCFE6FFFB0EDBCFE6FFFC0EDBCF67
:1006B000E6FF010EDB50E76EFD0EDBCFE9FFFE0E1D
:1006C000DBCFEAFFE750E926000EEA22EF50E66EA4
:1006D000FDDEE552E552E552E552010EDB2AD8D7A0
:1006E000030EE15C02E2E16AE552E16EE552E7CF1A
:1006F000D9FF1200D9CFE6FFE1CFD9FF030EE126E3
:10070000010EDB6A9CC2F6FF9DC2F7FF9EC2F8FF96
:100710000800F55021E09CC2F6FF9DC2F7FF9EC283
:10072000F8FF0800F550E66E010EDB50EA6A9F0FF5
:10073000E96E020EEA22E552E750EF6E02019CC21A
:10074000F6FF9C2B9DC2F7FF000E9D239EC2F8FF73
:100750009E23010EDB2AD6D7010EDB50EA6A9F0FDB
:10076000E96E020EEA22EF6A9F0EE66E020EE66E58
:10077000B9EC37F0E552E552F350DF6EBBDC010E09
:10078000DB6ADF50F36E010EDBCFF4FFF350F45C55
:100790001AE2FC0EDBCFE6FFFD0EDBCFE6FFFE0E1E
:1007A000DBCFE6FF010EDB50EA6A9F0FE96E020E17
:1007B000EA22EF50E66E8ADEE552E552E552E55256
:1007C000010EDB2ADED7030EE15C02E2E16AE552AC
:1007D000E16EE552E7CFD9FF1200D9CFE6FFE1CFB6
:1007E000D9FF130EE126300EF36E030EF3CFDBFFBD
:1007F000310EF36E040EF3CFDBFF320EF36E050EF7
:10080000F3CFDBFF330EF36E060EF3CFDBFF340EB8
:10081000F36E070EF3CFDBFF350EF36E080EF3CF4A
:10082000DBFF360EF36E090EF3CFDBFF370EF36EF0
:100830000A0EF3CFDBFF380EF36E0B0EF3CFDBFFA8
:10084000390EF36E0C0EF3CFDBFF410EF36E0D0E7F
:10085000F3CFDBFF420EF36E0E0EF3CFDBFF430E42
:10086000F36E0F0EF3CFDBFF440EF36E100EF3CFDB
:10087000DBFF450EF36E110EF3CFDBFF460EF36E7A
:10088000120EF3CFDBFF02013C0EB66F6C0EB76F9A
:10089000000EB86F02018A0EB46F000EB56F97ECB0
:1008A00027F0FE0EDB50F00BDF6E100EF36E020E23
:1008B000F3CFDBFFDE52010EDD6E100EF36E010E84
:1008C000DBCFF4FFF350F45C1EE2020EDB50DF5C82
:1008D00010E1D950030F146EDACF15F0010EDB5082
:1008E0000F011424E96E000E1520EA6EEFCF8CF094
:1008F0000AD0020EDB50100FE76E020EE7CFDBFFCF
:10090000010EDB2ADAD7FE0EDB500F0BDF6EDE5254
:10091000010EDD6E100EF36E010EDBCFF4FFF3500F
:10092000F45C17E2010EDB50DF5C10E1D950030FDD
:10093000146EDACF15F0010EDB500F011424E96EAE
:10094000000E1520EA6EEFCF8DF003D0010EDB2AEA
:10095000E1D7E66AE66A8A0EE66E000EE66E04DD10
:10096000E552E552E552E552130EE15C02E2E16A1E
:10097000E552E16EE552E7CFD9FF1200D9CFE6FF8D
:10098000E1CFD9FFE6520001F0A5B0D015DC00019F
:10099000EE51030801E2EE6BF095010EDF6EEF936E
:1009A000EF95EF97EF99EF9BEF9DEF9FF091F0930D
:1009B0000001876F060E875D1EE2040E886F02013C
:1009C000270EB66F6C0EB76F000EB86F02018A0E5D
:1009D000B46F000EB56F97EC27F0E66AE66A8A0EF0
:1009E000E66E000EE66EC0DCE552E552E552E552D9
:1009F0000001872BDFD7060E876F040E886F020178
:100A0000120EB66F6C0EB76F000EB86F02018A0E31
:100A1000B46F000EB56F97EC27F0E66AE66A8A0EAF
:100A2000E66E000EE66EA0DCE552E552E552E552B8
:100A30000001876B040E886F7AEC00F0E66AE66AC4
:100A4000010EE66E1CDCE552E552E5520201040E91
:100A5000B66F6C0EB76F000EB86F02018A0EB46FDE
:100A6000000EB56F97EC27F0E66A010EE66EE66AB7
:100A70008A0EE66E000EE66EF6DD146E050EE15E81
:100A800014500001700E886F7AEC00F0010EE66ED3
:100A9000E66AE66A3FEC01F0E552E552E552E66AA5
:100AA000E66A030EE66E3FEC01F0E552E552E552D0
:100AB0000001070E876F886B0201ED0EB66F6B0E9B
:100AC000B76F000EB86F02018A0EB46F000EB56FDB
:100AD00097EC27F0E66A010EE66E8A0EE66E000ECF
:100AE000E66E42DCE552E552E552E5520001EFA721
:100AF00006D0EF97EE5103E0EE07010EDF6EEFA98F
:100B000007D0EF99030EEE5D03E0EE2B010EDF6ED2
:100B1000F0A31BD0F093F085EE5103E10001200E0D
:100B2000896F0001EE0503E10001400E896F020E9E
:100B30000001EE5D03E10001500E896F030E00011C
:100B4000EE5D03E10001600E896F0001EFAB05D09F
:100B5000EF9BF0850001100E896FDF0401E0FAD0F1
:100B60000001020E876F0A0E886F0001EE511CE132
:100B70000201DA0EB66F6B0EB76F000EB86F02018E
:100B80008A0EB46F000EB56F97EC27F0010EE66E7B
:100B9000E66E8A0EE66E000EE66EB4EC01F0E552EB
:100BA000E552E552E5521AD00201C70EB66F6B0E40
:100BB000B76F000EB86F02018A0EB46F000EB56FEA
:100BC00097EC27F0E66AE66A8A0EE66E000EE66E9D
:100BD000B4EC01F0E552E552E552E5520001030E96
:100BE000876F0A0E886F0001EE051CE10201B40E4A
:100BF000B66F6B0EB76F000EB86F02018A0EB46F3E
:100C0000000EB56F97EC27F0010EE66EE66E8A0EC9
:100C1000E66E000EE66EB4EC01F0E552E552E552E8
:100C2000E5521AD00201A10EB66F6B0EB76F000E1F
:100C3000B86F02018A0EB46F000EB56F97EC27F003
:100C4000E66AE66A8A0EE66E000EE66EB4EC01F025
:100C5000E552E552E552E5520001040E876F0A0E97
:100C6000886F020E0001EE5D1CE102018E0EB66F70
:100C70006B0EB76F000EB86F02018A0EB46F000ED4
:100C8000B56F97EC27F0010EE66EE66E8A0EE66E03
:100C9000000EE66EB4EC01F0E552E552E552E55285
:100CA0001AD002017B0EB66F6B0EB76F000EB86FD5
:100CB00002018A0EB46F000EB56F97EC27F0E66A5A
:100CC000E66A8A0EE66E000EE66EB4EC01F0E552BE
:100CD000E552E552E5520001050E876F0A0E886F56
:100CE000030E0001EE5D1CE10201680EB66F6B0E93
:100CF000B76F000EB86F02018A0EB46F000EB56FA9
:100D000097EC27F0010EE66EE66E8A0EE66E000E98
:100D1000E66EB4EC01F0E552E552E552E5521AD028
:100D20000201550EB66F6B0EB76F000EB86F020161
:100D30008A0EB46F000EB56F97EC27F0E66AE66A8C
:100D40008A0EE66E000EE66EB4EC01F0E552E55256
:100D5000E552E552DF6AE552E552E7CFD9FF1200CE
:100D60000001F0A5A1D0F095DCEC00F00001EF93BC
:100D7000EF95EF97EF99EF9BEF9DEF9FF091F09339
:100D80000001010E876F200E886F02014C0EB66FB6
:100D90006B0EB76F000EB86F02018A0EB46F000EB3
:100DA000B56F97EC27F0E66AE66AE66A8A0EE66EA9
:100DB000000EE66E58DC146E050EE15E1450000164
:100DC000040E876F140E886F02013C0EB66F6B0E17
:100DD000B76F000EB86F02018A0EB46F000EB56FC8
:100DE00097EC27F0E66AE66A8A0EE66E000EE66E7B
:100DF000B4EC01F0E552E552E552E5520001050E72
:100E0000876F030E886F0201270EB66F6B0EB76FE8
:100E1000000EB86F02018A0EB46F000EB56F97EC2A
:100E200027F0E66AE66A8A0EE66E000EE66EB4EC1D
:100E300001F0E552E552E552E5520001060E876FDA
:100E4000030E886F0201110EB66F6B0EB76F000EA6
:100E5000B86F02018A0EB46F000EB56F97EC27F0E1
:100E6000E66AE66A8A0EE66E000EE66EB4EC01F003
:100E7000E552E552E552E5520001F251F195010BC0
:100E800001E0F185F29197EC26F00D0EE66E85EC0F
:100E900026F0E552E66A85EC26F0E552E66A85EC36
:100EA00026F0E55292EC26F00001010ED880E855BC
:100EB000000EE95504E2E807000EE95B02D0E86B9A
:100EC000E96B010ED880E455000EE55504E2E40715
:100ED000000EE55B02D0E46BE56B320EE66E60EC73
:100EE00037F0E5520001EF51020B18E1EF51040B0E
:100EF00015E1EF51080B12E1EF51100B0FE1EF512B
:100F0000200B0CE1EF51400B09E1EF51800B06E1A2
:100F1000F051010B03E1F051020B30E0EF93EF953C
:100F2000EF97EF99EF9BEF9DEF9FF091F093E6C065
:100F3000E8F0E7C0E9F0E2C0E4F0E3C0E5F0E4C0C7
:100F4000E6FFE5C0E6FFADEC36F0E552E552E8C05D
:100F5000E6FFE9C0E6FFDCEC36F0E552E5520001C1
:100F6000F151F291040B01E0F28197EC26F00001BF
:100F7000030EEE6FF0850001100E896F1200D9CFBD
:100F8000E6FFE1CFD9FFE6520001F0A54ED0DCEC40
:100F900000F00001EE6BF095010EDF6EEF93EF9520
:100FA000EF97EF99EF9BEF9DEF9FF091F09300018A
:100FB000876B080E886F0201060EB66F6B0EB76F57
:100FC000000EB86F02018A0EB46F000EB56F97EC79
:100FD00027F0E66AE66AE66A8A0EE66E000EE66EBC
:100FE00033EC03F0146E050EE15E14500201EF0EB7
:100FF000B66F6A0EB76F000EB86F02018A0EB46F3B
:10100000000EB56F97EC27F00001070E876F886B15
:10101000E66A010EE66E8A0EE66E000EE66EB4EC2F
:1010200001F0E552E552E552E5520001EFA706D086
:10103000EF97EE5103E0EE07010EDF6EEFA907D048
:10104000EF99030EEE5D03E0EE2B010EDF6EF0A3D1
:101050003FD0F093010EDF6EEE5105E1050EEA5D23
:1010600002E0EA2BB4DA0001EE0513E18150020B35
:1010700010E0FE0EE25D030EE3590BE2020EE225E4
:10108000E26F000EE321E36FE2C0E4F0E3C0E5F0BD
:10109000F083020EEE5D13E18150020B10E0FE0EB4
:1010A000E65D030EE7590BE2020EE625E66F000E41
:1010B000E721E76FE6C0E8F0E7C0E9F0F083030E50
:1010C000EE5D06E1050EEB5D03E0EB2B5CEC26F03C
:1010D0000001F0A13BD0F091010EDF6EEE5104E172
:1010E000EA5102E0EA0773DA0001EE0512E18150ED
:1010F000040B0FE0010ED880E255000EE35509E223
:10110000020EE25F000EE35BE2C0E4F0E3C0E5F054
:10111000F081020EEE5D12E18150040B0FE0010E32
:10112000D880E655000EE75509E2020EE65F000E94
:10113000E75BE6C0E8F0E7C0E9F0F081030EEE5DA2
:1011400005E1EB5103E0EB075CEC26F00001EFABAF
:101150000AD0EF9BF0850001300E896F0001020E6E
:10116000EE6FDFEC27F0DF0401E0C9D10201E00EF1
:10117000B66F6A0EB76F000EB86F02018A0EB46FB9
:10118000000EB56F97EC27F00201D80EB66F6A0E0D
:10119000B76F000EB86F02019F0EB46F000EB56FEF
:1011A00097EC27F00001EA510EE10201D00EB66F74
:1011B0006A0EB76F000EB86F02019F0EB46F000E7B
:1011C000B56F97EC27F0020E0001EA5D03E1000124
:1011D000350EA36F030E0001EA5D03E10001330E3B
:1011E000A26F040E0001EA5D03E10001360EA26F5A
:1011F000050E0001EA5D0EE10201C80EB66F6A0E2F
:10120000B76F000EB86F02019F0EB46F000EB56F7E
:1012100097EC27F00001020E876F886F0001EE51F6
:1012200021E10001060E8A6F010EE66EE66E8A0E5F
:10123000E66E000EE66EB4EC01F0E552E552E552C2
:10124000E5520001070EA56F010EE66EE66E9F0ED9
:10125000E66E000EE66EB4EC01F0E552E552E552A2
:10126000E55218D0E66AE66A8A0EE66E000EE66E71
:10127000B4EC01F0E552E552E552E552E66AE66A61
:101280009F0EE66E000EE66EB4EC01F0E552E552FC
:10129000E552E5520001030E876F020E886F0201CE
:1012A000B20EB66F6A0EB76F000EB86F02018A0EEB
:1012B000B46F000EB56F97EC27F00001EE051FE14B
:1012C0000001060E8A6F070E9E6F010EE66EE66E37
:1012D0008A0EE66E000EE66EB4EC01F0E552E552C1
:1012E000E552E552010EE66EE66EE2C0E6FFE3C0AF
:1012F000E6FF0BD9E552E552E552E55217D0E66A12
:10130000E66A8A0EE66E000EE66EB4EC01F0E55277
:10131000E552E552E552E66AE66AE2C0E6FFE3C05E
:10132000E6FFF3D8E552E552E552E5520001040E1E
:10133000876F020E886F02019C0EB66F6A0EB76F40
:10134000000EB86F02018A0EB46F000EB56F97ECF5
:1013500027F0020E0001EE5D1FE10001060E8A6F0C
:10136000070E9E6F010EE66EE66E8A0EE66E000EAA
:10137000E66EB4EC01F0E552E552E552E552010E9D
:10138000E66EE66EE6C0E6FFE7C0E6FFBED8E552D1
:10139000E552E552E55217D0E66AE66A8A0EE66E35
:1013A000000EE66EB4EC01F0E552E552E552E5526E
:1013B000E66AE66AE6C0E6FFE7C0E6FFA6D8E552C1
:1013C000E552E552E55202018D0EB66F6A0EB76F17
:1013D000000EB86F02018A0EB46F000EB56F97EC65
:1013E00027F00201850EB66F6A0EB76F000EB86F58
:1013F00002019F0EB46F000EB56F97EC27F000014D
:10140000EB510EE102017D0EB66F6A0EB76F000E52
:10141000B86F02019F0EB46F000EB56F97EC27F006
:10142000020E0001EB5D03E10001330EA26F030E1B
:101430000001EB5D05E100014D0EA36F200EA46FCE
:10144000040E0001EB5D07E10001350EA26F4D0EA9
:10145000A36F200EA46F050E0001EB5D0EE10201EB
:10146000C80EB66F6A0EB76F000EB86F02019F0EFE
:10147000B46F000EB56F97EC27F00001050E876F73
:10148000020E886F030E0001EE5D21E10001060EE1
:101490008A6F010EE66EE66E8A0EE66E000EE66E4E
:1014A000B4EC01F0E552E552E552E5520001070EB9
:1014B000A56F010EE66EE66E9F0EE66E000EE66EFE
:1014C000B4EC01F0E552E552E552E55218D0E66A77
:1014D000E66A8A0EE66E000EE66EB4EC01F0E552A6
:1014E000E552E552E552E66AE66A9F0EE66E000EA8
:1014F000E66EB4EC01F0E552E552E552E552DF6AE2
:10150000E552E552E7CFD9FF1200D9CFE6FFE1CF90
:10151000D9FF020EE1260001640E886F7AEC00F01C
:10152000010EDB6A140EF36E010EDBCFF4FFF350F5
:10153000F45C43E2010EDB5004E0010EDB501308C3
:1015400003E17C0EDF6E21D0D950FD0FE96EFF0E56
:10155000DA20EA6E380ED880EE54000EED5413E215
:101560007C0EDF6EFD0EDBCF14F0FE0EDBCF15F030
:10157000380E145E000E155AFD0E14C0DBFFFE0E71
:1015800015C0DBFF02D0440EDF6EFB0EDB0405E16D
:10159000DF50E86E0109E850DF6EFC0EDB0405E168
:1015A000DF50E86EFF0AE850DF6EDFCFE6FF32EC77
:1015B00000F0E552010EDB2AB5D7020EE15C02E233
:1015C000E16AE552E16EE552E7CFD9FF1200D9CFCB
:1015D000E6FFE1CFD9FF020EE1260D0EE66E85ECA7
:1015E00026F0E5520001EA5105E10B0EDF6EDE52F6
:1015F000B80EDD6EEA0505E1170EDF6EDE52700EE5
:10160000DD6E020EEA5D05E1230EDF6EDE52280E6E
:10161000DD6E030EEA5D05E1460EDF6EDE52500E12
:10162000DD6E040EEA5D05E18C0EDF6EDE52A00E6B
:10163000DD6E050EEA5D03E1DF68010EDB68010E79
:10164000DBCFE6FF85EC26F0E552DFCFE6FF85EC49
:1016500026F0E55292EC26F0020EE15C02E2E16A2D
:10166000E552E16EE552E7CFD9FF1200D9CFE6FF90
:10167000E1CFD9FFE6520001F0A52FD0DCEC00F05D
:101680000001EE6BF095010EDF6EEF93EF95EF9793
:10169000EF99EF9BEF9DEF9FF091F0930001876B27
:1016A000080E886F02016F0EB66F6A0EB76F000EDC
:1016B000B86F02018A0EB46F000EB56F97EC27F079
:1016C000E66AE66AE66A8A0EE66E000EE66E33ECBD
:1016D00003F0146E050EE15E14500001EFA706D072
:1016E000EF97EE5103E0EE07010EDF6EEFA907D092
:1016F000EF99030EEE5D03E0EE2B010EDF6EF0A31B
:101700002CD0F093010EDF6EEE5107E10C0EE05D80
:1017100002E1E06B01D0E02B42DA0001EE0507E1C7
:10172000F3A702D0F39701D0F38797EC26F0020ECF
:101730000001EE5D07E1F2AF02D0F29F01D0F28F1F
:1017400097EC26F0030E0001EE5D07E1040EE15D6B
:1017500002E2E12B01D0E16B2EDA0001F0A117D0FB
:10176000F091010EDF6EEE5107E1E05103E10C0E46
:10177000E06F01D0E00713DA030E0001EE5D07E130
:10178000E15102E0E10702D0040EE16F14DA00013A
:10179000EFAB11D0EF9BF0850001300E896F000197
:1017A000010EEE6FDFEC27F0870EE66E85EC26F07B
:1017B000E55292EC26F0DF0401E06FD10001EE0566
:1017C00003E0020EEE5D0FE10201580EB66F6A0EE5
:1017D000B76F000EB86F02018A0EB46F000EB56FBE
:1017E00097EC27F00ED00201410EB66F6A0EB76F6C
:1017F000000EB86F02018A0EB46F000EB56F97EC41
:1018000027F00001070E876F886BE66A010EE66E0F
:101810008A0EE66E000EE66EB4EC01F0E552E5527B
:10182000E552E5520001020E876F886F0201340E07
:10183000B66F6A0EB76F000EB86F02018A0EB46FF2
:10184000000EB56F97EC27F002012A0EB66F6A0EF4
:10185000B76F000EB86F02019F0EB46F000EB56F28
:1018600097EC27F0200EE66EE0C0E6FF1CD9E552AB
:10187000E5520001A56FE0C0E6FF76D9E552000110
:10188000A66F0001EE5120E10001060E8A6F070EDF
:10189000A76F010EE66EE66E8A0EE66E000EE66E2D
:1018A000B4EC01F0E552E552E552E552010EE66E68
:1018B000E66E9F0EE66E000EE66EB4EC01F0E552A9
:1018C000E552E552E55218D0E66AE66A8A0EE66EFF
:1018D000000EE66EB4EC01F0E552E552E552E55239
:1018E000E66AE66A9F0EE66E000EE66EB4EC01F064
:1018F000E552E552E552E5520001030E876F020EF4
:10190000886F0201140EB66F6A0EB76F000EB86FC3
:1019100002018A0EB46F000EB56F97EC27F000013C
:10192000F3A703D00001160E9D6F0001EE0513E131
:101930000001060E8A6F070E9E6F010EE66EE66EC0
:101940008A0EE66E000EE66EB4EC01F0E552E5524A
:10195000E552E5520CD0E66AE66A8A0EE66E000EA3
:10196000E66EB4EC01F0E552E552E552E5520001B5
:10197000040E876F020E886F0201FE0EB66F690EAD
:10198000B76F000EB86F02018A0EB46F000EB56F0C
:1019900097EC27F00001F2AF03D00001160E9D6F07
:1019A000020E0001EE5D13E10001060E8A6F070EC4
:1019B0009E6F010EE66EE66E8A0EE66E000EE66E15
:1019C000B4EC01F0E552E552E552E5520CD0E66A7E
:1019D000E66A8A0EE66E000EE66EB4EC01F0E552A1
:1019E000E552E552E5520001050E876F020E886F41
:1019F0000201E80EB66F690EB76F000EB86F0201F4
:101A00008A0EB46F000EB56F97EC27F00001190E27
:101A10009C6F180E9D6F0001E15105E100011A0E47
:101A20009C6F1B0E9D6F020E0001E15D03E1000142
:101A3000170E9C6F030E0001E15D03E10001310E02
:101A40009D6F040E0001E15D05E10001170E9C6F22
:101A5000310E9D6F030E0001EE5D13E10001060ED5
:101A60008A6F070E9E6F010EE66EE66E8A0EE66EB8
:101A7000000EE66EB4EC01F0E552E552E552E55297
:101A80000CD0E66AE66A8A0EE66E000EE66EB4ECEC
:101A900001F0E552E552E552E552DF6AE552E552C2
:101AA000E7CFD9FF1200D9CFE6FFE1CFD9FFE65249
:101AB0000A0E146E14C00EF0FE0EDBCF09F0C7EC58
:101AC00037F00950DF6EDF50090803E20A0EDF5CD1
:101AD000DF6EDF50090803E20A0EDF5CDF6EDF50C5
:101AE00004E1FD0EDB5004D003D0300EDF2400D023
:101AF000E552E552E7CFD9FF1200D9CFE6FFE1CF9B
:101B0000D9FF020EE126640E146E156AFD0EDBCFBE
:101B100008F0FE0EDBCF09F014C00DF015C00EF07A
:101B2000A3EC37F008C0DEFF09C0DDFFD9CFE9FF25
:101B3000DACFEAFFEE50ED1004E1FC0EDB5008D0E6
:101B400007D0DECF14F0DDCF15F0300E142400D016
:101B5000146E020EE15C02E2E16AE552E16E14509D
:101B6000E552E7CFD9FF1200D9CFE6FFE1CFD9FF89
:101B7000FE0EDBCFE6FF0A0E146E14C00EF0FE0E52
:101B8000DBCF09F0C7EC37F009500A0DF350E552EE
:101B9000E75C300F00D0E552E7CFD9FF1200850E89
:101BA000E66E85EC26F0E552E0C0E6FF85EC26F017
:101BB000E55292EF26F00001E15103E1F297F2992C
:101BC000F28DE10503E1F297F299F29D020EE15DDB
:101BD00003E1F297F289F29B030EE15D01E1F287E6
:101BE000040EE15D03E1F297F289F28B97EF26F0A4
:101BF000D9CFE6FFE1CFD9FF030EE1260001876BC5
:101C0000886B7AEC00F0DE6A0A0EDD6EDECF14F02F
:101C1000DDCF15F0000E145C0C0E15584EE2D9CF36
:101C2000E9FFDACFEAFF800EEE1802E10A0EED18A6
:101C300013E0D9CFE9FFDACFEAFFEE5002E10B0E55
:101C4000ED180AE0D9CFE9FFDACFEAFF800EEE18EF
:101C500002E10B0EED1805E10001872B886B7AEC91
:101C600000F0400E0001885D02E17AEC00F03A0ECF
:101C7000146E580E156E000E166EDECF17F0DDCF07
:101C800018F0196A14501724F36E15501820F46ECA
:101C900016501920F86EF4CFF7FFF3CFF6FF0800C7
:101CA000020EF5CFDBFFDBCFE6FF32EC00F0E552B2
:101CB000DF2A010E01E3DB2AA9D70001040E876F9A
:101CC000886B7AEC00F0020EDB6A170EF36E020EE0
:101CD000DBCFF4FFF350F45C0DE2010EE66EE66A32
:101CE000200EE66E3FEC01F0E552E552E552020EA1
:101CF000DB2AEBD7030EE15C02E2E16AE552E16E1A
:101D0000E552E7CFD9FF1200D9CFE6FFE1CFD9FFE7
:101D10002B0EE1266DDF0001050E876F886B020137
:101D2000D70EB66F690EB76F000EB86F02018A0E3C
:101D3000B46F000EB56F97EC27F0E66AE66A8A0E7C
:101D4000E66E000EE66EB4EC01F0E552E552E552A7
:101D5000E552FA0EE66E60EC37F0E552FA0EE66EEA
:101D600060EC37F0E552FA0EE66E60EC37F0E552C3
:101D70009EAA03D0AE50E86EFBD7010EE66E85EC4E
:101D800026F0E552010EE66E85EC26F0E55292EC67
:101D900026F0E76E020EE7CFDBFF010EDB6A280EAE
:101DA000F36E010EDBCFF4FFF350F45C16E292EC1D
:101DB00026F0E66ED950030F146EDACF15F0010E3F
:101DC000DB500F011424E96E000E1520EA6EE55277
:101DD000E750EF6E010EDB2AE2D70201D50EB66F97
:101DE000690EB76F000EB86F02019F0EB46F000E40
:101DF000B56F97EC27F0020EDB50800B800823E1D3
:101E0000020EDB50040B04080FE10201BF0EB66F97
:101E1000690EB76F000EB86F02019F0EB46F000E0F
:101E2000B56F97EC27F00ED00201A90EB66F690EC0
:101E3000B76F000EB86F02019F0EB46F000EB56F42
:101E400097EC27F024D0020EDBB20ED00201940EE4
:101E5000B66F690EB76F000EB86F02019F0EB46FB8
:101E6000000EB56F97EC27F0020EDB50080B080848
:101E70000EE10201810EB66F690EB76F000EB86FEA
:101E800002019F0EB46F000EB56F97EC27F00001B2
:101E9000060E876F886BE66AE66A9F0EE66E000E96
:101EA000E66EB4EC01F0E552E552E552E552000170
:101EB000070E876F886B7AEC00F0010EDB6A150E57
:101EC000F36E010EDBCFF4FFF350F45C19E2E66A27
:101ED000E66AD950030F146EDACF15F0010EDB500D
:101EE0000F011424E96E000E1520EA6EEF50E66E25
:101EF0003FEC01F0E552E552E552010EDB2ADFD757
:101F0000E66860EC37F0E552E66860EC37F0E552E1
:101F1000E66860EC37F0E552020EDB50800B80087B
:101F200001E0FAD70001F0850001010E896F000180
:101F3000F0992B0EE15C02E2E16AE552E16EE552B6
:101F4000E7CFD9FF1200D9CFE6FFE1CFD9FF020ECC
:101F5000E1260001F0A56DD1BCDADCEC00F0000157
:101F6000806BB46B020EE66E85EC26F0E552B4C0D1
:101F7000E6FF85EC26F0E55292EC26F0FF0855E1ED
:101F80000001B56B040EE76EB519E8AE02D0E73478
:101F900002D0E750B55D1EE292EC26F0E66E00013D
:101FA0008051070DF3CF14F0F4CF15F0000E142676
:101FB0000F0E1522B5C016F0176A16BE176814501A
:101FC0001624E96E15501720EA6EE552E750EF6EC1
:101FD000B52BD8D7B56B0B0EE76EB519E8AE02D0AE
:101FE000E73402D0E750B55D1EE292EC26F0E66ED3
:101FF00000018051130DF3CF14F0F4CF15F0000E53
:102000001426010E1522B5C016F0176A16BE176801
:1020100014501624E96E15501720EA6EE552E75069
:10202000EF6EB52BD8D7802B11D00001B56B0F0EFA
:10203000E76EB519E8AE02D0E73402D0E750B55DDF
:1020400005E292EC26F00001B52BF1D7B42B040E7B
:10205000E76EB419E8AE02D0E73402D0E750B45DC1
:1020600001E280D780510001EE5D01E3EE6BF09557
:10207000010EDF6EEF93EF95EF97EF99EF9BEF9DDA
:10208000EF9FF091F0930001805122E1876B886B04
:10209000E66AE66A02016B0E846F690E856F000EB8
:1020A000866FF7EC01F0E552E5520001010E876FF3
:1020B000886BE66AE66A0201600E846F690E856FBE
:1020C000000E866FF7EC01F0E552E552FFD7B1D074
:1020D000876B886B800501E079D0DE52100EDD6ED3
:1020E0000001F1B728D0030EE66E85EC26F0E5522C
:1020F0000001B46B040EE76EB419E8AE02D0E73409
:1021000002D0E750B45D11E2B4C0E9FFEA6AE9BE6B
:10211000EA68000EE9260F0EEA22EF50E66E85EC23
:1021200026F0E5520001B42BE5D792EC26F0E76EDD
:10213000010EE7CFDBFF010EDB50100B100827E18B
:102140000001F085F089F1A71DD0E66AE66A020178
:102150004B0E846F690E856F000E866FF7EC01F0F1
:10216000E552E5520001200E896FE66860EC37F019
:10217000E552E66860EC37F0E552E66860EC37F06F
:10218000E55204D0DCD90001100E896F52D0E66A06
:10219000E66A02013D0E846F690E856F000E866F40
:1021A000F7EC01F0E552E5520001010E876F886BF4
:1021B000E66AE66A02012E0E846F690E856F000ED4
:1021C000866FF7EC01F0E552E552FFD7E66AE66A62
:1021D000E66A0201200E9C6F690E9D6F000E9E6FD5
:1021E0007AEC03F0E552E552E5520001070E876FE5
:1021F000886B0001F1A70FD0E66A010EE66E0201BE
:10220000ED0E846F6B0E856F000E866FF7EC01F09C
:10221000E552E5520ED0E66A010EE66E0201090EA5
:10222000846F690E856F000E866FF7EC01F0E55242
:10223000E55200018051010801E341D10001EFA7FF
:1022400006D0EF97EE5103E0EE07010EDF6EEFA927
:1022500009D0EF99000180050001EE5D03E2EE2B4D
:10226000010EDF6EF151080B08E0EF51200B05E085
:10227000EF9BF0850001200E896F0001F0A376D05E
:10228000F093F085030EE66E85EC26F0E552000132
:10229000B46B040EE76EB419E8AE02D0E73402D096
:1022A000E750B45D1EE20001EE51070DF3CF14F0CC
:1022B000F4CF15F0000E14260F0E1522B4C016F040
:1022C000176A16BE176814501624E96E15501720A9
:1022D000EA6EEF50E66E85EC26F0E5520001B42B75
:1022E000D8D792EC26F0E76E010EE7CFDBFFDB508C
:1022F000100B10080FE123D90001F1A704D0000151
:10230000200E896F03D00001100E896F0001F08547
:10231000F0892CD0DCEC00F00001010E876F886B97
:10232000E66AE66A02013D0E846F690E856F000E53
:10233000866FF7EC01F0E552E5520001010E876F60
:10234000886BE66AE66A02012E0E846F690E856F5D
:10235000000E866FF7EC01F0E552E552E66860EC9E
:1023600037F0E552E66860EC37F0E552DF0401E053
:10237000A5D00001020E876FB46B8051B45D01E3FC
:102380009DD00A0E886F7AEC00F00001B451000174
:10239000EE5D4BE1010EE66EE66E060EE66E3FEC7C
:1023A00001F0E552E552E5520001B56B0C0EE76E07
:1023B000B519E8AE02D0E73402D0E750B55D2AE2A5
:1023C000010EE66EE66EB4C014F0156A14BE156810
:1023D000130E1502F3CF15F01402F3CF14F0F450DE
:1023E0001526000E1426010E1522B5C016F0176A28
:1023F00016BE176814501624E96E15501720EA6EA1
:10240000EF50E66E3FEC01F0E552E552E552000177
:10241000B52BCCD7010EE66EE66E070EE66E3FECEE
:1024200001F0E552E552E55245D0E66AE66AE66A11
:102430003FEC01F0E552E552E5520001B56B0C0EA0
:10244000E76EB519E8AE02D0E73402D0E750B55DCB
:1024500029E2E66AE66AB4C014F0156A14BE15688B
:10246000130E1502F3CF15F01402F3CF14F0F4504D
:102470001526000E1426010E1522B5C016F0176A97
:1024800016BE176814501624E96E15501720EA6E10
:10249000EF50E66E3FEC01F0E552E552E5520001E7
:1024A000B52BCDD7E66AE66AE66A3FEC01F0E55265
:1024B000E552E5520001872BB42B5FD7DF6A020E8D
:1024C000E15C02E2E16AE552E16EE552E7CFD9FF55
:1024D0001200D9CFE6FFE1CFD9FF020EE126DF6A75
:1024E0000D0EDF5C22E2010EDB6A070EF36E010EB9
:1024F000DBCFF4FFF350F45C16E2DF50070DF3CFAF
:1025000014F0F4CF15F0000E14260F0E1522010E54
:10251000DB500F011424E96E000E1520EA6EEF6AFD
:10252000010EDB2AE2D7DF2ADBD7020EE15C02E2F2
:10253000E16AE552E16EE552E7CFD9FF1200860E5F
:10254000E66E85EC26F0E55292EC26F092EC26F051
:102550000001B46FB429E86C816FCFEC0DF0E7ECAB
:102560000AF05CEF26F0D9CFE6FFE1CFD9FF0B0EE2
:10257000E1260001F0A514D0DCEC00F00001EF939F
:10258000EF95EF97EF99EF9BEF9DEF9FF091F09311
:10259000000184698569DF69DFC0DEF00001F08732
:1025A000830EE66E85EC26F0E55292EC26F00001F3
:1025B000D06F92EC26F00001D16F92EC26F0000172
:1025C000D46F92EC26F00001D56F92EC26F000015A
:1025D000D66F92EC26F00001D76F92EC26F0000146
:1025E000D86F92EC26F00001D96F92EC26F0000132
:1025F000DA6F92EC26F00001DB6F92EC26F000011E
:10260000DC6F92EC26F00001DD6F0001F051040B4D
:1026100004E1F251040B01E1B3D1F0950201416BE9
:10262000836B0001F251020B01E19ED0F051800B4F
:1026300001E09AD00A0EE66E85EC26F0E552D8C08D
:10264000E6FF85EC26F0E552D9C0E6FF85EC26F0E2
:10265000E552DAC0E6FF85EC26F0E552DBC0E6FF86
:1026600085EC26F0E552DCC0E6FF85EC26F0E5526D
:10267000DDC0E6FF85EC26F0E55292EC26F0040E74
:10268000DB6A410EF36E040EDBCFF4FFF350F45C13
:1026900010E292EC26F0E66E040EDB50EA6A000FC0
:1026A000E96E020EEA22E552E750EF6E040EDB2AD5
:1026B000E8D70201005157E1050EE66E85EC26F0E1
:1026C000E552D8C0E6FF85EC26F0E552D9C0E6FF1A
:1026D00085EC26F0E552DAC0E6FF85EC26F0E552FF
:1026E000DBC0E6FF85EC26F0E552DCC0E6FF85ECBA
:1026F00026F0E552DDC0E6FF85EC26F0E55292ECCF
:1027000026F0040EDB6A080EF36E040EDBCFF4FF36
:10271000F350F45C10E292EC26F0E66E040EDB500F
:10272000EA6A000FE96E020EEA22E552E750EF6E08
:10273000040EDB2AE8D702012E0E086F92EC26F079
:102740000201096F92EC26F002010A6F92EC26F06A
:1027500002010B6F0C6B92EC26F092EC26F092ECDF
:1027600026F092EC26F00ED00201050EB66F690E2F
:10277000B76F000EB86F0201000EB46F020EB56F96
:1027800097EC27F00C0EE66E85EC26F0E552D8C0EB
:10279000E6FF85EC26F0E552D9C0E6FF85EC26F091
:1027A000E552DAC0E6FF85EC26F0E552DBC0E6FF35
:1027B00085EC26F0E55292EC26F0E76E030EE7CFAB
:1027C000DBFF040EDB6A060EF36E040EDBCFF4FFB4
:1027D000F350F45C16E292EC26F0E66ED950050F49
:1027E000146EDACF15F0040EDB500F011424E96EDD
:1027F000000E1520EA6EE552E750EF6E040EDB2A5C
:10280000E2D7030EDB040FE10201000EB66F690E82
:10281000B76F000EB86F0201420EB46F020EB56FB3
:1028200097EC27F0A5D00A0EE66E85EC26F0E5526F
:10283000050EDBCFE6FF85EC26F0E552060EDBCF7A
:10284000E6FF85EC26F0E552070EDBCFE6FF85ECD0
:1028500026F0E552080EDBCFE6FF85EC26F0E552C8
:10286000090EDBCFE6FF85EC26F0E5520A0EDBCF42
:10287000E6FF85EC26F0E55292EC26F0040EDB6ACA
:10288000410EF36E040EDBCFF4FFF350F45C10E264
:1028900092EC26F0E66E040EDB50EA6A420FE96E17
:1028A000020EEA22E552E750EF6E040EDB2AE8D76B
:1028B000020142515DE1050EE66E85EC26F0E5521F
:1028C000050EDBCFE6FF85EC26F0E552060EDBCFEA
:1028D000E6FF85EC26F0E552070EDBCFE6FF85EC40
:1028E00026F0E552080EDBCFE6FF85EC26F0E55238
:1028F000090EDBCFE6FF85EC26F0E5520A0EDBCFB2
:10290000E6FF85EC26F0E55292EC26F0040EDB6A39
:10291000080EF36E040EDBCFF4FFF350F45C10E20C
:1029200092EC26F0E66E040EDB50EA6A420FE96E86
:10293000020EEA22E552E750EF6E040EDB2AE8D7DA
:102940000201200E4A6F92EC26F002014B6F92ECCE
:1029500026F002014C6F92EC26F002014D6F4E6B97
:1029600092EC26F092EC26F092EC26F092EC26F017
:102970000001F08BF5C0F4F00001DF69DFC0DEF08C
:102980000001F0ABE1D0F2B30ED00201050EB66F3C
:10299000690EB76F000EB86F0201000EB46F020E21
:1029A000B56F97EC27F00001886B420EE66E020EC1
:1029B000E66EB9EC37F0E552E552040EF3CFDBFFDB
:1029C000030EDB6A040EDB5010080EE2FF0E00015E
:1029D000DF5D03E0030EDFC0DBFF040EDB50DF5DD5
:1029E00002E1DF6901D0DF2B0001876B7AEC00F098
:1029F0000001B56B100EE76EB519E8AE02D0E734F2
:102A000002D0E750B55D1EE2030EDB50B525146E13
:102A1000040EDB50145C16E2E66AE66AE66A030E10
:102A2000DB50B525EA6A420FE96E020EEA22EF504A
:102A3000E66E66EC02F0E552E552E552E552000121
:102A4000B52BD8D77F0E0001885D0CE2E66AE66AF6
:102A5000E66A200EE66E66EC02F0E552E552E552BB
:102A6000E552F0D7000EE66E020EE66EB9EC37F0D6
:102A7000E552E552040EF3CFDBFF030EDB6A040ED2
:102A8000DB5010080EE2FF0E0001DE5D03E0030ED6
:102A9000DEC0DBFF040EDB50DE5D02E1DE6901D04B
:102AA000DE2B0001020E876F886B7AEC00F00001CC
:102AB000B56B100EE76EB519E8AE02D0E73402D060
:102AC000E750B55D1FE2030EDB50B525146E040E12
:102AD000DB50145C17E2010EE66EE66AE66A030E4E
:102AE000DB50B525EA6A000FE96E020EEA22EF50CC
:102AF000E66E66EC02F0E552E552E552E552000161
:102B0000B52BD7D77F0E0001885D0DE2010EE66E72
:102B1000E66AE66A200EE66E66EC02F0E552E552E1
:102B2000E552E552EFD7070E876F886BE66A010E14
:102B3000E66E0201E90E846F680E856F000E866FE7
:102B4000F7EC01F0E552E5520001EF51080B03E10B
:102B5000EF51100B07E0EF97EF990001200E896FFE
:102B60000001F085EFAF13D0EF9FF08FF29197EC5B
:102B700026F00201050EB66F690EB76F000EB86F32
:102B80000201000EB46F020EB56F97EC27F0000142
:102B9000EFAD2ED0EF9DF0AF28D0F09FF085800EE6
:102BA000E66E85EC26F0E552D8C0E6FF85EC26F00F
:102BB000E552D9C0E6FF85EC26F0E552DAC0E6FF23
:102BC00085EC26F0E552DBC0E6FF85EC26F0E55209
:102BD000DCC0E6FF85EC26F0E552DDC0E6FF85ECC3
:102BE00026F0E55292EC26F003D0F27197EC26F035
:102BF0000001F0A306D0F093EE6BF0850001300EDB
:102C0000896F0001EF51080B03E1EF51100B06E053
:102C1000EF99EF97F0850001200E896F0001F051C8
:102C2000010B12E08150040B0FE0280EE66E60EC01
:102C300037F0E55281A408D00001F091F381F385CB
:102C400097EC26F00001866B0001F351010B06E0C2
:102C50008150040B03E1F39197EC26F00001F05151
:102C6000010B04E1EF51200B01E183D0090EE66E68
:102C700085EC26F0E552D8C0E6FF85EC26F0E5525B
:102C8000D9C0E6FF85EC26F0E552DAC0E6FF85EC18
:102C900026F0E552DBC0E6FF85EC26F0E552DCC00D
:102CA000E6FF85EC26F0E552DDC0E6FF85EC26F078
:102CB000E5520001F0A106D0260EE66E85EC26F066
:102CC000E55205D0360EE66E85EC26F0E5520001A1
:102CD000F091EF9B92EC26F0E76E030EE7CFDBFF5F
:102CE000040EDB6A0F0EF36E040EDBCFF4FFF3501D
:102CF000F45C05E292EC26F0040EDB2AF3D792ECAA
:102D000026F0E76E050EE7CFDBFF92EC26F0E76ECC
:102D1000060EE7CFDBFF030EDB5006082AE1800E2C
:102D2000E66E85EC26F0E552D8C0E6FF85EC26F08D
:102D3000E552D9C0E6FF85EC26F0E552DAC0E6FFA1
:102D400085EC26F0E552DBC0E6FF85EC26F0E55287
:102D5000050EDBCFE6FF85EC26F0E552060EDBCF55
:102D6000E6FF85EC26F0E55292EC26F00001F085B6
:102D7000F09F0001F0A700D1F097F3A915D0000152
:102D8000050E876F670E886FE66AE66AE66A0201DB
:102D9000E40E9C6F680E9D6F000E9E6F7AEC03F040
:102DA000E552E552E552E8D00001060E876F670E46
:102DB000886F7AEC00F0040EDB6ADB50146E156A43
:102DC000D890155004E6F50E145C000E155849E233
:102DD000200EF36E030EF3CFDBFF00018151F36E83
:102DE000040EDBCFF4FFF350F45C2DE2040EDB5055
:102DF000190805E2300EF36E030EF3CFDBFF040E6D
:102E0000DB50320805E2380EF36E030EF3CFDBFF22
:102E1000040EDB504B0805E23C0EF36E030EF3CFBD
:102E2000DBFF040EDB50640805E23E0EF36E030E7A
:102E3000F3CFDBFF040EDB507D0805E23F0EF36E9F
:102E4000030EF3CFDBFF030EDBCFE6FF32EC00F027
:102E5000E552040EDB500A0FE76E040EE7CFDBFFEE
:102E6000ACD70001050E876F670E886FE66AE66AC9
:102E70000201E10E846F680E856F000E866FF7EC1D
:102E800001F0E552E552780EF36E040EF3CFDBFF4E
:102E9000DB50146E156AD890155004E6F50E145CDC
:102EA000000E155869E2030EDB6A00018151F36ED2
:102EB000040EDBCFF4FFF350F45C50E2040EDB5061
:102EC000146E156A153404E214509108000E15545E
:102ED00005E2800EF36E030EF3CFDBFF040EDB5032
:102EE000146E156A153404E21450AA08000E155425
:102EF00005E2C00EF36E030EF3CFDBFF040EDB50D2
:102F0000146E156A153404E21450C308000E1554EB
:102F100005E2E00EF36E030EF3CFDBFF040EDB5091
:102F2000146E156A153404E21450DC08000E1554B2
:102F300005E2F00EF36E030EF3CFDBFF040EDB5061
:102F4000146E156A153404E21450F508000E155479
:102F500005E2F80EF36E030EF3CFDBFF030EDBCFBB
:102F6000E6FF32EC00F0E552040EDB500A0FE76E8C
:102F7000040EE7CFDBFF8CD700018251841902E1F8
:102F8000835185190CE10001F251020B04E0F2516A
:102F9000010B01E08AD2F051200B01E186D2000141
:102FA000040E876F886B0001F251020B01E149D1D9
:102FB000F051800B01E045D1C00E0001D415E76E41
:102FC000030EE7CFDBFFDB500DE1E66AE66A0201A4
:102FD000D70E846F680E856F000E866FF7EC01F0D8
:102FE000E552E552030EDB5040080DE1E66AE66A61
:102FF0000201CD0E846F680E856F000E866FF7ECB0
:1030000001F0E552E552030EDB5080080DE1E66A5F
:10301000E66A0201C30E846F680E856F000E866F2C
:10302000F7EC01F0E552E552030EDB50C0080DE16C
:10303000E66AE66A0201B90E846F680E856F000EBB
:10304000866FF7EC01F0E552E552010E0001D11553
:10305000146E156A14C015F0146AD0511424D26F7E
:10306000000E1520D36F200EE66ED2C0E6FFD3C04F
:10307000E6FF7DEC0DF0E552E552E55200018A6F66
:10308000300EE66ED2C0E6FF53EC0DF0E552E5528D
:1030900000018B6FD2C0E6FFB4EC0DF0E5520001E9
:1030A0008C6F6B0E8D6F620E8E6F2F0E8F6F906B0D
:1030B000E66AE66A8A0EE66E000EE66EB4EC01F091
:1030C000E552E552E552E5521E0E0001D115E76EBC
:1030D000030EE7CFDBFFDB500DE1E66AE66A020193
:1030E000B50E846F680E856F000E866FF7EC01F0E9
:1030F000E552E552030EDB5002080DE1E66AE66A8E
:103100000201B00E846F680E856F000E866FF7ECBB
:1031100001F0E552E552030EDB5004080DE1E66ACA
:10312000E66A0201AD0E846F680E856F000E866F31
:10313000F7EC01F0E552E552030EDB5006080DE115
:10314000E66AE66A0201AA0E846F680E856F000EB9
:10315000866FF7EC01F0E552E552030EDB500808EC
:103160000DE1E66AE66A0201A70E846F680E856FBC
:10317000000E866FF7EC01F0E552E552030EDB50CE
:103180000A080DE1E66AE66A0201A40E846F680E81
:10319000856F000E866FF7EC01F0E552E552030EE5
:1031A000DB500C080DE1E66AE66A0201A10E846FAD
:1031B000680E856F000E866FF7EC01F0E552E55260
:1031C000030EDB500E080DE1E66AE66A02019E0E70
:1031D000846F680E856F000E866FF7EC01F0E55284
:1031E000E552030EDB5010080DE1E66AE66A0201C3
:1031F0009B0E846F680E856F000E866FF7EC01F0F2
:10320000E552E552030EDB5012080DE1E66AE66A6C
:103210000201990E846F680E856F000E866FF7ECC1
:1032200001F0E552E552E66AE66A0201960E846F05
:10323000680E856F000E866FF7EC01F0E552E552DF
:1032400002D006EC01F00001100E8A6F0F0E8B6F9A
:103250008C6B0001E15105E10001110E8A6F120E25
:103260008B6F020E0001E15D03E100010E0E8A6F1B
:10327000030E0001E15D03E10001310E8B6F040ECE
:103280000001E15D05E100010E0E8A6F310E8B6FCA
:103290000001050E876F400E886FE66AE66AE66AEF
:1032A0008A0EE66E000EE66E33EC03F0146E050E29
:1032B000E15E14500001050E876F030E886F000158
:1032C000F351010B0CE0F351040B09E00001862BD4
:1032D0001E0E865D04E10001F39597EC26F00001D7
:1032E000F251020B01E1D2D0F051800B01E0CED0BF
:1032F000F251010B13E1F051400B10E1E66AE66A6E
:10330000E66A02018F0E9C6F680E9D6F000E9E6F25
:103310007AEC03F0E552E552E552B7D07AEC00F0D2
:1033200082C084F083C085F03C0E146E156A82C0A2
:1033300008F083C009F014C00DF015C00EF0A3EC26
:1033400037F0010E08C0DBFFDB503C0DF350166E6A
:10335000176A00011650825D146E17508359156E5E
:10336000020E14C0DBFF640E146E14C00EF0010ECA
:10337000DBCF09F0C7EC37F0030E09C0DBFFDB50F1
:103380000DE0E66AE66AE66A030EDBCFE6FF66EC6E
:1033900002F0E552E552E552E5520BD0E66AE66AE4
:1033A000E66A200EE66E66EC02F0E552E552E55262
:1033B000E552010EDBCFE6FF030EDB50640DF35048
:1033C000E552E75CE76E010EE7CFDBFFE66AE66AEF
:1033D000E66A0A0E146E14C00EF0010EDBCF09F07F
:1033E000C7EC37F0030E09C0DBFF0950E66E66EC50
:1033F00002F0E552E552E552E552E66AE66AE66A0F
:10340000010EDBCFE6FF030EDB500A0DF350E55251
:10341000E75CE66E66EC02F0E552E552E552E552F5
:10342000E66AE66AE66A0A0EE66E66EC02F0E552C5
:10343000E552E552E552E66AE66AE66A0A0E146E5D
:1034400014C00EF0020EDBCF09F0C7EC37F0030E0C
:1034500009C0DBFF0950E66E66EC02F0E552E5526A
:10346000E552E552E66AE66AE66A020EDBCFE6FF5F
:10347000030EDB500A0DF350E552E75CE66E66EC96
:1034800002F0E552E552E552E5520FD0E66AE66AEF
:10349000E66A0201880E9C6F680E9D6F000E9E6F9B
:1034A0007AEC03F0E552E552E5520001F09B0B0E79
:1034B000E15C02E2E16AE552E16EE552E7CFD9FF55
:1034C0001200D9CFE6FFE1CFD9FF030EE126090EA6
:1034D000E66E85EC26F0E552B8C0E6FF85EC26F0F6
:1034E000E552B9C0E6FF85EC26F0E552BAC0E6FF2A
:1034F00085EC26F0E552BBC0E6FF85EC26F0E552F0
:10350000FD0EDB040EE1E66A85EC26F0E552E66A84
:1035100085EC26F0E552080EE66E85EC26F0E552C5
:103520003DD0FC0EDB0404E1FE0EDB04DF6E03D0B5
:10353000FE0EDB28DF6EDF50070DF3CFE9FFF4CF7F
:10354000EAFF000EE9260F0EEA22050EE926000E1C
:10355000EA22EF50E66E85EC26F0E552DF50070DCB
:10356000F3CFE9FFF4CFEAFF000EE9260F0EEA22BF
:10357000060EE926000EEA22EF50E66E85EC26F0F4
:10358000E552FC0EDB5005E0E66A85EC26F0E552DC
:1035900005D0100EE66E85EC26F0E55292EC26F092
:1035A000E76E010EE7CFDBFFDB5004E0010EDB50DE
:1035B00081082AE1FE0EDB50070DF3CFE9FFF4CFBF
:1035C000EAFF000EE9260F0EEA22EF6AFE0EDB503C
:1035D000130DF3CFE9FFF4CFEAFF000EE926010E49
:1035E000EA22EF6A020EDB6A110EF36E020EDBCFE7
:1035F000F4FFF350F45C05E292EC26F0020EDB2AB5
:10360000F3D7000E0BD20AD2020EDB6A080EF36E5D
:10361000020EDBCFF4FFF350F45C1CE292EC26F0D8
:10362000E66EFE0EDB50130DF3CF14F0F4CF15F061
:10363000000E1426010E1522020EDB500F01142479
:10364000E96E000E1520EA6EE552E750EF6E020EAD
:10365000DB2ADCD7010EDB0412E1FE0EDB50130D7A
:10366000F3CFE9FFF4CFEAFF000EE926010EEA22CC
:10367000080EE926000EEA22200EEF6E11D0FE0E93
:10368000DB50130DF3CFE9FFF4CFEAFF000EE9267C
:10369000010EEA22080EE926000EEA222E0EEF6E37
:1036A00092EC26F0E66EFE0EDB50130DF3CFE9FF31
:1036B000F4CFEAFF000EE926010EEA22090EE92600
:1036C000000EEA22E552E750EF6E92EC26F0E66E2D
:1036D000FE0EDB50130DF3CFE9FFF4CFEAFF000E2F
:1036E000E926010EEA220A0EE926000EEA22E55238
:1036F000E750EF6E92EC26F0E66EFE0EDB50130DF7
:10370000F3CFE9FFF4CFEAFF000EE926010EEA222B
:103710000B0EE926000EEA22E552E750EF6E0C0E82
:10372000F36E020EF3CFDBFF120EF36E020EDBCF51
:10373000F4FFF350F45C18E2FE0EDB50130DF3CFF0
:1037400014F0F4CF15F0000E1426010E1522020E0F
:10375000DB500F011424E96E000E1520EA6E200ED6
:10376000EF6E020EDB2AE0D7FE0EDB50130DF3CF17
:10377000E9FFF4CFEAFF000EE926010EEA22120E5D
:10378000E926000EEA22EF6AFE0EDB50070DF3CFAA
:10379000E9FFF4CFEAFF000EE9260F0EEA22010E40
:1037A000DBCFEFFF92EC26F0E66EFE0EDB50070D4E
:1037B000F3CFE9FFF4CFEAFF000EE9260F0EEA226D
:1037C000010EE926000EEA22E552E750EF6E92EC78
:1037D00026F0E66EFE0EDB50070DF3CFE9FFF4CFC7
:1037E000EAFF000EE9260F0EEA22020EE926000E7D
:1037F000EA22E552E750EF6E92EC26F0E66EFE0EFE
:10380000DB50070DF3CFE9FFF4CFEAFF000EE92606
:103810000F0EEA22030EE926000EEA22E552E750D7
:10382000EF6E92EC26F0E66EFE0EDB50070DF3CF46
:10383000E9FFF4CFEAFF000EE9260F0EEA22040E9C
:10384000E926000EEA22E552E750EF6E92EC26F0F0
:10385000E66EFE0EDB50070DF3CFE9FFF4CFEAFF73
:10386000000EE9260F0EEA22050EE926000EEA22D6
:10387000E552E750EF6E92EC26F0E66EFE0EDB505E
:10388000070DF3CFE9FFF4CFEAFF000EE9260F0E94
:10389000EA22060EE926000EEA22E552E750EF6E14
:1038A0000A0EE66E85EC26F0E552B8C0E6FF85EC20
:1038B00026F0E552B9C0E6FF85EC26F0E552BAC025
:1038C000E6FF85EC26F0E552BBC0E6FF85EC26F06E
:1038D000E552FE0EDB50070DF3CFE9FFF4CFEAFF10
:1038E000000EE9260F0EEA22050EE926000EEA2256
:1038F000EF50E66E85EC26F0E552FE0EDB50070D2C
:10390000F3CFE9FFF4CFEAFF000EE9260F0EEA221B
:10391000060EE926000EEA22EF50E66E85EC26F050
:10392000E55292EC26F092EC26F0E76E010EE7CF1E
:10393000DBFFDB5010E1020EDB6A400EF36E020E7D
:10394000DBCFF4FFF350F45C05E292EC26F0020EBC
:10395000DB2AF3D761D0FE0EDB50130DF3CFE9FF66
:10396000F4CFEAFF000EE926010EEA22010EDBCFBA
:10397000EFFFF36E020EF3CFDBFF120EF36E020EBB
:10398000DBCFF4FFF350F45C28E292EC26F0E76E14
:10399000010EE7CFDBFFDB5004E0010EDB50FF0838
:1039A00003E1DE52200EDD6EFE0EDB50130DF3CF71
:1039B00014F0F4CF15F0000E1426010E1522020E9D
:1039C000DB500F011424E96E000E1520EA6E010E83
:1039D000DBCFEFFF020EDB2AD0D7FE0EDB50130D3C
:1039E000F3CFE9FFF4CFEAFF000EE926010EEA2249
:1039F000120EE926000EEA22EF6A020EDB6A2F0E93
:103A0000F36E020EDBCFF4FFF350F45C05E292ECB0
:103A100026F0020EDB2AF3D7010E00D0146E030E3F
:103A2000E15C02E2E16AE552E16E1450E552E7CF53
:103A3000D9FF1200D9CFE6FFE1CFD9FF020EE12670
:103A4000050EE66E85EC26F0E552B8C0E6FF85EC83
:103A500026F0E552B9C0E6FF85EC26F0E552BAC083
:103A6000E6FF85EC26F0E552BBC0E6FF85EC26F0CC
:103A7000E552FD0EDBCFE6FF85EC26F0E552FC0EAD
:103A8000DBCFE6FF85EC26F0E55292EC26F0DF6E08
:103A9000DF5006E0800EDF5C03E0810EDF5C2AE190
:103AA000FE0EDB50070DF3CFE9FFF4CFEAFF000E67
:103AB000E9260F0EEA22EF6AFE0EDB50130DF3CF5C
:103AC000E9FFF4CFEAFF000EE926010EEA22EF6AD1
:103AD000010EDB6A0F0EF36E010EDBCFF4FFF35025
:103AE000F45C05E292EC26F0010EDB2AF3D7000E1F
:103AF000F6D1F5D1010EDB6A080EF36E010EDBCFB5
:103B0000F4FFF350F45C1CE292EC26F0E66EFE0E3D
:103B1000DB50130DF3CF14F0F4CF15F0000E142684
:103B2000010E1522010EDB500F011424E96E000E68
:103B30001520EA6EE552E750EF6E010EDB2ADCD766
:103B4000DF0412E1FE0EDB50130DF3CFE9FFF4CFDB
:103B5000EAFF000EE926010EEA22080EE926000E11
:103B6000EA22200EEF6E11D0FE0EDB50130DF3CFC4
:103B7000E9FFF4CFEAFF000EE926010EEA22080E63
:103B8000E926000EEA222E0EEF6E92EC26F0E66E8B
:103B9000FE0EDB50130DF3CFE9FFF4CFEAFF000E6A
:103BA000E926010EEA22090EE926000EEA22E55274
:103BB000E750EF6E92EC26F0E66EFE0EDB50130D32
:103BC000F3CFE9FFF4CFEAFF000EE926010EEA2267
:103BD0000A0EE926000EEA22E552E750EF6E92EC5B
:103BE00026F0E66EFE0EDB50130DF3CFE9FFF4CFA7
:103BF000EAFF000EE926010EEA220B0EE926000E6E
:103C0000EA22E552E750EF6EDE520C0EDD6E120E28
:103C1000F36E010EDBCFF4FFF350F45C18E2FE0EFE
:103C2000DB50130DF3CF14F0F4CF15F0000E142673
:103C3000010E1522010EDB500F011424E96E000E57
:103C40001520EA6E200EEF6E010EDB2AE0D7FE0E85
:103C5000DB50130DF3CFE9FFF4CFEAFF000EE926A6
:103C6000010EEA22120EE926000EEA22EF6AFE0E8B
:103C7000DB50070DF3CFE9FFF4CFEAFF000EE92692
:103C80000F0EEA22DFCFEFFF92EC26F0E66EFE0E7B
:103C9000DB50070DF3CFE9FFF4CFEAFF000EE92672
:103CA0000F0EEA22010EE926000EEA22E552E75045
:103CB000EF6E92EC26F0E66EFE0EDB50070DF3CFB2
:103CC000E9FFF4CFEAFF000EE9260F0EEA22020E0A
:103CD000E926000EEA22E552E750EF6E92EC26F05C
:103CE000E66EFE0EDB50070DF3CFE9FFF4CFEAFFDF
:103CF000000EE9260F0EEA22030EE926000EEA2244
:103D0000E552E750EF6E92EC26F0E66EFE0EDB50C9
:103D1000070DF3CFE9FFF4CFEAFF000EE9260F0EFF
:103D2000EA22040EE926000EEA22E552E750EF6E81
:103D3000FE0EDB50070DF3CFE9FFF4CFEAFF000ED4
:103D4000E9260F0EEA22050EE926000EEA22FD0EF4
:103D5000DBCFEFFFFE0EDB50070DF3CFE9FFF4CF13
:103D6000EAFF000EE9260F0EEA22060EE926000EF3
:103D7000EA22FC0EDBCFEFFF0A0EE66E85EC26F0A2
:103D8000E552B8C0E6FF85EC26F0E552B9C0E6FF83
:103D900085EC26F0E552BAC0E6FF85EC26F0E55248
:103DA000BBC0E6FF85EC26F0E552FE0EDB50070DAA
:103DB000F3CFE9FFF4CFEAFF000EE9260F0EEA2267
:103DC000050EE926000EEA22EF50E66E85EC26F09D
:103DD000E552FE0EDB50070DF3CFE9FFF4CFEAFF0B
:103DE000000EE9260F0EEA22060EE926000EEA2250
:103DF000EF50E66E85EC26F0E55292EC26F092EC60
:103E000026F0DF6EDF5010E1010EDB6A400EF36E2C
:103E1000010EDBCFF4FFF350F45C05E292EC26F0E8
:103E2000010EDB2AF3D759D0FE0EDB50130DF3CF72
:103E3000E9FFF4CFEAFF000EE926010EEA22DFCF08
:103E4000EFFFDE52010EDD6E120EF36E010EDBCFC0
:103E5000F4FFF350F45C22E292EC26F0DF6EDF50C8
:103E600003E0FF0EDF5C02E1200EDF6EFE0EDB5092
:103E7000130DF3CF14F0F4CF15F0000E1426010E3D
:103E80001522010EDB500F011424E96E000E1520DF
:103E9000EA6EDFCFEFFF010EDB2AD6D7FE0EDB5036
:103EA000130DF3CFE9FFF4CFEAFF000EE926010E70
:103EB000EA22120EE926000EEA22EF6A010EDB6A00
:103EC0002F0EF36E010EDBCFF4FFF350F45C05E22E
:103ED00092EC26F0010EDB2AF3D7010E00D0146E0F
:103EE000020EE15C02E2E16AE552E16E1450E55235
:103EF000E7CFD9FF1200D9CFE6FFE1CFD9FF020EFD
:103F0000E126DF6A0C0EDF5C6CE2010EDB6A130E49
:103F1000F36E010EDBCFF4FFF350F45C2BE2DF28ED
:103F2000130DF3CF16F0F4CF17F0000E1626010E86
:103F30001722010EDB500F011624E96E000E172028
:103F4000EA6EEF50E66EDF50130DF3CF14F0F4CFAE
:103F500015F0000E1426010E1522010EDB5014245C
:103F6000E96E000E1520EA6EE552E750EF6E010E85
:103F7000DB2ACDD7010EDB6A070EF36E010EDBCF15
:103F8000F4FFF350F45C2BE2DF28070DF3CF16F0BB
:103F9000F4CF17F0000E16260F0E1722010EDB507D
:103FA0000F011624E96E000E1720EA6EEF50E66E40
:103FB000DF50070DF3CF14F0F4CF15F0000E1426E8
:103FC0000F0E1522010EDB501424E96E000E152091
:103FD000EA6EE552E750EF6E010EDB2ACDD7DF2AFD
:103FE00091D70F015B6B020EE15C02E2E16AE552E0
:103FF000E16EE552E7CFD9FF1200D9CFE6FFE1CF5E
:10400000D9FF020EE1260C0EDF6EDF5000086CE2D5
:10401000010EDB6A130EF36E010EDBCFF4FFF350DB
:10402000F45C2BE2DF04130DF3CF16F0F4CF17F09E
:10403000000E1626010E1722010EDB500F0116246A
:10404000E96E000E1720EA6EEF50E66EDF50130D9A
:10405000F3CF14F0F4CF15F0000E1426010E152244
:10406000010EDB501424E96E000E1520EA6EE552B5
:10407000E750EF6E010EDB2ACDD7010EDB6A070E8B
:10408000F36E010EDBCFF4FFF350F45C2BE2DF04A0
:10409000070DF3CF16F0F4CF17F0000E16260F0E13
:1040A0001722010EDB500F011624E96E000E1720B7
:1040B000EA6EEF50E66EDF50070DF3CF14F0F4CF49
:1040C00015F0000E14260F0E1522010EDB501424DD
:1040D000E96E000E1520EA6EE552E750EF6E010E14
:1040E000DB2ACDD7DF0691D70F01006B020EE15C12
:1040F00002E2E16AE552E16EE552E7CFD9FF120034
:104100000C0EE66E85EC26F0E552B8C0E6FF85ECB5
:1041100026F0E552B9C0E6FF85EC26F0E552BAC0BC
:10412000E6FF85EC26F0E552BBC0E6FF85EC26F005
:10413000E55292EC26F000091BE192EC26F000011A
:10414000B86F92EC26F00001B96F92EC26F00001F6
:10415000BA6F92EC26F00001BB6F92EC26F00001E2
:10416000CC6F92EC26F00001CD6F0001F18111D0EF
:104170000001B46B060EE76EB419E8AE02D0E73466
:1041800002D0E750B45D05E292EC26F00001B42BBA
:10419000F1D71200D9CFE6FFE1CFD9FF070EE12614
:1041A0000001F0A535D0F095EF93EF95EF97EF99DB
:1041B000EF9BEF9DEF9FF091F093830EE66E85EC01
:1041C00026F0E55292EC26F092EC26F092EC26F0E6
:1041D00092EC26F092EC26F092EC26F092EC26F08F
:1041E0000001B86F92EC26F00001B96F92EC26F056
:1041F0000001BA6F92EC26F00001BB6F92EC26F042
:104200000001CC6F92EC26F00001CD6F0001F1812E
:10421000F1A1FDD1F191DCEC00F00001030E876FFC
:104220000C0E886FE66AE66A0201750E846F680EEE
:10423000856F000E866FF7EC01F0E552E552000144
:10424000F251F195010B01E0F185F29197EC26F026
:104250000001CB6B0C0EE66E85EC26F0E552B8C083
:10426000E6FF85EC26F0E552B9C0E6FF85EC26F0C6
:10427000E552BAC0E6FF85EC26F0E552BBC0E6FF8A
:1042800085EC26F0E55292EC26F0DF6E0001B46B6F
:10429000060EE76EB419E8AE02D0E73402D0E7505C
:1042A000B45D19E292EC26F0E66ED950010F146E5F
:1042B000DACF15F0B4C016F0176A16BE176814509E
:1042C0001624E96E15501720EA6EE552E750EF6E9E
:1042D0000001B42BDDD7DF040FE10201000EB66F41
:1042E000690EB76F000EB86F0201BC0EB46F000EFE
:1042F000B56F97EC27F0BBD00A0EE66E85EC26F082
:10430000E552010EDBCFE6FF85EC26F0E552020E0A
:10431000DBCFE6FF85EC26F0E552030EDBCFE6FFB0
:1043200085EC26F0E552040EDBCFE6FF85EC26F0A7
:10433000E552050EDBCFE6FF85EC26F0E552060ED2
:10434000DBCFE6FF85EC26F0E55292EC26F000018B
:10435000B46B0F0EE76EB419E8AE02D0E73402D0AA
:10436000E750B45D12E292EC26F0E66EB4C0E9FFCD
:10437000EA6AE9BEEA68BC0EE926000EEA22E552C6
:10438000E750EF6E0001B42BE4D7B46B320EE76E4A
:10439000B419E8AE02D0E73402D0E750B45D05E2CC
:1043A00092EC26F00001B42BF1D7BC5160E1050E70
:1043B000E66E85EC26F0E552010EDBCFE6FF85ECDC
:1043C00026F0E552020EDBCFE6FF85EC26F0E55243
:1043D000030EDBCFE6FF85EC26F0E552040EDBCFC3
:1043E000E6FF85EC26F0E552050EDBCFE6FF85EC17
:1043F00026F0E552060EDBCFE6FF85EC26F0E5520F
:1044000092EC26F00001B46B080EE76EB419E8AE2A
:1044100002D0E73402D0E750B45D12E292EC26F00D
:10442000E66EB4C0E9FFEA6AE9BEEA68BC0EE926B6
:10443000000EEA22E552E750EF6E0001B42BE4D7FC
:10444000200EC46F92EC26F00001C56F92EC26F0AE
:104450000001C66F92EC26F00001C76FC86B92ECAA
:1044600026F092EC26F092EC26F092EC26F0000179
:10447000876B886BE66AE66AE66A0201720E9C6FD9
:10448000680E9D6F000E9E6F7AEC03F0E552E552C8
:10449000E5520001120E886FE66AE66AE66ABC0E13
:1044A000E66E000EE66E33EC03F0146E050EE15E70
:1044B00014500001070E876F886B02015B0EB66F08
:1044C000680EB76F000EB86F02018A0EB46F000E4F
:1044D000B56F97EC27F0E66A010EE66E8A0EE66E7F
:1044E000000EE66EB4EC01F0E552E552E552E552FD
:1044F0000001B76BB7C0B6F0B46B0D0EE76EB41920
:10450000E8AE02D0E73402D0E750B45D15E2B4C0A3
:10451000E9FFEA6AE9BEEA68070EEA02F3CFEAFFBA
:10452000E902F3CFE9FFF450EA26000EE9260F0E68
:10453000EA22EF6AB42BE1D7CDC0E6FFCCC0E6FF9C
:10454000E66A1AEC1DF0E552E552E55201081DE15C
:104550000001010EB46F0D0EE76EB419E8AE02D083
:10456000E73402D0E750B45D0FE2010EE66EE66A72
:10457000B4C0E6FF61EC1AF0E552E552E5520108DD
:1045800003E10001B42BE7D727D0E66A010EE66EFF
:10459000E66A61EC1AF0E552E552E55201081CE1C9
:1045A0000001010EB46F0D0EE76EB419E8AE02D033
:1045B000E73402D0E750B45D0FE2010EE66EE66A22
:1045C000B4C0E6FF61EC1AF0E552E552E55201088D
:1045D00003E10001B42BE7D70001030E876F0C0E37
:1045E000886FE66AE66A0201480E846F680E856F7E
:1045F000000E866FF7EC01F0E552E5520001F15133
:10460000F291040B01E0F28192DB0001F183F1A34E
:10461000E0D0F193B6C0B4F00001020E876F070E30
:10462000875D01E3D6D0B4C0E9FFEA6AE9BEEA6873
:10463000070EEA02F3CFEAFFE902F3CFE9FFF450F5
:10464000EA26000EE9260F0EEA22EF5001E1BFD064
:10465000886BB751B45D5FE1B4C0E9FFEA6AE9BEB7
:10466000EA68070EEA02F3CFEAFFE902F3CFE9FFB7
:10467000F450EA26000EE9260F0EEA22EF040FE1BD
:10468000010EE66EE66E0201450E846F680E856FC0
:10469000000E866FF7EC01F0E552E5520ED0010EE8
:1046A000E66EE66E0201420E846F680E856F000EA4
:1046B000866FF7EC01F0E552E552010EE66EE66E0C
:1046C000B4C014F0156A14BE1568130E1502F3CFAA
:1046D00015F01402F3CF14F0F4501526000E142632
:1046E000010E152214C0E6FF15C0E6FFB4EC01F080
:1046F000E552E552E552E552010EE66EE66E020124
:10470000400E846F680E856F000E866FF7EC01F027
:10471000E552E5525AD0B4C0E9FFEA6AE9BEEA6858
:10472000070EEA02F3CFEAFFE902F3CFE9FFF45004
:10473000EA26000EE9260F0EEA22EF040EE1E66AF1
:10474000E66A02013D0E846F680E856F000E866F6B
:10475000F7EC01F0E552E5520DD0E66AE66A020197
:104760003A0E846F680E856F000E866FF7EC01F0CD
:10477000E552E552E66AE66AB4C014F0156A14BE62
:104780001568130E1502F3CF15F01402F3CF14F0D1
:10479000F4501526000E1426010E152214C0E6FF53
:1047A00015C0E6FFB4EC01F0E552E552E552E552E2
:1047B000E66AE66A0201D50E846F690E856F000E07
:1047C000866FF7EC01F0E552E5520001B42B872B20
:1047D00026D70001EFAF06D0EF9FF085F1870001EB
:1047E000010E896F81AC37D00001EF99190EF46F7B
:1047F000F09B0C0E0001B75D18E2B72BB751070D07
:10480000F3CFE9FFF4CFEAFF000EE9260F0EEA220C
:10481000EF5002E1B70708D00001F1830001B65163
:10482000B75D040801E2B62B13D07BEC1FF0010E3C
:10483000E66EE66A0C0EE66E61EC1AF0E552E552A1
:10484000E552010803E00001B607B7070001F18354
:104850000001F0ABFDD781AE35D00001EF97190E06
:10486000F46FF09B0001B751000818E2B707B75189
:10487000070DF3CFE9FFF4CFEAFF000EE9260F0E94
:10488000EA22EF5002E1B72B08D00001F1830001CA
:10489000B751D880B65501E2B60711D0FDEC1FF034
:1048A000E66AE66AE66A61EC1AF0E552E552E5521C
:1048B000010803E00001B62BB72B0001F1830001D2
:1048C000F0ABFDD70001F0A3C4D0F0930001B751C5
:1048D000070DF3CFE9FFF4CFEAFF000EE9260F0E34
:1048E000EA22EF0475E1B851B911DF6EDF50BA1159
:1048F000DF6EDF50BB11DF6EDF5023E0B751070DD5
:10490000F3CFE9FFF4CFEAFF000EE9260F0EEA220B
:10491000050EE926000EEA22EF0413E1B751070D58
:10492000F3CFE9FFF4CFEAFF000EE9260F0EEA22EB
:10493000060EE926000EEA22EF5003E180EC20F09B
:1049400046D00001F1810001B751070DF3CFE9FF17
:10495000F4CFEAFF000EE9260F0EEA22010EE92647
:10496000000EEA22EFCFB8F0B751070DF3CFE9FF01
:10497000F4CFEAFF000EE9260F0EEA22020EE92626
:10498000000EEA22EFCFB9F0B751070DF3CFE9FFE0
:10499000F4CFEAFF000EE9260F0EEA22030EE92605
:1049A000000EEA22EFCFBAF0B751070DF3CFE9FFBF
:1049B000F4CFEAFF000EE9260F0EEA22040EE926E4
:1049C000000EEA22EFCFBBF0010ECC6FCD6B41D0D1
:1049D000800EE66E9AD9E552B8C0E6FF96D9E55248
:1049E000B9C0E6FF92D9E552BAC0E6FF8ED9E552CA
:1049F000BBC0E6FF8AD9E5520001B751070DF3CFDE
:104A0000E9FFF4CFEAFF000EE9260F0EEA22050EB9
:104A1000E926000EEA22EF50E66E77D9E552000152
:104A2000B751070DF3CFE9FFF4CFEAFF000EE926F7
:104A30000F0EEA22060EE926000EEA22EF50E66E7D
:104A400064D9E5526FD90001F085F09F0001100E86
:104A5000896F0001EFAB07D0EF9BF0850001100ECE
:104A6000896F0001EE6BEFAD03D0EF9D80EC20F07D
:104A7000070EE15C02E2E16AE552E16EE552E7CF42
:104A8000D9FF1200DACFE4FFE2CFDAFFE9CFE4FF8B
:104A9000EACFE4FFF6CFE4FFF7CFE4FFF8CFE4FF7F
:104AA000F5CFE4FFF3CFE4FFF4CFE4FFFACFE4FF68
:104AB000FBCFE4FF00EE00F0140EE80403E3EECFBA
:104AC000E4FFFBD700EE14F0060EE80403E3EECF9C
:104AD000E4FFFBD7E652F2A4C7D0670ED66E9E0E57
:104AE000D76EF2940001EF810001CE51010B05E178
:104AF0008450020B02E00001EF830001CE51020B53
:104B000005E18450010B02E00001EF850001CE5168
:104B1000040B05E18150800B02E00001EF870001EA
:104B2000CE51080B05E18150400B02E00001EF89F6
:104B30000001CE51100B05E18150200B02E0000175
:104B4000EF8B0001CE51200B05E18150100B02E0EC
:104B50000001EF8D0001CE51400B05E18150080BA3
:104B600002E00001EF8F0001CE51800B05E1815082
:104B7000040B02E00001F0810001CF51010B05E1BF
:104B80008150020B02E00001F0830001CE918450BD
:104B9000020B01E0CE81CE938450010B01E0CE8365
:104BA000CE958150800B01E0CE85CE978150400B91
:104BB00001E0CE87CE998150200B01E0CE89CE9BBB
:104BC0008150100B01E0CE8BCE9D8150080B01E08F
:104BD000CE8DCE9F8150040B01E0CE8FCF918150BE
:104BE000020B01E0CF818450020B18E18450010BCD
:104BF00015E18150800B12E18150400B0FE1815093
:104C0000200B0CE18150100B09E18150080B06E1EB
:104C10008150040B03E18150020B01E04DD80001EB
:104C2000F45105E1F5C0F4F0F08BF07D01D0F4070C
:104C3000EC51ED1113E1020ED880E855000EE95554
:104C400003E2E807000EE95B020ED880E455000E8F
:104C5000E55503E2E407000EE55B06D0050EEB5DCB
:104C600003E0EC07000EED5BE55200EE19F0060ED6
:104C7000E80403E3E5CFEDFFFBD700EE13F0140EDD
:104C8000E80403E3E5CFEDFFFBD7E5CFFBFFE5CF7E
:104C9000FAFFE5CFF4FFE5CFF3FFE5CFF5FFE5CF72
:104CA000F8FFE5CFF7FFE5CFF6FFE5CFEAFFE5CF69
:104CB000E9FFE5CFDAFF11000001E80EEC6F030E0B
:104CC000ED6FEB0504E1D00EEC6F070EED6F020EF9
:104CD000EB5D04E1700EEC6F170EED6F030EEB5DF4
:104CE00004E1E00EEC6F2E0EED6F040EEB5D04E1BF
:104CF000600EEC6FEA0EED6FE6C0E8F0E7C0E9F099
:104D0000E2C0E4F0E3C0E5F01200D9CFE6FFE1CF66
:104D1000D9FFACA2FED7FE0EDB50AD6EE552E7CF59
:104D2000D9FF12009EAAFED7AE5000D01200840E0A
:104D3000E66EEBDFE552F2C0E6FFE7DFE552F3C0D7
:104D4000E6FFE3DFE55292EF26F0810EE66EDDDF4F
:104D5000E552E8DF0001F26FE5DF0001F36FE2DF0B
:104D60000001826FDFDF0001836F0001F2A703D033
:104D7000030EE16F10D0F2A908D0F2AB03D0040EFD
:104D8000E16F02D0020EE16F06D0F2AD02D0E16B0E
:104D900002D0010EE16F1200D9CFE6FFE1CFD9FFBB
:104DA000020EE126F90E946E806A896A0F0EC16EBA
:104DB000070EB46EB56A926A836A8C6A956AE66A6F
:104DC000D1D8E5520001E06FE0510C0801E2E06B40
:104DD000010EE66EC7D8E5520001EA6FEA510508F8
:104DE00002E2010EEA6F020EE66EBCD8E552000147
:104DF000EB6FEB51050802E2050EEB6F040EE66E59
:104E0000B1D8E552DE6EDD6ADECF14F0DDCF15F0ED
:104E100014C015F0146A14C0E6FF15C0E6FF030EB7
:104E2000E66EA0D8E552E552E7CF15F0E552E7CFA0
:104E300014F000011410E26F15C0E3F0FF0ED880EB
:104E4000E255030EE35503E2400EE26FE36B060EFC
:104E5000E66E88D8E552DE6EDD6ADECF14F0DDCF77
:104E600015F014C015F0146A14C0E6FF15C0E6FF73
:104E7000050EE66E77D8E552E552E7CF15F0E5521C
:104E8000E7CF14F000011410E66F15C0E7F0FF0E35
:104E9000D880E655030EE75503E2E66B020EE76F96
:104EA0000A0EE66E77EC37F0E5520A0EE66E8DECF0
:104EB00037F0E552FE0EE66E45EC37F0E552E6C0FF
:104EC000E8F0E7C0E9F0E2C0E4F0E3C0E5F0E4C0F8
:104ED000E6FFE5C0E6FFADEC36F0E552E552E8C08E
:104EE000E6FFE9C0E6FFDCEC36F0E552E552400EA5
:104EF000E66EE66A3C0EE66E70EC36F0E552E55280
:104F0000E5529F0EE66E29EC37F0E552F28E000175
:104F1000EF6BF06B0001CE6BCF6B020EE15C02E237
:104F2000E16AE552E16EE552E7CFD9FF12000201D6
:104F3000B6C2F6FFB62BB7C2F7FF000EB723B8C252
:104F4000F8FFB8230800F550E66EB4C2E9FFB5C219
:104F5000EAFFB42B000EB523E552E750EF6E01E0F7
:104F6000E6D71200D9CFE6FFE1CFD9FFAA6AFE0E3D
:104F7000DB50A96EA69EA69CA680A85000D0E55244
:104F8000E7CFD9FF1200D9CFE6FFE1CFD9FFAA6A58
:104F9000FE0EDB50A96EFD0EDB50A86EA69EA69CF1
:104FA000A684F29E550EA76EAA0EA76EA682F28E5A
:104FB000A694A6B2FED7E552E7CFD9FF1200D9CF0B
:104FC000E6FFE1CFD9FFE652E66ACCDFE552000109
:104FD000E05D06E0E0C0E6FFE66AD5DFE552E552B7
:104FE000010EE66EBFDFE5520001EA5D07E0EAC0B0
:104FF000E6FF010EE66EC7DFE552E552020EE66EF1
:10500000B1DFE5520001EB5D07E0EBC0E6FF020E09
:10501000E66EB9DFE552E552E2C0DFFF030EE66E51
:10502000A1DFE552146EDF50145C07E0DFCFE6FF2E
:10503000030EE66EA8DFE552E552E3C014F0156AF0
:105040001450DF6E040EE66E8DDFE552146EDF50F5
:10505000145C07E0DFCFE6FF040EE66E94DFE55256
:10506000E552E6C0DFFF050EE66E7CDFE552146E0A
:10507000DF50145C07E0DFCFE6FF050EE66E83DF4E
:10508000E552E552E7C014F0156A1450DF6E060EC3
:10509000E66E68DFE552146EDF50145C07E0DFCF88
:1050A000E6FF060EE66E6FDFE552E552E552E55289
:1050B000E7CFD9FF120070DEE3EC00F00001C00E74
:1050C000816F826B836B896B0001F085E4C0E6FF22
:1050D000E5C0E6FFADEC36F0E552E552E8C0E6FF8C
:1050E000E9C0E6FFDCEC36F0E552E5520001F0A93C
:1050F00062D02BDE8450020B0DE08450010B0AE0DD
:105100000001F389F08713DE280EE66E60EC37F0BD
:10511000E55251D00001F351100B09E08450020B0D
:1051200003E18450010B03E0F087F39900DE845023
:10513000020B1FE000018151FB081BE3040E8125D7
:10514000816F820EE66EE1DDE55200018129E86C97
:10515000B46FB4C0E6FFD9DDE552B4C0E6FFD5DDDB
:10516000E5520001F087140EE66E60EC37F0E55270
:10517000D9DD8450010B1FE0040E0001815D1BE3AB
:10518000040E815D816F820EE66EBFDDE552000187
:105190008129E86CB46FB4C0E6FFB7DDE552B4C056
:1051A000E6FFB3DDE5520001F087140EE66E60EC19
:1051B00037F0E552B7DD0001895102E184EC0EF0D1
:1051C0000001890502E1A3EC0FF0100E0001895DDA
:1051D00005E3200E895D02E2B3EC12F0200E00011F
:1051E000895D05E3300E895D02E2CAEC20F0300EE5
:1051F0000001895D05E3400E895D02E2BEEC04F02A
:10520000400E0001895D05E3500E895D02E236EC37
:105210000BF0500E0001895D05E3600E895D02E22E
:10522000BFEC07F0600E0001895D05E3FF0E895DAC
:0A52300002E2B0EC06F04AD71200CB
:06523A000000000000006E
:105240000000FE0101010000FF0000000101FE005E
:105250000000000003040404040403000000FFC76E
:105260008301010101010183C7FF7C0010387C002C
:10527000007C38100000007C007C0000007C7C7CFE
:105280007C007C3810007C007C38107C3810C0FC1E
:1052900004C8F8007C4C4C487800FEFEFEFEFEFE82
:1052A000FFFF010000000001FFFF010000010000FE
:1052B000FFFF0404040404047C4444447C007C5C3C
:1052C000745C7C06182424742408FC8C8C8888F078
:1052D00010101054381018180018180018187E3CB8
:1052E0001800FE20D8FE8870F8483090A848FE20AC
:1052F000D800FE10FE00C8A89800000000000000C2
:1053000000009E00000000060006000028FE28FEA7
:1053100028004854FE542400462610C8C4006C924D
:10532000AA44A000000006000000003844820000EB
:1053300000824438000024187E18240010107C10CD
:10534000100000804000000010101010100000C07D
:10535000C00000004020100804007CA2928A7C005B
:105360000084FE80000084C2A2928C00448292924B
:105370006C00302824FE20004E8A8A8A72007C92BB
:10538000929260000602E2120E006C9292926C0001
:105390000C9292927C00000088000000008048007F
:1053A00000001028448200000028282800008244C1
:1053B000281000000402A2120C006492F282FC0089
:1053C000F8141214F800FE9292926C007C82828291
:1053D0004400FE8282443800FE9292928200FE12C5
:1053E000121202007C8282927400FE101010FE00E5
:1053F0000082FE8200004080827E0200FE1028446F
:105400008200FE8080808000FE040804FE00FE080A
:105410001020FE007C8282827C00FE1212120C00A0
:105420007C82A242BC00FE1232528C008C9292927C
:1054300062000202FE0202007E8080807E003E400A
:1054400080403E007E8060807E00C6281028C60016
:105450000608F0080600C2A2928A860000FE828238
:105460000000040810204000008282FE00000804B2
:105470000204080080808080800000020400000098
:1054800040A8A8A8F000FE908888700070888888DE
:10549000500070888890FE0070A8A8A8100010FC2A
:1054A0001202040010A8A8A87000FE100808F0005E
:1054B0000088FA8000000040887A0000FE205088B2
:1054C00000000082FE800000F8081008F000F810CC
:1054D0000808F000708888887000F82828281000D4
:1054E00010282828F800F8100808100090A8A8A88C
:1054F0004800087E8880400078808040F80038406E
:1055000080403800788040807800885020508800A3
:1055100098A0A0A0780088C8A898880000106C8285
:1055200000000000FE00000000826C100000040279
:105530000402000038403800304830007840400015
:10554000000000000000008040000000000000009B
:10555000000000000000000000000000000000004B
:10556000000000000000000000000000000000003B
:1055700000000000000090AAACAA48000000000053
:105580000000000000000000080AFC0A0800889AD9
:10559000ACCA88000000000000000000000000000D
:1055A00000000000000000000000000000000000FB
:1055B00000000000000000000000000000000000EB
:1055C00000000000000000000000000000000000DB
:1055D00000000000000090AAACAA480000000000F3
:1055E0000000000000000000087E8880460088CA95
:1055F000AC9A8800000000000000000000000000DD
:10560000000000000000000000000000000000009A
:10561000000000000000000000000000000000008A
:1056200000000000009CAA720000000000000000C2
:10563000000000000000000000000000000000006A
:10564000000000000000000000000000000000005A
:10565000000000000000000000000000000000004A
:10566000000000000000000000000000000000003A
:10567000000000000000000000000000000000002A
:10568000000000000000000000000000000000001A
:10569000000000000000000000000000000000000A
:1056A00000000000000000000000000000000000FA
:1056B00000000000000000000000000000000000EA
:1056C000F0282C2AF000000000000000000000007C
:1056D00000000000000000000000000000000000CA
:1056E00000000000000000000000708A8C8A50005A
:1056F00000000000000000000000000000000000AA
:105700000000F8AAACAA88000088FC8A000000000B
:1057100000000000F88A8C8A700000000000000081
:10572000000000000000F8122442F80070888C8A03
:1057300070000000000000000000000000000000F9
:1057400000000000F82A6CAA100078848A8478008F
:1057500078808482780000000000000000000000D3
:1057600000000810E4120800000000000000000023
:105770000000000000000000000000000000000029
:1057800040A8ACAAF00000000000000000000000EB
:105790000000000000000000000000000000000009
:1057A00000000000000000000000708A8C8A500099
:1057B00070A8ACAA1000000000000000000000006B
:1057C000000070AAACAA10000088FC820000000053
:1057D00000000000609090FC080400000000000041
:1057E000000000000000F8120C0AF00070888C8A9B
:1057F0007000000000000000000000000000000039
:1058000000000000000000000000F8100A0C120068
:1058100078828542F80078808442F8000000000019
:10582000000000000000000018A0A4A27800000002
:10583000000000000000000000007C3A0606063A66
:105840007C001F2E3030302E1F0000000000003C76
:105850007E0000000000001E3F000082868686BA9F
:105860007C001F2E3131312000000082868686BAEE
:105870007C0000203131312E1F003E5CC0C0C05C76
:10588000BE0000000000000F1F007CBA86868682E2
:10589000000000203131312E1F007CBA86868682BE
:1058A00000001F2E3131312E1F0000020606063A7D
:1058B0007C0000000000000E1F007CBA868686BABD
:1058C0007C001F2E3131312E1F007CBA868686BAAD
:1058D0007C0000203131312E1F000000006060008C
:1058E00000000000000C0C00000000C0C0C0C0C0E0
:1058F000C0000000000000000000FC0484442424D8
:1059000028509FE0FB3C08282824981818F808E83D
:1059100018002320203F1E0100008040202020404E
:105920008000030408082A1C0900C0C0C0C0808091
:1059300080003F2020202020203F00000000800029
:105940000000020202020A0702000000000000003C
:1059500000000F0F0F000F0F0F00000000C08000AD
:1059600000000F0F0F3F1F0F0600000000E0E0E0F7
:1059700070B8000020331B0C070BCC76380C0600E7
:1059800000001E3F000000000000000000000000BA
:105990000000000000000000000000000000000007
:1059A00000000000000000000000000000000000F7
:1059B00000000000000000000000000000000000E7
:1059C00000000000000000000000000000000000D7
:1059D00000000000000000000000000000000000C7
:1059E00000000000000000000000000000000000B7
:1059F00000000000000000000000000000000000A7
:105A00000000000000000000000000000000000096
:105A10000000000000000000000000000000000086
:105A20000000000000000000000000000000000076
:105A30000000000000000000000000000000000066
:105A400000000000000000000000000000F0F00076
:105A500000000000001B1B000000007878000078A8
:105A600078000000000000000000008080E080C09E
:105A7000E080041C0F051C0704000060F090FC90FF
:105A8000B00000040C083F080F0760909060000011
:105A90008080020202010D13120C000060F09010D1
:105AA0000000000E1F11131E1C1700000078780064
:105AB000000000000000000000000000E0F80C0002
:105AC00000000000071F300000000000000CF8E09C
:105AD0000000000000301F070000808000C0008030
:105AE00080000407030F03070400000000E0E0004B
