:020000040000FA
:06000000F0EF36F01200E3
:060008005EEF24F012007F
:06002A0001005A6E000007
:08003000E000000016000000D2
:0800380095688088809A0000A1
:1000400000008086020EE66E1AEC37F0E55283500F
:10005000E86E0000000080968098900BE850EDE17B
:10006000956A1200D9CFE6FFE1CFD9FF0001885190
:10007000146E156AD890155004E6800E145C000EBC
:10008000155817E20001882BD7DF808A809800007E
:100090000000FE0EDB50836E010EE66E1AEC37F0A8
:1000A000E5528086020EE66E1AEC37F0E552809635
:1000B0000000E552E7CFD9FF1200D9CFE6FFE1CF2C
:1000C000D9FFBADF809A809800000000FE0EDB5056
:1000D000836E010EE66E1AEC37F0E5528086000062
:1000E000000000000000000080960000E552E7CF0D
:1000F000D9FF1200D9CFE6FFE1CFD9FFE652DF6A80
:10010000000188513F0807E280828094400E000180
:10011000885DDF6E04D08092808488C0DFFF87C056
:10012000E8FFB809E850E66EC8DFE552DF50E86E38
:100130004009E850E66EC1DFE552E552E552E7CFEF
:10014000D9FF1200D9CFE6FFE1CFD9FF020EE12699
:10015000DF6A010EDB6A400EE66EAFDFE552C00ECD
:10016000E66EABDFE552DF6A080EDF5C1BE2DF50B4
:10017000E86EB809E850E66EA0DFE5520001886B32
:10018000010EDB6A400EF36E010EDBCFF4FFF3507D
:10019000F45C06E2E66A66DFE552010EDB2AF2D77E
:1001A000DF2AE2D7020EE15C02E2E16AE552E16E8B
:1001B000E552E7CFD9FF120080928084C3DF8082AE
:1001C0008094A2EF00F08092808480900000000074
:1001D00000000000000080800A0EE66EADEC36F0F4
:1001E000E5522ADF3F0EE66E68DFE552808280949A
:1001F00023DF3F0EE66E61DFE55280928084DCDF14
:100200000001876B0001886B75DF1200D9CFE6FF14
:10021000E1CFD9FF020EE12688C0DFFF0001886B25
:1002200069DF010EDB6A400EF36E010EDBCFF4FFD7
:10023000F350F45C06E2E66A15DFE552010EDB2AB4
:10024000F2D758DF010EDB6A400EF36E010EDBCFF2
:10025000F4FFF350F45C06E2E66A04DFE552010EB7
:10026000DB2AF2D7DFCF88F045DF020EE15C02E245
:10027000E16AE552E16EE552E7CFD9FF1200D9CF2E
:10028000E6FFE1CFD9FF040EE126FE0EDB50E66E5D
:10029000D950010FE96EDACFEAFFE552E750EE6E72
:1002A000ED6A060E086E096A010EDBCF0DF0020E34
:1002B000DBCF0EF040EC36F0DE5206C0DEFF07C0AA
:1002C000DDFFDD52030EDB6A060EF36E030EDBCF9D
:1002D000F4FFF350F45C3EE2400E0001885D01E162
:1002E00009DF640E146E500E156E000E166E010EB0
:1002F000DBCF17F0020EDBCF18F0196A1450172469
:10030000F36E15501820F46E16501920F86EF4CFC5
:10031000F7FFF3CFF6FF0800F550DF6EFC0EDB04AD
:1003200005E1DF50E86E0109E850DF6EFD0EDB04E9
:1003300005E1DF50E86EFF0AE850DF6EDFCFE6FF31
:1003400091DEE552010EDB2A020E01E3DB2A030EE9
:10035000DB2ABAD7040EE15C02E2E16AE552E16E03
:10036000E552E7CFD9FF1200D9CFE6FFE1CFD9FFA1
:10037000030EE126FD0EDBCFE6FFFE0EDBCFE6FF30
:10038000FEEC36F0E552E552F350DF6EB3DE010EBF
:10039000DB6ADF50F36E010EDBCFF4FFF350F45C49
:1003A0001CE2FB0EDBCFE6FFFC0EDBCFE6FF010E0F
:1003B000DB50E76EFD0EDBCFE9FFFE0EDBCFEAFF81
:1003C000E750E926000EEA22EF50E66E58DFE552CC
:1003D000E552E552010EDB2ADCD7030EE15C02E2B6
:1003E000E16AE552E16EE552E7CFD9FF1200D9CFBD
:1003F000E6FFE1CFD9FF030EE126010EDB6A84C2DE
:10040000F6FF85C2F7FF86C2F8FF0800F55021E02D
:1004100084C2F6FF85C2F7FF86C2F8FF0800F550D8
:10042000E66E010EDB50EA6A870FE96E020EEA22E1
:10043000E552E750EF6E020184C2F6FF842B85C2BD
:10044000F7FF000E852386C2F8FF8623010EDB2A04
:10045000D6D7010EDB50EA6A870FE96E020EEA2258
:10046000EF6A870EE66E020EE66EFEEC36F0E5529F
:10047000E552F350DF6E3EDE010EDB6ADF50F36EB5
:10048000010EDBCFF4FFF350F45C16E2FD0EDBCF80
:10049000E6FFFE0EDBCFE6FF010EDB50EA6A870FB8
:1004A000E96E020EEA22EF50E66EE9DEE552E55211
:1004B000E552010EDB2AE2D7030EE15C02E2E16ABB
:1004C000E552E16EE552E7CFD9FF1200D9CFE6FF42
:1004D000E1CFD9FF060EE126040E87C0DBFF050E33
:1004E00088C0DBFFFE0EDB50E66ED950010FE96ECF
:1004F000DACFEAFFE552E750EE6EED6A100E086EB5
:10050000096A010EDBCF0DF0020EDBCF0EF040ECDE
:1005100036F0DE5206C0DEFF07C0DDFFDD52030EFF
:10052000DB6A080EF36E030EDBCFF4FFF350F45CCE
:100530003EE2400E0001885D01E1DCDD640E146ED8
:10054000560E156E000E166E010EDBCF17F0020E62
:10055000DBCF18F0196A14501724F36E15501820C9
:10056000F46E16501920F86EF4CFF7FFF3CFF6FFB4
:100570000800F550DF6EFC0EDB0405E1DF50E86E8D
:100580000109E850DF6EFD0EDB0405E1DF50E86E87
:10059000FF0AE850DF6EDFCFE6FF64DDE552010EB3
:1005A000DB2A020E01E3DB2A030EDB2ABAD7050E93
:1005B000DBCF88F00001872B9DDD030EDB6A080E80
:1005C000F36E030EDBCFF4FFF350F45C3EE2400E1B
:1005D0000001885D01E18EDD640E146E560E156E0D
:1005E000000E166E010EDBCF17F0020EDBCF18F0F7
:1005F000196A14501724F36E15501820F46E165013
:100600001920F86EF4CFF7FFF3CFF6FF0800F5508E
:10061000DF6EFB0EDB0405E1DF50E86E8009E85079
:10062000DF6EFD0EDB0405E1DF50E86EFF0AE850E7
:10063000DF6EDFCFE6FF16DDE552010EDB2A020E8C
:1006400001E3DB2A030EDB2ABAD7040EDBCF87F0E7
:1006500051DD060EE15C02E2E16AE552E16EE5522F
:10066000E7CFD9FF1200D9CFE6FFE1CFD9FF030EC4
:10067000E126FD0EDBCFE6FFFE0EDBCFE6FFFEEC54
:1006800036F0E552E552F350DF6E34DD010EDB6AE1
:10069000DF50F36E010EDBCFF4FFF350F45C20E289
:1006A000FA0EDBCFE6FFFB0EDBCFE6FFFC0EDBCF67
:1006B000E6FF010EDB50E76EFD0EDBCFE9FFFE0E1D
:1006C000DBCFEAFFE750E926000EEA22EF50E66EA4
:1006D000FDDEE552E552E552E552010EDB2AD8D7A0
:1006E000030EE15C02E2E16AE552E16EE552E7CF1A
:1006F000D9FF1200D9CFE6FFE1CFD9FF030EE126E3
:10070000010EDB6A9CC2F6FF9DC2F7FF9EC2F8FF96
:100710000800F55021E09CC2F6FF9DC2F7FF9EC283
:10072000F8FF0800F550E66E010EDB50EA6A9F0FF5
:10073000E96E020EEA22E552E750EF6E02019CC21A
:10074000F6FF9C2B9DC2F7FF000E9D239EC2F8FF73
:100750009E23010EDB2AD6D7010EDB50EA6A9F0FDB
:10076000E96E020EEA22EF6A9F0EE66E020EE66E58
:10077000FEEC36F0E552E552F350DF6EBBDC010EC5
:10078000DB6ADF50F36E010EDBCFF4FFF350F45C55
:100790001AE2FC0EDBCFE6FFFD0EDBCFE6FFFE0E1E
:1007A000DBCFE6FF010EDB50EA6A9F0FE96E020E17
:1007B000EA22EF50E66E8ADEE552E552E552E55256
:1007C000010EDB2ADED7030EE15C02E2E16AE552AC
:1007D000E16EE552E7CFD9FF1200D9CFE6FFE1CFB6
:1007E000D9FF130EE126300EF36E030EF3CFDBFFBD
:1007F000310EF36E040EF3CFDBFF320EF36E050EF7
:10080000F3CFDBFF330EF36E060EF3CFDBFF340EB8
:10081000F36E070EF3CFDBFF350EF36E080EF3CF4A
:10082000DBFF360EF36E090EF3CFDBFF370EF36EF0
:100830000A0EF3CFDBFF380EF36E0B0EF3CFDBFFA8
:10084000390EF36E0C0EF3CFDBFF410EF36E0D0E7F
:10085000F3CFDBFF420EF36E0E0EF3CFDBFF430E42
:10086000F36E0F0EF3CFDBFF440EF36E100EF3CFDB
:10087000DBFF450EF36E110EF3CFDBFF460EF36E7A
:10088000120EF3CFDBFF0201AC0EB66F6A0EB76F2C
:10089000000EB86F02018A0EB46F000EB56FAFEC98
:1008A00026F0FE0EDB50F00BDF6E100EF36E020E24
:1008B000F3CFDBFFDE52010EDD6E100EF36E010E84
:1008C000DBCFF4FFF350F45C1EE2020EDB50DF5C82
:1008D00010E1D950030F146EDACF15F0010EDB5082
:1008E0000F011424E96E000EDA20EA6EEFCF8CF0CF
:1008F0000AD0020EDB50100FE76E020EE7CFDBFFCF
:10090000010EDB2ADAD7FE0EDB500F0BDF6EDE5254
:10091000010EDD6E100EF36E010EDBCFF4FFF3500F
:10092000F45C17E2010EDB50DF5C10E1D950030FDD
:10093000146EDACF15F0010EDB500F011424E96EAE
:10094000000EDA20EA6EEFCF8DF003D0010EDB2A25
:10095000E1D7E66AE66A8A0EE66E000EE66E04DD10
:10096000E552E552E552E552130EE15C02E2E16A1E
:10097000E552E16EE552E7CFD9FF1200D9CFE6FF8D
:10098000E1CFD9FFE6520001F0A5B0D015DC00019F
:10099000EE51030801E2EE6BF095010EDF6EEF936E
:1009A000EF95EF97EF99EF9BEF9DEF9FF091F0930D
:1009B0000001876F060E875D1EE2040E886F02013C
:1009C000970EB66F6A0EB76F000EB86F02018A0EEF
:1009D000B46F000EB56FAFEC26F0E66AE66A8A0ED9
:1009E000E66E000EE66EC0DCE552E552E552E552D9
:1009F0000001872BDFD7060E876F040E886F020178
:100A0000820EB66F6A0EB76F000EB86F02018A0EC3
:100A1000B46F000EB56FAFEC26F0E66AE66A8A0E98
:100A2000E66E000EE66EA0DCE552E552E552E552B8
:100A30000001876B040E886F7AEC00F0E66AE66AC4
:100A4000010EE66E1CDCE552E552E5520201740E21
:100A5000B66F6A0EB76F000EB86F02018A0EB46FE0
:100A6000000EB56FAFEC26F0E66A010EE66EE66AA0
:100A70008A0EE66E000EE66EF6DD146E050EE15E81
:100A800014500001700E886F7AEC00F0010EE66ED3
:100A9000E66AE66A3FEC01F0E552E552E552E66AA5
:100AA000E66A030EE66E3FEC01F0E552E552E552D0
:100AB0000001070E876F886B02015C0EB66F6A0E2D
:100AC000B76F000EB86F02018A0EB46F000EB56FDB
:100AD000AFEC26F0E66A010EE66E8A0EE66E000EB8
:100AE000E66E42DCE552E552E552E5520001EFA721
:100AF00006D0EF97EE5103E0EE07010EDF6EEFA98F
:100B000007D0EF99030EEE5D03E0EE2B010EDF6ED2
:100B1000F0A31BD0F093F085EE5103E10001200E0D
:100B2000896F0001EE0503E10001400E896F020E9E
:100B30000001EE5D03E10001500E896F030E00011C
:100B4000EE5D03E10001600E896F0001EFAB05D09F
:100B5000EF9BF0850001100E896FDF0401E0D2D019
:100B60000001020E876F0A0E886F0001EE5112E13C
:100B70000201470EB66F6A0EB76F000EB86F020122
:100B80008A0EB46F000EB56FAFEC26F0010EE66E64
:100B9000E66E10D00201320EB66F6A0EB76F000E0D
:100BA000B86F02018A0EB46F000EB56FAFEC26F07D
:100BB000E66AE66A8A0EE66E000EE66EB4EC01F0B6
:100BC000E552E552E552E5520001030E876F0A0E29
:100BD000886F0001EE0512E102011A0EB66F6A0E6F
:100BE000B76F000EB86F02018A0EB46F000EB56FBA
:100BF000AFEC26F0010EE66EE66E10D00201020E9A
:100C0000B66F6A0EB76F000EB86F02018A0EB46F2E
:100C1000000EB56FAFEC26F0E66AE66A8A0EE66E65
:100C2000000EE66EB4EC01F0E552E552E552E552F5
:100C30000001040E876F0A0E886F020E0001EE5D40
:100C400012E10201EE0EB66F690EB76F000EB86FBB
:100C500002018A0EB46F000EB56FAFEC26F0010EE4
:100C6000E66EE66E10D00201DA0EB66F690EB76F4F
:100C7000000EB86F02018A0EB46F000EB56FAFECB4
:100C800026F0E66AE66A8A0EE66E000EE66EB4ECC0
:100C900001F0E552E552E552E5520001050E876F7D
:100CA0000A0E886F030E0001EE5D12E10201C70E0D
:100CB000B66F690EB76F000EB86F02018A0EB46F7F
:100CC000000EB56FAFEC26F0010EE66EE66E10D0AA
:100CD0000201B40EB66F690EB76F000EB86F020155
:100CE0008A0EB46F000EB56FAFEC26F0E66AE66AC6
:100CF0008A0EE66E000EE66EB4EC01F0E552E552A7
:100D0000E552E552DF6AE552E552E7CFD9FF12001E
:100D10000001F0A5A1D0F095DCEC00F00001EF930C
:100D2000EF95EF97EF99EF9BEF9DEF9FF091F09389
:100D30000001010E876F200E886F0201AB0EB66FA7
:100D4000690EB76F000EB86F02018A0EB46F000E05
:100D5000B56FAFEC26F0E66AE66AE66A8A0EE66EE2
:100D6000000EE66E80DC146E050EE15E145000018C
:100D7000040E876F140E886F02019B0EB66F690E0A
:100D8000B76F000EB86F02018A0EB46F000EB56F18
:100D9000AFEC26F0E66AE66A8A0EE66E000EE66EB4
:100DA000B4EC01F0E552E552E552E5520001050EC2
:100DB000876F030E886F0201850EB66F690EB76FDD
:100DC000000EB86F02018A0EB46F000EB56FAFEC63
:100DD00026F0E66AE66A8A0EE66E000EE66EB4EC6F
:100DE00001F0E552E552E552E5520001060E876F2B
:100DF000030E886F02016B0EB66F690EB76F000E9F
:100E0000B86F02018A0EB46F000EB56FAFEC26F01A
:100E1000E66AE66A8A0EE66E000EE66EB4EC01F053
:100E2000E552E552E552E5520001F251F195010B10
:100E300001E0F185F291B2EC25F00D0EE66EA1EC29
:100E400025F0E552E66AA1EC25F0E552E66AA1EC50
:100E500025F0E552AEEC25F00001010ED880E855F2
:100E6000000EE95504E2E807000EE95B02D0E86BEA
:100E7000E96B010ED880E455000EE55504E2E40765
:100E8000000EE55B02D0E46BE56B320EE66EADEC76
:100E900036F0E5520001EF51020B18E1EF51040B5F
:100EA00015E1EF51080B12E1EF51100B0FE1EF517B
:100EB000200B0CE1EF51400B09E1EF51800B06E1F3
:100EC000F051010B03E1F051020B30E0EF93EF958D
:100ED000EF97EF99EF9BEF9DEF9FF091F093E6C0B6
:100EE000E8F0E7C0E9F0E2C0E4F0E3C0E5F0E2C01A
:100EF000E6FFE3C0E6FFE2EC35F0E552E552E8C07C
:100F0000E6FFE9C0E6FF11EC36F0E552E5520001DC
:100F1000F151F291040B01E0F281B2EC25F00001F5
:100F2000030EEE6FF0850001100E896F1200D9CF0D
:100F3000E6FFE1CFD9FFE6520001F0A54ED0DCEC90
:100F400000F00001EE6BF095010EDF6EEF93EF9570
:100F5000EF97EF99EF9BEF9DEF9FF091F0930001DA
:100F6000876B080E886F02015F0EB66F690EB76F50
:100F7000000EB86F02018A0EB46F000EB56FAFECB1
:100F800026F0E66AE66AE66A8A0EE66E000EE66E0D
:100F900033EC03F0146E050EE15E14500201470EAF
:100FA000B66F690EB76F000EB86F02018A0EB46F8C
:100FB000000EB56FAFEC26F00001070E876F886B4F
:100FC000E66A010EE66E8A0EE66E000EE66EB4EC80
:100FD00001F0E552E552E552E5520001EFA706D0D7
:100FE000EF97EE5103E0EE07010EDF6EEFA907D099
:100FF000EF99030EEE5D03E0EE2B010EDF6EF0A322
:101000003DD0F093010EDF6EEE5105E1050EEA5D75
:1010100002E0EA2B8CDA0001EE0512E18150020BAE
:101020000FE0FE0EE25D030EE3590AE2020EE22536
:10103000E26F000EE321E36FE2C0E4F0E56FF083BE
:10104000020EEE5D12E18150020B0FE0FE0EE65D36
:10105000030EE7590AE2020EE625E66F000EE721CD
:10106000E76FE6C0E8F0E96FF083030EEE5D06E19E
:10107000050EEB5D03E0EB2B78EC25F00001F0A111
:101080003BD0F091010EDF6EEE5104E1EA5102E037
:10109000EA074DDA0001EE0512E18150040B0FE082
:1010A000010ED880E255000EE35509E2020EE25F20
:1010B000000EE35BE2C0E4F0E3C0E5F0F081020E75
:1010C000EE5D12E18150040B0FE0010ED880E65571
:1010D000000EE75509E2020EE65F000EE75BE6C090
:1010E000E8F0E7C0E9F0F081030EEE5D05E1EB51B9
:1010F00003E0EB0778EC25F00001EFAB0AD0EF9BA3
:10110000F0850001300E896F0001020EEE6FF5ECE4
:1011100026F0DF0401E0A3D10201370EB66F690E9D
:10112000B76F000EB86F02018A0EB46F000EB56F74
:10113000AFEC26F002012F0EB66F690EB76F000EEE
:10114000B86F02019F0EB46F000EB56FAFEC26F0C2
:101150000001EA510EE10201270EB66F690EB76F6A
:10116000000EB86F02019F0EB46F000EB56FAFECAA
:1011700026F0020E0001EA5D03E10001350EA36FC7
:10118000030E0001EA5D03E10001330EA26F040EBD
:101190000001EA5D03E10001360EA26F050E0001B9
:1011A000EA5D0EE102011F0EB66F690EB76F000E09
:1011B000B86F02019F0EB46F000EB56FAFEC26F052
:1011C0000001020E876F886F0001EE5117E10001E8
:1011D000060E8A6F010EE66EE66E8A0EE66E000E51
:1011E000E66EB4EC01F0E552E552E552E55200013D
:1011F000070EA56F010EE66EE66E0ED0E66AE66A91
:101200008A0EE66E000EE66EB4EC01F0E552E55291
:10121000E552E552E66AE66A9F0EE66E000EE66E5D
:10122000B4EC01F0E552E552E552E5520001030E3F
:10123000876F020E886F0201070EB66F690EB76FD7
:10124000000EB86F02018A0EB46F000EB56FAFECDE
:1012500026F00001EE0516E10001060E8A6F070E6A
:101260009E6F010EE66EE66E8A0EE66E000EE66E6C
:10127000B4EC01F0E552E552E552E552010EE66E9E
:10128000E66E0ED0E66AE66A8A0EE66E000EE66E3E
:10129000B4EC01F0E552E552E552E552E66AE66A41
:1012A000E2C0E6FFE3C0E6FFE0D8E552E552E552D2
:1012B000E5520001040E876F020E886F0201EF0EE7
:1012C000B66F680EB76F000EB86F02018A0EB46F6A
:1012D000000EB56FAFEC26F0020E0001EE5D16E1D8
:1012E0000001060E8A6F070E9E6F010EE66EE66E17
:1012F0008A0EE66E000EE66EB4EC01F0E552E552A1
:10130000E552E552010EE66EE66E0ED0E66AE66A3A
:101310008A0EE66E000EE66EB4EC01F0E552E55280
:10132000E552E552E66AE66AE6C0E6FFE7C0E6FF98
:101330009CD8E552E552E552E5520201E00EB66F47
:10134000680EB76F000EB86F02018A0EB46F000E00
:10135000B56FAFEC26F00201D80EB66F680EB76F0E
:10136000000EB86F02019F0EB46F000EB56FAFECA8
:1013700026F00001EB510EE10201D00EB66F680EAF
:10138000B76F000EB86F02019F0EB46F000EB56FFD
:10139000AFEC26F0020E0001EB5D03E10001330E1D
:1013A000A26F030E0001EB5D05E100014D0EA36F7E
:1013B000200EA46F040E0001EB5D07E10001350E65
:1013C000A26F4D0EA36F200EA46F050E0001EB5D02
:1013D0000EE102011F0EB66F690EB76F000EB86FF7
:1013E00002019F0EB46F000EB56FAFEC26F0000146
:1013F000050E876F020E886F030E0001EE5D17E188
:101400000001060E8A6F010EE66EE66E8A0EE66E2B
:10141000000EE66EB4EC01F0E552E552E552E552FD
:101420000001070EA56F010EE66EE66E0ED0E66AAD
:10143000E66A8A0EE66E000EE66EB4EC01F0E55246
:10144000E552E552E552E66AE66A9F0EE66E000E48
:10145000E66EB4EC01F0E552E552E552E552DF6A82
:10146000E552E552E7CFD9FF1200D9CFE6FFE1CF31
:10147000D9FF020EE1260001640E886F7AEC00F0BD
:10148000010EDB6A140EF36E010EDBCFF4FFF35096
:10149000F45C43E2010EDB5004E0010EDB50130864
:1014A00003E17C0EDF6E21D0D950FD0FE96EFF0EF7
:1014B000DA20EA6E380ED880EE54000EED5413E2B6
:1014C0007C0EDF6EFD0EDBCF14F0FE0EDBCF15F0D1
:1014D000380E145E000E155AFD0E14C0DBFFFE0E12
:1014E00015C0DBFF02D0440EDF6EFB0EDB0405E10E
:1014F000DF50E86E0109E850DF6EFC0EDB0405E109
:10150000DF50E86EFF0AE850DF6EDFCFE6FF32EC17
:1015100000F0E552010EDB2AB5D7020EE15C02E2D3
:10152000E16AE552E16EE552E7CFD9FF1200D9CF6B
:10153000E6FFE1CFD9FF020EE1260D0EE66EA1EC2B
:1015400025F0E5520001EA5105E10B0EDF6EDE5297
:10155000B80EDD6EEA0505E1170EDF6EDE52700E85
:10156000DD6E020EEA5D05E1230EDF6EDE52280E0F
:10157000DD6E030EEA5D05E1460EDF6EDE52500EB3
:10158000DD6E040EEA5D05E18C0EDF6EDE52A00E0C
:10159000DD6E050EEA5D03E1DF68010EDB68010E1A
:1015A000DBCFE6FFA1EC25F0E552DFCFE6FFA1ECB3
:1015B00025F0E552AEEC25F0020EE15C02E2E16AB4
:1015C000E552E16EE552E7CFD9FF1200D9CFE6FF31
:1015D000E1CFD9FFE6520001F0A52FD0DCEC00F0FE
:1015E0000001EE6BF095010EDF6EEF93EF95EF9734
:1015F000EF99EF9BEF9DEF9FF091F0930001876BC8
:10160000080E886F0201C00EB66F680EB76F000E2D
:10161000B86F02018A0EB46F000EB56FAFEC26F002
:10162000E66AE66AE66A8A0EE66E000EE66E33EC5D
:1016300003F0146E050EE15E14500001EFA706D012
:10164000EF97EE5103E0EE07010EDF6EEFA907D032
:10165000EF99030EEE5D03E0EE2B010EDF6EF0A3BB
:101660002CD0F093010EDF6EEE5107E10C0EE05D21
:1016700002E1E06B01D0E02B0BDA0001EE0507E19F
:10168000F3A702D0F39701D0F387B2EC25F0020E56
:101690000001EE5D07E1F2AF02D0F29F01D0F28FC0
:1016A000B2EC25F0030E0001EE5D07E1040EE15DF2
:1016B00002E2E12B01D0E16BF7D90001F0A117D0D4
:1016C000F091010EDF6EEE5107E1E05103E10C0EE7
:1016D000E06F01D0E007DCD9030E0001EE5D07E109
:1016E000E15102E0E10702D0040EE16FDDD9000113
:1016F000EFAB11D0EF9BF0850001300E896F000138
:10170000010EEE6FF5EC26F0870EE66EA1EC25F0EB
:10171000E552AEEC25F0DF0401E03FD10001EE051B
:1017200003E0020EEE5D07E10201A70EB66F680E40
:10173000B76F000E06D002018F0EB66F680EB76F3E
:10174000000EB86F02018A0EB46F000EB56FAFECD9
:1017500026F00001070E876F886BE66A010EE66EC1
:101760008A0EE66E000EE66EB4EC01F0E552E5522C
:10177000E552E5520001020E876F886F0201810E6B
:10178000B66F680EB76F000EB86F02018A0EB46FA5
:10179000000EB56FAFEC26F00201770EB66F680E43
:1017A000B76F000EB86F02019F0EB46F000EB56FD9
:1017B000AFEC26F0200EE66EE0C0E6FFF4D8E5526E
:1017C000E5520001A56FE0C0E6FF49D9E5520001EE
:1017D000A66F0001EE5116E10001060E8A6F070E9A
:1017E000A76F010EE66EE66E8A0EE66E000EE66EDE
:1017F000B4EC01F0E552E552E552E552010EE66E19
:10180000E66E0ED0E66AE66A8A0EE66E000EE66EB8
:10181000B4EC01F0E552E552E552E552E66AE66ABB
:101820009F0EE66E000EE66EB4EC01F0E552E55256
:10183000E552E5520001030E876F020E886F020128
:101840005D0EB66F680EB76F000EB86F02018A0E9C
:10185000B46F000EB56FAFEC26F00001F3A703D014
:101860000001160E9D6F0001EE0509E10001060E54
:101870008A6F070E9E6F010EE66EE66E02D0E66A74
:10188000E66A8A0EE66E000EE66EB4EC01F0E552F2
:10189000E552E552E5520001040E876F020E886F93
:1018A0000201450EB66F680EB76F000EB86F0201E9
:1018B0008A0EB46F000EB56FAFEC26F00001F2AFE8
:1018C00003D00001160E9D6F020E0001EE5D09E1CE
:1018D0000001060E8A6F070E9E6F010EE66EE66E21
:1018E00002D0E66AE66A8A0EE66E000EE66EB4EC98
:1018F00001F0E552E552E552E5520001050E876F11
:10190000020E886F02012A0EB66F680EB76F000EC6
:10191000B86F02018A0EB46F000EB56FAFEC26F0FF
:101920000001190E9C6F180E9D6F0001E15105E139
:1019300000011A0E9C6F1B0E9D6F020E0001E15DEF
:1019400003E10001170E9C6F030E0001E15D03E14E
:101950000001310E9D6F040E0001E15D05E1000103
:10196000170E9C6F310E9D6F030E0001EE5D09E1B5
:101970000001060E8A6F070E9E6F010EE66EE66E80
:1019800002D0E66AE66A8A0EE66E000EE66EB4ECF7
:1019900001F0E552E552E552E552DF6AE552E552C3
:1019A000E7CFD9FF1200D9CFE6FFE1CFD9FFE6524A
:1019B0000A0E146E0E6EFE0EDBCF09F00CEC37F043
:1019C0000950DF6EDF50090803E20A0EDF5CDF6EAC
:1019D000DF50090803E20A0EDF5CDF6EDF5003E12F
:1019E000FD0EDB5002D0300EDF24E552E552E7CF8A
:1019F000D9FF1200D9CFE6FFE1CFD9FF020EE126D1
:101A0000640E146E156AFD0EDBCF08F0FE0EDBCF00
:101A100009F014C00DF015C00EF0DAEC36F008C075
:101A2000DEFF09C0DDFFD9CFE9FFDACFEAFFEE50D4
:101A3000ED1003E1FC0EDB5006D0DECF14F0DDCF5D
:101A400015F0300E1424146E020EE15C02E2E16A1D
:101A5000E552E16E1450E552E7CFD9FF1200D9CF1D
:101A6000E6FFE1CFD9FFFE0EDBCFE6FF0A0E146ED4
:101A70000E6EFE0EDBCF09F00CEC37F009500A0DAC
:101A8000F350E552E75C300FE552E7CFD9FF120083
:101A9000850EE66EA1EC25F0E552E0C0E6FFA1EC74
:101AA00025F0E552AEEF25F00001E15103E1F29798
:101AB000F299F28DE10503E1F297F299F29D020E9F
:101AC000E15D03E1F297F289F29B030EE15D01E132
:101AD000F287040EE15D03E1F297F289F28BB2EF37
:101AE00025F0D9CFE6FFE1CFD9FF030EE1260001B3
:101AF000876B886B7AEC00F0DE6A0A0EDD6EDECF53
:101B000014F0DDCF15F0000E145C0C0E15584EE2EB
:101B1000D9CFE9FFDACFEAFF800EEE1802E10A0E14
:101B2000ED1813E0D9CFE9FFDACFEAFFEE5002E17A
:101B30000B0EED180AE0D9CFE9FFDACFEAFF800EED
:101B4000EE1808E10B0EED1805E10001872B886BFC
:101B50007AEC00F0400E0001885D02E17AEC00F0C2
:101B6000640E146E560E156E000E166EDECF17F054
:101B7000DDCF18F0196A14501724F36E1550182091
:101B8000F46E16501920F86EF4CFF7FFF3CFF6FF7E
:101B90000800020EF5CFDBFFDBCFE6FF32EC00F0F2
:101BA000E552DF2A010EABE3DB2AA9D70001040EC0
:101BB000876F886B7AEC00F0020EDB6A170EF36E0B
:101BC000020EDBCFF4FFF350F45C0DE2010EE66E83
:101BD000E66A200EE66E3FEC01F0E552E552E55272
:101BE000020EDB2AEBD7030EE15C02E2E16AE5526A
:101BF000E16EE552E7CFD9FF1200D9CFE6FFE1CF82
:101C0000D9FF2B0EE1266DDF0001050E876F886B73
:101C10000201170EB66F680EB76F000EB86F0201A3
:101C20008A0EB46F000EB56FAFEC26F0E66AE66A76
:101C30008A0EE66E000EE66EB4EC01F0E552E55257
:101C4000E552E552FA0EE66EADEC36F0E552FA0ECC
:101C5000E66EADEC36F0E552FA0EE66EADEC36F01F
:101C6000E5529EAA03D0AE50E86EFBD7010EE66E99
:101C7000A1EC25F0E552010EE66EA1EC25F0E5524F
:101C8000AEEC25F0E76E020EE7CFDBFF010EDB6A5C
:101C9000280EF36E010EDBCFF4FFF350F45C16E276
:101CA000AEEC25F0E66ED950030F146EDACF15F0C6
:101CB000010EDB500F011424E96E000EDA20EA6EEB
:101CC000E552E750EF6E010EDB2AE2D70201150E56
:101CD000B66F680EB76F000EB86F02019F0EB46F3B
:101CE000000EB56FAFEC26F0020EDB50800B8008C3
:101CF00013E1020EDB50040B040807E10201FD0EA4
:101D0000B66F670EB76F000E23D00201E50EB66FF7
:101D1000670EB76F000E1CD0020EDBB20ED00201B0
:101D2000D00EB66F670EB76F000EB86F02019F0E30
:101D3000B46F000EB56FAFEC26F0020EDB50080B4F
:101D400008080EE10201BA0EB66F670EB76F000EFB
:101D5000B86F02019F0EB46F000EB56FAFEC26F0A6
:101D60000001060E876F886BE66AE66A9F0EE66ED4
:101D7000000EE66EB4EC01F0E552E552E552E55294
:101D80000001070E876F886B7AEC00F0010EDB6AAA
:101D9000150EF36E010EDBCFF4FFF350F45C19E285
:101DA000E66AE66AD950030F146EDACF15F0010E19
:101DB000DB500F011424E96E000EDA20EA6EEF50BA
:101DC000E66E3FEC01F0E552E552E552010EDB2AEA
:101DD000DFD7E668ADEC36F0E552E668ADEC36F0FC
:101DE000E552E668ADEC36F0E552020EDB50800BB2
:101DF0008008FBE10001F0850001010E896F000100
:101E0000F0992B0EE15C02E2E16AE552E16EE552E7
:101E1000E7CFD9FF1200D9CFE6FFE1CFD9FF020EFD
:101E2000E1260001F0A566D1AFDADCEC00F000019C
:101E3000806BB46B020EE66EA1EC25F0E552B4C0E7
:101E4000E6FFA1EC25F0E552AEEC25F0FF0855E1E8
:101E50000001B56B040EE76EB519E8AE02D0E734A9
:101E600002D0E750B55D1EE2AEEC25F0E66E000153
:101E70008051070DF3CF14F0F4CF15F0000E1426A7
:101E80000F0E1522B5C016F0176A16BE176814504B
:101E90001624E96E15501720EA6EE552E750EF6EF2
:101EA000B52BD8D7B56B0B0EE76EB519E8AE02D0DF
:101EB000E73402D0E750B55D1EE2AEEC25F0E66EE9
:101EC00000018051130DF3CF14F0F4CF15F0000E84
:101ED0001426010E1522B5C016F0176A16BE176833
:101EE00014501624E96E15501720EA6EE552E7509B
:101EF000EF6EB52BD8D7802B11D00001B56B0F0E2C
:101F0000E76EB519E8AE02D0E73402D0E750B55D10
:101F100005E2AEEC25F00001B52BF1D7B42B040E91
:101F2000E76EB419E8AE02D0E73402D0E750B45DF2
:101F300001E280D780510001EE5D01E3EE6BF09588
:101F4000010EDF6EEF93EF95EF97EF99EF9BEF9D0B
:101F5000EF9FF091F0930001805121E1876B886B36
:101F6000E66AE66A0201A00E846F670E856F000EB6
:101F7000866FF7EC01F0E552E5520001010E876F24
:101F8000886BE66AE66A0201950E846F670E856FBC
:101F9000000E866FF7EC01F0E552E552FFD7876B34
:101FA000886B800501E078D0DE52100EDD6E0001F6
:101FB000F1B728D0030EE66EA1EC25F0E552000142
:101FC000B46B040EE76EB419E8AE02D0E73402D069
:101FD000E750B45D11E2B4C0E9FFEA6AE9BEEA681D
:101FE000000EE9260F0EEA22EF50E66EA1EC25F076
:101FF000E5520001B42BE5D7AEEC25F0E76E010EFB
:10200000E7CFDBFF010EDB50100B100826E10001CB
:10201000F085F089F1A71CD0E66AE66A02017F0E1E
:10202000846F670E856F000E866FF7EC01F0E55246
:10203000E5520001200E896FE668ADEC36F0E552FE
:10204000E668ADEC36F0E552E668ADEC36F051D01E
:10205000D0D90001100E896F4DD0E66AE66A020100
:10206000700E846F670E856F000E866FF7EC01F0BF
:10207000E552E5520001010E876F886BE66AE66A59
:102080000201600E846F670E856F000E866FF7EC9D
:1020900001F0E552E552FFD7E66AE66AE66A020118
:1020A000510E9C6F670E9D6F000E9E6F7AEC03F0D1
:1020B000E552E552E5520001070E876F886B00017B
:1020C000F1A70AD0E66A010EE66E02015C0E846F8B
:1020D0006A0E856F000E09D0E66A010EE66E0201F7
:1020E0003A0E846F670E856F000E866FF7EC01F075
:1020F000E552E55200018051010801E33BD10001A6
:10210000EFA706D0EF97EE5103E0EE07010EDF6E6A
:10211000EFA909D0EF99000180050001EE5D03E20F
:10212000EE2B010EDF6EF151080B08E0EF51200B92
:1021300005E0EF9BF0850001200E896F0001F0A300
:1021400075D0F093F085030EE66EA1EC25F0E55214
:102150000001B46B040EE76EB419E8AE02D0E734A8
:1021600002D0E750B45D1EE20001EE51070DF3CF3F
:1021700014F0F4CF15F0000E14260F0E1522B4C083
:1021800016F0176A16BE176814501624E96E15501B
:102190001720EA6EEF50E66EA1EC25F0E552000143
:1021A000B42BD8D7AEEC25F0E76E010EE7CFDBFFFE
:1021B000DB50100B10080EE11CD90001F1A703D071
:1021C0000001200E02D00001100E896F0001F08581
:1021D000F0892CD0DCEC00F00001010E876F886BD9
:1021E000E66AE66A0201700E846F670E856F000E64
:1021F000866FF7EC01F0E552E5520001010E876FA2
:10220000886BE66AE66A0201600E846F670E856F6E
:10221000000E866FF7EC01F0E552E552E668ADEC92
:1022200036F0E552E668ADEC36F0E552DF0401E049
:10223000A0D00001020E876FB46B8051B45D01E342
:1022400098D00A0E886F7AEC00F00001B4510001BA
:10225000EE5D46E1010EE66EE66E060EE66E3FECC2
:1022600001F0E552E552E5520001B56B0C0EE76E48
:10227000B519E8AE02D0E73402D0E750B55D2AE2E6
:10228000010EE66EE66EB4C014F0156A14BE156851
:10229000130E1502F3CF15F01402F3CF14F0F4501F
:1022A0001526000E1426010E1522B5C016F0176A69
:1022B00016BE176814501624E96E15501720EA6EE2
:1022C000EF50E66E3FEC01F0E552E552E5520001B9
:1022D000B52BCCD7010EE66EE66E070EE66E40D04B
:1022E000E66AE66AE66A3FEC01F0E552E552E5523D
:1022F0000001B56B0C0EE76EB519E8AE02D0E734FD
:1023000002D0E750B55D29E2E66AE66AB4C014F08F
:10231000156A14BE1568130E1502F3CF15F01402DA
:10232000F3CF14F0F4501526000E1426010E1522DA
:10233000B5C016F0176A16BE176814501624E96E59
:1023400015501720EA6EEF50E66E3FEC01F0E552B3
:10235000E552E5520001B52BCDD7E66AE66AE66A9A
:102360003FEC01F0E552E552E5520001872BB42B1A
:1023700064D7DF6A020EE15C02E2E16AE552E16ED7
:10238000E552E7CFD9FF1200D9CFE6FFE1CFD9FF61
:10239000020EE126DF6A0D0EDF5C21E2010EDB6A30
:1023A000070EF36E010EDBCFF4FFF350F45C15E281
:1023B000DF50070DF3CF14F0F4CF15F0000E142604
:1023C0000F0E1522010EDB501424E96E000E1520AD
:1023D000EA6EEF6A010EDB2AE3D7DF2ADCD7020EB2
:1023E000E15C02E2E16AE552E16EE552E7CFD9FF36
:1023F0001200860EE66EA1EC25F0E552AEEC25F05B
:10240000AEEC25F00001B46FE828E86C816F48EC71
:102410000DF097EC0AF078EF25F0D9CFE6FFE1CF89
:10242000D9FF0B0EE1260001F0A514D0DCEC00F082
:102430000001EF93EF95EF97EF99EF9BEF9DEF9FE3
:10244000F091F093000184698569DF69DFC0DEF0F7
:102450000001F087830EE66EA1EC25F0E552AEECAC
:1024600025F00001D06FAEEC25F00001D16FAEEC8D
:1024700025F00001D46FAEEC25F00001D56FAEEC75
:1024800025F00001D66FAEEC25F00001D76FAEEC61
:1024900025F00001D86FAEEC25F00001D96FAEEC4D
:1024A00025F00001DA6FAEEC25F00001DB6FAEEC39
:1024B00025F00001DC6FAEEC25F00001DD6F0001BE
:1024C000F051040B04E1F251040B01E1B3D1F0959A
:1024D0000201416B836B0001F251020B01E19ED0BE
:1024E000F051800B01E09AD00A0EE66EA1EC25F0C7
:1024F000E552D8C0E6FFA1EC25F0E552D9C0E6FFD1
:10250000A1EC25F0E552DAC0E6FFA1EC25F0E5529A
:10251000DBC0E6FFA1EC25F0E552DCC0E6FFA1EC54
:1025200025F0E552DDC0E6FFA1EC25F0E552AEEC6A
:1025300025F0040EDB6A410EF36E040EDBCFF4FFD0
:10254000F350F45C10E2AEEC25F0E66E040EDB50C6
:10255000EA6A000FE96E020EEA22E552E750EF6EDA
:10256000040EDB2AE8D70201005166E1050EE66E93
:10257000A1EC25F0E552D8C0E6FFA1EC25F0E5522C
:10258000D9C0E6FFA1EC25F0E552DAC0E6FFA1ECE8
:1025900025F0E552DBC0E6FFA1EC25F0E552DCC0FA
:1025A000E6FFA1EC25F0E552DDC0E6FFA1EC25F049
:1025B000E552AEEC25F0040EDB6A080EF36E040E55
:1025C000DBCFF4FFF350F45C10E2AEEC25F0E66EE6
:1025D000040EDB50EA6A000FE96E020EEA22E552B1
:1025E000E750EF6E040EDB2AE8D702012E0E086FCB
:1025F000AEEC25F00201096FAEEC25F002010A6F86
:10260000AEEC25F002010B6F0C6BAEEC25F0AEECDE
:1026100025F0AEEC25F0AEEC25F00ED00201360E22
:10262000B66F670EB76F000EB86F0201000EB46F81
:10263000020EB56FAFEC26F00C0EE66EA1EC25F0A5
:10264000E552D8C0E6FFA1EC25F0E552D9C0E6FF7F
:10265000A1EC25F0E552DAC0E6FFA1EC25F0E55249
:10266000DBC0E6FFA1EC25F0E552AEEC25F0E76E0D
:10267000030EE7CFDBFF040EDB6A060EF36E040EDB
:10268000DBCFF4FFF350F45C16E2AEEC25F0E66E1F
:10269000D950050F146EDACF15F0040EDB500F0180
:1026A0001424E96E000EDA20EA6EE552E750EF6E70
:1026B000040EDB2AE2D7030EDB040FE10201310E28
:1026C000B66F670EB76F000EB86F0201420EB46F9F
:1026D000020EB56FAFEC26F0A5D00A0EE66EA1ECA7
:1026E00025F0E552050EDBCFE6FFA1EC25F0E55223
:1026F000060EDBCFE6FFA1EC25F0E552070EDBCF9F
:10270000E6FFA1EC25F0E552080EDBCFE6FFA1ECD9
:1027100025F0E552090EDBCFE6FFA1EC25F0E552EE
:102720000A0EDBCFE6FFA1EC25F0E552AEEC25F07A
:10273000040EDB6A410EF36E040EDBCFF4FFF350A0
:10274000F45C10E2AEEC25F0E66E040EDB50EA6AB3
:10275000420FE96E020EEA22E552E750EF6E040ED8
:10276000DB2AE8D7020142515DE1050EE66EA1ECDD
:1027700025F0E552050EDBCFE6FFA1EC25F0E55292
:10278000060EDBCFE6FFA1EC25F0E552070EDBCF0E
:10279000E6FFA1EC25F0E552080EDBCFE6FFA1EC49
:1027A00025F0E552090EDBCFE6FFA1EC25F0E5525E
:1027B0000A0EDBCFE6FFA1EC25F0E552AEEC25F0EA
:1027C000040EDB6A080EF36E040EDBCFF4FFF35049
:1027D000F45C10E2AEEC25F0E66E040EDB50EA6A23
:1027E000420FE96E020EEA22E552E750EF6E040E48
:1027F000DB2AE8D70201200E4A6FAEEC25F0020179
:102800004B6FAEEC25F002014C6FAEEC25F00201EF
:102810004D6F4E6BAEEC25F0AEEC25F0AEEC25F036
:10282000AEEC25F00001F08BF5C0F4F00001DF699B
:10283000DFC0DEF00001F0ABE1D0F2B30ED0020158
:10284000360EB66F670EB76F000EB86F0201000E3E
:10285000B46F020EB56FAFEC26F00001886B420E2C
:10286000E66E020EE66EFEEC36F0E552E552040E20
:10287000F3CFDBFF030EDB6A040EDB5010080EE221
:10288000FF0E0001DF5D03E0030EDFC0DBFF040E7F
:10289000DB50DF5D02E1DF6901D0DF2B0001876BD8
:1028A0007AEC00F00001B56B100EE76EB519E8AEDA
:1028B00002D0E73402D0E750B55D1EE2030EDB50D4
:1028C000B525146E040EDB50145C16E2E66AE66A67
:1028D000E66A030EDB50B525EA6A420FE96E020E86
:1028E000EA22EF50E66E66EC02F0E552E552E55260
:1028F000E5520001B52BD8D77F0E0001885D0CE2B0
:10290000E66AE66AE66A200EE66E66EC02F0E552DA
:10291000E552E552E552F0D7000EE66E020EE66E85
:10292000FEEC36F0E552E552040EF3CFDBFF030E6A
:10293000DB6A040EDB5010080EE2FF0E0001DE5DC4
:1029400003E0030EDEC0DBFF040EDB50DE5D02E1C0
:10295000DE6901D0DE2B0001020E876F886B7AECF6
:1029600000F00001B56B100EE76EB519E8AE02D0AD
:10297000E73402D0E750B55D1FE2030EDB50B5250A
:10298000146E040EDB50145C17E2010EE66EE66A6C
:10299000E66A030EDB50B525EA6A000FE96E020E07
:1029A000EA22EF50E66E66EC02F0E552E552E5529F
:1029B000E5520001B52BD7D77F0E0001885D0DE2EF
:1029C000010EE66EE66AE66A200EE66E66EC02F03E
:1029D000E552E552E552E552EFD7070E876F886B57
:1029E000E66A010EE66E02011A0E846F670E856FAD
:1029F000000E866FF7EC01F0E552E5520001EF5151
:102A0000080B03E1EF51100B07E0EF97EF9900017E
:102A1000200E896F0001F085EFAF13D0EF9FF08F8C
:102A2000F291B2EC25F00201360EB66F670EB76F69
:102A3000000EB86F0201000EB46F020EB56FAFEC5E
:102A400026F00001EFAD2ED0EF9DF0AF28D0F09F23
:102A5000F085800EE66EA1EC25F0E552D8C0E6FFC9
:102A6000A1EC25F0E552D9C0E6FFA1EC25F0E55236
:102A7000DAC0E6FFA1EC25F0E552DBC0E6FFA1ECF1
:102A800025F0E552DCC0E6FFA1EC25F0E552DDC003
:102A9000E6FFA1EC25F0E552AEEC25F003D0F27193
:102AA000B2EC25F00001F0A306D0F093EE6BF085B8
:102AB0000001300E896F0001EF51080B03E1EF5167
:102AC000100B06E0EF99EF97F0850001200E896F5B
:102AD0000001F051010B12E08150040B0FE0280EB1
:102AE000E66EADEC36F0E55281A408D00001F0911D
:102AF000F381F385B2EC25F00001866B0001F35100
:102B0000010B06E08150040B03E1F391B2EC25F0D8
:102B10000001F051010B04E1EF51200B01E17FD0E6
:102B2000090EE66EA1EC25F0E552D8C0E6FFA1EC57
:102B300025F0E552D9C0E6FFA1EC25F0E552DAC058
:102B4000E6FFA1EC25F0E552DBC0E6FFA1EC25F0A5
:102B5000E552DCC0E6FFA1EC25F0E552DDC0E6FF62
:102B6000A1EC25F0E5520001F0A102D0260E01D023
:102B7000360EE66EA1EC25F0E5520001F091EF9BD8
:102B8000AEEC25F0E76E030EE7CFDBFF040EDB6A49
:102B90000F0EF36E040EDBCFF4FFF350F45C05E28E
:102BA000AEEC25F0040EDB2AF3D7AEEC25F0E76E91
:102BB000050EE7CFDBFFAEEC25F0E76E060EE7CFA4
:102BC000DBFF030EDB5006082AE1800EE66EA1EC67
:102BD00025F0E552D8C0E6FFA1EC25F0E552D9C0BA
:102BE000E6FFA1EC25F0E552DAC0E6FFA1EC25F006
:102BF000E552DBC0E6FFA1EC25F0E552050EDBCF88
:102C0000E6FFA1EC25F0E552060EDBCFE6FFA1ECD6
:102C100025F0E552AEEC25F00001F085F09F0001B3
:102C2000F0A700D1F097F3A915D00001050E876F2A
:102C3000670E886FE66AE66AE66A0201150E9C6F07
:102C4000670E9D6F000E9E6F7AEC03F0E552E55221
:102C5000E552E8D00001060E876F670E886F7AECA8
:102C600000F0040EDB6ADB50146E156AD890155024
:102C700004E6F50E145C000E155849E2200EF36EC2
:102C8000030EF3CFDBFF00018151F36E040EDBCFA7
:102C9000F4FFF350F45C2DE2040EDB50190805E25A
:102CA000300EF36E030EF3CFDBFF040EDB50320861
:102CB00005E2380EF36E030EF3CFDBFF040EDB509C
:102CC0004B0805E23C0EF36E030EF3CFDBFF040E60
:102CD000DB50640805E23E0EF36E030EF3CFDBFF1C
:102CE000040EDB507D0805E23F0EF36E030EF3CFBA
:102CF000DBFF030EDBCFE6FF32EC00F0E552040E03
:102D0000DB500A0FE76E040EE7CFDBFFACD7000104
:102D1000050E876F670E886FE66AE66A0201120E7B
:102D2000846F670E856F000E866FF7EC01F0E55239
:102D3000E552780EF36E040EF3CFDBFFDB50146E1A
:102D4000156AD890155004E6F50E145C000E15585F
:102D500069E2030EDB6A00018151F36E040EDBCFE2
:102D6000F4FFF350F45C50E2040EDB50146E156A6D
:102D700015340AE214509108000E155405E2800E35
:102D8000F36E030EF3CFDBFF040EDB50146E156AF7
:102D900015340AE21450AA08000E155405E2C00EBC
:102DA000F36E030EF3CFDBFF040EDB50146E156AD7
:102DB00015340AE21450C308000E155405E2E00E63
:102DC000F36E030EF3CFDBFF040EDB50146E156AB7
:102DD00015340AE21450DC08000E155405E2F00E1A
:102DE000F36E030EF3CFDBFF040EDB50146E156A97
:102DF00015340AE21450F508000E155405E2F80ED9
:102E0000F36E030EF3CFDBFF030EDBCFE6FF32ECF6
:102E100000F0E552040EDB500A0FE76E040EE7CF18
:102E2000DBFF8CD70001825184190FE18351851992
:102E30000CE10001F251020B04E0F251010B01E040
:102E400074D2F051200B01E170D20001040E876FA3
:102E5000886B0001F251020B01E146D1F051800B69
:102E600001E042D1C00E0001D415E76E030EE7CF9A
:102E7000DBFFDB500DE1E66AE66A0201080E846FB3
:102E8000670E856F000E866FF7EC01F0E552E55294
:102E9000030EDB5040080DE1E66AE66A0201FE0E11
:102EA000846F660E856F000E866FF7EC01F0E552B9
:102EB000E552030EDB5080080DE1E66AE66A020186
:102EC000F40E846F660E856F000E866FF7EC01F0CE
:102ED000E552E552030EDB50C0080DE1E66AE66AF2
:102EE0000201EA0E846F660E856F000E866FF7ECA6
:102EF00001F0E552E552010E0001D115156E146A7C
:102F0000D0511424D26F000E1520D36F200EE66E20
:102F1000D2C0E6FFD3C0E6FFFAEC0CF0E552E55272
:102F2000E55200018A6F300EE66ED2C0E6FFD3ECA8
:102F30000CF0E552E55200018B6FD2C0E6FF2FEC9A
:102F40000DF0E55200018C6F6B0E8D6F620E8E6F6F
:102F50002F0E8F6F906BE66AE66A8A0EE66E000EA1
:102F6000E66EB4EC01F0E552E552E552E5521E0E74
:102F70000001D115E76E030EE7CFDBFFDB500DE15B
:102F8000E66AE66A0201E60E846F660E856F000E41
:102F9000866FF7EC01F0E552E552030EDB500208B4
:102FA0000DE1E66AE66A0201E10E846F660E856F46
:102FB000000E866FF7EC01F0E552E552030EDB5090
:102FC00004080DE1E66AE66A0201DE0E846F660E11
:102FD000856F000E866FF7EC01F0E552E552030EA7
:102FE000DB5006080DE1E66AE66A0201DB0E846F3B
:102FF000660E856F000E866FF7EC01F0E552E55224
:10300000030EDB5008080DE1E66AE66A0201D80EFD
:10301000846F660E856F000E866FF7EC01F0E55247
:10302000E552030EDB500A080DE1E66AE66A02018A
:10303000D50E846F660E856F000E866FF7EC01F07B
:10304000E552E552030EDB500C080DE1E66AE66A34
:103050000201D20E846F660E856F000E866FF7EC4C
:1030600001F0E552E552030EDB500E080DE1E66A71
:10307000E66A0201CF0E846F660E856F000E866FC2
:10308000F7EC01F0E552E552030EDB5010080DE1BC
:10309000E66AE66A0201CC0E846F660E856F000E4A
:1030A000866FF7EC01F0E552E552030EDB50120893
:1030B0000DE1E66AE66A0201CA0E846F660E856F4C
:1030C000000E866FF7EC01F0E552E552E66AE66A1B
:1030D0000201C70E846F660E856F000E866FF7ECD7
:1030E00001F0E552E55202D006EC01F00001100EAD
:1030F0008A6F0F0E8B6F8C6B0001E15105E10001AF
:10310000110E8A6F120E8B6F020E0001E15D03E15A
:1031100000010E0E8A6F030E0001E15D03E1000164
:10312000310E8B6F040E0001E15D05E100010E0E12
:103130008A6F310E8B6F0001050E876F400E886F0E
:10314000E66AE66AE66A8A0EE66E000EE66E33EC22
:1031500003F0146E050EE15E14500001050E876F3A
:10316000030E886F0001F351010B0CE0F351040BC7
:1031700009E00001862B1E0E865D04E10001F39537
:10318000B2EC25F00001F251020B01E1BFD0F05189
:10319000800B01E0BBD0F251010B0DE1F051400B6F
:1031A0000AE1E66AE66AE66A0201C00E9C6F660EF4
:1031B0009D6F000EB4D07AEC00F082C084F083C022
:1031C00085F03C0E146E156A82C008F083C009F0C9
:1031D0000D6E15C00EF0DAEC36F0010E08C0DBFF04
:1031E000DB503C0DF350166E176A0001F350825D00
:1031F000146E17508359156E020E14C0DBFF640E57
:10320000146E0E6E010EDBCF09F00CEC37F0030EDE
:1032100009C0DBFFDB5007E0E66AE66AE66A030EF8
:10322000DBCFE6FF05D0E66AE66AE66A200EE66EC8
:1032300066EC02F0E552E552E552E552010EDBCFB5
:10324000E6FF030EDB50640DF350E552E75CE76EDA
:10325000010EE7CFDBFFE66AE66AE66A0A0E146E45
:103260000E6E010EDBCF09F00CEC37F0030E09C037
:10327000DBFF0950E66E66EC02F0E552E552E552DE
:10328000E552E66AE66AE66A010EDBCFE6FF030E68
:10329000DB500A0DF350E552E75CE66E66EC02F097
:1032A000E552E552E552E552E66AE66AE66A0A0E3A
:1032B000E66E66EC02F0E552E552E552E552E66A4A
:1032C000E66AE66A0A0E146E0E6E020EDBCF09F095
:1032D0000CEC37F0030E09C0DBFF0950E66E66EC1C
:1032E00002F0E552E552E552E552E66AE66AE66A20
:1032F000020EDBCFE6FF030EDB500A0DF350E55262
:10330000E75CE66E66EC02F0E5520CD0E66AE66A2F
:10331000E66A0201B90E9C6F660E9D6F000E9E6FED
:103320007AEC03F0E552E552E5520001F09B0B0EFA
:10333000E15C02E2E16AE552E16EE552E7CFD9FFD6
:103340001200D9CFE6FFE1CFD9FF030EE126090E27
:10335000E66EA1EC25F0E552B8C0E6FFA1EC25F041
:10336000E552B9C0E6FFA1EC25F0E552BAC0E6FF90
:10337000A1EC25F0E552BBC0E6FFA1EC25F0E5523B
:10338000FD0EDB040AE1E66AA1EC25F0E552E66AEF
:10339000A1EC25F0E552080E35D0FC0EDB0403E16C
:1033A000FE0EDB0402D0FE0EDB28DF6EDF50070DC1
:1033B000F3CFE9FFF4CFEAFF000EE9260F0EEA2271
:1033C000050EE926000EEA22EF50E66EA1EC25F08C
:1033D000E552DF50070DF3CFE9FFF4CFEAFF000E0F
:1033E000E9260F0EEA22060EE926000EEA22EF5029
:1033F000E66EA1EC25F0E552FC0EDB5002E0E66A39
:1034000002D0100EE66EA1EC25F0E552AEEC25F0F0
:10341000E76E010EE7CFDBFFDB5004E0010EDB506F
:10342000810829E1FE0EDB50070DF3CFE9FFF4CF51
:10343000EAFF000EE9260F0EEA22EF6AFE0EDB50CD
:10344000130DF3CFE9FFF4CFEAFF000EE926010EDA
:10345000EA22EF6A020EDB6A110EF36E020EDBCF78
:10346000F4FFF350F45C05E2AEEC25F0020EDB2A2B
:10347000F3D7000E07D2020EDB6A080EF36E020EBF
:10348000DBCFF4FFF350F45C1CE2AEEC25F0E66E0B
:10349000FE0EDB50130DF3CF14F0F4CF15F0000E39
:1034A0001426010E1522020EDB500F011424E96EC2
:1034B000000E1520EA6EE552E750EF6E020EDB2A91
:1034C000DCD7010EDB0411E1FE0EDB50130DF3CF50
:1034D000E9FFF4CFEAFF000EE926010EEA22080E0A
:1034E000E926000EEA22200E10D0FE0EDB50130D4E
:1034F000F3CFE9FFF4CFEAFF000EE926010EEA223E
:10350000080EE926000EEA222E0EEF6EAEEC25F034
:10351000E66EFE0EDB50130DF3CFE9FFF4CFEAFFAA
:10352000000EE926010EEA22090EE926000EEA2223
:10353000E552E750EF6EAEEC25F0E66EFE0EDB5086
:10354000130DF3CFE9FFF4CFEAFF000EE926010ED9
:10355000EA220A0EE926000EEA22E552E750EF6E53
:10356000AEEC25F0E66EFE0EDB50130DF3CFE9FF57
:10357000F4CFEAFF000EE926010EEA220B0EE9263F
:10358000000EEA22E552E750EF6E0C0EF36E020ECB
:10359000F3CFDBFF120EF36E020EDBCFF4FFF3501E
:1035A000F45C18E2FE0EDB50130DF3CF14F0F4CFF1
:1035B00015F0000E1426010E1522020EDB500F012D
:1035C0001424E96E000E1520EA6E200EEF6E020E36
:1035D000DB2AE0D7FE0EDB50130DF3CFE9FFF4CF6B
:1035E000EAFF000EE926010EEA22120EE926000E7D
:1035F000EA22EF6AFE0EDB50070DF3CFE9FFF4CFAE
:10360000EAFF000EE9260F0EEA22010EDBCFEFFFE4
:10361000AEEC25F0E66EFE0EDB50070DF3CFE9FFB2
:10362000F4CFEAFF000EE9260F0EEA22010EE9268A
:10363000000EEA22E552E750EF6EAEEC25F0E66EA2
:10364000FE0EDB50070DF3CFE9FFF4CFEAFF000ECB
:10365000E9260F0EEA22020EE926000EEA22E552C2
:10366000E750EF6EAEEC25F0E66EFE0EDB50070D78
:10367000F3CFE9FFF4CFEAFF000EE9260F0EEA22AE
:10368000030EE926000EEA22E552E750EF6EAEEC9B
:1036900025F0E66EFE0EDB50070DF3CFE9FFF4CF09
:1036A000EAFF000EE9260F0EEA22040EE926000EBC
:1036B000EA22E552E750EF6EAEEC25F0E66EFE0E24
:1036C000DB50070DF3CFE9FFF4CFEAFF000EE92648
:1036D0000F0EEA22050EE926000EEA22E552E75017
:1036E000EF6EAEEC25F0E66EFE0EDB50070DF3CF6D
:1036F000E9FFF4CFEAFF000EE9260F0EEA22060EDC
:10370000E926000EEA22E552E750EF6E0A0EE66E59
:10371000A1EC25F0E552B8C0E6FFA1EC25F0E5529A
:10372000B9C0E6FFA1EC25F0E552BAC0E6FFA1EC76
:1037300025F0E552BBC0E6FFA1EC25F0E552FE0EF8
:10374000DB50070DF3CFE9FFF4CFEAFF000EE926C7
:103750000F0EEA22050EE926000EEA22EF50E66E71
:10376000A1EC25F0E552FE0EDB50070DF3CFE9FF8B
:10377000F4CFEAFF000EE9260F0EEA22060EE92634
:10378000000EEA22EF50E66EA1EC25F0E552AEEC19
:1037900025F0AEEC25F0E76E010EE7CFDBFFDB5046
:1037A0000FE1020EDB6A400EF36E020EDBCFF4FF78
:1037B000F350F45C66E2AEEC25F0020EDB2AF3D7A0
:1037C000FE0EDB50130DF3CFE9FFF4CFEAFF000E3E
:1037D000E926010EEA22010EDBCFEFFFF36E020EA7
:1037E000F3CFDBFF120EF36E020EDBCFF4FFF350CC
:1037F000F45C28E2AEEC25F0E76E010EE7CFDBFFCC
:10380000DB5004E0010EDB50FF0803E1DE52200E26
:10381000DD6EFE0EDB50130DF3CF14F0F4CF15F078
:10382000000E1426010E1522020EDB500F01142487
:10383000E96E000E1520EA6E010EDBCFEFFF020EDF
:10384000DB2AD0D7FE0EDB50130DF3CFE9FFF4CF08
:10385000EAFF000EE926010EEA22120EE926000E0A
:10386000EA22EF6A020EDB6A2F0EF36E020EDBCF46
:10387000F4FFF350F45C05E2AEEC25F0020EDB2A17
:10388000F3D7010E146E030EE15C02E2E16AE55229
:10389000E16E1450E552E7CFD9FF1200D9CFE6FF11
:1038A000E1CFD9FF020EE126050EE66EA1EC25F070
:1038B000E552B8C0E6FFA1EC25F0E552B9C0E6FF3D
:1038C000A1EC25F0E552BAC0E6FFA1EC25F0E552E7
:1038D000BBC0E6FFA1EC25F0E552FD0EDBCFE6FF15
:1038E000A1EC25F0E552FC0EDBCFE6FFA1EC25F0C4
:1038F000E552AEEC25F0DF6EDF5006E0800EDF5CB7
:1039000003E0810EDF5C29E1FE0EDB50070DF3CFF3
:10391000E9FFF4CFEAFF000EE9260F0EEA22EF6A74
:10392000FE0EDB50130DF3CFE9FFF4CFEAFF000EDC
:10393000E926010EEA22EF6A010EDB6A0F0EF36E32
:10394000010EDBCFF4FFF350F45C05E2AEEC25F0A2
:10395000010EDB2AF3D7000EF2D1010EDB6A080E4E
:10396000F36E010EDBCFF4FFF350F45C1CE2AEEC1F
:1039700025F0E66EFE0EDB50130DF3CF14F0F4CFFE
:1039800015F0000E1426010E1522010EDB500F015A
:103990001424E96E000E1520EA6EE552E750EF6E32
:1039A000010EDB2ADCD7DF0411E1FE0EDB50130D24
:1039B000F3CFE9FFF4CFEAFF000EE926010EEA2279
:1039C000080EE926000EEA22200E10D0FE0EDB5073
:1039D000130DF3CFE9FFF4CFEAFF000EE926010E45
:1039E000EA22080EE926000EEA222E0EEF6EAEEC59
:1039F00025F0E66EFE0EDB50130DF3CFE9FFF4CF9A
:103A0000EAFF000EE926010EEA22090EE926000E61
:103A1000EA22E552E750EF6EAEEC25F0E66EFE0EC0
:103A2000DB50130DF3CFE9FFF4CFEAFF000EE926D8
:103A3000010EEA220A0EE926000EEA22E552E750BC
:103A4000EF6EAEEC25F0E66EFE0EDB50130DF3CFFD
:103A5000E9FFF4CFEAFF000EE926010EEA220B0E81
:103A6000E926000EEA22E552E750EF6EDE520C0E18
:103A7000DD6E120EF36E010EDBCFF4FFF350F45C3B
:103A800018E2FE0EDB50130DF3CF14F0F4CF15F057
:103A9000000E1426010E1522010EDB500F01142416
:103AA000E96E000E1520EA6E200EEF6E010EDB2A85
:103AB000E0D7FE0EDB50130DF3CFE9FFF4CFEAFFA2
:103AC000000EE926010EEA22120EE926000EEA2275
:103AD000EF6AFE0EDB50070DF3CFE9FFF4CFEAFFEC
:103AE000000EE9260F0EEA22DFCFEFFFAEEC25F045
:103AF000E66EFE0EDB50070DF3CFE9FFF4CFEAFFD1
:103B0000000EE9260F0EEA22010EE926000EEA2237
:103B1000E552E750EF6EAEEC25F0E66EFE0EDB50A0
:103B2000070DF3CFE9FFF4CFEAFF000EE9260F0EF1
:103B3000EA22020EE926000EEA22E552E750EF6E75
:103B4000AEEC25F0E66EFE0EDB50070DF3CFE9FF7D
:103B5000F4CFEAFF000EE9260F0EEA22030EE92653
:103B6000000EEA22E552E750EF6EAEEC25F0E66E6D
:103B7000FE0EDB50070DF3CFE9FFF4CFEAFF000E96
:103B8000E9260F0EEA22040EE926000EEA22E5528B
:103B9000E750EF6EFE0EDB50070DF3CFE9FFF4CFD9
:103BA000EAFF000EE9260F0EEA22050EE926000EB6
:103BB000EA22FD0EDBCFEFFFFE0EDB50070DF3CF49
:103BC000E9FFF4CFEAFF000EE9260F0EEA22060E07
:103BD000E926000EEA22FC0EDBCFEFFF0A0EE66EAE
:103BE000A1EC25F0E552B8C0E6FFA1EC25F0E552C6
:103BF000B9C0E6FFA1EC25F0E552BAC0E6FFA1ECA2
:103C000025F0E552BBC0E6FFA1EC25F0E552FE0E23
:103C1000DB50070DF3CFE9FFF4CFEAFF000EE926F2
:103C20000F0EEA22050EE926000EEA22EF50E66E9C
:103C3000A1EC25F0E552FE0EDB50070DF3CFE9FFB6
:103C4000F4CFEAFF000EE9260F0EEA22060EE9265F
:103C5000000EEA22EF50E66EA1EC25F0E552AEEC44
:103C600025F0AEEC25F0DF6EDF500FE1010EDB6AD0
:103C7000400EF36E010EDBCFF4FFF350F45C5EE216
:103C8000AEEC25F0010EDB2AF3D7FE0EDB50130D50
:103C9000F3CFE9FFF4CFEAFF000EE926010EEA2296
:103CA000DFCFEFFFDE52010EDD6E120EF36E010E5E
:103CB000DBCFF4FFF350F45C22E2AEEC25F0DF6ED4
:103CC000DF5003E0FF0EDF5C02E1200EDF6EFE0E30
:103CD000DB50130DF3CF14F0F4CF15F0000E1426C3
:103CE000010E1522010EDB500F011424E96E000EA7
:103CF0001520EA6EDFCFEFFF010EDB2AD6D7FE0ECE
:103D0000DB50130DF3CFE9FFF4CFEAFF000EE926F5
:103D1000010EEA22120EE926000EEA22EF6A010ED7
:103D2000DB6A2F0EF36E010EDBCFF4FFF350F45C71
:103D300005E2AEEC25F0010EDB2AF3D7010E146E7E
:103D4000020EE15C02E2E16AE552E16E1450E552D6
:103D5000E7CFD9FF1200D9CFE6FFE1CFD9FF020E9E
:103D6000E126DF6A0C0EDF5C6AE2010EDB6A130EED
:103D7000F36E010EDBCFF4FFF350F45C2AE2DF2890
:103D8000130DF3CF16F0F4CF17F0000E1626010E28
:103D90001722010EDB501624E96E000E1720EA6E82
:103DA000EF50E66EDF50130DF3CF14F0F4CF15F0A3
:103DB000000E1426010E1522010EDB501424E96EAC
:103DC000000E1520EA6EE552E750EF6E010EDB2A79
:103DD000CED7010EDB6A070EF36E010EDBCFF4FFC8
:103DE000F350F45C2AE2DF28070DF3CF16F0F4CF8E
:103DF00017F0000E16260F0E1722010EDB501624A8
:103E0000E96E000E1720EA6EEF50E66EDF50070DE8
:103E1000F3CF14F0F4CF15F0000E14260F0E152278
:103E2000010EDB501424E96E000E1520EA6EE552F7
:103E3000E750EF6E010EDB2ACED7DF2A93D70F01B2
:103E40005B6B020EE15C02E2E16AE552E16EE55273
:103E5000E7CFD9FF1200D9CFE6FFE1CFD9FF020E9D
:103E6000E1260C0EDF6EDF5000086AE2010EDB6A0D
:103E7000130EF36E010EDBCFF4FFF350F45C2AE275
:103E8000DF04130DF3CF16F0F4CF17F0000E162653
:103E9000010E1722010EDB501624E96E000E1720CA
:103EA000EA6EEF50E66EDF50130DF3CF14F0F4CF4F
:103EB00015F0000E1426010E1522010EDB501424FD
:103EC000E96E000E1520EA6EE552E750EF6E010E26
:103ED000DB2ACED7010EDB6A070EF36E010EDBCFB5
:103EE000F4FFF350F45C2AE2DF04070DF3CF16F081
:103EF000F4CF17F0000E16260F0E1722010EDB501E
:103F00001624E96E000E1720EA6EEF50E66EDF50C1
:103F1000070DF3CF14F0F4CF15F0000E14260F0E9A
:103F20001522010EDB501424E96E000E1520EA6EF6
:103F3000E552E750EF6E010EDB2ACED7DF0693D7AE
:103F40000F01006B020EE15C02E2E16AE552E16EF4
:103F5000E552E7CFD9FF12000C0EE66EA1EC25F07A
:103F6000E552B8C0E6FFA1EC25F0E552B9C0E6FF86
:103F7000A1EC25F0E552BAC0E6FFA1EC25F0E55230
:103F8000BBC0E6FFA1EC25F0E552AEEC25F0000940
:103F90001BE1AEEC25F00001B86FAEEC25F000019E
:103FA000B96FAEEC25F00001BA6FAEEC25F0000160
:103FB000BB6FAEEC25F00001CC6FAEEC25F000013C
:103FC000CD6F0001F18112000001B46B060EE76EA7
:103FD000B419E8AE02D0E73402D0E750B45D05E290
:103FE000AEEC25F00001B42BF1D71200D9CFE6FFDB
:103FF000E1CFD9FF070EE1260001F0A535D0F095FD
:10400000EF93EF95EF97EF99EF9BEF9DEF9FF09177
:10401000F093830EE66EA1EC25F0E552AEEC25F0B0
:10402000AEEC25F0AEEC25F0AEEC25F0AEEC25F0D4
:10403000AEEC25F0AEEC25F00001B86FAEEC25F04B
:104040000001B96FAEEC25F00001BA6FAEEC25F0BF
:104050000001BB6FAEEC25F00001CC6FAEEC25F09B
:104060000001CD6F0001F181F1A1FCD1F191DCECF7
:1040700000F00001030E876F0C0E886FE66AE66A97
:104080000201A10E846F660E856F000E866FF7EC3D
:1040900001F0E552E5520001F251F195010B01E00A
:1040A000F185F291B2EC25F00001CB6B0C0EE66EBF
:1040B000A1EC25F0E552B8C0E6FFA1EC25F0E552F1
:1040C000B9C0E6FFA1EC25F0E552BAC0E6FFA1ECCD
:1040D00025F0E552BBC0E6FFA1EC25F0E552AEECC1
:1040E00025F0DF6E0001B46B060EE76EB419E8AE82
:1040F00002D0E73402D0E750B45D19E2AEEC25F00F
:10410000E66ED950010F146EDACF15F0B4C016F078
:10411000176A16BE176814501624E96E155017203A
:10412000EA6EE552E750EF6E0001B42BDDD7DF04F5
:104130000FE10201310EB66F670EB76F000EB86F58
:104140000201BC0EB46F000EB56FAFEC26F0BBD011
:104150000A0EE66EA1EC25F0E552010EDBCFE6FF7C
:10416000A1EC25F0E552020EDBCFE6FFA1EC25F035
:10417000E552030EDBCFE6FFA1EC25F0E552040E7D
:10418000DBCFE6FFA1EC25F0E552050EDBCFE6FF25
:10419000A1EC25F0E552060EDBCFE6FFA1EC25F001
:1041A000E552AEEC25F00001B46B0F0EE76EB419CA
:1041B000E8AE02D0E73402D0E750B45D12E2AEECD4
:1041C00025F0E66EB4C0E9FFEA6AE9BEEA68BC0E13
:1041D000E926000EEA22E552E750EF6E0001B42B0B
:1041E000E4D7B46B320EE76EB419E8AE02D0E73410
:1041F00002D0E750B45D05E2AEEC25F00001B42B2F
:10420000F1D7BC5160E1050EE66EA1EC25F0E55258
:10421000010EDBCFE6FFA1EC25F0E552020EDBCF6D
:10422000E6FFA1EC25F0E552030EDBCFE6FFA1ECA3
:1042300025F0E552040EDBCFE6FFA1EC25F0E552B8
:10424000050EDBCFE6FFA1EC25F0E552060EDBCF35
:10425000E6FFA1EC25F0E552AEEC25F00001B46BD1
:10426000080EE76EB419E8AE02D0E73402D0E7508A
:10427000B45D12E2AEEC25F0E66EB4C0E9FFEA6A86
:10428000E9BEEA68BC0EE926000EEA22E552E750D4
:10429000EF6E0001B42BE4D7200EC46FAEEC25F016
:1042A0000001C56FAEEC25F00001C66FAEEC25F045
:1042B0000001C76FC86BAEEC25F0AEEC25F0AEEC9C
:1042C00025F0AEEC25F00001876B886BE66AE66AA4
:1042D000E66A02019E0E9C6F660E9D6F000E9E6F39
:1042E0007AEC03F0E552E552E5520001120E886FB8
:1042F000E66AE66AE66ABC0EE66E000EE66E33EC2F
:1043000003F0146E050EE15E14500001070E876F76
:10431000886B0201850EB66F660EB76F000EB86F20
:1043200002018A0EB46F000EB56FAFEC26F0E66A9C
:10433000010EE66E8A0EE66E000EE66EB4EC01F03B
:10434000E552E552E552E5520001B76BB7C0B6F051
:10435000B46B0D0EE76EB419E8AE02D0E73402D0AC
:10436000E750B45D15E2B4C0E9FFEA6AE9BEEA6865
:10437000070EEA02F3CFEAFFE902F3CFE9FFF450B8
:10438000EA26000EE9260F0EEA22EF6AB42BE1D7E7
:10439000CDC0E6FFCCC0E6FFE66A4EEC1CF0E5526D
:1043A000E552E55201081CE10001010EB46F0D0E4B
:1043B000E76EB419E8AE02D0E73402D0E750B45D3E
:1043C00036E2010EE66EE66AB4C0E6FFA1EC19F033
:1043D000E552E552E55201082AE10001B42BE7D786
:1043E000E66A010EE66EE66AA1EC19F0E552E552C6
:1043F000E55201081CE10001010EB46F0D0EE76EDD
:10440000B419E8AE02D0E73402D0E750B45D0FE251
:10441000010EE66EE66AB4C0E6FFA1EC19F0E552C3
:10442000E552E552010803E10001B42BE7D7000192
:10443000030E876F0C0E886FE66AE66A0201720E41
:10444000846F660E856F000E866FF7EC01F0E55203
:10445000E5520001F151F291040B01E0F28182DB9F
:104460000001F183F1A3D1D0F193B6C0B4F0000103
:10447000020E876F070E875D01E3C7D0B4C0E9FF66
:10448000EA6AE9BEEA68070EEA02F3CFEAFFE90248
:10449000F3CFE9FFF450EA26000EE9260F0EEA22D8
:1044A000EF5001E1B0D0886BB751B45D55E1B4C0B5
:1044B000E9FFEA6AE9BEEA68070EEA02F3CFEAFF1B
:1044C000E902F3CFE9FFF450EA26000EE9260F0EC9
:1044D000EA22EF040AE1010EE66EE66E02016F0EBB
:1044E000846F660E856F000E09D0010EE66EE66ED3
:1044F00002016C0E846F660E856F000E866FF7ECFE
:1045000001F0E552E552010EE66EE66EB4C014F01D
:10451000156A14BE1568130E1502F3CF15F01402B8
:10452000F3CF14F0F4501526000E1426010E1522B8
:1045300014C0E6FF15C0E6FFB4EC01F0E552E55209
:10454000E552E552010EE66EE66E02016A0E846FD8
:10455000660E856F000E50D0B4C0E9FFEA6AE9BE6E
:10456000EA68070EEA02F3CFEAFFE902F3CFE9FFB8
:10457000F450EA26000EE9260F0EEA22EF0409E1C4
:10458000E66AE66A0201670E846F660E856F000EAA
:1045900008D0E66AE66A0201640E846F660E856FD3
:1045A000000E866FF7EC01F0E552E552E66AE66A26
:1045B000B4C014F0156A14BE1568130E1502F3CFBB
:1045C00015F01402F3CF14F0F4501526000E142643
:1045D000010E152214C0E6FF15C0E6FFB4EC01F091
:1045E000E552E552E552E552E66AE66A0201150E29
:1045F000846F680E856F000E866FF7EC01F0E55250
:10460000E5520001B42B872B35D70001EFAF06D060
:10461000EF9FF085F1870001010E896F81AC37D0E3
:104620000001EF99190EF46FF09B0C0E0001B75DBD
:1046300018E2B72BB751070DF3CFE9FFF4CFEAFF2C
:10464000000EE9260F0EEA22EF5002E1B7071CD058
:104650000001F1830001B651B75D040815E2B62BE5
:1046600013D0ABEC1EF0010EE66EE66A0C0EE66EA1
:10467000A1EC19F0E552E552E552010803E0000112
:10468000B607B7070001F1830001F0ABFDD781AE9B
:1046900035D00001EF97190EF46FF09B0001B75170
:1046A000000818E2B707B751070DF3CFE9FFF4CFC1
:1046B000EAFF000EE9260F0EEA22EF5002E1B72BC7
:1046C0001AD00001F1830001B751D880B65513E22A
:1046D000B60711D02BEC1FF0E66AE66AE66AA1EC99
:1046E00019F0E552E552E552010803E00001B62B4E
:1046F000B72B0001F1830001F0ABFDD70001F0A35F
:10470000C4D0F0930001B751070DF3CFE9FFF4CF08
:10471000EAFF000EE9260F0EEA22EF0475E1B85118
:10472000B911DF6EDF50BA11DF6EDF50BB11DF6EE3
:10473000DF5023E0B751070DF3CFE9FFF4CFEAFFD5
:10474000000EE9260F0EEA22050EE926000EEA22E7
:10475000EF0413E1B751070DF3CFE9FFF4CFEAFF00
:10476000000EE9260F0EEA22060EE926000EEA22C6
:10477000EF5003E1ACEC1FF088D00001F1810001A3
:10478000B751070DF3CFE9FFF4CFEAFF000EE9269A
:104790000F0EEA22010EE926000EEA22EFCFB8F052
:1047A000B751070DF3CFE9FFF4CFEAFF000EE9267A
:1047B0000F0EEA22020EE926000EEA22EFCFB9F030
:1047C000B751070DF3CFE9FFF4CFEAFF000EE9265A
:1047D0000F0EEA22030EE926000EEA22EFCFBAF00E
:1047E000B751070DF3CFE9FFF4CFEAFF000EE9263A
:1047F0000F0EEA22040EE926000EEA22EFCFBBF0EC
:10480000010ECC6FCD6B41D0800EE66E9AD9E55289
:10481000B8C0E6FF96D9E552B9C0E6FF92D9E55295
:10482000BAC0E6FF8ED9E552BBC0E6FF8AD9E55291
:104830000001B751070DF3CFE9FFF4CFEAFF000EF7
:10484000E9260F0EEA22050EE926000EEA22EF50B5
:10485000E66E77D9E5520001B751070DF3CFE9FFB6
:10486000F4CFEAFF000EE9260F0EEA22060EE92633
:10487000000EEA22EF50E66E64D9E5526FD90001CE
:10488000F085F09F0001100E896F0001EFAB07D09B
:10489000EF9BF0850001100E896F0001EE6BEFAD0C
:1048A00003D0EF9DACEC1FF0070EE15C02E2E16A81
:1048B000E552E16EE552E7CFD9FF1200DACFE4FF0F
:1048C000E2CFDAFFE9CFE4FFEACFE4FFF6CFE4FF7F
:1048D000F7CFE4FFF8CFE4FFF5CFE4FFF3CFE4FF39
:1048E000F4CFE4FFFACFE4FFFBCFE4FF00EE00F0EB
:1048F000140EE80403E3EECFE4FFFBD700EE14F060
:10490000060EE80403E3EECFE4FFFBD7E652F2A481
:10491000C7D0670ED66E9E0ED76EF2940001EF815F
:104920000001CE51010B05E18450020B02E00001B1
:10493000EF830001CE51020B05E18450010B02E030
:104940000001EF850001CE51040B05E18150800B81
:1049500002E00001EF870001CE51080B05E1815014
:10496000400B02E00001EF890001CE51100B05E180
:104970008150200B02E00001EF8B0001CE51200B93
:1049800005E18150100B02E00001EF8D0001CE51D6
:10499000400B05E18150080B02E00001EF8F0001A0
:1049A000CE51800B05E18150040B02E00001F08143
:1049B0000001CF51010B05E18150020B02E0000123
:1049C000F0830001CE918450020B01E0CE81CE93A2
:1049D0008450010B01E0CE83CE958150800B01E025
:1049E000CE85CE978150400B01E0CE87CE99815085
:1049F000200B01E0CE89CE9B8150100B01E0CE8BC5
:104A0000CE9D8150080B01E0CE8DCE9F8150040BCE
:104A100001E0CE8FCF918150020B01E0CF81845015
:104A2000020B18E18450010B15E18150800B12E15B
:104A30008150400B0FE18150200B0CE18150100B95
:104A400009E18150080B06E18150040B03E181501C
:104A5000020B01E04DD80001F45105E1F5C0F4F07E
:104A6000F08BF07D01D0F407EC51ED1113E1020E53
:104A7000D880E855000EE95503E2E807000EE95B2F
:104A8000020ED880E455000EE5550AE2E407000E58
:104A9000E55B06D0050EEB5D03E0EC07000EED5B79
:104AA000E55200EE19F0060EE80403E3E5CFEDFF52
:104AB000FBD700EE13F0140EE80403E3E5CFEDFF9F
:104AC000FBD7E5CFFBFFE5CFFAFFE5CFF4FFE5CF5E
:104AD000F3FFE5CFF5FFE5CFF8FFE5CFF7FFE5CF33
:104AE000F6FFE5CFEAFFE5CFE9FFE5CFDAFF1100FA
:104AF0000001E80EEC6F030EED6FEB0504E1D00E44
:104B0000EC6F070EED6F020EEB5D04E1700EEC6FC3
:104B1000170EED6F030EEB5D04E1E00EEC6F2E0E51
:104B2000ED6F040EEB5D04E1600EEC6FEA0EED6FCD
:104B3000E6C0E8F0E7C0E9F0E2C0E4F0E3C0E5F089
:104B40001200D9CFE6FFE1CFD9FFACA2FED7FE0E0F
:104B5000DB50AD6EE552E7CFD9FF12009EAAFED71B
:104B6000AE501200840EE66EECDFE552F2C0E6FFB6
:104B7000E8DFE552F3C0E6FFE4DFE552AEEF25F0F3
:104B8000810EE66EDEDFE552E9DF0001F26FE6DF5F
:104B90000001F36FE3DF0001826FE0DF0001836F4C
:104BA0000001F2A702D0030E0DD0F2A906D0F2AB9D
:104BB00002D0040E07D0020E05D0F2AD02D0E16B98
:104BC0001200010EE16F1200D9CFE6FFE1CFD9FF4D
:104BD000020EE126F90E946E806A896A0F0EC16E8C
:104BE000070EB46EB56A926A836A8C6A956AE66A41
:104BF000D0D8E5520001E06FE8500C0801E2E06B0C
:104C0000010EE66EC6D8E5520001EA6FE8500508CD
:104C100002E2010EEA6F020EE66EBBD8E552000119
:104C2000EB6FE850050802E2050EEB6F040EE66E2E
:104C3000B0D8E552DE6EDD6ADECF14F0DDCF15F0C0
:104C400014C015F0146A14C0E6FF15C0E6FF030E89
:104C5000E66E9FD8E552E552E7CF15F0E552E7CF73
:104C600014F000011410E26F15C0E3F0FF0ED880BD
:104C7000E255030E155403E2400EE26FE36B060E9D
:104C8000E66E87D8E552DE6EDD6ADECF14F0DDCF4A
:104C900015F014C015F0146A14C0E6FF15C0E6FF45
:104CA000050EE66E76D8E552E552E7CF15F0E552EF
:104CB000E7CF14F000011410E66F15C0E7F0FF0E07
:104CC000D880E655030E155403E2E66B020EE76F3B
:104CD0000A0EE66EC4EC36F0E5520A0EE66E95EC6E
:104CE00036F0E552FE0EE66E7AEC36F0E552E6C09E
:104CF000E8F0E7C0E9F0E2C0E4F0E3C0E5F0E2C0CC
:104D0000E6FFE3C0E6FFE2EC35F0E552E552E8C02D
:104D1000E6FFE9C0E6FF11EC36F0E552E552400E41
:104D2000E66EE66A3C0EE66EA8EC35F0E552E5521A
:104D3000E5529F0EE66E5EEC36F0E552F28E000113
:104D4000EF6BF06B0001CE6BCF6B020EE15C02E209
:104D5000E16AE552E16EE552E7CFD9FF12000201A8
:104D6000B6C2F6FFB62BB7C2F7FF000EB723B8C224
:104D7000F8FFB8230800F550E66EB4C2E9FFB5C2EB
:104D8000EAFFB42B000EB523E552E750EF6EE7E1E2
:104D90001200D9CFE6FFE1CFD9FFAA6AFE0EDB50A1
:104DA000A96EA69EA69CA680A850E552E7CFD9FF83
:104DB0001200D9CFE6FFE1CFD9FFAA6AFE0EDB5081
:104DC000A96EFD0EDB50A86EA69EA69CA684F29E40
:104DD000550EA76EAA0EA76EA682F28EA694A6B254
:104DE000FED7E552E7CFD9FF1200D9CFE6FFE1CFDA
:104DF000D9FFE652E66ACDDFE5520001E05D06E04C
:104E0000E0C0E6FFE66AD5DFE552E552010EE66E48
:104E1000C0DFE5520001EA5D07E0EAC0E6FF010EEF
:104E2000E66EC7DFE552E552020EE66EB2DFE552EE
:104E30000001EB5D07E0EBC0E6FF020EE66EB9DFB6
:104E4000E552E552E2C0DFFF030EE66EA2DFE55257
:104E5000146EDF50145C07E0DFCFE6FF030EE66E52
:104E6000A8DFE552E552E3C014F0156A1450DF6E76
:104E7000040EE66E8EDFE552146EDF50145C07E020
:104E8000DFCFE6FF040EE66E94DFE552E552E6C0A2
:104E9000DFFF050EE66E7DDFE552146EDF50145C19
:104EA00007E0DFCFE6FF050EE66E83DFE552E55251
:104EB000E7C014F0156A1450DF6E060EE66E69DF67
:104EC000E552146EDF50145C07E0DFCFE6FF060EFC
:104ED000E66E6FDFE552E552E552E552E7CFD9FFC6
:104EE000120072DEE3EC00F00001C00E816F826BF5
:104EF000836B896B0001F085E4C0E6FFE5C0E6FF47
:104F0000E2EC35F0E552E552E8C0E6FFE9C0E6FF25
:104F100011EC36F0E552E5520001F0A960D030DE28
:104F20008450020B0DE08450010B0AE00001F3896C
:104F3000F08718DE280EE66EADEC36F0E5524FD065
:104F40000001F351100B09E08450020B03E184507F
:104F5000010B03E0F087F39905DE8450020B1EE09D
:104F600000018151FB081AE3040E8125816F820E36
:104F7000E66EE7DDE55200018129E86CB46FE66E6C
:104F8000E0DDE552B4C0E6FFDCDDE5520001F0876C
:104F9000140EE66EADEC36F0E552E0DD8450010B08
:104FA0001EE0040E0001815D1AE3040E815D816F35
:104FB000820EE66EC6DDE55200018129E86CB46F11
:104FC000E66EBFDDE552B4C0E6FFBBDDE552000191
:104FD000F087140EE66EADEC36F0E552BFDD000151
:104FE000895102E1FDEC0DF00001890502E10BECB5
:104FF0000FF0100E0001895D05E3200E895D02E2CD
:105000000DEC12F0200E0001895D05E3300E895D84
:1050100002E2F6EC1FF0300E0001895D05E3400E60
:10502000895D02E2BEEC04F0400E0001895D05E3FB
:10503000500E895D02E2E6EC0AF0500E0001895D37
:1050400005E3600E895D02E297EC07F0600E000157
:10505000895D01E251D7FF0E895D01E34DD788ECF0
:0450600006F04AD735
:0C5064000000000000000000FE0101013F
:105070000000FF0000000101FE000000000003042A
:105080000404040403000000FFC7830101010101BF
:105090000183C7FF7C0010387C00007C38100000C2
:1050A000007C007C0000007C7C7C7C007C38100054
:1050B0007C007C38107C3810C0FC04C8F8007C4CA4
:1050C0004C487800FEFEFEFEFEFEFFFF01000000E1
:1050D0000001FFFF010000010000FFFF04040404C1
:1050E00004047C4444447C007C5C745C7C0618248E
:1050F00024742408FC8C8C8888F01010105438100C
:1051000018180018180018187E3C1800FE20D8FE49
:105110008870F8483090A848FE20D800FE10FE00A5
:10512000C8A8980000000000000000009E000000D9
:1051300000060006000028FE28FE28004854FE5401
:105140002400462610C8C4006C92AA44A0000000A7
:10515000060000000038448200000082443800004D
:1051600024187E18240010107C10100000804000CD
:10517000000010101010100000C0C00000004020FF
:10518000100804007CA2928A7C000084FE8000004B
:1051900084C2A2928C00448292926C00302824FE39
:1051A00020004E8A8A8A72007C92929260000602E7
:1051B000E2120E006C9292926C000C9292927C0021
:1051C0000000880000000080480000001028448291
:1051D0000000002828280000824428100000040253
:1051E000A2120C006492F282FC00F8141214F8006F
:1051F000FE9292926C007C8282824400FE82824403
:105200003800FE9292928200FE12121202007C82FC
:1052100082927400FE101010FE000082FE820000D8
:105220004080827E0200FE1028448200FE80808042
:105230008000FE040804FE00FE081020FE007C82B0
:1052400082827C00FE1212120C007C82A242BC0000
:10525000FE1232528C008C92929262000202FE0286
:1052600002007E8080807E003E4080403E007E8046
:1052700060807E00C6281028C6000608F0080600D8
:10528000C2A2928A860000FE8282000004081020DA
:105290004000008282FE00000804020408008080B2
:1052A0008080800000020400000040A8A8A8F00050
:1052B000FE90888870007088888850007088889078
:1052C000FE0070A8A8A8100010FC1202040010A88C
:1052D000A8A87000FE100808F0000088FA800000FE
:1052E0000040887A0000FE20508800000082FE8086
:1052F0000000F8081008F000F8100808F0007088A6
:1053000088887000F8282828100010282828F8001D
:10531000F8100808100090A8A8A84800087E888007
:10532000400078808040F800384080403800788025
:105330004080780088502050880098A0A0A0780075
:1053400088C8A898880000106C8200000000FE0049
:10535000000000826C1000000402040200003840CB
:105360003800304830007840400000000000000065
:10537000008040000000000000000000000000006D
:10538000000000000000000000000000000000001D
:10539000000000000000000000000000000000000D
:1053A00090AAACAA48000000000000000000000025
:1053B0000000080AFC0A0800889AACCA88000000AD
:1053C00000000000000000000000000000000000DD
:1053D00000000000000000000000000000000000CD
:1053E00000000000000000000000000000000000BD
:1053F00000000000000000000000000000000000AD
:1054000090AAACAA480000000000000000000000C4
:105410000000087E8880460088CAAC9A8800000098
:10542000000000000000000000000000000000007C
:10543000000000000000000000000000000000006C
:105440000000000000000000000000000000009CC0
:10545000AA72000000000000000000000000000030
:10546000000000000000000000000000000000003C
:10547000000000000000000000000000000000002C
:10548000000000000000000000000000000000001C
:10549000000000000000000000000000000000000C
:1054A00000000000000000000000000000000000FC
:1054B00000000000000000000000000000000000EC
:1054C00000000000000000000000000000000000DC
:1054D00000000000000000000000000000000000CC
:1054E00000000000000000000000F0282C2AF0005E
:1054F00000000000000000000000000000000000AC
:10550000000000000000000000000000000000009B
:1055100000000000708A8C8A50000000000000002B
:10552000000000000000000000000000F8AAACAA83
:1055300088000088FC8A0000000000000000F88A53
:105540008C8A7000000000000000000000000000D5
:10555000F8122442F80070888C8A70000000000065
:105560000000000000000000000000000000F82A19
:105570006CAA100078848A8478007880848278000D
:105580000000000000000000000000000810E4120D
:105590000800000000000000000000000000000003
:1055A0000000000000000000000040A8ACAAF000CD
:1055B00000000000000000000000000000000000EB
:1055C00000000000000000000000000000000000DB
:1055D00000000000708A8C8A500070A8ACAA1000ED
:1055E00000000000000000000000000070AAACAA4B
:1055F00010000088FC8200000000000000006090A5
:1056000090FC080400000000000000000000000002
:10561000F8120C0AF00070888C8A700000000000FC
:10562000000000000000000000000000000000007A
:1056300000000000F8100A0C120078828542F80081
:1056400078808442F80000000000000000000000A4
:10565000000018A0A4A278000000000000000000D4
:10566000000000007C3A0606063A7C001F2E30300F
:10567000302E1F0000000000003C7E0000000000F3
:10568000001E3F000082868686BA7C001F2E3131C4
:10569000312000000082868686BA7C0000203131ED
:1056A000312E1F003E5CC0C0C05CBE000000000088
:1056B000000F1F007CBA86868682000000203131F0
:1056C000312E1F007CBA8686868200001F2E313163
:1056D000312E1F0000020606063A7C000000000082
:1056E000000E1F007CBA868686BA7C001F2E3131E0
:1056F000312E1F007CBA868686BA7C0000203131AC
:10570000312E1F0000000060600000000000000C4F
:105710000C00000000C0C0C0C0C0C00000000000FD
:1057200000000000FC048444242428509FE0FB3C3B
:1057300008282824981818F808E818002320203F83
:105740001E01000080402020204080000304080843
:105750002A1C0900C0C0C0C0808080003F202020DB
:105760002020203F00000000800000000202020212
:105770000A07020000000000000000000F0F0F00E9
:105780000F0F0F00000000C0800000000F0F0F3F40
:105790001F0F0600000000E0E0E070B800002033BA
:1057A0001B0C070BCC76380C060000001E3F0000D7
:1057B00000000000000000000000000000000000E9
:1057C00000000000000000000000000000000000D9
:1057D00000000000000000000000000000000000C9
:1057E00000000000000000000000000000000000B9
:1057F00000000000000000000000000000000000A9
:105800000000000000000000000000000000000098
:105810000000000000000000000000000000000088
:105820000000000000000000000000000000000078
:105830000000000000000000000000000000000068
:105840000000000000000000000000000000000058
:105850000000000000000000000000000000000048
:105860000000000000000000000000000000000038
:1058700000000000000000F0F00000000000001B2D
:105880001B0000000078780000787800000000001D
:1058900000000000008080E080C0E080041C0F0554
:1058A0001C0704000060F090FC90B00000040C089D
:1058B0003F080F07609090600000808002020201A4
:1058C0000D13120C000060F090100000000E1F116C
:1058D000131E1C1700000078780000000000000074
:1058E000000000000000E0F80C0000000000071FAE
:1058F000300000000000000CF8E000000000003064
:105900001F070000808000C0008080000407030F94
:1059100003070400000000E0E00000000303031F91
:105920001F030303000000000000000000004038D7
:105930001800000000000000000000000000030349
:105940000303000000000000000000000000001839
:105950001800000000000000C030080000201807F8
:105960000100000000C0E0309030E0C000070F18D8
:1059700011180F07001010F0F00000000010101FA9
:105980001F101000002010101010F0600010181CE4
:1059900016131110002010909090706000081010E5
:1059A00010191F0F000080C070F0F0000003030208
:1059B000021F1F0200F0F0909090100000091010DC
:1059C00010190F0F00C0E0B09090A00000070F105A
:1059D00010101F0F0010101010D0F0300000101C1D
:1059E0000F0300000060709090907060000F1F1017
:1059F00010101F0F00E0F0101010E0C000010B129B
:105A0000121A0F07000000C0C000000000000018BC
:105A100018000000000000C0C00000000000403876
:105A20001800000000000000808080C00002070510
:105A30000D0D08180080808080808080000D0D0D85
:105A40000D0D0D0D00C08080800000000018080DB5
:105A50000D0507020000201090F060000000001B00
:105A60001B000000C03018884848F0000718332495
:105A700028242300000080F030F0800000181F0769
:105A800002071F1800F0F0101010F0E0001F1F11A7
:105A900011111E0E00C0E0301010102000070F186A
:105AA0001010100800F0F0101030E0C0001F1F10A0
:105AB00010180F0700F0F01010101010001F1F1129
:105AC0001111111000F0F01010101010001F1F0124
:105AD0000101010000C0E0301010102000070F1875
:105AE00010111F1F00F0F0000000F0F0001F1F0158
