:020000040000FA
:020000001028C6
:08000800F0000308F1000408F8
:10001000F2000A08F6008A01031383128313A5294C
:100020004A2137213723372337236D218A150A12B6
:10003000CE208A110A1291222E1C1B280000E422D5
:100040008A150A12DD208A110A127808F301013C90
:10005000031D20282E086521802142238A150A12BB
:10006000DD20F501E22003218A110A12751CF3013B
:100070002E1E2E28EE017308FF3903195228F501B0
:100080008A150A1221212E215F218121A821D62142
:10009000092237229622B522CB22FF228A110A1288
:1000A000751CF3016E1CB028EE1CB0286D084C02C4
:1000B000031D73286908BC006A08BD006B08BE00F8
:1000C0006C08BF00ED012C253C08E9003D08EA0062
:1000D0003E08EB003F08EC003B1C7328B1206E1C6F
:1000E000B028EE1CB0286F1C8E28CD146F1D8228FE
:1000F0006808143C03188228CD106808193C031DB9
:100100008228E8010030B6004D08B700B8018A1512
:100110000A1263208A110A126F19E80A6908BC00E2
:100120006A08BD006B08BE006C08BF006D08BB000C
:10013000C9240130A600AC2285150030B6008A150E
:100140000A12A5208A110A12542220088A150A12BE
:100150000020210800208A110A12B60B9F28ED0A00
:100160003B286E10EE106E116F10EE1908006E1E17
:10017000E228EE1EE2286208BC006308BD006408A5
:10018000BE006508BF006608E0006708E1008A1548
:100190000A126B238A110A123B1808008A150A12E8
:1001A000E6238A110A1283171C3084000008E90034
:1001B000840A0008EA00840A0008EB00840A0008A8
:1001C000EC0025290630D9006208DA006308DB005C
:1001D0006408DC006508DD006608E0006708E100EF
:1001E0008A150A127E248A110A128317303084007D
:1001F0000008063C031911296E1E08000630D91F9D
:100200000E30D9000130E000E1018A150A127E2487
:100210008A110A128317303084000008063C031D3F
:10022000080083173C3084000008E900840A0008B5
:10023000EA00840A0008EB00840A0008EC00840A43
:100240000008E600840A0008E700ED016E14EE14D1
:100250006E158A150A127920CD106F100030B60085
:100260004D08B700B80163208A110A120800031371
:100270008316113085008030870000308900FF3000
:100280008600880003138312073089003730870007
:100290008501080003138316C730810020308C00CD
:1002A00000308D00C0308B0026309800031383127D
:1002B00090309800031383166730990007309F0031
:1002C000031383129F01F301080003138316981C84
:1002D00065290313831299000800413065216830B5
:1002E00065216F3065216A30652121306521080064
:1002F00054222008652121086521B60B78290800C1
:100300008317903084001430B6000008B700840AC8
:100310000008840A652137086521B60B85298313F7
:10032000080083173030840000086521840AB60B6A
:100330009429831308008317103084000008652176
:10034000840AB60B9E29831308008C1EB3291A0851
:10035000F4007308073C031CB3297308783E84003B
:1003600074088000F30A76088A0072088400710815
:100370008300700809001330B6008B30B800B80B4A
:10038000BF29B60BBD2908000030B6000030B80008
:10039000B80BC829B60BC82908004730B7002B3066
:1003A000B600D930B800B80BD329B60BD129B70B9A
:1003B000CF29080027303122AC000800213031223B
:1003C000A500080016303122A20008002230312298
:1003D000A600080023303122A70008002430312273
:1003E000A800080025303122A9000800263031225B
:1003F000AB0008002308B50016303E2208002D0887
:10040000B50027303E2208002608B50022303E22E3
:1004100008002708B50023303E2208002808B50050
:1004200024303E2208002908B50025303E2208006D
:100430002B08B50026303E2208002408B5002130E4
:100440003E220800DA212C18292AAC1B222A2C1F54
:10045000222A1D22042209220E2213221822FF2101
:100460000800870003138316FF30860088000313FB
:1004700083120911000006080915080087000313FC
:100480008316003086008800031383123508860027
:10049000880189100000891403138316FF30860039
:1004A000880003138312080027303122AC002C1877
:1004B0005D2AAC1B542AAC1D542A2030870003133C
:1004C0008316FF3086008800031383120911000091
:1004D00000000608A0000808A10009150800542221
:1004E000B60B6F2A0800E030AB0018220800831713
:1004F00090308400542220088000840A2108800063
:10050000840AB60B7A2A831308004030B60083179A
:100510001030840000308000840AB60B8B2A8313CD
:100520000800AE010910372309143C2373223C2331
:100530000230A300FA21E030AB00A601A701A80118
:10054000A901A4010030AD0022223C23F6212B0892
:10055000E03C03192E140800DA212C18B12AAC1B38
:10056000AC2AE030AB001822DA212C18BB2AAC1BD5
:10057000B42A2C1FB42A2E19CC2AA4011D2204222D
:1005800009220E2213222A080F39E038AB00182264
:100590002030AD00FF2108000030B50022303E229F
:1005A00004220030B50025303E220030B500243052
:1005B0003E222A08B50023303E2213220E220922B1
:1005C0002430AD00FF2108003C2373223C23E0309F
:1005D000AB00A601A701A801A901A401EC30AD0060
:1005E00022221B30B6006F221430B6007722023070
:1005F000B6006F225422A118AE140A30B6006F2242
:1006000054222008AF002108B00054222008B10075
:100610002108B2001530B6006F22542221192E1580
:100620001030B6006F222E1D202B54222008AF0060
:100630002108B00054222008B1002108B200232B69
:100640000230B6006F220430B6006F225422A11B84
:100650002D2B211F2D2B211AAE159530B6006F22A0
:10066000AE13AE1C0800AE190800AE17080021300A
:10067000B600B60B392B0800DA212C088039031993
:1006800008003C2B8522A701A801A901AA01BB01F2
:100690000130A600AC22DF30B6006F222030B60059
:1006A00077220130B6006F228313A430840027081C
:1006B0008000840A28088000840A29088000840AAF
:1006C0002A088000840A83179430840000080C3CB8
:1006D000031D013C031D912B0313831698308400E6
:1006E0000008A000840A0008A100840A0008A200F3
:1006F000840A0008A30003138312B4258313A830CF
:1007000084000008A700840A0008A800840A0008E2
:10071000A900840A0008AA00840ABC238317A43015
:1007200084000008053C031D0A3C031DBB2B040884
:10073000043E84000313831683170008A000840A74
:100740000008A100840A0008A200840A0008A3008F
:1007500003138312B4258313A83084000008A70074
:10076000840A0008A800840A0008A900840A000876
:10077000AA00840A482B080083173B08B600031020
:10078000B60DB60DB60DB60D3608113E840027081D
:100790008000840A28088000840A29088000840ACE
:1007A0002A088000840A0130A600AC222330B6005B
:1007B0006F22542221088000840A0530B60054229A
:1007C00020088000840A21088000840AB60BDF2BF1
:1007D0001030840254222008463C031D042C2108BA
:1007E000413C031D042C54222008543C031D042CBE
:1007F0002108333C031D042C54222008323C031DE5
:10080000042CFF308000BB0A08002E12C001C10179
:10081000C201C301C401C501C601C701C801C901A4
:10082000CA01CB01A4010130A600AC220530B600FC
:100830006F2254222108FF39031DC82C542220089E
:10084000023C031DC82C2108CC00203C031CC82CF2
:1008500054222008C4002108C50054222008023C6C
:10086000031DC82C0930B6006F2254222008C00096
:100870002108C10054222008C2002108C3005422CC
:10088000542254222008C8002108C90054222008FC
:10089000CA002108CB001130B6006F225422200874
:1008A000463C031DC82C2108413C031DC82C542282
:1008B0002008543C031DC82C2108333C031DC82CC0
:1008C00054222008323C031DC82C8313A03084001E
:1008D00044088000840A45088000840A4608800095
:1008E000840A47088000840A27088000840A2808B0
:1008F0008000840A29088000840A2A088000840A6B
:10090000B4250008C400840A0008C500840A000851
:10091000C600840A0008C700840AA030840040088A
:100920008000840A41088000840A42088000840A0A
:1009300043088000840A222644088000840A45086F
:100940008000840A46088000840A47088000840AE0
:10095000B4254C0D03138316A400A501A601A7011D
:100960002808A0002908A1002A08A2002B08A3003B
:1009700003138312E0250008C000840A0008C100A8
:10098000840A0008C200840A0008C300840A2E16E4
:1009900008008313A03084003C088000840A3D08CE
:1009A0008000840A3E088000840A3F088000840A90
:1009B000C926031383162C18ED2C03138312A030C1
:1009C000840048088000840A49088000840A4A0894
:1009D0008000840A4B088000840A03138312CC1819
:1009E00022264C192A26CC1933264C1A3D26CC1A1D
:1009F00048264C1B5426CC1B612640088000840AE4
:100A000041088000840A42088000840A430880006C
:100A1000840AB4253B0803138316A400A501A6018C
:100A2000A7012808A0002908A1002A08A2002B0875
:100A3000A30003138312B4258313A8308400000895
:100A4000A700840A0008A800840A0008A900840AF4
:100A50000008AA00840A0800BB018313A0308400A8
:100A60003C088000840A3D088000840A3E0880001B
:100A7000840A3F088000C926031383162C18502DC2
:100A800003138312A030840048088000840A4908B8
:100A90008000840A4A088000840A4B088000840A87
:100AA00003138312BA26AC3084000008B600A430C9
:100AB000840044088000840A45088000840A4608AF
:100AC0008000840A47088000840AB4250008A70033
:100AD000840A0008A800840A0008A900840A000803
:100AE000AA00840AA4010130A600AC220310360D2E
:100AF000B600FF39031D6F22A03084005422200865
:100B00008000BC00840A21088000BD00840A5422B1
:100B100020088000BE00840A21088000BF00840AEB
:100B2000C926031383162C189A2D03138312FF3042
:100B3000BB00B12D03138312F7308000840AFF300D
:100B40008000840AFF308000840A0F308000840A0D
:100B5000E025031383162C18B12D03138312FF30E5
:100B6000BB0003138312080003138316AC01200893
:100B70002407A8000318AC1421082507A900013098
:100B800003182C14AC18A90703182C14AC10220855
:100B90002607AA0001300318AC142C18AA07031862
:100BA000AC142C1023082707AB00013003182C14B9
:100BB000AC18AB0703182C14AC10031383120800F5
:100BC00003138316AC0124082002A800031CAC14F4
:100BD00025082102A9000130031C2C14AC18A9021D
:100BE000031C2C14AC1026082202AA000130031C9E
:100BF000AC142C18AA02031CAC142C1027082302D6
:100C0000AB000130031C2C14AC18AB02031C2C14D9
:100C1000AC10031383120800031383160130A002E3
:100C20000318192EA1020318192EA2020318192E57
:100C3000A302031383120800A00DA10DA20DA30DA2
:100C4000AC0D080003138316AC0103101C2603131C
:100C50008312080003138316AC0103101C261C2604
:100C600003138312080003138316AC0103101C2620
:100C70001C261C2603138312080003138316AC01E1
:100C800003101C261C261C261C2603138312080096
:100C900003138316AC0103101C261C261C261C26DD
:100CA0001C2603138312080003138316AC010310E0
:100CB0001C261C261C261C261C261C2603138312FD
:100CC000080003138316AC0103101C261C261C26E7
:100CD0001C261C261C261C26031383120800031046
:100CE000A30CA20CA10CA00C08000313831620086F
:100CF0000139AC006F260313831208000313831617
:100D000020080339AC006F266F26031383120800F6
:100D10000313831620080739AC006F266F266F2651
:100D20000313831208000313831620080F39AC0045
:100D30006F266F266F266F26031383120800031396
:100D4000831620081F39AC006F266F266F266F268A
:100D50006F260313831208000313831620083F39FC
:100D6000AC006F266F266F266F266F266F26031343
:100D7000831208000313831620087F39AC006F2606
:100D80006F266F266F266F266F266F26031383123A
:100D9000080003138316AC01FF30A005031D2C14BB
:100DA000A105031D2C14A205031D2C14A305031D6E
:080DB0002C1403138312080048
:10100000B500851605118510B50D03188514051555
:10101000851205118510B50D0318851405150511E8
:101020008510B50D03188514051505118510B50D2E
:1010300003188514051505118510B50D03188514C1
:10104000051505118510B50D031885140515051135
:101050008510B50D03188514051505118510B50DFE
:1010600003188514051505110800B501051185162D
:101070000310051505180314B50D05118512051586
:1010800005180314B50D0511051505180314B50D44
:101090000511051505180314B50D051105150518DD
:1010A0000314B50D0511051505180314B50D05112B
:1010B000051505180314B50D0511051505180314BC
:1010C000350D05110800851102300020360800207A
:1010D00038080020370800208515080085110330E6
:1010E0000020360800203520B8003520B7008515CF
:1010F00008008A110A12C4218A150A120030B600AB
:101100004D154D08B7000030B80063208A110A124F
:10111000BB218A150A1296204D110800A520203007
:10112000B70000300020B70B91280800851520304B
:10113000B6008E20B60B992808000B30B6004F0879
:10114000B7005008B80063200800051EA528080055
:10115000A520453000207830002069300020743010
:10116000002000300020003000200030002000303F
:10117000002008007920A520851553300020EF308D
:1011800000206E3000203E30002000300020003073
:10119000002000300020003000200800CD01CE01EA
:1011A0004030CF00D00079200330BA009D20BA2013
:1011B000BA0BD628A820792008007308FF39031934
:1011C000DD2808007808023C031D08007514730828
:1011D000013C0318080079080339B6000310B60D66
:1011E000B60DB60D360D103E840083171030B600D4
:1011F00000088A110A1265218A150A12840AB60BA0
:10120000F828F30108007808033C031D0800751452
:101210007308043C031808007908A7007A08A8009E
:101220007B08A9007C08AA008A110A1205248A15E5
:101230000A122E088A110A1265218A150A12F30170
:1012400008007808043C031D080075144C088A1136
:101250000A1265218A150A12F30108007808053C74
:10126000031D080075147308063C0318080079086C
:10127000BC007A08BD007B08BE007C08BF0031239B
:101280003B1C482983171030840081308000562988
:101290007D08E0007E08E1006B233B1C5529831785
:1012A00010308400803080005629E6231030B600CC
:1012B0008A110A129B218A150A12F3010800780884
:1012C000063C031D080075147308043C031808004D
:1012D0007908BC007A08BD007B08BE007C08BF000E
:1012E0008A110A122C253B0865213C0865213D081E
:1012F00065213E0865213F0865218A150A12F30120
:1013000008007808073C031D080075147308043CA6
:10131000031808007908BC007A08BD007B08BE00ED
:101320007C08BF00BB018A110A12C9244C08A60020
:10133000AC228A150A124C08B7000030B6008A1198
:101340000A1278218A150A12B70B9D29F3010800A9
:101350007808083C031D080075147308063C031840
:1013600008007908BC007A08BD007B08BE007C0834
:10137000BF0031233B1CBF298130B600CB297D083B
:10138000E0007E08E1006B233B1CC9298030B600D9
:10139000CB296124B60136088A110A12652104306E
:1013A000B6009B218A150A12F30108007808093C4F
:1013B000031D080075147308073C0318080079081A
:1013C000BC007A08BD007B08BE007C08BF0031234A
:1013D0003B18FA297908DA007A08DB007B08DC0080
:1013E0007C08DD007D08E0007E08E1007F08D90070
:1013F0007E24002A031783128130B0000313831266
:101400001230B6008A110A1291218A150A12F301CC
:10141000080078080A3C031D080075147308063C90
:10142000031808007908DA00BC007A08DB00BD0068
:101430007B08DC00BE007C08DD00BF0031233B1CC4
:10144000272A8317103084008130BB002C2A7D08A6
:10145000E0007E08E10055268A110A123B0865214A
:101460004130B6009B218A150A12F3010800780862
:10147000803C031D080075147308063C031808001F
:101480007908BC007A08BD007B08BE007C08BF005C
:1014900031233B1C512A8317103084008130800097
:1014A0008B2A7D08E0007E08E1006B233B1C5E2A4E
:1014B000831710308400803080008B2AE623831746
:1014C000103084000008063C031D8B2A1C30840069
:1014D0000008E900840A0008EA00840A0008EB001A
:1014E000840A0008EC007D08E6007E08E700790821
:1014F000E2007A08E3007B08E4007C08E500ED01E7
:101500006E14EE14CD106F1079200030B6004D0827
:10151000B700B801632083171030840000088A11D7
:101520000A1265218A150A12F30108007808813C25
:10153000031D080075146E088A110A1265218A15A8
:101540000A126F088A110A1265218A150A126E1191
:101550000430B6006E2037088A110A126521380857
:1015600065218A150A12F30108007808823C031DE0
:10157000080075147308023C031808007908D000AD
:101580007A08CF009D20FF308A110A1265218A1542
:101590000A12F30108007808833C031D0800751443
:1015A0000530B6006E2037088A110A126521380806
:1015B00065218A150A120830B6006E2037088A1194
:1015C0000A126521380865218A150A120930B60009
:1015D0006E2037088A110A126521380865216208D1
:1015E0006521630865216408652165086521660831
:1015F0006521670865218A150A12F3010800780839
:10160000843C031D080075147308023C031808008D
:101610006E080639EE007908F9396E04EE007A0892
:10162000EF00CD10CD13EF19CD170030B6004D08E7
:10163000B700B801632001306E203708CE004E118C
:101640006F1A4E150130B6004E08B700B80163207E
:101650008A110A12FF3065218A150A12E801F30186
:101660000800BB013C083D043E043F040319080088
:101670008A110A12C9240130A600AC228A150A1266
:10168000FF30BB008A110A1254228A150A12200860
:101690002E3C031D6A2B2108203C031D6A2B0430BD
:1016A000B6008A110A1254228A150A122008203C18
:1016B000031D6A2B2108203C031D6A2BB60B512BFE
:1016C0008A110A1254228A150A122008203C031D8E
:1016D0006A2BBB010800600803138316A0000313E4
:1016E0008312610803138316A100A201A30103134F
:1016F00083128A110A129326031383162C080313EC
:101700008312BA00CC1875264C197E26CC1988266F
:101710004C1A9326CC1A9F264C1BAC26CC1BBA26FF
:10172000031383162C0803138312B9008A110A12BB
:10173000C9268A150A12031383162C1CC42B031303
:1017400083128313A03084000008B700840A0008C5
:10175000B8008A110A122C258A150A123B18E32BAD
:101760008313A030840037088000840A3808800082
:1017700003138316A201A301031383128A110A1211
:101780000C268A150A12962B031383123908BB0004
:101790008A110A12C9240130A600AC228A150A1245
:1017A0001030DE003A08DE023A080F39B600FF3981
:1017B0000319E02BB60E8A110A126F228A150A123B
:1017C0000030BB00E52BFF30BB0008008317103052
:1017D000840000308000840A0530B6008A110A12A5
:1017E00054228A150A1220088000840A21088000E9
:1017F000840AB603031DEE2B8A110A1254228A159D
:101800000A1220088000113084000008FF390319F3
:10181000592CE53C0319592C21080F390F3C0319A9
:10182000592CA119592C211A2A2C0230B600193032
:10183000840000084D3C031D2C2C840A0008503CF9
:10184000031D2C2C840A0008333C031D2C2C06306D
:10185000B6002C2C0130B600103084003608800011
:101860000430B6008A110A126F228A150A121E303D
:1018700084008A110A1254228A150A122008800054
:10188000840A210880008A110A12542254221C3032
:10189000840054228A150A1220088000840A210834
:1018A00080000230B6008A110A126F228A150A12CD
:1018B00008000A30B6008A110A126F228A150A122D
:1018C00008000E30B6008A110A126F228A150A1219
:1018D0008317103084008A110A12542220088000D5
:1018E000840A21088000840A54228A150A122008DA
:1018F0008000840A21088000840A08008A110A12E4
:1019000085228A150A12E2255A08BC005B08BD0030
:101910005C08BE005D08BF00D913FF30BC05031D85
:10192000D917BD05031DD917BE05031DD917BF055E
:10193000031DD917D91DA82CD91BA02C5912BE2CB8
:101940000130E000E1016B23E62310252C260F2D4A
:10195000D91FB82C6108FF39031DB82C6008FF3966
:101960000319B52C013C031DB82C591A0F2DBE2CA0
:101970006B233B180F2DE6231025EE25E001E10136
:10198000D91BE014DE015A08BC005B08BD005C08EE
:10199000BE005D08BF00BB015E08FF3903196B2361
:1019A0003B18F42CDE03E6231025E00A0319E10AB4
:1019B0001D25361CC32C5225591AED2C361CF32C30
:1019C00003178312300803138312FF390319EB2C1A
:1019D0003F25B61CF32C2C26F32CB61CF32C3F25EC
:1019E000361CF32C2C26C32C591E0F2DD91F0F2D5E
:1019F00003178312300803138312FF39031D0F2DC1
:101A00005A08BC005B08BD005C08BE005D08BF0052
:101A10000130E000E1016B23E62310252C260800AD
:101A2000600803178312A0000313831261080317D1
:101A30008312A100031383120800B6010317831257
:101A4000100803138312B700FF3903190800D91CCB
:101A5000362D591D332D591C302D371C36140800D6
:101A6000371936140800371836140800591C3A2D57
:101A70003614080037183614371936140800B60122
:101A80008317031383121030840000080339B70052
:101A9000303084000008033937020319652D031C18
:101AA000DD2DD82DB6018317031383121030840067
:101AB00000080339B700903084000008033937026A
:101AC0000319652D031CDD2DD82D03178312840AFD
:101AD0000008110203196F2D031CDD2DD82D0317EB
:101AE0008312840A000812020319792D031CDD2DCC
:101AF000D82D03178312840A000813020319832DBB
:101B0000031CDD2DD82D03178312840A000814024C
:101B100003198D2D031CDD2DD82D03178312840A84
:101B2000000815020319972D031CDD2DD82D03176E
:101B30008312840A000816020319A12D031CDD2D4F
:101B4000D82D03178312840A000817020319AB2D3E
:101B5000031CDD2DD82D03178312840A00081802F8
:101B60000319B52D031CDD2DD82D03178312840A0C
:101B7000000819020319BF2D031CDD2DD82D0317F2
:101B80008312840A00081A020319C92D031CDD2DD3
:101B9000D82D03178312840A00081B020319D32DC2
:101BA000031CDD2DD82D031383120030B60008006E
:101BB000031383120130B6000800031383120230AE
:101BC000B60008004030B600831790308400003023
:101BD0008000840AB60BE82D8313080083170317CF
:101BE00083129030840010088000840A110880005D
:101BF000840A12088000840A13088000840A1408EA
:101C00008000840A15088000840A16088000840A6F
:101C100017088000840A18088000840A19088000C8
:101C2000840A1A088000840A1B088000840A1C08A1
:101C30008000840A1D088000840A1E088000840A2F
:101C40001F088000840A20088000840A2108800080
:101C5000840A031383120800031783121008B000CC
:101C60001108B1001208B2001308B3001408B40040
:101C70001508B5001608B6001708B7001808B80010
:101C80001908B9001A08BA001B08BB001C08BC00E0
:101C90001D08BD001E08BE001F08BF002008C000B0
:101CA0002108C1000313831208008A110A12852239
:101CB0008A150A12DE01BB016008043C031C682E71
:101CC0006108FF39031D682E6008D900E0016E2EFF
:101CD0000530E002031CE1030530D9005908FF3943
:101CE0000319D92E5A08BC005B08BD005C08BE0071
:101CF0005D08BF005E08FF3903196B233B18DC2E1B
:101D00001030B6008A110A1277228A150A120317B8
:101D100083161008FF390319CC2EE53C0319CC2E8D
:101D20001B080F3C031DCC2E031383125908B60069
:101D300000300D3EB60B992E033E84000317831628
:101D4000831711088000840A13088000840A15088C
:101D50008000840A17088000840A19088000840A19
:101D60001E088000840A20088000840A220880005F
:101D7000840A24088000840A26088000840A28082F
:101D80008000840A2C088000840A2E088000840ABF
:101D9000831303138312D32E031383128A110A129F
:101DA00085228A150A12E00A0319E10AD903DE0323
:0E1DB0006E2E0130BB0008000030BB000800A2
:02400E003A3F37
:00000001FF
