:020000040000FA
:020000001028C6
:08000800F0000308F1000408F8
:10001000F2000A08F6008A010313831283131729DA
:10002000C620B3208F228F228F22E9208A150A1240
:10003000CE208A110A12F5212E1C1B2800003C221A
:100040008A150A12DD208A110A127808F301013C90
:10005000031D20282E08E120FC20A7228A150A1261
:10006000DD20F501E22003218A110A12751CF3013B
:100070002E1E2E28EB017308FF3903195028F501B5
:100080008A150A1221212E2172219421BB210422DA
:10009000682287229D22C5228A110A12751CF3014B
:1000A0006B1CAE28EB1CAE286A084C02031D71289D
:1000B0006608BC006708BD006808BE006908BF008C
:1000C000EA018D243C08E6003D08E7003E08E80010
:1000D0003F08E9003B1C7128AF206B1CAE28EB1CCD
:1000E000AE285F1C8C28CD145F1D80285E08143C50
:1000F00003188028CD105E08193C031D8028DE01FE
:100100000030B6004D08B700B8018A150A12632006
:100110008A110A125F19DE0A6608BC006708BD0072
:100120006808BE006908BF006A08BB002E240130C1
:10013000A600102285150030B6008A150A12A520E7
:100140008A110A12C02120088A150A1200202108EB
:1001500000208A110A12B60B9D28EA0A3B286B1070
:10016000EB106B11080003138316113085008030EB
:10017000870000308900FF30860088000313831257
:100180000730890037308700850108000313831684
:10019000C730810020308C0000308D00C0308B00D3
:1001A00026309800031383129030980003138316AF
:1001B0006730990007309F00031383129F01F301FA
:1001C000080003138316981CE12803138312990077
:1001D00008004130E1206830E1206F30E1206A30D2
:1001E000E1202130E1200800C0212008E120210881
:1001F000E120B60BF42808008317903084001430F7
:10020000B6000008B700840A0008840AE120370815
:10021000E120B60B012983130800831710308400F6
:100220000008E120840AB60B1029831308008C1EF5
:1002300025291A08F4007308073C031C25297308B4
:10024000783E840074088000F30A76088A007208F9
:10025000840071088300700809001330B6008B30E9
:10026000B800B80B3129B60B2F2908000030B600B2
:100270000030B800B80B3A29B60B3A2908004730CD
:10028000B7002B30B600D930B800B80B4529B60BF3
:100290004329B70B4129080027309D21AC000800F5
:1002A00021309D21A500080016309D21A2000800E4
:1002B00022309D21A600080023309D21A7000800C0
:1002C00024309D21A800080025309D21A9000800A8
:1002D00026309D21AB0008002308B5001630AA2166
:1002E00008002D08B5002730AA2108002608B5000F
:1002F0002230AA2108002708B5002330AA210800CF
:100300002808B5002430AA2108002908B5002530A6
:10031000AA2108002B08B5002630AA2108002408CD
:10032000B5002130AA210800A3228F2176217B214C
:10033000802185218A2171210800870003138316FB
:10034000FF3086008800031383120911000006089D
:100350000915080087000313831600308600880003
:100360000313831235088600880189100000891460
:1003700003138316FF3086008800031383120800DE
:1003800094222030870003138316FF3086008800F4
:10039000031383120911000000000608A0000808DA
:1003A000A10009150800C021B60BD3290800E030D0
:1003B000AB008A210800831790308400C0212008F8
:1003C0008000840A21088000840AB60BDE2983138A
:1003D00008004030B60083171030840000308000E1
:1003E000840AB60BEF2983130800AE0109108F228F
:1003F00009149D22D7219D220230A3006C21E030F8
:10040000AB00A601A701A801A901A4010030AD001D
:1004100094219D2268212B08E03C03192E1408002A
:100420009D22D721A3222E19242AA4018F217621CF
:100430007B21802185212A080F39E038AB008A21F1
:100440002030AD00712108000030B5002230AA2113
:1004500076210030B5002530AA210030B5002430C7
:10046000AA212A08B5002330AA21852180217B21D9
:100470002430AD00712108009D22D7219D22E0305B
:10048000AB00A601A701A801A901A401EC30AD00B1
:1004900094211B30B600D3211430B600DB2102308A
:1004A000B600D321C021A118AE140A30B600D32162
:1004B000C0212008AF002108B000C0212008B100F1
:1004C0002108B2001530B600D321C02121192E1504
:1004D0001030B600D3212E1D782AC0212008AF008D
:1004E0002108B000C0212008B1002108B2007B2AF9
:1004F0000230B600D3210430B600D321C021A11BA5
:10050000852A211F852A211AAE159530B600D321E0
:10051000AE13AE1C0800AE190800AE17080021305B
:10052000B600B60B912A08009D222C088839083C99
:10053000031908002C1C942A08004C212C0880392F
:10054000031908009D2A9D222C1FA32A0800E921D7
:10055000A701A801A901AA01BB010130A600102230
:10056000DF30B600D3212030B600DB210130B600E9
:10057000D3218313A430840027088000840A28082C
:100580008000840A29088000840A2A088000840ADE
:1005900083179430840000080C3C031D013C031DAC
:1005A000F62A03138316983084000008A000840AFA
:1005B0000008A100840A0008A200840A0008A30021
:1005C0000313831282258313A83084000008A70038
:1005D000840A0008A800840A0008A900840A000808
:1005E000AA00840A21238317A43084000008053C54
:1005F000031D0A3C031D202B0408043E8400031342
:10060000831683170008A000840A0008A100840A4A
:100610000008A200840A0008A300031383128225A5
:100620008313A83084000008A700840A0008A800EB
:10063000840A0008A900840A0008AA00840AAD2AD6
:10064000080083173B08B6000310B60DB60DB60DB3
:10065000B60D3608113E840027088000840A280859
:100660008000840A29088000840A2A088000840AFD
:100670000130A60010222330B600D321C02121086A
:100680008000840A0530B600C02120088000840A5A
:1006900021088000840AB60B442B10308402C0214C
:1006A0002008463C031D692B2108413C031D692B92
:1006B000C0212008543C031D692B2108333C031D35
:1006C000692BC0212008323C031D692BFF308000BC
:1006D000BB0A08002E12C001C101C201C301C4013E
:1006E000C501C601C701C801C901CA01CB01A401E6
:1006F0000130A60010220530B600D321C021210808
:10070000FF39031D2D2CC0212008023C031D2D2C78
:100710002108CC00203C031C2D2CC0212008C40043
:100720002108C500C0212008023C031D2D2C0930E2
:10073000B600D321C0212008C0002108C100C0217B
:100740002008C2002108C300C021C021C021200808
:10075000C8002108C900C0212008CA002108CB0018
:100760001130B600D321C0212008463C031D2D2C9A
:100770002108413C031D2D2CC0212008543C031DA1
:100780002D2C2108333C031D2D2CC0212008323C88
:10079000031D2D2C8313A030840044088000840A9C
:1007A00045088000840A46088000840A47088000C3
:1007B000840A27088000840A28088000840A2908FF
:1007C0008000840A2A088000840A82250008C40068
:1007D000840A0008C500840A0008C600840A0008CC
:1007E000C700840AA030840040088000840A4108C1
:1007F0008000840A42088000840A43088000840A3A
:10080000DA2544088000840A45088000840A4608E6
:100810008000840A47088000840A82254C0D031357
:100820008316A400A501A601A7012808A000290895
:10083000A1002A08A2002B08A30003138312AB25F2
:100840000008C000840A0008C100840A0008C20031
:10085000840A0008C300840A2E1608008313A030FF
:1008600084003C088000840A3D088000840A3E0819
:100870008000840A3F088000840A812603138316BF
:100880002C18522C03138312A030840048088000D7
:10089000840A49088000840A4A088000840A4B08B8
:1008A0008000840A03138312CC18DA254C19E22540
:1008B000CC19EB254C1AF525CC1A002640088000EF
:1008C000840A41088000840A42088000840A4308A0
:1008D0008000840A82253B0803138316A400A50127
:1008E000A601A7012808A0002908A1002A08A20043
:1008F0002B08A3000313831282258313A8308400DE
:100900000008A700840A0008A800840A0008A900BB
:10091000840A0008AA00840A0800BB018313A030DF
:1009200084003C088000840A3D088000840A3E0858
:100930008000840A3F0880008126031383162C1848
:10094000B12C03138312A030840048088000840A6D
:1009500049088000840A4A088000840A4B08800005
:10096000840A031383127226AC3084000008B60098
:10097000A430840044088000840A45088000840A6A
:1009800046088000840A47088000840A82250008FF
:10099000A700840A0008A800840A0008A900840AA5
:1009A0000008AA00840AA4010130A6001022031046
:1009B000360DB600FF39031DD321A0308400C021BD
:1009C00020088000BC00840A21088000BD00840A41
:1009D000C02120088000BE00840A21088000BF00DA
:1009E000840A8126031383162C18FB2C031383120D
:1009F000FF30BB00122D03138312F7308000840AEE
:100A0000FF308000840AFF308000840A0F308000AD
:100A1000840AAB25031383162C18122D031383129B
:100A2000FF30BB00031383120800831710308400CB
:100A300000308000840A0530B600C0212008800004
:100A4000840A21088000840AB603031D1D2DC021DD
:100A500020088000113084000008FF3903196C2D34
:100A6000E53C03196C2D21080F390F3C03196C2D3F
:100A7000A1196C2D211A512D0230B60019308400B5
:100A800000084D3C031D532D840A0008503C031DF3
:100A9000532D840A0008333C031D532D0630B60045
:100AA000532D0130B6001030840036088000043029
:100AB000B600D3211E308400C02120088000840AA3
:100AC00021088000C021C0211C308400C0212008E2
:100AD0008000840A2108800008000E30B600D3216F
:100AE000831710308400C02120088000840A210868
:100AF0008000840AC02120088000840A2108800028
:100B0000840A080003138316AC0120082407A800F8
:100B10000318AC1421082507A90003182C14AC18DD
:100B2000A90A03182C14AC1022082607AA000318DF
:100B3000AC142C18AA0A0318AC142C10230827078D
:100B4000AB0003182C14AC18AB0A03182C14AC100F
:100B500003138312080003138316AC012408200238
:100B6000A800031CAC1425082102A900031C2C14A6
:100B7000AC18A903031C2C14AC1026082202AA00EE
:100B8000031CAC142C18AA03031CAC142C1027084B
:100B90002302AB00031C2C14AC18AB03031C2C1455
:100BA000AC10031383120800A00DA10DA20DA30D1C
:100BB000AC0D080003138316AC010310D4250313F6
:100BC0008312080003138316AC010310D425D42527
:100BD00003138312080003138316AC010310D425FA
:100BE000D425D42503138312080003138316AC0104
:100BF0000310D425D425D425D4250313831208004B
:100C000003138316AC010310D425D425D425D42591
:100C1000D42503138312080003138316AC010310B9
:100C2000D425D425D425D425D425D4250313831243
:100C3000080003138316AC010310D425D425D42552
:100C4000D425D425D425D4250313831208000310FA
:100C5000A30CA20CA10CA00C0800031383162008FF
:100C60000139AC00272603138312080003138316EF
:100C700020080339AC002726272603138312080017
:100C80000313831620080739AC00272627262726BA
:100C90000313831208000313831620080F39AC00D6
:100CA0002726272627262726031383120800031347
:100CB000831620081F39AC0027262726272627263B
:100CC00027260313831208000313831620083F39D5
:100CD000AC00272627262726272627262726031384
:100CE000831208000313831620087F39AC002726DF
:100CF000272627262726272627262726031383127B
:100D0000080003138316AC01FF30A005031D2C144B
:100D1000A105031D2C14A205031D2C14A305031DFE
:080D20002C14031383120800D8
:10100000B500851605118510B50D03188514051555
:10101000851205118510B50D0318851405150511E8
:101020008510B50D03188514051505118510B50D2E
:1010300003188514051505118510B50D03188514C1
:10104000051505118510B50D031885140515051135
:101050008510B50D03188514051505118510B50DFE
:1010600003188514051505110800B501051185162D
:101070000310051505180314B50D05118512051586
:1010800005180314B50D0511051505180314B50D44
:101090000511051505180314B50D051105150518DD
:1010A0000314B50D0511051505180314B50D05112B
:1010B000051505180314B50D0511051505180314BC
:1010C000350D05110800851102300020360800207A
:1010D00038080020370800208515080085110330E6
:1010E0000020360800203520B8003520B7008515CF
:1010F00008008A110A1236218A150A120030B60039
:101100004D154D08B7000030B80063208A110A124F
:101110002D218A150A1296204D110800A520203095
:10112000B70000300020B70B91280800851520304B
:10113000B6008E20B60B992808000B30B6004F0879
:10114000B7005008B80063200800051EA528080055
:10115000A520453000207830002069300020743010
:10116000002000300020003000200030002000303F
:10117000002008007920A520851553300020EF308D
:1011800000206E3000203E30002000300020003073
:10119000002000300020003000200800CD01CE01EA
:1011A0004030CF00D00079200330BA009D20BA2013
:1011B000BA0BD628A820792008007308FF39031934
:1011C000DD2808007808023C031D08007514730828
:1011D000013C0318080079080339B6000310B60D66
:1011E000B60DB60D360D103E840083171030B600D4
:1011F00000088A110A12E1208A150A12840AB60B25
:10120000F828F30108007808033C031D0800751452
:101210007308043C031808007908A7007A08A8009E
:101220007B08A9007C08AA008A110A126A238A1581
:101230000A122E088A110A12E1208A150A12F301F5
:1012400008007808043C031D080075144C088A1136
:101250000A12E1208A150A12F30108007808053CF9
:10126000031D080075147308063C031808007D0868
:10127000BB004C020319442903184429831710307A
:1012800084008030800069297E08F039031D3E29E2
:101290007908BC007A08BD007B08BE007C08BF004E
:1012A0008A110A122E240130A60010228A150A1271
:1012B0007E080F39B600FF3903196429B60E8A116A
:1012C0000A12D3218A150A128A110A1215258A15C3
:1012D0000A121030B6008A110A120D218A150A125C
:1012E000F30108007808063C031D08007514730814
:1012F000043C031808007908BC007A08BD007B088C
:10130000BE007C08BF008A110A128D243B08E12030
:101310003C08E1203D08E1203E08E1203F08E120B3
:101320008A150A12F30108007808073C031D08001B
:1013300075147308043C031808007908BC007A0887
:10134000BD007B08BE007C08BF00BB018A110A12E9
:101350002E244C08A60010228A150A124C08B70049
:101360000030B6008A110A12F4208A150A12B70B4F
:10137000B029F30108007808083C031D0800751423
:101380007308063C031808007D08BB004C020319D3
:10139000CE290318CE298030B700F5297E08F03910
:1013A000031DCB297908BC007A08BD007B08BE006C
:1013B0007C08BF008A110A122E240130A6001022D8
:1013C0008A150A127E080F39B600FF390319EE2973
:1013D000B60E8A110A12D3218A150A120030B700FC
:1013E0008A110A126D258A150A1237088A110A1203
:1013F000E1208A150A120430B6008A110A120D2162
:101400008A150A12F30108007808803C031D0800C1
:1014100075147308063C031808007D08BB004C02D5
:1014200003191A2A03181A2A8317103084008030EF
:1014300080005D2A7E08F039031D142A7908BC005B
:101440007A08BD007B08BE007C08BF008A110A1222
:101450002E240130A60010228A150A127E080F39A8
:10146000B600FF390319382AB60E8A110A12D321A1
:101470008A110A1215258A150A1283171030840062
:101480000008063C031D5D2A1C3084000008E600AD
:10149000840A0008E700840A0008E800840A0008BB
:1014A000E900EA016B14EB14CD105F1079200030D5
:1014B000B6004D08B700B8016320831710308400D0
:1014C00000088A110A12E1208A150A12F3010800A5
:1014D0007808813C031D080075146B088A110A12F4
:1014E000E1208A150A125F088A110A12E1208A1582
:1014F0000A126B110430B6006E2037088A110A12E6
:10150000E1203808E1208A150A12F3010800780862
:10151000823C031D080075147308023C0318080080
:101520007908D0007A08CF009D20FF308A110A1276
:10153000E1208A150A12F30108007808833C031D94
:10154000080075140530B6006E2037088A110A129B
:10155000E1203808E1208A150A120830B6006E2012
:1015600037088A110A12E1203808E1208A150A1288
:101570000930B6006E2037088A110A12E1203808B7
:10158000E1208A150A12F30108007808843C031D43
:10159000080075147308023C031808006B0806392C
:1015A000EB007908F9396B04EB007A08DF00CD1005
:1015B000CD13DF19CD170030B6004D08B700B801C4
:1015C000632001306E203708CE004E115F1A4E1591
:1015D0000130B6004E08B700B80163208A110A1224
:0E15E000FF30E1208A150A12DE01F301080037
:02400E003A3F37
:00000001FF
