:020000040000FA
:020000001028C6
:08000800F0000308F1000408F8
:10001000F2000A08F6008A0103138312831392295F
:10002000372124212423242324235A218A150A1228
:10003000CE208A110A127E222E1C1B280000D122FB
:100040008A150A12DD208A110A127808F301013C90
:10005000031D20282E0852216D212F238A150A12F4
:10006000DD20F501E22003218A110A12751CF3013B
:100070002E1E2E28EE017308FF3903195128F501B1
:100080008A150A1221212E215F218121A821D62142
:100090000922682287229D22D1228A110A12751C08
:1000A000F3016E1CAF28EE1CAF286D084C02031D37
:1000B00072286908BC006A08BD006B08BE006C08A5
:1000C000BF00ED0119253C08E9003D08EA003E08A3
:1000D000EB003F08EC003B1C7228B0206E1CAF28E0
:1000E000EE1CAF286F1C8D28CD146F1D8128680869
:1000F000143C03188128CD106808193C031D812881
:10010000E8010030B6004D08B700B8018A150A12A0
:1001100063208A110A126F19E80A6908BC006A088C
:10012000BD006B08BE006C08BF006D08BB00B624A4
:100130000130A600992285150030B6008A150A12F2
:10014000A5208A110A12412220088A150A120020CD
:10015000210800208A110A12B60B9E28ED0A3B28BE
:100160006E10EE106E116F10EE1908006E1EE12871
:10017000EE1EE1286208BC006308BD006408BE00F2
:100180006508BF006608E0006708E1008A150A12EA
:100190003D238A110A123B1808008A150A12B4235B
:1001A0008A110A1283171C3084000008E900840AAF
:1001B0000008EA00840A0008EB00840A0008EC004A
:1001C00012290630D9006208DA006308DB006408EF
:1001D000DC006508DD006608E0006708E1008A15BC
:1001E0000A123D248A110A12831730308400000855
:1001F000063C0319FE286E1E0800080083173C30D9
:1002000084000008E900840A0008EA00840A000863
:10021000EB00840A0008EC00840A0008E600840A67
:100220000008E700ED016E14EE146E158A150A122F
:100230007920CD106F100030B6004D08B700B8011E
:1002400063208A110A1208000313831611308500F7
:100250008030870000308900FF308600880003135B
:1002600083120730890037308700850108000313A7
:100270008316C730810020308C0000308D00C030E4
:100280008B002630980003138312903098000313DC
:1002900083166730990007309F00031383129F0174
:1002A000F301080003138316981C522903138312C9
:1002B0009900080041305221683052216F3052219C
:1002C0006A30522121305221080041222008522157
:1002D00021085221B60B652908008317903084004D
:1002E0001430B6000008B700840A0008840A5221BE
:1002F00037085221B60B7229831308008317303058
:10030000840000085221840AB60B81298313080057
:1003100083171030840000085221840AB60B8B2901
:10032000831308008C1EA0291A08F4007308073CE8
:10033000031CA0297308783E840074088000F30A27
:1003400076088A007208840071088300700809002A
:100350001330B6008B30B800B80BAC29B60BAA2905
:1003600008000030B6000030B800B80BB529B60B55
:10037000B52908004730B7002B30B600D930B80097
:10038000B80BC029B60BBE29B70BBC290800273013
:100390001E22AC00080021301E22A50008001630E5
:1003A0001E22A200080022301E22A60008002330D0
:1003B0001E22A700080024301E22A80008002530B5
:1003C0001E22A900080026301E22AB0008002308C8
:1003D000B50016302B2208002D08B50027302B223F
:1003E00008002608B50022302B2208002708B50097
:1003F00023302B2208002808B50024302B220800C7
:100400002908B50025302B2208002B08B50026301E
:100410002B2208002408B50021302B220800C72118
:100420002C18162AAC1B0F2A2C1F0F2A0A22F12186
:10043000F621FB2100220522EC210800870003138E
:100440008316FF3086008800031383120911000011
:10045000060809150800870003138316003086007C
:100460008800031383123508860088018910000074
:10047000891403138316FF30860088000313831248
:10048000080027301E22AC002C184A2AAC1B412A37
:10049000AC1D412A2030870003138316FF308600ED
:1004A0008800031383120911000000000608A00051
:1004B0000808A100091508004122B60B5C2A0800B3
:1004C000E030AB0005220800831790308400412201
:1004D00020088000840A21088000840AB60B672A5D
:1004E000831308004030B6008317103084000030BA
:1004F0008000840AB60B782A83130800AE01091025
:10050000242309142923602229230230A300E72190
:10051000E030AB00A601A701A801A901A4010030A9
:10052000AD000F222923E3212B08E03C03192E14F0
:100530000800C7212C189E2AAC1B992AE030AB007A
:100540000522C7212C18A82AAC1BA12A2C1FA12ADE
:100550002E19B92AA4010A22F121F621FB21002239
:100560002A080F39E038AB0005222030AD00EC211D
:1005700008000030B50022302B22F1210030B500F8
:1005800025302B220030B50024302B222A08B5005C
:1005900023302B220022FB21F6212430AD00EC2158
:1005A0000800292360222923E030AB00A601A7011F
:1005B000A801A901A401EC30AD000F221B30B60048
:1005C0005C221430B60064220230B6005C22412264
:1005D000A118AE140A30B6005C2241222008AF00F8
:1005E0002108B00041222008B1002108B2001530D6
:1005F000B6005C22412221192E151030B6005C2273
:100600002E1D0D2B41222008AF002108B0004122F1
:100610002008B1002108B200102B0230B6005C2285
:100620000430B6005C224122A11B1A2B211F1A2B79
:10063000211AAE159530B6005C22AE13AE1C080030
:10064000AE190800AE1708002130B600B60B262BF5
:100650000800C7212C08803903190800292B7222B1
:10066000A701A801A901AA01BB010130A600992296
:10067000DF30B6005C222030B60064220130B600C4
:100680005C228313A430840027088000840A280891
:100690008000840A29088000840A2A088000840ACD
:1006A00083179430840000080C3C031D013C031D9B
:1006B0007E2B03138316983084000008A000840A60
:1006C0000008A100840A0008A200840A0008A30010
:1006D00003138312A1258313A83084000008A70008
:1006E000840A0008A800840A0008A900840A0008F7
:1006F000AA00840AA9238317A43084000008053CBB
:10070000031D0A3C031DA82B0408043E84000313A8
:10071000831683170008A000840A0008A100840A39
:100720000008A200840A0008A30003138312A12575
:100730008313A83084000008A700840A0008A800DA
:10074000840A0008A900840A0008AA00840A352B3C
:10075000080083173B08B6000310B60DB60DB60DA2
:10076000B60D3608113E840027088000840A280848
:100770008000840A29088000840A2A088000840AEC
:100780000130A60099222330B6005C2241222108C4
:100790008000840A0530B600412220088000840AC7
:1007A00021088000840AB60BCC2B10308402412231
:1007B0002008463C031DF12B2108413C031DF12B71
:1007C00041222008543C031DF12B2108333C031D1A
:1007D000F12B41222008323C031DF12BFF30800019
:1007E000BB0A08002E12C001C101C201C301C4012D
:1007F000C501C601C701C801C901CA01CB01A401D5
:100800000130A60099220530B6005C224122210861
:10081000FF39031DB52C41222008023C031DB52CD5
:100820002108CC00203C031CB52C41222008C40028
:100830002108C50041222008023C031DB52C0930C7
:10084000B6005C2241222008C0002108C1004122DC
:100850002008C2002108C300412241224122200871
:10086000C8002108C90041222008CA002108CB0085
:100870001130B6005C2241222008463C031DB52CF5
:100880002108413C031DB52C41222008543C031D86
:10089000B52C2108333C031DB52C41222008323CE5
:1008A000031DB52C8313A030840044088000840A03
:1008B00045088000840A46088000840A47088000B2
:1008C000840A27088000840A28088000840A2908EE
:1008D0008000840A2A088000840AA1250008C40038
:1008E000840A0008C500840A0008C600840A0008BB
:1008F000C700840AA030840040088000840A4108B0
:100900008000840A42088000840A43088000840A28
:10091000092644088000840A45088000840A4608A5
:100920008000840A47088000840AA1254C0D031327
:100930008316A400A501A601A7012808A000290884
:10094000A1002A08A2002B08A30003138312CA25C2
:100950000008C000840A0008C100840A0008C20020
:10096000840A0008C300840A2E1608008313A030EE
:1009700084003C088000840A3D088000840A3E0808
:100980008000840A3F088000840AB026031383167F
:100990002C18DA2C03138312A0308400480880003E
:1009A000840A49088000840A4A088000840A4B08A7
:1009B0008000840A03138312CC1809264C191126CF
:1009C000CC191A264C1A2426CC1A2F264C1B3B264F
:1009D000CC1B482640088000840A41088000840A15
:1009E00042088000840A43088000840AA1253B084D
:1009F00003138316A400A501A601A7012808A000DF
:100A00002908A1002A08A2002B08A30003138312BF
:100A1000A1258313A83084000008A700840A0008D9
:100A2000A800840A0008A900840A0008AA00840A11
:100A30000800BB018313A03084003C088000840AB6
:100A40003D088000840A3E088000840A3F08800038
:100A5000B026031383162C183D2D03138312A030E8
:100A6000840048088000840A49088000840A4A08F3
:100A70008000840A4B088000840A03138312A12695
:100A8000AC3084000008B600A43084004408800024
:100A9000840A45088000840A46088000840A4708C2
:100AA0008000840AA1250008A700840A0008A80085
:100AB000840A0008A900840A0008AA00840AA40184
:100AC0000130A60099220310360DB600FF39031D30
:100AD0005C22A0308400412220088000BC00840AEF
:100AE00021088000BD00840A412220088000BE0049
:100AF000840A21088000BF00840AB02603138316ED
:100B00002C18872D03138312FF30BB009E2D031377
:100B10008312F7308000840AFF308000840AFF309F
:100B20008000840A0F308000840ACA2503138316CC
:100B30002C189E2D03138312FF30BB000313831266
:100B4000080003138316AC0120082407A80003182B
:100B5000AC1421082507A90003182C14AC18A90A05
:100B600003182C14AC1022082607AA000318AC1492
:100B70002C18AA0A0318AC142C1023082707AB0062
:100B800003182C14AC18AB0A03182C14AC10031364
:100B90008312080003138316AC0124082002A80066
:100BA000031CAC1425082102A900031C2C14AC184A
:100BB000A903031C2C14AC1026082202AA00031C53
:100BC000AC142C18AA03031CAC142C102708230205
:100BD000AB00031C2C14AC18AB03031C2C14AC107E
:100BE000031383120800031383160130A0020318B5
:100BF000002EA1020318002EA2020318002EA30249
:100C0000031383120800A00DA10DA20DA30DAC0DBE
:100C1000080003138316AC01031003260313831289
:100C2000080003138316AC010310032603260313E5
:100C30008312080003138316AC0103100326032656
:100C4000032603138312080003138316AC01031059
:100C50000326032603260326031383120800031327
:100C60008316AC010310032603260326032603265E
:100C700003138312080003138316AC010310032629
:100C800003260326032603260326031383120800E4
:100C900003138316AC010310032603260326032641
:100CA0000326032603260313831208000310A30C54
:100CB000A20CA10CA00C0800031383162008013914
:100CC000AC00562603138312080003138316200872
:100CD0000339AC005626562603138312080003136B
:100CE000831620080739AC005626562656260313CD
:100CF000831208000313831620080F39AC00562610
:100D0000562656265626031383120800031383160D
:100D100020081F39AC00562656265626562656263B
:100D20000313831208000313831620083F39AC0015
:100D30005626562656265626562656260313831220
:100D400008000313831620087F39AC005626562668
:100D50005626562656265626562603138312080074
:100D600003138316AC01FF30A005031D2C14A1054D
:100D7000031D2C14A205031D2C14A305031D2C1404
:060D8000031383120800BA
:10100000B500851605118510B50D03188514051555
:10101000851205118510B50D0318851405150511E8
:101020008510B50D03188514051505118510B50D2E
:1010300003188514051505118510B50D03188514C1
:10104000051505118510B50D031885140515051135
:101050008510B50D03188514051505118510B50DFE
:1010600003188514051505110800B501051185162D
:101070000310051505180314B50D05118512051586
:1010800005180314B50D0511051505180314B50D44
:101090000511051505180314B50D051105150518DD
:1010A0000314B50D0511051505180314B50D05112B
:1010B000051505180314B50D0511051505180314BC
:1010C000350D05110800851102300020360800207A
:1010D00038080020370800208515080085110330E6
:1010E0000020360800203520B8003520B7008515CF
:1010F00008008A110A12B1218A150A120030B600BE
:101100004D154D08B7000030B80063208A110A124F
:10111000A8218A150A1296204D110800A52020301A
:10112000B70000300020B70B91280800851520304B
:10113000B6008E20B60B992808000B30B6004F0879
:10114000B7005008B80063200800051EA528080055
:10115000A520453000207830002069300020743010
:10116000002000300020003000200030002000303F
:10117000002008007920A520851553300020EF308D
:1011800000206E3000203E30002000300020003073
:10119000002000300020003000200800CD01CE01EA
:1011A0004030CF00D00079200330BA009D20BA2013
:1011B000BA0BD628A820792008007308FF39031934
:1011C000DD2808007808023C031D08007514730828
:1011D000013C0318080079080339B6000310B60D66
:1011E000B60DB60D360D103E840083171030B600D4
:1011F00000088A110A1252218A150A12840AB60BB3
:10120000F828F30108007808033C031D0800751452
:101210007308043C031808007908A7007A08A8009E
:101220007B08A9007C08AA008A110A12F2238A15F9
:101230000A122E088A110A1252218A150A12F30183
:1012400008007808043C031D080075144C088A1136
:101250000A1252218A150A12F30108007808053C87
:10126000031D080075147308063C0318080079086C
:10127000BC007A08BD007B08BE007C08BF000323C9
:101280003B1C482983171030840081308000562988
:101290007D08E0007E08E1003D233B1C55298317B3
:1012A00010308400803080005629B4231030B600FE
:1012B0008A110A1288218A150A12F3010800780897
:1012C000063C031D080075147308043C031808004D
:1012D0007908BC007A08BD007B08BE007C08BF000E
:1012E0008A110A1219253B0852213C0852213D0857
:1012F00052213E0852213F0852218A150A12F30159
:1013000008007808073C031D080075147308043CA6
:10131000031808007908BC007A08BD007B08BE00ED
:101320007C08BF00BB018A110A12B6244C08A60033
:1013300099228A150A124C08B7000030B6008A11AB
:101340000A1265218A150A12B70B9D29F3010800BC
:101350007808083C031D080075147308063C031840
:1013600008007908BC007A08BD007B08BE007C0834
:10137000BF0003233B1CBF298130B600CB297D0869
:10138000E0007E08E1003D233B1CC9298030B60007
:10139000CB292024B60136088A110A1252210430C2
:1013A000B60088218A150A12F30108007808093C62
:1013B000031D080075147308073C0318080079081A
:1013C000BC007A08BD007B08BE007C08BF00032378
:1013D0003B18FA297908DA007A08DB007B08DC0080
:1013E0007C08DD007D08E0007E08E1007F08D90070
:1013F0003D24002A031783128130B00003138312A7
:101400001230B6008A110A127E218A150A12F301DF
:1014100008007808803C031D080075147308063C1A
:10142000031808007908BC007A08BD007B08BE00DC
:101430007C08BF0003233B1C232A83171030840041
:10144000813080005D2A7D08E0007E08E1003D23B8
:101450003B1C302A831710308400803080005D2AC6
:10146000B4238317103084000008063C031D5D2A56
:101470001C3084000008E900840A0008EA00840A9D
:101480000008EB00840A0008EC007D08E6007E08F6
:10149000E7007908E2007A08E3007B08E4007C08B2
:1014A000E500ED016E14EE14CD106F1079200030C0
:1014B000B6004D08B700B8016320831710308400D0
:1014C00000088A110A1252218A150A12F301080033
:1014D0007808813C031D080075146E088A110A12F1
:1014E00052218A150A126F088A110A1252218A158E
:1014F0000A126E110430B6006E2037088A110A12E3
:101500005221380852218A150A12F301080078087E
:10151000823C031D080075147308023C0318080080
:101520007908D0007A08CF009D20FF308A110A1276
:1015300052218A150A12F30108007808833C031D22
:10154000080075140530B6006E2037088A110A129B
:101550005221380852218A150A120830B6006E202E
:1015600037088A110A125221380852218A150A12A4
:101570000930B6006E2037088A110A125221380845
:1015800052216208522163085221640852216508E1
:10159000522166085221670852218A150A12F30166
:1015A00008007808843C031D080075147308023C89
:1015B000031808006E080639EE007908F9396E0440
:1015C000EE007A08EF00CD10CD13EF19CD170030E3
:1015D000B6004D08B700B801632001306E2037080F
:1015E000CE004E116F1A4E150130B6004E08B700EE
:1015F000B80163208A110A12FF3052218A150A129B
:10160000E801F3010800BB013C083D043E043F042F
:10161000031908008A110A12B6240130A600992283
:101620008A150A12FF30BB008A110A1241228A155C
:101630000A1220082E3C031D3C2B2108203C031DD0
:101640003C2B0430B6008A110A1241228A150A1274
:101650002008203C031D3C2B2108203C031D3C2B73
:10166000B60B232B8A110A1241228A150A1220086E
:10167000203C031D3C2BBB010800600803138316AC
:10168000A00003138312610803138316A100A201B3
:10169000A301031383128A110A127A2603138316F5
:1016A0002C0803138312BA00CC185C264C1965264B
:1016B000CC196F264C1A7A26CC1A86264C1B9326F8
:1016C000CC1BA126031383162C0803138312B90025
:1016D0008A110A12B0268A150A12031383162C1CCB
:1016E000962B031383128313A03084000008B700E5
:1016F000840A0008B8008A110A1219258A150A12EC
:101700003B18B12B8313A030840037088000840A73
:101710003808800003138316A201A3010313831268
:101720008A110A12F3258A150A12682B03138312F1
:101730003908BB008A110A12B6240130A60099228A
:101740008A150A123A080F39B600FF390319AE2B71
:10175000B60E8A110A125C228A150A120030BB00EA
:10176000B32BFF30BB00080083171030840000301B
:101770008000840A0530B6008A110A1241228A15B7
:101780000A1220088000840A21088000840AB60317
:10179000031DBC2B8A110A1241228A150A12200845
:1017A0008000113084000008FF3903191F2CE53C2C
:1017B00003191F2C21080F390F3C03191F2CA119E5
:1017C0001F2C211AF82B0230B600193084000008B3
:1017D0004D3C031DFA2B840A0008503C031DFA2BD4
:1017E000840A0008333C031DFA2B0630B600FA2B9E
:1017F0000130B60010308400360880000430B60096
:101800008A110A125C228A150A121E3084008A117B
:101810000A1241228A150A1220088000840A21082F
:1018200080008A110A12412241221C308400412288
:101830008A150A1220088000840A21088000080006
:101840000E30B6008A110A125C228A150A1283171A
:10185000103084008A110A12412220088000840A74
:1018600021088000840A41228A150A12200880007B
:10187000840A21088000840A08008A110A12722250
:101880008A150A129B255A08BC005B08BD005C083B
:10189000BE005D08BF00D913FF30BC05031DD9177A
:1018A000BD05031DD917BE05031DD917BF05031DAF
:1018B000D917D91D672CD91B5F2C59127D2C0130EB
:1018C000E000E1013D23B423C924E525C82CD91F3C
:1018D000772C6108FF39031D772C6008FF39031945
:1018E000742C013C031D772C591AC82C7D2C3D23E8
:1018F0003B18C82CB423C924A725E001E101D91B5A
:10190000E0145A08BC005B08BD005C08BE005D081E
:10191000BF003D233B18AD2CB423C924E00A0319B2
:10192000E10AD624361C812C0B25591AA62C361C0C
:10193000AC2C03178312300803138312FF390319E9
:10194000A42CF824B61CAC2CE525AC2CB61CAC2C75
:10195000F824361CAC2CE525812C591EC82CD91F27
:10196000C82C03178312300803138312FF39031D99
:10197000C82C5A08BC005B08BD005C08BE005D08AE
:10198000BF000130E000E1013D23B423C924E52577
:101990000800600803178312A00003138312610874
:1019A00003178312A100031383120800B601031763
:1019B0008312100803138312B700FF3903190800BC
:1019C000D91CEF2C591DEC2C591CE92C371C361452
:1019D0000800371936140800371836140800591C47
:1019E000F32C36140800371836143719361408004B
:1019F000B6018317031383121030840000080339E3
:101A0000B7003030840000080339370203191E2D57
:101A1000031C962D912DB6018317031383121030EA
:101A2000840000080339B7009030840000080339AF
:101A3000370203191E2D031C962D912D03178312B7
:101A4000840A000811020319282D031C962D912DDC
:101A500003178312840A000812020319322D031C93
:101A6000962D912D03178312840A0008130203197F
:101A70003C2D031C962D912D03178312840A000818
:101A800014020319462D031C962D912D0317831262
:101A9000840A000815020319502D031C962D912D60
:101AA00003178312840A0008160203195A2D031C17
:101AB000962D912D03178312840A0008170203192B
:101AC000642D031C962D912D03178312840A0008A0
:101AD000180203196E2D031C962D912D03178312E6
:101AE000840A000819020319782D031C962D912DE4
:101AF00003178312840A00081A020319822D031C9B
:101B0000962D912D03178312840A00081B020319D6
:101B10008C2D031C962D912D031383120030B600DB
:101B20000800031383120130B60008000313831268
:101B30000230B60008004030B600831790308400B1
:101B400000308000840AB60BA12D83130800831790
:101B5000031783129030840010088000840A110853
:101B60008000840A12088000840A13088000840A16
:101B700014088000840A15088000840A1608800072
:101B8000840A17088000840A18088000840A19084B
:101B90008000840A1A088000840A1B088000840AD6
:101BA0001C088000840A1D088000840A1E0880002A
:101BB000840A1F088000840A20088000840A210803
:101BC0008000840A0313831208000317831210088D
:101BD000B0001108B1001208B2001308B3001408D5
:101BE000B4001508B5001608B6001708B7001808A5
:101BF000B8001908B9001A08BA001B08BB001C0875
:101C0000BC001D08BD001E08BE001F08BF00200844
:0C1C1000C0002108C1000313831208006B
:02400E003A3F37
:00000001FF
