:020000040000FA
:020000001028C6
:08000800F0000308F1000408F8
:10001000F2000A08F6008A01031383128313D3291E
:10002000782165216923692369238A150A12D22060
:100030008A110A12C3222E1C1A28000016238A15C0
:100040000A12E6208A110A127808F301013C031D06
:100050001F282E089321AE2174238A150A12E62048
:10006000F501EB200C218A110A12751CF3012E1EDA
:100070002D28EE017308FF3903195328F5018A155D
:100080000A122A21372168218A21B121DF21122277
:10009000402262229E220A2329233F2373238A11AE
:1000A0000A12751CF3016E1CCC28EE1CCC286D08BE
:1000B0004C02031D8F2853085404031D7F28690830
:1000C000BC006A08BD006B08BE006C08BF00ED01F3
:1000D0005E253C08E9003D08EA003E08EB003F08C9
:1000E000EC003B1C7928CD206E1CCC28EE1CCC28C3
:1000F0008F28E6255108D3005208D4008F280130FC
:10010000D30203188428D402E90A031D8E28EA0AC0
:10011000031D8E28EB0A031D8E28EC0AED016F1CCF
:10012000AA28CD146F1D9E286808143C03189E2829
:10013000CD106808193C031D9E28E8010030B60068
:100140004D08B700B8018A150A1263208A110A12F5
:100150006F19E80A6908BC006A08BD006B08BE0098
:100160006C08BF006D08BB00FB240130A600DE2236
:1001700087140030B6008A150A12AB208A110A12C1
:10018000862220088A150A120020210800208A11E0
:100190000A12B60BBB28ED0A3A286E10EE106E114B
:1001A0006F10EE1908006E1E0729EE1E072962085F
:1001B000BC006308BD006408BE006508BF00660897
:1001C000E0006708E1008A150A12E1238A110A1289
:1001D0003B1808008A150A1261248A110A12831733
:1001E0001C3084000008E900BC00840A0008EA0012
:1001F000BD00840A0008EB00BE00840A0008EC0081
:10020000BF00E6255108D3005208D4005329063018
:10021000D9006208DA006308DB006408DC006508C6
:10022000DD006608E0006708E1008A150A12F9247B
:100230008A110A128317303084000008063C031923
:1002400036296E1E08000630D91F0E30D900013045
:10025000E000E1018A150A12F9248A110A128317B3
:10026000303084000008063C031D080083173C3032
:1002700084000008E900BC00840A0008EA00BD0010
:10028000840A0008EB00BE00840A0008EC00BF00EE
:10029000840A0008E600840A0008E700E625510801
:1002A000D3005208D400ED016E14EE146E158A15B9
:1002B0000A127F20CD106F100030B6004D08B70035
:1002C000B80163208A110A120800031383169130C3
:1002D00087000030850000308900FF3086008800EC
:1002E0000313831207308900373085008701080027
:1002F00003138316C730810020308C0000308D003E
:10030000C0308B0026309800031383129030980081
:10031000031383168130990007309F000313831263
:100320009F01F301080003138316981C93290313FC
:1003300083129900080041309321683093216F3077
:1003400093216A30932121309321080086222008CE
:10035000932121089321B60BA6290800831790301A
:1003600084001430B6000008B700840A0008840A2C
:10037000932137089321B60BB32983130800831701
:100380003030840000089321840AB60BC2298313FD
:10039000080083171030840000089321840AB60BEC
:1003A000CC29831308008C1EE1291A08F400730875
:1003B000073C031CE1297308783E84007408800020
:1003C000F30A76088A0072088400710883007008B6
:1003D00009001030B600CF30B800B80BED29B60BCD
:1003E000EB2908001530B7005930B600B130B8001D
:1003F000B80BF829B60BF629B70BF42908002830FA
:10040000B7007E30B600A430B800B80B052AB60B92
:10041000032AB70B012A080027306322AC0008002A
:1004200021306322A500080016306322A2000800D4
:1004300022306322A600080023306322A7000800B0
:1004400024306322A800080025306322A900080098
:1004500026306322AB0008002308B5001630702256
:1004600008002D08B5002730702208002608B500C6
:100470002230702208002708B500233070220800BF
:100480002808B5002430702208002908B50025305E
:10049000702208002B08B5002630702208002408BE
:1004A000B5002130702208000C222C185B2AAC1BEE
:1004B000542A2C1F542A4F2236223B224022452206
:1004C0004A2231220800850003138316FF3086007C
:1004D000880003138312091100000608091508009B
:1004E00085000313831600308600880003138312EF
:1004F00035088600880189100000891403138316CB
:10050000FF3086008800031383120800273063221F
:10051000AC002C188F2AAC1B862AAC1D862A2030F2
:10052000850003138316FF308600880003138312AF
:100530000911000000000608A0000808A100091524
:1005400008008622B60BA12A0800E030AB004A2240
:100550000800831790308400862220088000840AD7
:1005600021088000840AB60BAC2A831308004030AF
:10057000B60083171030840000308000840AB60B68
:10058000BD2A83130800AE010910692309146E23E4
:10059000A5226E230230A3002C22E030AB00A6017E
:1005A000A701A801A901A4010030AD0054226E23C7
:1005B00028222B08E03C03192E1408000C222C18CA
:1005C000E32AAC1BDE2AE030AB004A220C222C18B6
:1005D000ED2AAC1BE62A2C1FE62A2E19FE2AA401BE
:1005E0004F2236223B22402245222A080F39E0388A
:1005F000AB004A222030AD00312208000030B500A7
:100600002230702236220030B500253070220030B2
:10061000B500243070222A08B5002330702245220C
:1006200040223B222430AD00312208006E23A52257
:100630006E23E030AB00A601A701A801A901A40127
:10064000EC30AD0054221B30B600A1221430B600AD
:10065000A9220230B600A1228622A118AE140A30C7
:10066000B600A12286222008AF002108B000862211
:100670002008B1002108B2001530B600A122862260
:1006800021192E151030B600A1222E1D522B8622C4
:100690002008AF002108B00086222008B100210800
:1006A000B200552B0230B600A1220430B600A122C0
:1006B0008622A11B5F2B211F5F2B211AAE159530BF
:1006C000B600A122AE13AE1C0800AE190800AE178A
:1006D00008002A30B600B60B6B2B08000C222C0841
:1006E0008039031908006E2BB722A701A801A901C0
:1006F000AA01BB010130A600DE22DF30B600A12234
:100700002030B600A9220130B600A1228313A43004
:10071000840027088000840A28088000840A2908A9
:100720008000840A2A088000840A83179430840099
:1007300000080C3C031D013C031DC32B031383164F
:10074000983084000008A000840A0008A100840AF0
:100750000008A200840A0008A300031383129C2649
:100760008313A83084000008A700840A0008A800AA
:10077000840A0008A900840A0008AA00840AEE235B
:100780008317A43084000008053C031D0A3C031DA8
:10079000ED2B0408043E840003138316831700081E
:1007A000A000840A0008A100840A0008A200840AAC
:1007B0000008A300031383129C268313A83084002F
:1007C0000008A700840A0008A800840A0008A900FD
:1007D000840A0008AA00840A7A2B080083173B08C1
:1007E000B6000310B60DB60DB60DB60D3608113EA7
:1007F000840027088000840A28088000840A2908C9
:100800008000840A2A088000840A0130A600DE22C3
:100810002330B600A122862221088000840A0530F8
:10082000B600862220088000840A21088000840AFD
:10083000B60B112C1030840286222008463C031D82
:10084000362C2108413C031D362C86222008543CBE
:10085000031D362C2108333C031D362C862220082C
:10086000323C031D362CFF308000BB0A08002E12DC
:10087000C001C101C201C301C401C501C601C70154
:10088000C801C901CA01CB01A4010130A600DE22C2
:100890000530B600A12286222108FF39031DFA2C5B
:1008A00086222008023C031DFA2C2108CC00803C43
:1008B000031CFA2C86222008C4002108C5008622C9
:1008C0002008023C031DFA2C0930B600A122862222
:1008D0002008C0002108C10086222008C20021088B
:1008E000C3008622862286222008C8002108C9006B
:1008F00086222008CA002108CB001130B600A122B0
:1009000086222008463C031DFA2C2108413C031D89
:10091000FA2C86222008543C031DFA2C2108333C73
:10092000031DFA2C86222008323C031DFA2C831367
:10093000A030840044088000840A45088000840AAE
:1009400046088000840A47088000840A270880003F
:10095000840A28088000840A29088000840A2A085A
:100960008000840A9C260008C400840A0008C50090
:10097000840A0008C600840A0008C700840AA03060
:10098000840040088000840A41088000840A4208EC
:100990008000840A43088000840A0A2744088000F3
:1009A000840A45088000840A46088000840A4708B3
:1009B0008000840A9C264C0D03138316A400A50115
:1009C000A601A7012808A0002908A1002A08A20062
:1009D0002B08A30003138312C8260008C000840A52
:1009E0000008C100840A0008C200840A0008C3008D
:1009F000840A2E1608008313A03084003C0880006F
:100A0000840A3D088000840A3E088000840A3F086A
:100A10008000840AB127031383162C181F2D03139B
:100A20008312A030840048088000840A49088000AE
:100A3000840A4A088000840A4B088000840A031351
:100A40008312CC180A274C191227CC191B274C1AD1
:100A50002527CC1A30274C1B3C27CC1B49274008A4
:100A60008000840A41088000840A42088000840AC9
:100A700043088000840A9C263B0803138316A400C5
:100A8000A501A601A7012808A0002908A1002A089D
:100A9000A2002B08A300031383129C268313A83003
:100AA00084000008A700840A0008A800840A00083F
:100AB000A900840A0008AA00840A0800BB01831365
:100AC000A03084003C088000840A3D088000840A2D
:100AD0003E088000840A3F088000B1270313831674
:100AE0002C18822D03138312A03084004808800044
:100AF000840A49088000840A4A088000840A4B0856
:100B00008000840A03138312A227AC3084000008FB
:100B1000B600A430840044088000840A45088000A0
:100B2000840A46088000840A47088000840A9C26BC
:100B30000008A700840A0008A800840A0008A90089
:100B4000840A0008AA00840AA4010130A600DE225B
:100B50000310360DB600FF39031DA122A03084001A
:100B6000862220088000BC00840A21088000BD0085
:100B7000840A862220088000BE00840A21088000A2
:100B8000BF00840AB127031383162C18CC2D03133E
:100B90008312FF30BB00E32D03138312F730800074
:100BA000840AFF308000840AFF308000840A0F30FE
:100BB0008000840AC826031383162C18E32D031320
:100BC0008312FF30BB00031383120800BB01D20164
:100BD000D1018313A03084003C08DA008000840A2D
:100BE0003D08DB008000840A3E08DC008000840AA7
:100BF0003F08DD008000A227AC3084000008BA0066
:100C0000A430840044088000840A45088000840AD7
:100C100046088000840A47088000840A9C26000851
:100C2000A700840A0008A800840A0008A900840A12
:100C30000008AA00840AA4010130A600DE220310E5
:100C40003A0DB6003A08FF39031DA1222B2EA4014C
:100C50000130A600DE22A030840086222008800019
:100C6000840A21088000840A862220088000840AE1
:100C700021088000840AB127031383162C18432E01
:100C800003138312992E03138312F7308000840A12
:100C9000FF308000840AFF308000840A0F3080001B
:100CA000840AC826031383162C1C992E031383125F
:100CB000A43084005A088000840A5B088000840AFB
:100CC0005C088000840A5D088000C8260313831630
:100CD0002B082A042904031D992E2808013C031D12
:100CE000992E03138312D21B992ED10A0319D20A0B
:100CF000A03084000008DA00840A0008DB00840ABF
:100D00000008DC00840A0008DD00BA0A3A08803CCA
:100D1000031D2B2EBA010130A707031C962EA8072E
:100D2000031C962EA907031C962EAA0703138312F1
:100D3000272E03138312080003138316AC01200827
:100D40002407A8000318AC1421082507A9000130C6
:100D500003182C14AC18A90703182C14AC10220883
:100D60002607AA0001300318AC142C18AA07031890
:100D7000AC142C1023082707AB00013003182C14E7
:100D8000AC18AB0703182C14AC1003138312080023
:100D900003138316AC0124082002A800031CAC1422
:100DA00025082102A9000130031C2C14AC18A9024B
:100DB000031C2C14AC1026082202AA000130031CCC
:100DC000AC142C18AA02031CAC142C102708230204
:100DD000AB000130031C2C14AC18AB02031C2C1408
:100DE000AC10031383120800031383160130A00212
:100DF0000318012FA1020318012FA2020318012FCB
:100E0000A302031383120800A00DA10DA20DA30DD0
:100E1000AC0D080003138316AC0103100427031361
:100E20008312080003138316AC0103100427042760
:100E300003138312080003138316AC010310042765
:100E40000427042703138312080003138316AC013D
:100E50000310042704270427042703138312080020
:100E600003138316AC010310042704270427042767
:100E7000042703138312080003138316AC01031025
:100E800004270427042704270427042703138312B5
:100E9000080003138316AC0103100427042704275A
:100EA00004270427042704270313831208000310D0
:100EB000A30CA20CA10CA00C08000313831620089D
:100EC0000139AC005727031383120800031383165C
:100ED00020080339AC005727572703138312080053
:100EE0000313831620080739AC00572757275727C5
:100EF0000313831208000313831620080F39AC0074
:100F00005727572757275727031383120800031320
:100F1000831620081F39AC00572757275727572714
:100F200057270313831208000313831620083F3941
:100F3000AC005727572757275727572757270313FB
:100F4000831208000313831620087F39AC0057274B
:100F500057275727572757275727572703138312F2
:100F6000080003138316AC01FF30A005031D2C14E9
:100F7000A105031D2C14A205031D2C14A305031D9C
:080F80002C1403138312080076
:10100000B500071587118712B50D031887168715C8
:10101000071187118712B50D0318871687158711D9
:101020008712B50D03188716871587118712B50D1E
:1010300003188716871587118712B50D03188716B1
:10104000871587118712B50D031887168715871125
:101050008712B50D03188716871587118712B50DEE
:1010600003188716871587110800B5018711071522
:1010700003108715071A0314B50D8711071187157B
:10108000071A0314B50D87118715071A0314B50D38
:1010900087118715071A0314B50D87118715071ACD
:1010A0000314B50D87118715071A0314B50D8711A1
:1010B0008715071A0314B50D87118715071A03142E
:1010C000350D87110800071C6328871002300020A7
:1010D000360800203808002037080020E120871457
:1010E0000800071C712887100330002036080020F4
:1010F0003520B8003520B700E120871408008A1198
:101100000A12F2218A150A120030B6004D154D0858
:10111000B7000030B80063208A110A12E9218A154D
:101120000A129C204D110800AB202030B70000307F
:101130000020B70B9728080087142030B6009420B1
:10114000B60B9F2808000B30B6004F08B7005008B8
:10115000B80063200800071CAB280800AB2045300E
:1011600000207830002069300020743000200030EA
:101170000020003000200030002000300020080057
:10118000871453300020EF3000206E3000203E30B6
:10119000002000300020003000200030002000300F
:1011A00000200800CD01CE014030CF00D0007F20CC
:1011B0000330BA00A320C020BA0BDA28AE207F206B
:1011C00008000830B600B60BE32808007308FF39A2
:1011D0000319E62808007808023C031D080075146E
:1011E0007308013C0318080079080339B60003109E
:1011F000B60DB60DB60D360D103E840083171030B7
:10120000B60000088A110A1293218A150A12840A6C
:10121000B60B0129F30108007808033C031D080000
:1012200075147308043C031808007908A7007A08AD
:10123000A8007B08A9007C08AA008A110A1237249A
:101240008A150A122E088A110A1293218A150A1287
:10125000F30108007808043C031D080075144C08CD
:101260008A110A1293218A150A12F30108007808DC
:10127000053C031D080075147308063C031808009C
:101280007908BC007A08BD007B08BE007C08BF005E
:10129000A7233B1C51298317103084008130800024
:1012A0005F297D08E0007E08E100E1233B1C5E2908
:1012B000831710308400803080005F296124103053
:1012C000B6008A110A12C9218A150A12F301080010
:1012D0007808063C031D080075147308043C0318C5
:1012E00008007908BC007A08BD007B08BE007C08B5
:1012F000BF008A110A125E253B0893213C08932106
:101300003D0893213E0893213F0893218A150A1234
:10131000F30108007808073C031D080075147308E2
:10132000043C031808007908BC007A08BD007B085B
:10133000BE007C08BF00BB018A110A12FB244C08C6
:10134000A600DE228A150A124C08B7000030B6004B
:101350008A110A12A6218A150A12B70BA629F301CF
:1013600008007808083C031D080075147308063C43
:10137000031808007908BC007A08BD007B08BE008D
:101380007C08BF00A7233B1CC8298130B600D429A4
:101390007D08E0007E08E100E1233B1CD22980307B
:1013A000B600D429DC24B60136088A110A1293212A
:1013B0000430B600C9218A150A12F3010800780822
:1013C000093C031D080075147308073C0318080046
:1013D0007908BC007A08BD007B08BE007C08BF000D
:1013E000A7233B18032A7908DA007A08DB007B0878
:1013F000DC007C08DD007D08E0007E08E1007F085D
:10140000D900F924092A031783128130B00003138D
:1014100083121230B6008A110A12BF218A150A12ED
:10142000F301080078080A3C031D080075147308CE
:10143000063C031808007908DA00BC007A08DB00D3
:10144000BD007B08DC00BE007C08DD00BF00A723D8
:101450003B1C302A8317103084008130BB00352AB2
:101460007D08E0007E08E100D0268A110A123B08C0
:1014700093214130B600C9218A150A12F3010800F0
:1014800078080B3C031D080075147308043C03180E
:1014900008007908BC007A08BD007B08BE007C0803
:1014A000BF008A110A12E6258A150A128A110A1249
:1014B0003B08932151089321520893218A150A125F
:1014C000F301080078080C3C031D0800751473082C
:1014D000043C031808007908BC007A08BD007B08AA
:1014E000BE007C08BF003C083D043E043F040319D5
:1014F000832AA7233B08FF39031D812A5A2700307E
:10150000842A8130842A01308A110A129321831798
:101510009030840000089321840A00089321840AF3
:1015200000089321840A00089321840A600893210B
:10153000610893218A150A12F30108007808803C9B
:10154000031D080075147308063C03180800790889
:10155000BC007A08BD007B08BE007C08BF00A72342
:101560003B1CB82A83171030840081308000FF2A8A
:101570007D08E0007E08E100E1233B1CC52A8317BB
:101580001030840080308000FF2A612483171030DF
:1015900084000008063C031DFF2A1C30840000085C
:1015A000E900BC00840A0008EA00BD00840A0008C3
:1015B000EB00BE00840A0008EC00BF008A110A128A
:1015C000E6258A150A125108D3005208D4007D0876
:1015D000E6007E08E7007908E2007A08E3007B086D
:1015E000E4007C08E500ED016E14EE14CD106F10E0
:1015F0007F200030B6004D08B700B8016320831784
:101600001030840000088A110A1293218A150A12E8
:10161000F30108007808813C031D080075146E086A
:101620008A110A1293218A150A126F088A110A1266
:1016300093218A150A126E110430B6007120370802
:101640008A110A129321380893218A150A12F3018C
:1016500008007808823C031D080075147308023CDA
:10166000031808007908D0007A08CF00A320FF30C3
:101670008A110A1293218A150A12F30108007808C8
:10168000833C031D080075140530B600712037082F
:101690008A110A129321380893218A150A120830F8
:1016A000B600712037088A110A1293213808932155
:1016B0008A150A120930B600712037088A110A12F9
:1016C00093213808932162089321630893216408C9
:1016D00093216508932166089321670893218A1551
:1016E0000A12F30108007808843C031D08007514F1
:1016F0007308023C031808006E080639EE007908EA
:10170000F9396E04EE007A08EF00CD10CD13EF1911
:10171000CD170030B6004D08B700B8016320013086
:1017200071203708CE004E116F1A4E150130B600E9
:101730004E08B700B80163206F1EA3208A110A1259
:10174000FF3093218A150A12E801F3010800BB015A
:101750003C083D043E043F04031908008A110A12A4
:10176000FB240130A600DE228A150A12FF30BB00DE
:101770008A110A1286228A150A1220082E3C031D9D
:10178000E02B2108203C031DE02B0430B6008A1119
:101790000A1286228A150A122008203C031DE02B1B
:1017A0002108203C031DE02BB60BC72B8A110A121F
:1017B00086228A150A122008203C031DE02BBB015B
:1017C0000800600803138316A00003138312610846
:1017D00003138316A100A201A301031383128A112C
:1017E0000A127B27031383162C0803138312BA00F3
:1017F00003138316AC0103138312CC185D274C1915
:101800006627CC1970274C1A7B27CC1A87274C1BCC
:101810009427CC1BA227031383162C0803138312CF
:10182000B9008A110A12B1278A150A120313831606
:101830002C1C3F2C031383128313A0308400000858
:10184000B700840A0008B8008A110A125E258A15BA
:101850000A123B185E2C8313A030840037088000E6
:10186000840A3808800003138316A201A30103131E
:1018700083128A110A12F4268A150A12112C0313F4
:1018800083123908BB008A110A12FB240130A6001A
:10189000DE228A150A121030DE003A08DE023A080B
:1018A0000F39B600FF3903195B2CB60E8A110A12E4
:1018B000A1228A150A120030BB00602CFF30BB0049
:1018C000080083171030840000308000840A05303F
:1018D000B6008A110A1286228A150A122008800090
:1018E000840A21088000840AB603031D692C8A112A
:1018F0000A1286228A150A122008800011308400FC
:101900000008FF390319D42CE53C0319D42C210815
:101910000F390F3C0319D42CA119D42C211AA52C52
:101920000230B6001930840000084D3C031DA72C7E
:10193000840A0008503C031DA72C840A0008333C8D
:10194000031DA72C0630B600A72C0130B6001030BE
:101950008400360880000430B6008A110A12A122E1
:101960008A150A121E3084008A110A1286228A15EC
:101970000A1220088000840A210880008A110A12B5
:10198000862286221C30840086228A150A122008AC
:101990008000840A210880000230B6008A110A12F1
:1019A000A1228A150A1208000A30B6008A110A120A
:1019B000A1228A150A1208000E30B6008A110A12F6
:1019C000A1228A150A128317103084008A110A1284
:1019D000862220088000840A21088000840A86224A
:1019E0008A150A1220088000840A21088000840ACF
:1019F00008008A110A12B7228A150A125D265A08AF
:101A0000BC005B08BD005C08BE005D08BF00D913C8
:101A1000FF30BC05031DD917BD05031DD917BE0531
:101A2000031DD917BF05031DD917D91D232DD91B98
:101A30001B2D5912392D0130E000E101E123612411
:101A40008B25A7268A2DD91F332D6108FF39031D49
:101A5000332D6008FF390319302D013C031D332D50
:101A6000591A8A2D392DE1233B188A2D61248B25A3
:101A70006926E001E101D91BE014DE015A08BC002F
:101A80005B08BD005C08BE005D08BF00BB015E08CE
:101A9000FF390319E1233B186F2DDE0361248B25E9
:101AA000E00A0319E10A9825361C3E2DCD25591A66
:101AB000682D361C6E2D0317831230080313831212
:101AC000FF390319662DBA25B61C6E2DA7266E2D7B
:101AD000B61C6E2DBA25361C6E2DA7263E2D591E1E
:101AE0008A2DD91F8A2D03178312300803138312FE
:101AF000FF39031D8A2D5A08BC005B08BD005C0835
:101B0000BE005D08BF000130E000E101E123612477
:101B10008B25A7260800600803178312A000031373
:101B20008312610803178312A100031383120800B4
:101B3000B60103178312100803138312B700FF398D
:101B400003190800D91CB12D591DAE2D591CAB2D00
:101B5000371C3614080037193614080037183614A5
:101B60000800591CB52D36140800371836143719DB
:101B700036140800B6018317031383121030840053
:101B800000080339B70030308400000803393702F9
:101B90000319E02D031C582E532EB601831703138F
:101BA00083121030840000080339B700903084009D
:101BB0000008033937020319E02D031C582E532E59
:101BC00003178312840A000811020319EA2D031C6B
:101BD000582E532E03178312840A00081202031989
:101BE000F42D031C582E532E03178312840A000869
:101BF00013020319FE2D031C582E532E03178312B4
:101C0000840A000814020319082E031C582E532EB0
:101C100003178312840A000815020319122E031CED
:101C2000582E532E03178312840A00081602031934
:101C30001C2E031C582E532E03178312840A0008EF
:101C400017020319262E031C582E532E0317831236
:101C5000840A000818020319302E031C582E532E34
:101C600003178312840A0008190203193A2E031C71
:101C7000582E532E03178312840A00081A020319E0
:101C8000442E031C582E532E03178312840A000877
:101C90001B0203194E2E031C582E532E03138312BE
:101CA0000030B6000800031383120130B6000800AC
:101CB000031383120230B60008004030B6008317C9
:101CC0009030840000308000840AB60B632E8313AA
:101CD00008008317031783129030840010088000D7
:101CE000840A11088000840A12088000840A1308FC
:101CF0008000840A14088000840A15088000840A81
:101D000016088000840A17088000840A18088000DA
:101D1000840A19088000840A1A088000840A1B08B3
:101D20008000840A1C088000840A1D088000840A40
:101D30001E088000840A1F088000840A2008800092
:101D4000840A21088000840A031383120800031701
:101D500083121008B0001108B1001208B200130875
:101D6000B3001408B4001508B5001608B60017082B
:101D7000B7001808B8001908B9001A08BA001B08FB
:101D8000BB001C08BC001D08BD001E08BE001F08CB
:101D9000BF002008C0002108C100031383120800FF
:101DA0008A110A12B7228A150A12DE01BB016008E5
:101DB000043C031CE32E6108FF39031DE32E600879
:101DC000D900E001E92E0530E002031CE1030530F3
:101DD000D9005908FF390319542F5A08BC005B0871
:101DE000BD005C08BE005D08BF005E08FF39031936
:101DF000E1233B18572F1030B6008A110A12A9228E
:101E00008A150A12031783161008FF390319472F82
:101E1000E53C0319472F1B080F3C031D472F0313F5
:101E200083125908B60000300D3EB60B142F033E46
:101E3000840003178316831711088000840A13088F
:101E40008000840A15088000840A17088000840A2C
:101E500019088000840A1E088000840A2008800077
:101E6000840A22088000840A24088000840A260844
:101E70008000840A28088000840A2C088000840AD4
:101E80002E088000840A8313031383124E2F03133A
:101E900083128A110A12B7228A150A12E00A03195C
:101EA000E10AD903DE03E92E0130BB00080000304F
:101EB000BB0008003C08DA003D08DB003E08DC00FF
:101EC0003F08DD00BB018A110A12FB240130A60085
:101ED000DE221A30B600A12286222008BE00210888
:101EE000BF000230B600A12286222008BC002108D3
:101EF000BD008A150A128317903084003C088000C8
:101F0000840A3D088000840A3E088000840A3F0855
:101F10008000840AE001E101BB018A110A12FB245E
:101F20000130A600DE228A150A121030B700B8016F
:101F30008A110A1286222008FF3903193814200852
:101F4000E53C031938140430B600A122862221088A
:101F50001039103C031D38140430B600A12286222B
:101F600020085C02031D381421085D02031D38148B
:101F70000230B600A122862220085A02031D38141E
:101F800021085B02031D38140230B600A1228A1515
:101F90000A123808FF390319E02FE00A0319E10A91
:101FA000B70B972FBB0A3B084C02031D8D2F8A11DC
:101FB0000A125E258A150A123B08FF3903198C2F75
:021FC000080017
:022000000000DE
:023000000000CE
:02400E003A3F37
:00000001FF
