:020000040000FA
:020000001028C6
:08000800F0000308F1000408F8
:10001000F2000A08F6008A01031383128313052AEB
:10002000AA219721B123B123B1238A150A120521F0
:100030008A150A16F0258A110A12FA222E1C1D288A
:10004000000066238A150A1219218A110A127808FB
:10005000F301013C031D22282E08D021E0218A1142
:100060000A1600208A110A128A150A121921F501AE
:100070001E213F218A110A12751CF3012E1E3428FD
:10008000EE017308FF3903196228F5018A150A1277
:100090005D216A219B21BD21E421122245228A1182
:1000A0000A16D321F52139228A150A127322DF227A
:1000B000FE22142348238A110A1657228A110A1293
:1000C000751CF30157085805FF3C03196B285508A8
:1000D000560403194D236E1CFE28EE1CFE286D08E5
:1000E0004C02031DC12853085404031D97286908B6
:1000F000BC006A08BD006B08BE006C08BF00ED01C3
:100100001F243C08E9003D08EA003E08EB003F08D8
:10011000EC003B1C9128FF206E1CFE28EE1CFE28E4
:10012000C128A7245108D3005208D400C1282F08A1
:10013000FF390319B1280A30B6000030B700423049
:10014000B8008A150A1263208A110A120D30B6000F
:100150002F08B7000030B8008A150A1263208A11F0
:100160000A120130D3020318B628D402E90A031D8B
:10017000C028EA0A031DC028EB0A031DC028EC0AA8
:10018000ED016F1CDC28CD146F1DD0286808143CCD
:100190000318D028CD106808193C031DD028E801A9
:1001A0000030B6004D08B700B8018A150A12632066
:1001B0008A110A126F19E80A6908BC006A08BD00B2
:1001C0006B08BE006C08BF006D08BB00BC2301308B
:1001D000A600152387140030B6008A150A12DE2007
:1001E0008A110A12B82220088A150A120020210852
:1001F00000208A110A12B60BED28ED0A41286E1074
:10020000EE106E116F10EE1908006E1E3929EE1EE9
:1002100039296208BC006308BD006408BE00650897
:10022000BF006608E0006708E1008A150A12B623DD
:100230008A110A123B1808008A150A1236248A11FC
:100240000A1283171C3084000008E900BC00840AED
:100250000008EA00BD00840A0008EB00BE00840A22
:100260000008EC00BF00A7245108D3005208D400B6
:1002700085290630D9006208DA006308DB006408CB
:10028000DC006508DD006608E0006708E1008A150B
:100290000A12CE248A110A12831730308400000813
:1002A000063C031968296E1E08000630D91F0E305F
:1002B000D9000130E000E1018A150A12CE248A112A
:1002C0000A128317303084000008063C031D080022
:1002D00083173C3084000008E900BC00840A000851
:1002E000EA00BD00840A0008EB00BE00840A000892
:1002F000EC00BF00840A0008E600840A0008E7005A
:10030000A7245108D3005208D400ED016E14EE1456
:100310006E158A150A129420CD106F100030B600A9
:100320004D08B700B80163208A110A1208000313B0
:100330008316913087000030850000308900FF303F
:100340008600880003138312073089003730850048
:100350008701080003138312313090008F018E0152
:1003600003138316C730810020308C0000308D00CD
:100370000C14C0308B002630980003138312903089
:100380009800031383168130990007309F000313F0
:1003900083129F01F3017030D7001730D800080096
:1003A00003138316981CD0290313831299000800A5
:1003B000B8222008D0212108D021B60BD829080066
:1003C0008317903084001430B6000008B700840A08
:1003D0000008840AD0213708D021B60BE529831301
:1003E00008008317303084000008D021840AB60B3F
:1003F000F429831308008317103084000008D021EB
:10040000840AB60BFE29831308008C1A182A0C18CC
:100410000A2A242A0C10DF308E000B308F0055087A
:1004200056040319242A0130D502031CD602242ABB
:100430001A08F4007308073C031C242A7308783E4A
:10044000840074088000F30A76088A007208840029
:1004500071088300700809001030B600CF30B80072
:10046000B80B302AB60B2E2A08001530B7005930C9
:10047000B600B130B800B80B3B2AB60B392AB70B1F
:10048000372A080027309522AC0008002130952239
:10049000A500080022309522A600080023309522EE
:1004A000A700080024309522A800080025309522D6
:1004B000A900080026309522AB0008002308B500EB
:1004C0001E30A22208002D08B5002730A222080005
:1004D0002608B5002230A22208002708B5002330E4
:1004E000A22208002808B5002430A222080029080A
:1004F000B5002530A22208002B08B5002630A22224
:1005000008002408B5002130A222080042222C183D
:100510008D2AAC1B862A2C1F862A812268226D22F6
:10052000722277227C22632208008500031383163F
:10053000FF308600880003138312091100000608AB
:100540000915080085000313831600308600880013
:10055000031383123508860088018910000089146E
:1005600003138316FF3086008800031383120800EC
:1005700027309522AC002C18C12AAC1BB82AAC1D20
:10058000B82A5708D5005808D600AE12203085008A
:1005900003138316FF3086008800031383120911AA
:1005A000000000000608A0000808A10009150800C6
:1005B000B822B60BD82A0800E030AB007C22080035
:1005C000831790308400B82220088000840A210814
:1005D0008000840AB60BE32A831308004030B6007B
:1005E00083171030840000308000840AB60BF42A90
:1005F00083130800AE010910B1230914B623DC22CD
:10060000B6230230A3005E22E030AB00A601A701B2
:10061000A801A901A4010030AD008622B6235A2208
:100620002B08E03C03192E14080042222C181A2B28
:10063000AC1B152BE030AB007C2242222C18242B63
:10064000AC1B1D2B2C1F1D2B2E19352BA401812219
:1006500068226D22722277222A080F39E038AB0017
:100660007C222030AD00632208000030B50022302B
:10067000A22268220030B5002530A2220030B50049
:100680002430A2222A08B5002330A2227722722227
:100690006D222430AD0063220800AE1A0800A401C8
:1006A000A601A701A801A9019630AD0042222C188D
:1006B0005D2BAC1B562B2C1F562B812268226D22E2
:1006C000722277227C226322AE160800B623DC2237
:1006D000B623E030AB00A601A701A801A901A4013F
:1006E000EC30AD0086221B30B600D8221430B600A4
:1006F000E0220230B600D822B822A118AE140A3087
:10070000B600D822B82220082108B82220082108E3
:100710001530B600D822B82221192E151030B60097
:10072000D8222E1D9A2BB82220082108B822200892
:1007300021089D2B0230B600D8220430B600D82202
:10074000B822A11BA72B211FA72B211AAE1595306C
:10075000B600D822AE13AE1C0800AE190800AE17C2
:1007600008002A30B600B60BB32B080042222C0832
:10077000803903190800B62B8313A03084003C088D
:100780008000840A3D088000840A3E088000840AB4
:100790003F088000840A7226031383162C18E02B6E
:1007A00003138312A030840048088000840A49089B
:1007B0008000840A4A088000840A4B088000840A6A
:1007C00003138312CC18CB254C19D325CC19DC2567
:1007D0004C1AE625CC1AF1254C1BFD25CC1B0A260C
:1007E00040088000840A41088000840A4208800092
:1007F000840A43088000840A5D253B08031383169E
:10080000A400A501A601A7012808A0002908A100AD
:100810002A08A2002B08A300031383125D2583136B
:10082000A83084000008A700840A0008A800840AF1
:100830000008A900840A0008AA00840A0800BB0175
:100840008313A03084003C088000840A3D088000A7
:10085000840A3E088000840A3F0880007226031341
:1008600083162C18432C03138312A03084004808ED
:100870008000840A49088000840A4A088000840AAB
:100880004B088000840A031383126326AC30840073
:100890000008B600A430840044088000840A45089B
:1008A0008000840A46088000840A47088000840A81
:1008B0005D250008A700840A0008A800840A000833
:1008C000A900840A0008AA00840AA4010130A60035
:1008D00015230310360DB600FF39031DD822A030B2
:1008E0008400B82220088000BC00840A210880000F
:1008F000BD00840AB82220088000BE00840A2108B6
:100900008000BF00840A7226031383162C188D2CD6
:1009100003138312FF30BB00A42C03138312F730A0
:100920008000840AFF308000840AFF308000840A3F
:100930000F308000840A8925031383162C18A42CF9
:1009400003138312FF30BB00031383120800BB01A3
:10095000D201D1018313A03084003C08DA0080006A
:10096000840A3D08DB008000840A3E08DC00800029
:10097000840A3F08DD0080006326AC308400000854
:10098000BA00A430840044088000840A450880002E
:10099000840A46088000840A47088000840A5D258E
:1009A0000008A700840A0008A800840A0008A9001B
:1009B000840A0008AA00840AA4010130A6001523B5
:1009C00003103A0DB6003A08FF39031DD822EC2C6B
:1009D000A4010130A6001523A0308400B82220080D
:1009E0008000840A21088000840AB8222008800040
:1009F000840A21088000840A7226031383162C18A7
:100A0000042D031383125A2D03138312F730800031
:100A1000840AFF308000840AFF308000840A0F308F
:100A20008000840A8925031383162C1C5A2D031376
:100A30008312A43084005A088000840A5B08800076
:100A4000840A5C088000840A5D08800089250313FD
:100A500083162B082A042904031D5A2D2808013C5B
:100A6000031D5A2D03138312D21B5A2DD10A0319C9
:100A7000D20AA03084000008DA00840A0008DB00F3
:100A8000840A0008DC00840A0008DD00BA0A3A087B
:100A9000803C031DEC2CBA010130A707031C572D25
:100AA000A807031C572DA907031C572DAA070313DA
:100AB0008312E82C03138312080003138316AC017E
:100AC00020082407A8000318AC1421082507A90052
:100AD000013003182C14AC18A90703182C14AC10FF
:100AE00022082607AA0001300318AC142C18AA0704
:100AF0000318AC142C1023082707AB00013003188F
:100B00002C14AC18AB0703182C14AC10031383126D
:100B1000080003138316AC0124082002A800031C5C
:100B2000AC1425082102A9000130031C2C14AC18B8
:100B3000A902031C2C14AC1026082202AA000130C2
:100B4000031CAC142C18AA02031CAC142C1027088C
:100B50002302AB000130031C2C14AC18AB02031CA5
:100B60002C14AC10031383120800031383160130F6
:100B7000A0020318C22DA1020318C22DA20203185D
:100B8000C22DA302031383120800A00DA10DA20D14
:100B9000A30DAC0D080003138316AC010310C5258B
:100BA00003138312080003138316AC010310C52539
:100BB000C52503138312080003138316AC01031029
:100BC000C525C525C5250313831208000313831605
:100BD000AC010310C525C525C525C5250313831202
:100BE000080003138316AC010310C525C525C525D0
:100BF000C525C52503138312080003138316AC0112
:100C00000310C525C525C525C525C525C52503133F
:100C10008312080003138316AC010310C525C525F4
:100C2000C525C525C525C525C5250313831208007F
:100C30000310A30CA20CA10CA00C08000313831634
:100C400020080139AC00182603138312080003138F
:100C5000831620080339AC001826182603138312C4
:100C600008000313831620080739AC00182618263D
:100C700018260313831208000313831620080F3964
:100C8000AC0018261826182618260313831208000D
:100C90000313831620081F39AC00182618261826BF
:100CA000182618260313831208000313831620083E
:100CB0003F39AC001826182618261826182618269C
:100CC0000313831208000313831620087F39AC0036
:100CD000182618261826182618261826182603134C
:100CE0008312080003138316AC01FF30A005031D17
:100CF0002C14A105031D2C14A205031D2C14A305FF
:0A0D0000031D2C14031383120800D6
:10100000B500071587118712B50D031887168715C8
:10101000071187118712B50D0318871687158711D9
:101020008712B50D03188716871587118712B50D1E
:1010300003188716871587118712B50D03188716B1
:10104000871587118712B50D031887168715871125
:101050008712B50D03188716871587118712B50DEE
:1010600003188716871587110800B5018711071522
:1010700003108715071A0314B50D8711071187157B
:10108000071A0314B50D87118715071A0314B50D38
:1010900087118715071A0314B50D87118715071ACD
:1010A0000314B50D87118715071A0314B50D8711A1
:1010B0008715071A0314B50D87118715071A03142E
:1010C000350D87110800071C6328871002300020A7
:1010D0003608002038080020370800201421871423
:1010E0000800071C712887100330002036080020F4
:1010F0003520B8003520B7001421871408008A1164
:101100000A1235228A150A120030B6004D154D0814
:10111000B7000030B80063208A110A122C228A1509
:101120000A12CF204D1108008A110A1235228A15A1
:101130000A120030B6004D154D08B7000030B80057
:1011400063208A110A122C228A150A12CF204D110F
:101150000A30B6000030B7004230B80063200D30CE
:10116000B6000030B7000030B80063200D30B60084
:101170002F30B7000030B80063202F08FF39031D5F
:1011800008000A30B600B701B80163200800DE206D
:101190002030B70000300020B70BCA2808008714A1
:1011A0002030B600C720B60BD22808000B30B6009E
:1011B0004F08B7005008B80063200800071CDE285D
:1011C0000800DE2045300020783000206930002003
:1011D000743000200030002000300020003000205B
:1011E000003000200800871453300020EF3000202A
:1011F0006E3000203E300020003000200030002003
:1012000000300020003000200800CD01CE01403029
:10121000CF00D0007F200330BA00D620F320BA0BD5
:101220000D29E1207F2008000830B600B60B1629F2
:1012300008007308FF390319192908007808023CCF
:10124000031D080075147308013C03180800790891
:101250000339B6000310B60DB60DB60D360D103EAF
:10126000840083171030B60000088A110A12D021BA
:101270008A150A12840AB60B3429F301080078088B
:10128000033C031D080075147308043C0318080090
:101290007908A7007A08A8007B08A9007C08AA00A2
:1012A0008A110A16E7208A150A122E088A110A12D4
:1012B000D0218A150A12F30108007808043C031DA6
:1012C000080075144C088A110A12D0218A150A12D6
:1012D000F30108007808053C031D08007514730825
:1012E000063C031808007908BC007A08BD007B089A
:1012F000BE007C08BF007C233B1C84298317103070
:1013000084008130800092297D08E0007E08E100A1
:10131000B6233B1C91298317103084008030800055
:10132000922936241030B6008A110A12FB218A1540
:101330000A12F30108007808063C031D0800751422
:101340007308043C031808007908BC007A08BD0043
:101350007B08BE007C08BF008A110A121F243B08CC
:10136000D0213C08D0213D08D0213E08D0213F08A3
:10137000D0218A150A12F30108007808073C031DE2
:10138000080075147308043C031808007908BC00B1
:101390007A08BD007B08BE007C08BF00BB018A1133
:1013A0000A12BC234C08A60015238A150A124C0801
:1013B000B7000030B6008A110A12D8218A150A1225
:1013C000B70BD929F30108007808083C031D080071
:1013D00075147308063C031808007908BC007A08E5
:1013E000BD007B08BE007C08BF007C233B1CFB29A2
:1013F0008130B600072A7D08E0007E08E100B623B0
:101400003B1C052A8030B600072AB124B6013608F5
:101410008A110A12D0210430B600FB218A150A1263
:10142000F30108007808093C031D080075147308CF
:10143000073C031808007908BC007A08BD007B0847
:10144000BE007C08BF007C233B18362A7908DA00EE
:101450007A08DB007B08DC007C08DD007D08E0000A
:101460007E08E1007F08D900CE243C2A03178312AE
:101470008130B000031383121230B6008A110A12B1
:10148000F1218A150A12F301080078080A3C031DAD
:10149000080075147308063C031808007908DA0080
:1014A000BC007A08DB00BD007B08DC00BE007C08C5
:1014B000DD00BF007C233B1C632A831710308400AF
:1014C0008130BB00682A7D08E0007E08E100A52687
:1014D0008A110A123B08D0214130B600FB218A153F
:1014E0000A12F30108007808803C031D08007514F7
:1014F0007308063C031808007908BC007A08BD0090
:101500007B08BE007C08BF007C233B1C8D2A831710
:101510001030840081308000D42A7D08E0007E08ED
:10152000E100B6233B1C9A2A8317103084008030D8
:101530008000D42A36248317103084000008063C2B
:10154000031DD42A1C3084000008E900BC00840A72
:101550000008EA00BD00840A0008EB00BE00840A0F
:101560000008EC00BF008A110A12A7248A150A128B
:101570005108D3005208D4007D08E6007E08E70039
:101580007908E2007A08E3007B08E4007C08E500C3
:10159000ED016E14EE14CD106F1094200030B600E3
:1015A0004D08B700B801632083171030840000088D
:1015B0008A110A12D0218A150A12F301080078084C
:1015C000813C031D080075146E088A110A12D0218F
:1015D0008A150A126F088A110A12D0218A150A1276
:1015E0006E110430B600712037088A110A12D0211A
:1015F0003808D0218A150A12F30108007808823CC5
:10160000031D080075147308023C031808007908CC
:10161000D0007A08CF00D620FF308A110A12D021DC
:101620008A150A12F30108007808833C031D08009C
:1016300075140530B600712037088A110A12D021BE
:101640003808D0218A150A120830B60071203708F0
:101650008A110A12D0213808D0218A150A120930BD
:10166000B600712037088A110A12D0213808D0211B
:101670006208D0216308D0216408D0216508D021F8
:101680006608D0216708D0218A150A12F3010800E4
:101690007808843C031D080075147308023C031885
:1016A00008006E080639EE007908F9396E04EE007C
:1016B0007A08EF00CD10CD13EF19CD170030B6002A
:1016C0004D08B700B8016320013071203708CE0003
:1016D0004E116F1A4E150130B6004E08B700B80112
:1016E00063206F1ED6208A110A12FF30D0218A157E
:1016F0000A12E801F3010800BB013C083D043E0466
:101700003F04031908008A110A12BC230130A60005
:1017100015238A150A12FF30BB008A110A12B8225B
:101720008A150A1220082E3C031DB52B2108203CE7
:10173000031DB52B0430B6008A110A12B8228A158F
:101740000A122008203C031DB52B2108203C031D54
:10175000B52BB60B9C2B8A110A12B8228A150A12D5
:101760002008203C031DB52BBB01080060080313B3
:101770008316A00003138312610803138316A100CC
:10178000A201A301031383128A110A123C26031338
:1017900083162C0803138312BA0003138316AC01BB
:1017A00003138312CC181E264C192726CC19312678
:1017B0004C1A3C26CC1A48264C1B5526CC1B6326BB
:1017C000031383162C0803138312B9008A110A121B
:1017D00072268A150A12031383162C1C142C031369
:1017E00083128313A03084000008B700840A000825
:1017F000B8008A110A121F248A150A123B18332CCA
:101800008313A030840037088000840A38088000E1
:1018100003138316A201A301031383128A110A1270
:10182000B5258A150A12E62B031383123908BB006B
:101830008A110A12BC230130A60015238A150A1248
:101840001030DE003A08DE023A080F39B600FF39E0
:101850000319302CB60E8A110A12D8228A150A12E0
:101860000030BB00352CFF30BB0008008317103060
:10187000840000308000840A0530B6008A110A1204
:10188000B8228A150A1220088000840A21088000E4
:10189000840AB603031D3E2C8A110A12B8228A1547
:1018A0000A1220088000113084000008FF39031953
:1018B000A92CE53C0319A92C21080F390F3C031969
:1018C000A92CA119A92C211A7A2C0230B6001930A2
:1018D000840000084D3C031D7C2C840A0008503C09
:1018E000031D7C2C840A0008333C031D7C2C06302D
:1018F000B6007C2C0130B600103084003608800021
:101900000430B6008A110A12D8228A150A121E3033
:1019100084008A110A12B8228A150A12200880004F
:10192000840A210880008A110A12B822B8221C30C9
:101930008400B8228A150A1220088000840A21082F
:1019400080000230B6008A110A12D8228A150A12C3
:1019500008000A30B6008A110A12D8228A150A1223
:1019600008000E30B6008A110A12D8228A150A120F
:101970008317103084008A110A12B82220088000D0
:10198000840A21088000840AB8228A150A122008D5
:101990008000840A21088000840A08008A110A1243
:1019A000EE228A150A1232265A08BC005B08BD00D6
:1019B0005C08BE005D08BF00D913FF30BC05031DE5
:1019C000D917BD05031DD917BE05031DD917BF05BE
:1019D000031DD917D91DF82CD91BF02C59120E2D27
:1019E0000130E000E101B623362460257C265F2D1E
:1019F000D91F082D6108FF39031D082D6008FF3924
:101A00000319052D013C031D082D591A5F2D0E2DBC
:101A1000B6233B185F2D362460253E26E001E10108
:101A2000D91BE014DE015A08BC005B08BD005C084D
:101A3000BE005D08BF00BB015E08FF390319B62375
:101A40003B18442DDE0336246025E00A0319E10A21
:101A50006D25361C132DA225591A3D2D361C432DFC
:101A600003178312300803138312FF3903193B2D28
:101A70008F25B61C432D7C26432DB61C432D8F2568
:101A8000361C432D7C26132D591E5F2DD91F5F2D2B
:101A900003178312300803138312FF39031D5F2DD0
:101AA0005A08BC005B08BD005C08BE005D08BF00B2
:101AB0000130E000E101B623362460257C260800D1
:101AC000600803178312A000031383126108031731
:101AD0008312A100031383120800B60103178312B7
:101AE000100803138312B700FF3903190800D91C2B
:101AF000862D591D832D591C802D371C3614080046
:101B0000371936140800371836140800591C8A2D66
:101B10003614080037183614371936140800B60181
:101B20008317031383121030840000080339B700B1
:101B3000303084000008033937020319B52D031C27
:101B40002D2E282EB6018317031383121030840024
:101B500000080339B70090308400000803393702C9
:101B60000319B52D031C2D2E282E03178312840A6A
:101B7000000811020319BF2D031C2D2E282E031758
:101B80008312840A000812020319C92D031C2D2E8A
:101B9000282E03178312840A000813020319D32D79
:101BA000031C2D2E282E03178312840A000814020A
:101BB0000319DD2D031C2D2E282E03178312840AF2
:101BC000000815020319E72D031C2D2E282E0317DC
:101BD0008312840A000816020319F12D031C2D2E0E
:101BE000282E03178312840A000817020319FB2DFD
:101BF000031C2D2E282E03178312840A00081802B6
:101C00000319052E031C2D2E282E03178312840A78
:101C10000008190203190F2E031C2D2E282E03175E
:101C20008312840A00081A020319192E031C2D2E90
:101C3000282E03178312840A00081B020319232E7F
:101C4000031C2D2E282E031383120030B60008002B
:101C5000031383120130B60008000313831202300D
:101C6000B60008004030B600831790308400003082
:101C70008000840AB60B382E8313080083170317DD
:101C800083129030840010088000840A11088000BC
:101C9000840A12088000840A13088000840A140849
:101CA0008000840A15088000840A16088000840ACF
:101CB00017088000840A18088000840A1908800028
:101CC000840A1A088000840A1B088000840A1C0801
:101CD0008000840A1D088000840A1E088000840A8F
:101CE0001F088000840A20088000840A21088000E0
:101CF000840A031383120800031783121008B0002C
:101D00001108B1001208B2001308B3001408B4009F
:101D10001508B5001608B6001708B7001808B8006F
:101D20001908B9001A08BA001B08BB001C08BC003F
:101D30001D08BD001E08BE001F08BF002008C0000F
:101D40002108C1000313831208008A110A12EE222F
:101D50008A150A12DE01BB016008043C031CB82E80
:101D60006108FF39031DB82E6008D900E001BE2EBE
:101D70000530E002031CE1030530D9005908FF39A2
:101D80000319292F5A08BC005B08BD005C08BE007F
:101D90005D08BF005E08FF390319B6233B182C2FDE
:101DA0001030B6008A110A12E0228A150A120317AF
:101DB00083161008FF3903191C2FE53C03191C2F4B
:101DC0001B080F3C031D1C2F031383125908B60078
:101DD00000300D3EB60BE92E033E84000317831638
:101DE000831711088000840A13088000840A1508EC
:101DF0008000840A17088000840A19088000840A79
:101E00001E088000840A20088000840A22088000BE
:101E1000840A24088000840A26088000840A28088E
:101E20008000840A2C088000840A2E088000840A1E
:101E3000831303138312232F031383128A110A12AD
:101E4000EE228A150A12E00A0319E10AD903DE0319
:101E5000BE2E0130BB0008000030BB0008003C086B
:101E6000DA003D08DB003E08DC003F08DD00BB0176
:101E70008A110A12BC230130A60015231A30B600BD
:101E8000D822B8222008BE002108BF000230B600C8
:101E9000D822B8222008BC002108BD008A150A12E9
:101EA0008317903084003C088000840A3D0880003D
:101EB000840A3E088000840A3F088000840AE0010A
:101EC000E101BB018A110A12BC230130A6001523CF
:101ED0008A150A121030B700B8018A110A12B82206
:101EE0002008FF39031938142008E53C0319381479
:101EF0000430B600D822B82221081039103C031D46
:101F000038140430B600D822B82220085C02031D21
:101F1000381421085D02031D38140230B600D8229F
:101F2000B82220085A02031D381421085B02031D41
:101F300038140230B600D8228A150A123808FF3940
:101F40000319B52FE00A0319E10AB70B6C2FBB0A7E
:101F50003B084C02031D622F8A110A121F248A15A6
:0C1F60000A123B08FF390319612F08002A
:102000008A110A12EE228A110A16A701A801A90153
:10201000AA01BB010130A6008A110A121523DF3084
:10202000B600D8222030B600E0220130B600D82217
:102030008A110A168313A430840027088000840ABA
:1020400028088000840A29088000840A2A08800061
:10205000840A83179430840000080C3C031D013C63
:10206000031D5B2803138316983084000008A0002A
:10207000840A0008A100840A0008A200840A00085B
:10208000A300031383128A110A125D258A110A160E
:102090008313A83084000008A700840A0008A80061
:1020A000840A0008A900840A0008AA00840A8A2079
:1020B0008317A43084000008053C031D0A3C031D5F
:1020C00089280408043E840003138316831700083C
:1020D000A000840A0008A100840A0008A200840A63
:1020E0000008A300031383128A110A125D258A11C6
:1020F0000A168313A83084000008A700840A000889
:10210000A800840A0008A900840A0008AA00840A1A
:102110000A28080083173B08B6000310B60DB60D59
:10212000B60DB60D3608113E840027088000840ADB
:1021300028088000840A29088000840A2A08800070
:10214000840A0130A6008A110A1215232330B60032
:10215000D822B8228A110A1621088000840A053084
:10216000B6008A110A12B8228A110A1620088000C5
:10217000840A21088000840AB60BB128103084023A
:102180008A110A12B8228A110A162008463C031D39
:10219000E6282108413C031DE6288A110A12B822CC
:1021A0008A110A162008543C031DE6282108333CF6
:1021B000031DE6288A110A12B8228A110A1620087D
:1021C000323C031DE628FF308000BB0A08002E12B7
:1021D000C001C101C201C301C401C501C601C701DB
:1021E000C801C901CA01CB01A4010130A6008A11AE
:1021F0000A1215230530B600D822B8228A110A1611
:102200002108FF39031DD2298A110A12B8228A1126
:102210000A162008023C031DD2292108CC00803C6C
:10222000031CD2298A110A12B8228A110A16200820
:10223000C4002108C5008A110A12B8228A110A16A0
:102240002008023C031DD2290930B6008A110A1267
:10225000D822B8222008C0002108C100B8222008D6
:10226000C2002108C300B822B822B8222008C80042
:102270002108C900B8222008CA002108CB0011306B
:10228000B600D822B8228A110A162008463C031D3F
:10229000D2292108413C031DD2298A110A12B822F1
:1022A0008A110A162008543C031DD2292108333C08
:1022B000031DD2298A110A12B8228A110A1620088F
:1022C000323C031DD2298313A030840044088000CF
:1022D000840A45088000840A46088000840A47086A
:1022E0008000840A27088000840A28088000840A65
:1022F00029088000840A2A088000840A8A110A12A8
:102300005D258A110A160008C400840A0008C50069
:10231000840A0008C600840A0008C700840AA030A6
:10232000840040088000840A41088000840A420832
:102330008000840A43088000840A8A110A12CB258F
:1023400044088000840A45088000840A460880000A
:10235000840A47088000840A5D258A110A164C0DFC
:1023600003138316A400A501A601A7012808A00055
:102370002908A1002A08A2002B08A3000313831236
:102380008A110A1289258A110A160008C000840AD7
:102390000008C100840A0008C200840A0008C300C3
:1023A000840A2E16080078080B3C031D08007514DB
:1023B0007308043C031808007908BC007A08BD00C3
:1023C0007B08BE007C08BF008A110A12A7248A116C
:1023D0000A168A110A123B08D0215108D02152084E
:1023E000D0218A110A16F301080078080C3C031D5D
:1023F000080075147308043C031808007908BC0031
:102400007A08BD007B08BE007C08BF003C083D0484
:102410003E043F0403191E2A8A150A127C238A11DE
:102420000A163B08FF39031D1C2A8A150A122F279A
:102430008A110A1600301F2A81301F2A01308A11A2
:102440000A12D0218317903084000008D021840A1A
:102450000008D021840A0008D021840A0008D02175
:10246000840A6008D0216108D0218A110A16F3017C
:10247000080078080D3C031D080075147308023C21
:102480000318080079087A0403194D2A7908D7003F
:10249000D5007A08D800D6004F2AD501D6018A1176
:1024A0000A12FF30D0218A110A16F30108007808B9
:1024B000853C031D080075147308013C03180800CF
:1024C0007908FF390319992A79080C3C031C922AD0
:1024D0007908AF000A30B6000030B7004230B800CB
:1024E0008A150A1263208A110A160D30B6000030D0
:1024F000B7000030B8008A150A1263208A110A1644
:102500000D30B6002F08B7000030B8008A150A1247
:1025100063208A110A168A110A12FF30D0218A110B
:102520000A16B22A8A110A120030D0218A110A161C
:10253000B22AAF010D30B6000030B7000030B8004D
:102540008A150A1263208A110A160A30B600B701EA
:10255000B8018A150A1263208A110A12FF30D021AD
:082560008A110A16F3010800BC
:10300000133436342434003412343E341734B83494
:1030100012343E341534383405343E341434B83464
:103020001534363424340034003400340A34803407
:1030300010343E340434B834003400348234003464
:1030400004343E341234783424346034243400346C
:10305000043400349134E5341034283415348A347F
:103060009434403424340034003431344C349834B3
:103070008434423424340034043400341234E034D0
:10308000103428344534873400340034913400340B
:103090001034F1344034B83410342934C034D334CB
:1030A0000934303450343834043400341234E234C7
:1030B00000340034913400341034F13450349834F6
:1030C00010342934C034D33413343034243400342D
:1030D00009343034D0341B341034283480349034E4
:1030E00009343034C0341B341034F1344034B83433
:1030F000103429344034C634093430345034383430
:10310000043400341234E234003400349134003496
:103110001034F13450349834103429344034C634E7
:10312000133430342434003409343034D0341B3474
:10313000103428348034903409343034C0341B3493
:1031400000340034023401341034283415348F3400
:103150000034003424340034003431344C34983496
:103160008434423424340034043400341234E034DF
:103170001034283485348D34003400345134003414
:10318000803441344034B83410342934C034D3341A
:10319000093430345034383409343034D0341B34AA
:1031A000103428348034903409343034C0341B3423
:1031B000803441344034B834103429344034C63477
:1031C000093430345034383409343034D0341B347A
:1031D000103428348034903409343034C0341B34F3
:1031E0002434603424340034003400342434003473
:1031F00010342834953490340034003424340034AE
:103200001034293440349234883441342434003426
:10321000F434363412345834F034363404349834B8
:103220000534343414349034F334363424340034D4
:10323000F234363415341834003420340034003479
:10324000F23436341734983413343634243400349A
:1032500022343E341534B83405343E341434B83492
:103260002534363424340034003400340A348034B5
:1032700010343E3401343834043400340034E03443
:1032800011343E341034783413343E340E34F83470
:1032900003343E344C34503488344434C0343334F2
:1032A00004340034D034E034103428349534983465
:1032B00000340034CE34033410342434CE34963405
:1032C0008034B8344C341034053434342434C034AD
:1032D00010343F342434003405343C342434C034B6
:1032E000043400340034E03404340034D034E034A6
:1032F00070343834CC341334043400340034E234C1
:10330000103428340034C4341334303424340034BA
:103310007034303424340034803440344C3400343D
:10332000043400340034E0341034283445349B3401
:103330000034003424340034003430342434003475
:1033400080344034243400340034003424340034D5
:103350001034283495349C3490344434243400346C
:10336000043400340034E03404340034D034E03425
:103370007034383424340034043400340034E234FB
:103380001334303424340034903444340034203442
:1033900000340034803400341034283495349F34A1
:1033A000013400341034E034103400348034A2345A
:1033B00009343034403420340F34003400347C3449
:1033C00009343034403420342034003400340034A4
:1033D0000934303440342034073400340034E034CD
:1033E000103428340034C2340934303400342034EA
:1033F000003464342434003400340034C0340034E5
:1034000010342834D534A234003400342434003449
:103410000E34003440349134093430344034203494
:10342000113400344034973409343034403420347B
:103430002034003400340034093430344034203433
:10344000073400340034D734103428340034C23404
:1034500009343034003420340034643424340034EB
:103460000034003400340134103428341534A634C8
:1034700000340034243400341134003440346634D1
:1034800009343034403420340E3400344034BA34FB
:1034900009343034403420342034003400340034D3
:1034A0000934303440342034073400348034C2349A
:1034B000103428340034C234093430340034203419
:1034C0000034643424340034003400344034013493
:1034D000103428345534A9340034003424340034F2
:1034E00012340034803414340934303440342034FD
:1034F0000E3400340034293409343034403420345C
:103500002034003400340034093430344034203462
:10351000073400344034E134103428340034C234E9
:10352000093430340034203400346434243400341A
:103530000034003480340134103428345534AC3431
:1035400000340034243400341034003400340034A7
:103550008034B8344034A03409343034403420341A
:1035600038340034003429340934303440342034C1
:103570003834003480341034103428340034C234E9
:1035800009343034003420340034643424340034BA
:1035900000340034C0340134103428349534AF344E
:1035A000003400342434003418340034003400343F
:1035B0000934303440342034393400340034FC349D
:1035C0000934303440342034383400340034293461
:1035D00009343034403420343834003480341034EA
:1035E000103428340034C2340934303400342034E8
:1035F00000346434243400340034003400340234A1
:1036000010342834D534B234013400341034E0346A
:103610001534003400345834093430344034203404
:1036200038340034C03488340934303440342034E1
:1036300038340034403433340934303440342034A6
:103640003834003480341034103428340034C23418
:1036500009343034003420340034643424340034E9
:103660000034003440340234103428341534B63475
:103670000034003424340034193400340034D3349A
:1036800009343034403420340634003400342D34CE
:103690000934303440342034383400344034083471
:1036A0000934303440342034383400348034103419
:1036B000103428340034C234093430340034203417
:1036C0000034643424340034003400348034023450
:1036D000103428341534B934003400342434003420
:1036E00010340034003400348034B8344034A03412
:1036F0000934303440342034383400348034663473
:10370000093430344034203438340034003429341F
:10371000103428340034C2340934303400342034B6
:10372000003464342434003400340034C0340234AF
:10373000103428345534BC3400340034243400347C
:103740001834003400340034093430344034203428
:10375000393400340034FC340934303440342034FB
:103760003834003400347B3409343034403420346D
:103770003834003440343334103428340034C23404
:1037800009343034003420340034643424340034B8
:103790000034003400340334103428349534BF34FA
:1037A00000340034243400341534003400345834E8
:1037B000093430344034203438340034C034883450
:1037C00009343034403420343834003480346634A2
:1037D000093430344034203438340034C034243494
:1037E000103428340034C2340934303400342034E6
:1037F0000034643424340034103400340034003491
:10380000103428341534C2340034003424340034E5
:1038100009343034403420340934303440342034D6
:103820003834003480341434093430344034203493
:103830003834003400345234093430340034203405
:10384000013400341034E1340034003400340034E6
:103850000034003401340134123464340034A034B0
:103860000034003440340034103428341934C43463
:10387000043400349034E53490344034243400343B
:103880000034383424340034F334363424344034AF
:10389000F33436340E34D834F134363410345834EA
:1038A000F03436340134183405343434143490345C
:1038B000E33436342434003400342034003400340B
:1038C000F23436341534983412343E341734B83464
:1038D00012343E341534383414343E341134383410
:1038E00014343E341334B83415343E340D34383483
:1038F00010343E340134383410343E340334B83498
:1039000011343E340534383411343E340734B8347D
:1039100003343E340E34F8340034F43497344434F1
:10392000003400340A34003433343734243400345F
:103930002434373424348034013400341434E034F3
:10394000203400341534013490344034C5341F34ED
:10395000103424344034D0342034003493340034D0
:103960008E34BF34043400344834F1342434003409
:103970008734BD344834AC340934FE3449342834F7
:103980000734523448342934073452344C342934FF
:10399000D634583485341C34DE34583445341C3421
:1039A000BE34463462341F34D2344F34043492343B
:1039B000C2344C3424340034C6344C3424340034FF
:1039C000EA34F13443343C34E2344D3421343C3471
:1039D00086344C3445341C3410343F342434403461
:1039E000103428345234D034D8343F3424340034A2
:1039F000103428345434D0341F340034C334FF34EA
:103A0000E0340F3403340034803438342434C03488
:103A1000F33437342434003404343F3424348034D1
:103A2000F33436340E34D834F13436340734983421
:103A3000F134363405341834F034363403349834E1
:103A4000F034363401341834F53436340D34183447
:103A5000F434363413349834F4343634113418349E
:103A6000F234363415341834003420340034003441
:103A7000F23436341734983412343E341734B834B0
:103A800012343E341534383414343E34113438345E
:103A900014343E341334B83415343E340D343834D1
:103AA00010343E340134383410343E340334B834E6
:103AB00011343E340534383411343E340734B834CC
:103AC00013343E340E34F8348634BD3497344434E1
:103AD000093430340C341D34013400341434E034EF
:103AE00020340034D534003491344034E234E234AC
:103AF000113437342434403410342434C034DD34A9
:103B0000F83437340A349834893445344834063428
:103B10000D34FE3448342134173450344834A6343C
:103B2000B6344D34853448348434433443344834D3
:103B30003134FE3466346734AE34503424340034C7
:103B4000BE34463400349234D7344E346434653451
:103B50003034FE3481344034AA345034E0344034BC
:103B6000BA34443424340034EA346F342434003416
:103B700082344C342434003400340034243400348F
:103B800010342834D234DD34EB344E3462346334B0
:103B900082344C342434003400340034243400346F
:103BA00010342834D434DD341F340034C134FF34AD
:103BB000E0340F3401340034EA344E34013422341A
:103BC00011343F3424344034103428340034D13498
:103BD000F8343F34CC349B3461088A00600882009A
:103BE0000730B6000030B7008230B8008A150A12DC
:103BF00063208A150A160030E0001830E100063014
:103C0000B600EC25B700E00AEC25B8008A150A12C8
:103C100063208A150A16E00A0319E10A61081D3CAF
:103C2000031DFF2D6008EC3C031DFF2DAF018A151D
:0A3C30000A1294208A150A160800F3
:02400E003A3F37
:00000001FF
