:020000040000FA
:020000005E2A76
:08000800A82A27305620AC00A5
:10001000080021305620A500080016305620A20006
:10002000080022305620A600080023305620A700E2
:10003000080024305620A800080025305620A900CA
:10004000080026305620AB0008002308B500163003
:10005000632008002D08B50027306320080026081B
:10006000B5002230632008002708B5002330632044
:1000700008002808B5002430632008002908B500CE
:100080002530632008002B08B500263063200800C7
:100090002408B5002130632008002E2148202F209D
:1000A000342039203E2043202A20080087000313F3
:1000B0008316FF30860088000313831209110000A5
:1000C0000608091508008700031383160030860010
:1000D0008800031383123508860088018910000008
:1000E000891403138316FF308600880003138312DC
:1000F00008002030870003138316FF308600880035
:10010000031383120911000000000608A00008086C
:10011000A1000915080025217920B60B8B280800BD
:10012000E030AB0043200800831790308400252185
:10013000792020088000840A21088000840AB60BF8
:10014000972883130800AE010910202109142E21DD
:1001500090202E210230A3002520E030AB00A60124
:10016000A701A801A901A4010030AD004D202E2156
:1001700021202B08E03C03192E1408002E2190208A
:100180002E21E030AB00A601A701A801A901A4011E
:10019000EC30AD004D201B30B6008B201430B60083
:1001A000252179202108A0222008A022B60BD028E2
:1001B0000230B6008B202521792021080239AE00BB
:1001C0000A30B6008B20252179202008AF002108B5
:1001D000B000252179202008B1002108B200153097
:1001E000B6008B202521792021192E141030B6005D
:1001F0008B202E1C0829252179202008AF002108FA
:10020000B000252179202008B1002108B2000B2977
:100210000230B6008B200430B6008B2025217920D7
:10022000A11B1629211F1629211A2E159530B6005B
:100230008B20AE13AE1C08002E190800AE17080064
:100240002130B600B60B222908002E212C0888394F
:10025000083C031908002C1C2529080005202C083F
:100260008039031908002E290030B8000430B90085
:100270000030BA003C2108008511023046213808C0
:1002800046213A0846213908462108008516B5005E
:10029000083005118510B50D031885140515851254
:1002A000000B49290511080003138316AC0120082F
:1002B0002407A8000318AC1421082507A900031877
:1002C0002C14AC18A90A03182C14AC102208260709
:1002D000AA000318AC142C18AA0A0318AC142C108A
:1002E00023082707AB0003182C14AC18AB0A03181B
:1002F0002C14AC1003138312080003138316AC01F3
:1003000024082002A800031CAC1425082102A9001F
:10031000031C2C14AC18A903031C2C14AC102608C5
:100320002202AA00031CAC142C18AA03031CAC1450
:100330002C1027082302AB00031C2C14AC18AB03B1
:10034000031C2C14AC10031383120800A00DA10D84
:10035000A20DA30DAC0D080003138316AC0103100E
:10036000A62103138312080003138316AC010310A4
:10037000A621A62103138312080003138316AC01E0
:100380000310A621A621A62103138312080003133C
:100390008316AC010310A621A621A621A6210313D2
:1003A00083120800A30CA20CA10CA00CAC0C08003A
:1003B00003138316AC010310A62103138312080054
:1003C00003138316AC010310A621A6210313831285
:1003D000080003138316AC010310A621A621A62151
:1003E00003138312080003138316AC010310A62124
:1003F000A621A621A6210313831208000313831646
:10040000AC01FF30A005031D2C14A105031D2C1405
:10041000A205031D2C14A305031D2C140313831222
:1004200008004130A0226830A0226F30A0226A303C
:10043000A0222130A0220800E030AB000030A6004E
:10044000A700A801A901A4012130EC30AD004D2086
:100450002E212C08A022FF30A022FF30BA00252137
:1004600079202108A0222008A022BA0B2F2A0800F8
:100470000D202208A02209202508A02211202608EC
:10048000A02215202708A02219202808A0221D201C
:100490002908A02221202B08A02205202C08A02218
:1004A000080080309800903098008C1E512A8C12E1
:1004B00080309800903098008715080086227322BB
:1004C0002021202120211122A3202E1C00002E08F3
:1004D000A0221C228715A9228711A9224F30A02211
:1004E0004B30A0226A2A03138316FF3085000030A8
:1004F000870000308900FF308600880003138312D4
:10050000073089003F3087008501080003138316F8
:10051000C730810020308C0000308D00C0308B004F
:10052000263098000313831280309800031383163B
:100530006730990007309F00031383129F01080062
:1005400003138316981CA02A031383129900080032
:1005500009004730B7002B30B600D930B800B80BCF
:0C056000AF2AB60BAD2AB70BAB2A08007F
:02400E003A3F37
:00000001FF
