:020000040000FA
:02000000BA2D17
:080008004A2E27305620AC00FF
:10001000080021305620A500080016305620A20006
:10002000080022305620A600080023305620A700E2
:10003000080024305620A800080025305620A900CA
:10004000080026305620AB0008002308B500163003
:10005000632008002D08B50027306320080026081B
:10006000B5002230632008002708B5002330632044
:1000700008002808B5002430632008002908B500CE
:100080002530632008002B08B500263063200800C7
:100090002408B5002130632008005C2148202F206F
:1000A000342039203E2043202A20080087000313F3
:1000B0008316FF30860088000313831209110000A5
:1000C0000608091508008700031383160030860010
:1000D0008800031383123508860088018910000008
:1000E000891403138316FF308600880003138312DC
:1000F00008004D212030870003138316FF3086004F
:100100008800031383120911000000000608A000F4
:100110000808A100091508007920B60B8C280800F2
:10012000E030AB0043200800831790308400792032
:1001300020088000840A21088000840AB60B9728D2
:10014000831308004030B60083171030840000305D
:100150008000840AB60BA82883130800AE0109109A
:10016000482109145621902056210230A300252051
:10017000E030AB00A601A701A801A901A40100304D
:10018000AD004D20562121202B08E03C03192E14F0
:100190000800562190205C212E19DD28A40148205A
:1001A0002F20342039203E202A080F39E038AB00B8
:1001B00043202030AD002A2008000030B500223056
:1001C00063202F200030B500253063200030B500BB
:1001D000243063202A08B500233063203E203920D4
:1001E00034202430AD002A200800562190205621CA
:1001F000E030AB00A601A701A801A901A401EC30E1
:10020000AD004D201B30B6008C201430B600942079
:100210000230B6008C207920A118AE140A30B60046
:100220008C2079202008AF002108B0007920200818
:10023000B1002108B2001530B6008C2079202119B8
:100240002E151030B6008C202E1D31297920200863
:10025000AF002108B00079202008B1002108B200C9
:1002600034290230B6008C200430B6008C2079206E
:10027000A11B3E29211F3E29211AAE159530B6003B
:100280008C20AE13AE1C0800AE190800AE17080093
:100290002130B600B60B4A29080056212C088839AF
:1002A000083C031908002C1C4D29080005202C08C7
:1002B000803903190800562956212C1F5C29080093
:1002C000A220A701A801A901AA01BB010130A60033
:1002D000C920DF30B6008C202030B60094200130D9
:1002E000B6008C208313A430840027088000840A81
:1002F00028088000840A29088000840A2A088000CF
:10030000840A83179430840000080C3C031D013CD0
:10031000031DAF2903138316983084000008A00042
:10032000840A0008A100840A0008A200840A0008C8
:10033000A30003138312D1248313A8308400000880
:10034000A700840A0008A800840A0008A900840AFB
:100350000008AA00840ADA218317A4308400000868
:10036000053C031D0A3C031DD9290408043E8400F2
:100370000313831683170008A000840A0008A10055
:10038000840A0008A200840A0008A3000313831251
:10039000D1248313A83084000008A700840A000831
:1003A000A800840A0008A900840A0008AA00840A98
:1003B0006629080083173B08B6000310B60DB60D7A
:1003C000B60DB60D3608113E840027088000840A59
:1003D00028088000840A29088000840A2A088000EE
:1003E000840A0130A600C9202330B6008C20792071
:1003F00021088000840A0530B6007920200880009A
:10040000840A21088000840AB60BFD29103084027A
:1004100079202008463C031D222A2108413C031D67
:10042000222A79202008543C031D222A2108333C2B
:10043000031D222A79202008323C031D222AFF3086
:100440008000BB0A08002E12C001C101C201C30115
:10045000C401C501C601C701C801C901CA01CB0158
:10046000A4010130A600C9200530B6008C207920F7
:100470002108FF39031DE62A79202008023C031DCC
:10048000E62A2108CC00203C031CE62A792020081B
:10049000C4002108C50079202008023C031DE62A7B
:1004A0000930B6008C2079202008C0002108C10046
:1004B00079202008C2002108C30079207920792002
:1004C0002008C8002108C90079202008CA00210896
:1004D000CB001130B6008C2079202008463C031D4B
:1004E000E62A2108413C031DE62A79202008543CD5
:1004F000031DE62A2108333C031DE62A7920200843
:10050000323C031DE62A8313A03084004408800097
:10051000840A45088000840A46088000840A470847
:100520008000840A27088000840A28088000840A42
:1005300029088000840A2A088000840AD12400083F
:10054000C400840A0008C500840A0008C600840AA2
:100550000008C700840AA030840040088000840A94
:1005600041088000840A42088000840A4308800011
:10057000840A292544088000840A45088000840AEA
:1005800046088000840A47088000840AD1244C0D64
:1005900003138316A400A501A601A7012808A00043
:1005A0002908A1002A08A2002B08A3000313831224
:1005B000FA240008C000840A0008C100840A000868
:1005C000C200840A0008C300840A2E1608008313A0
:1005D000A03084003C088000840A3D088000840A22
:1005E0003E088000840A3F088000840AA725031380
:1005F00083162C180B2B03138312A0308400480899
:100600008000840A49088000840A4A088000840A1D
:100610004B088000840A03138312CC1829254C1937
:100620003125CC193A254C1A4425CC1A4F254008BF
:100630008000840A41088000840A42088000840AFD
:1006400043088000840AD1243B0803138316A400C6
:10065000A501A601A7012808A0002908A1002A08D1
:10066000A2002B08A30003138312D1248313A83004
:1006700084000008A700840A0008A800840A000873
:10068000A900840A0008AA00840A0800BB01831399
:10069000A03084003C088000840A3D088000840A61
:1006A0003E088000840A3F088000A72503138316B4
:1006B0002C186A2B03138312A03084004808800092
:1006C000840A49088000840A4A088000840A4B088A
:1006D0008000840A031383129825AC30840000083C
:1006E000B600A430840044088000840A45088000D5
:1006F000840A46088000840A47088000840AD124BE
:100700000008A700840A0008A800840A0008A900BD
:10071000840A0008AA00840AA4010130A600C920A6
:100720000310360DB600FF39031D8C20A030840065
:10073000792020088000BC00840A21088000BD00C8
:10074000840A792020088000BE00840A21088000E5
:10075000BF00840AA725031383162C18B42B031398
:100760008312FF30BB00CB2B03138312F7308000C2
:10077000840AFF308000840AFF308000840A0F3032
:100780008000840AFA24031383162C18CB2B03133E
:100790008312FF30BB00031383120800831710304D
:1007A000840000308000840A0530B60079202008DB
:1007B0008000840A21088000840AB603031DD62B1A
:1007C000792020088000113084000008FF390319C7
:1007D000252CE53C0319252C21080F390F3C031962
:1007E000252CA119252C211A0A2C0230B60019300B
:1007F000840000084D3C031D0C2C840A0008503C6A
:10080000031D0C2C840A0008333C031D0C2C0630FD
:10081000B6000C2C0130B600103084003608800081
:100820000430B6008C201E3084007920200880001F
:10083000840A21088000792079201C3084007920E6
:1008400020088000840A2108800008000E30B600CD
:100850008C20831710308400792020088000840ABF
:1008600021088000840A792020088000840A210859
:100870008000840A0800B500851605118510B50DA5
:10088000031885140515851205118510B50D03187B
:100890008514051505118510B50D0318851405156A
:1008A00005118510B50D0318851405150511851062
:1008B000B50D03188514051505118510B50D031820
:1008C0008514051505118510B50D0318851405153A
:1008D00005118510B50D03188514051505110800BF
:1008E000851102303B2436083B2438083B24370866
:1008F0003B24851508006F260030B6004D154D08C5
:10090000B7000030B800702466268F2408009E24AB
:100910002030B70000303B24B70B8A2C0800851527
:100920002030B6008724B60B922C08000B30B6009E
:100930004F08B7005008B80070240800051E9E2C10
:1009400008009E24851553303B24EF303B246E3045
:100950003B243E303B2400303B2400303B2400301D
:100960003B2400303B246F269E2445303B247830C6
:100970003B2469303B2474303B2400303B2400305E
:100980003B2400303B2400303B247B240800CD0175
:10099000CE01CF01D0017B249624A1246F26A1246F
:1009A000080003138316AC0120082407A8000318CD
:1009B000AC1421082507A90003182C14AC18A90AA7
:1009C00003182C14AC1022082607AA000318AC1434
:1009D0002C18AA0A0318AC142C1023082707AB0004
:1009E00003182C14AC18AB0A03182C14AC10031306
:1009F0008312080003138316AC0124082002A80008
:100A0000031CAC1425082102A900031C2C14AC18EB
:100A1000A903031C2C14AC1026082202AA00031CF4
:100A2000AC142C18AA03031CAC142C1027082302A6
:100A3000AB00031C2C14AC18AB03031C2C14AC101F
:100A4000031383120800A00DA10DA20DA30DAC0D80
:100A5000080003138316AC0103102325031383122C
:100A6000080003138316AC01031023252325031369
:100A70008312080003138316AC01031023252325DA
:100A8000232503138312080003138316AC010310FC
:100A9000232523252325232503138312080003136D
:100AA0008316AC0103102325232523252325232585
:100AB0000313831208000310A30CA20CA10CA00CBA
:100AC00008000313831620080139AC005B250313CB
:100AD000831208000313831620080339AC005B253A
:100AE0005B250313831208000313831620080739BC
:100AF000AC005B255B255B25031383120800031301
:100B0000831620080F39AC005B255B255B255B2530
:100B10000313831208000313831620081F39AC0047
:100B20005B255B255B255B255B2503138312080092
:100B30000313831620087F39AC005B255B255B25FA
:100B40005B255B255B255B250313831208000313DC
:100B50008316AC01FF30A005031D2C14A105031D55
:100B60002C14A205031D2C14A305031D2C14031320
:100B700083120800F925E6254821482148211C2632
:100B8000C724AE202E1CC12D0000F5208526780834
:100B9000F301013C031DC62D2E0814262F266021CB
:100BA0008526F5018A26A726751CF3012E1ED02D59
:100BB000EB017308FF390319E52DBD26C626FA2679
:100BC000182737276C27751CF301D92D03138316BB
:100BD000113085008030870000308900FF308600AA
:100BE000880003138312073089003730870085019E
:100BF000080003138316C730810020308C000030BA
:100C00008D00C0308B002630980003138312903083
:100C10009800031383166730990007309F00031371
:100C200083129F01F301080003138316981C142EEE
:100C300003138312990008004130142668301426EB
:100C40006F3014266A3014262130142608007920CB
:100C50002008142621081426B60B272E0800831717
:100C6000903084001430B6000008B700840A0008F1
:100C7000840A142637081426B60B342E8313080072
:100C800083171030840000081426840AB60B432E04
:100C900083130800F0000308F1000408F2000313B6
:100CA000831283138C1E602E1A08F4007308073C0D
:100CB000031C602E7308783E840074088000F30AD9
:100CC0007208840071088300700809001330B600B0
:100CD0008B30B800B80B6A2EB60B682E08000030B7
:100CE000B6000030B800B80B732EB60B732E080098
:100CF0004730B7002B30B600D930B800B80B7E2E85
:100D0000B60B7C2EB70B7A2E08007308FF39031937
:100D1000852E08007808023C031D0800751473082E
:100D2000013C0318080079080339B6000310B60D1A
:100D3000B60DB60D360D103E840083171030B60088
:100D400000081426840AB60BA02EF30108007808C8
:100D5000033C031D080075147308043C03180800C5
:100D60007908A7007A08A8007B08A9007C08AA00D7
:100D700023222E081426F30108007808043C031DE2
:100D8000080075144C081426F30108007808053C87
:100D9000031D080075147308063C031808007D083D
:100DA000BB004C020319DC2E0318DC2E8317103015
:100DB000840080308000F52E7E08F039031DD62E89
:100DC0007908BC007A08BD007B08BE007C08BF0023
:100DD000E7220130A600C9207E080F39B600FF398E
:100DE0000319F42EB60E8C20CE231030B600402608
:100DF000F30108007808063C031D08007514730809
:100E0000043C031808007908BC007A08BD007B0880
:100E1000BE007C08BF0046233B0814263C0814266D
:100E20003D0814263E0814263F081426F301080046
:100E30007808073C031D080075147308043C031868
:100E400008007908BC007A08BD007B08BE007C0859
:100E5000BF00BB01E7224C08A600C9204C08B70020
:100E60000030B6002726B70B302FF30108007808B2
:100E7000083C031D080075147308063C031808009D
:100E80007D08BB004C0203194A2F03184A2F8030FB
:100E9000B700652F7E08F039031D472F7908BC0085
:100EA0007A08BD007B08BE007C08BF00E722013045
:100EB000A600C9207E080F39B600FF390319622F3A
:100EC000B60E8C200030B7002624370814260430D4
:100ED000B6004026F30108007808803C031D080096
:100EE00075147308063C031808007D08BB004C020B
:100EF0000319822F0318822F83171030840080304B
:100F00008000B22F7E08F039031D7C2F7908BC00C9
:100F10007A08BD007B08BE007C08BF00E7220130D4
:100F2000A600C9207E080F39B600FF3903199A2F91
:100F3000B60E8C20CE238317103084000008063CA8
:100F4000031DB22F123084000008E600840A000856
:100F5000E700840A0008E800840A0008E900EA01C2
:100F60000330EB0083171030840000081426F301CF
:020F7000080077
:02400E003A3F37
:00000001FF
