:020000040000FA
:02000000D72CFB
:08000800652D27305620AC00E5
:10001000080021305620A500080016305620A20006
:10002000080022305620A600080023305620A700E2
:10003000080024305620A800080025305620A900CA
:10004000080026305620AB0008002308B500163003
:10005000632008002D08B50027306320080026081B
:10006000B5002230632008002708B5002330632044
:1000700008002808B5002430632008002908B500CE
:100080002530632008002B08B500263063200800C7
:100090002408B5002130632008005C2148202F206F
:1000A000342039203E2043202A20080087000313F3
:1000B0008316FF30860088000313831209110000A5
:1000C0000608091508008700031383160030860010
:1000D0008800031383123508860088018910000008
:1000E000891403138316FF308600880003138312DC
:1000F00008004D212030870003138316FF3086004F
:100100008800031383120911000000000608A000F4
:100110000808A100091508007920B60B8C280800F2
:10012000E030AB0043200800831790308400792032
:1001300020088000840A21088000840AB60B9728D2
:10014000831308004030B60083171030840000305D
:100150008000840AB60BA82883130800AE0109109A
:10016000482109145621902056210230A300252051
:10017000E030AB00A601A701A801A901A40100304D
:10018000AD004D20562121202B08E03C03192E14F0
:100190000800562190205C212E19DD28A40148205A
:1001A0002F20342039203E202A080F39E038AB00B8
:1001B00043202030AD002A2008000030B500223056
:1001C00063202F200030B500253063200030B500BB
:1001D000243063202A08B500233063203E203920D4
:1001E00034202430AD002A200800562190205621CA
:1001F000E030AB00A601A701A801A901A401EC30E1
:10020000AD004D201B30B6008C201430B600942079
:100210000230B6008C207920A118AE140A30B60046
:100220008C2079202008AF002108B0007920200818
:10023000B1002108B2001530B6008C2079202119B8
:100240002E151030B6008C202E1D31297920200863
:10025000AF002108B00079202008B1002108B200C9
:1002600034290230B6008C200430B6008C2079206E
:10027000A11B3E29211F3E29211AAE159530B6003B
:100280008C20AE13AE1C0800AE190800AE17080093
:100290002130B600B60B4A29080056212C088839AF
:1002A000083C031908002C1C4D29080005202C08C7
:1002B000803903190800562956212C1F5C29080093
:1002C000A220A701A801A901AA01BB010130A60033
:1002D000C920DF30B6008C202030B60094200130D9
:1002E000B6008C208313A430840027088000840A81
:1002F00028088000840A29088000840A2A088000CF
:10030000840A83179430840000080B3C031D013CD1
:10031000031DAF2903138316983084000008A00042
:10032000840A0008A100840A0008A200840A0008C8
:10033000A30003138312EE238313A8308400000864
:10034000A700840A0008A800840A0008A900840AFB
:100350000008AA00840ADA218317A4308400000868
:10036000053C031D0A3C031DD9290408043E8400F2
:100370000313831683170008A000840A0008A10055
:10038000840A0008A200840A0008A3000313831251
:10039000EE238313A83084000008A700840A000815
:1003A000A800840A0008A900840A0008AA00840A98
:1003B0006629080083173B08B6000310B60DB60D7A
:1003C000B60DB60D3608113E840027088000840A59
:1003D00028088000840A29088000840A2A088000EE
:1003E000840A0130A600C9202330B6008C20792071
:1003F00021088000840A0530B6007920200880009A
:10040000840A21088000840AB60BFD29103084027A
:1004100079202008463C031D222A2108413C031D67
:10042000222A79202008543C031D222A2108333C2B
:10043000031D222A79202008323C031D222AFF3086
:100440008000BB0A08002E12C001C101C201C30115
:10045000C401C501C601C701C801C901CA01CB0158
:10046000A4010130A600C9200530B6008C207920F7
:100470002108FF39031DE62A79202008023C031DCC
:10048000E62A2108CC00203C031CE62A792020081B
:10049000C4002108C50079202008023C031DE62A7B
:1004A0000930B6008C2079202008C0002108C10046
:1004B00079202008C2002108C30079207920792002
:1004C0002008C8002108C90079202008CA00210896
:1004D000CB001130B6008C2079202008463C031D4B
:1004E000E62A2108413C031DE62A79202008543CD5
:1004F000031DE62A2108333C031DE62A7920200843
:10050000323C031DE62A8313A03084004408800097
:10051000840A45088000840A46088000840A470847
:100520008000840A27088000840A28088000840A42
:1005300029088000840A2A088000840AEE23000823
:10054000C400840A0008C500840A0008C600840AA2
:100550000008C700840AA030840040088000840A94
:1005600041088000840A42088000840A4308800011
:10057000840A462444088000840A45088000840ACE
:1005800046088000840A47088000840AEE234C0D48
:1005900003138316A400A501A601A7012808A00043
:1005A0002908A1002A08A2002B08A3000313831224
:1005B00017240008C000840A0008C100840A00084B
:1005C000C200840A0008C300840A2E1608008313A0
:1005D000A03084003C088000840A3D088000840A22
:1005E0003E088000840A3F088000840AC424031364
:1005F00083162C180B2B03138312A0308400480899
:100600008000840A49088000840A4A088000840A1D
:100610004B088000840A03138312CC1846244C191B
:100620004E24CC1957244C1A6124CC1A6C2440084F
:100630008000840A41088000840A42088000840AFD
:1006400043088000840AEE233B0803138316A400AA
:10065000A501A601A7012808A0002908A1002A08D1
:10066000A2002B08A30003138312EE238313A830E8
:1006700084000008A700840A0008A800840A000873
:10068000A900840A0008AA00840A0800BB01831399
:10069000A03084003C088000840A3D088000840A61
:1006A0003E088000840A3F088000C4240313831698
:1006B0002C186A2B03138312A03084004808800092
:1006C000840A49088000840A4A088000840A4B088A
:1006D0008000840A03138312B524AC308400000820
:1006E000B600A430840044088000840A45088000D5
:1006F000840A46088000840A47088000840AEE23A2
:100700000008A700840A0008A800840A0008A900BD
:10071000840A0008AA00840AA4010130A600C920A6
:100720000310360DB600FF39031D8C20A030840065
:10073000792020088000BC00840A21088000BD00C8
:10074000840A792020088000BE00840A21088000E5
:10075000BF00840AC424031383162C18B42B03137C
:100760008312FF30BB00CB2B03138312F7308000C2
:10077000840AFF308000840AFF308000840A0F3032
:100780008000840A1724031383162C18CB2B031321
:100790008312FF30BB000313831208000030B8003F
:1007A0000430B9000030BA00D623080085110230A9
:1007B000E0233808E0233A08E0233908E023080062
:1007C0008516B500083005118510B50D0318851480
:1007D00005158512000BE32B051108000313831682
:1007E000AC0120082407A8000318AC142108250731
:1007F000A90003182C14AC18A90A03182C14AC1067
:1008000022082607AA000318AC142C18AA0A0318F9
:10081000AC142C1023082707AB0003182C14AC18B9
:10082000AB0A03182C14AC10031383120800031333
:100830008316AC0124082002A800031CAC14250870
:100840002102A900031C2C14AC18A903031C2C14AE
:10085000AC1026082202AA00031CAC142C18AA0310
:10086000031CAC142C1027082302AB00031C2C140F
:10087000AC18AB03031C2C14AC1003138312080038
:10088000A00DA10DA20DA30DAC0D0800031383163E
:10089000AC010310402403138312080003138316D2
:1008A000AC010310402440240313831208000313F7
:1008B0008316AC0103104024402440240313831208
:1008C000080003138316AC01031040244024402485
:1008D000402403138312080003138316AC01031092
:1008E0004024402440244024402403138312080061
:1008F0000310A30CA20CA10CA00C08000313831678
:1009000020080139AC007824031383120800031374
:10091000831620080339AC0078247824031383124B
:1009200008000313831620080739AC0078247824C4
:1009300078240313831208000313831620080F3949
:10094000AC007824782478247824031383120800D8
:100950000313831620081F39AC00782478247824E8
:1009600078247824031383120800031383162008C5
:100970007F39AC007824782478247824782478246B
:10098000782403138312080003138316AC01FF308D
:10099000A005031D2C14A105031D2C14A205031D85
:1009A0002C14A305031D2C14031383120800132514
:1009B00000254821482148213525AE202E1CDD2C5C
:1009C0000000F52048257525602159257525AA01C7
:1009D000A901A8013F30A7002322BF01BE01BD012C
:1009E000BC01BB01E7220130A600C9200030B600DF
:1009F000402587157525871175254F304B30F92C0B
:100A000003138316FF308500003087000030890013
:100A1000FF308600880003138312073089003730C7
:100A200087008501080003138316C730810020303A
:100A30008C0000308D00C0308B00263098000313EE
:100A400083129030980003138316673099000730A3
:100A50009F00031383129F01080003138316981C41
:100A60002D2D031383129900080041302D25683085
:100A70002D256F302D256A302D2521302D2508009C
:100A8000792020082D2521082D25B60B402D0800A2
:100A90008317903084001430B6000008B700840A31
:100AA0000008840A2D2537082D25B60B4D2D8313FC
:100AB00008008317103084004030B60000082D2550
:100AC000840AB60B5E2D83130800F0000308F100C2
:100AD000031383128C1E712D1A089818712D181982
:100AE000712D71088300700809004730B7002B3062
:100AF000B600D930B800B80B7B2DB60B792DB70BEB
:040B0000772D080045
:02400E003A3F37
:00000001FF
