:020000040000FA
:02000000892A4B
:08000800F42A27305620AC0059
:10001000080021305620A500080016305620A20006
:10002000080022305620A600080023305620A700E2
:10003000080024305620A800080025305620A900CA
:10004000080026305620AB0008002308B500163003
:10005000632008002D08B50027306320080026081B
:10006000B5002230632008002708B5002330632044
:1000700008002808B5002430632008002908B500CE
:100080002530632008002B08B500263063200800C7
:100090002408B500213063200800582148202F2073
:1000A000342039203E2043202A20080087000313F3
:1000B0008316FF30860088000313831209110000A5
:1000C0000608091508008700031383160030860010
:1000D0008800031383123508860088018910000008
:1000E000891403138316FF308600880003138312DC
:1000F00008002030870003138316FF308600880035
:10010000031383120911000000000608A00008086C
:10011000A1000915080049217920B60B8B28080099
:10012000E030AB0043200800831790308400492161
:10013000792020088000840A21088000840AB60BF8
:10014000972883130800AE01091044210914522195
:10015000902052210230A3002520E030AB00A60100
:10016000A701A801A901A4010030AD004D20522132
:1001700021202B08E03C03192E1408005221902066
:1001800058212E19D228A40148202F2034203920AC
:100190003E202A080F39E038AB0043202030AD0064
:1001A0002A2008000030B500223063202F200030C4
:1001B000B500253063200030B500243063202A08C4
:1001C000B500233063203E20392034202430AD0098
:1001D0002A200800522190205221E030AB00A601D5
:1001E000A701A801A901A401EC30AD004D201B30EE
:1001F000B6008B201430B60094200230B6008B205D
:1002000049217920A118AE140A30B6008B2049216B
:1002100079202008AF002108B0004921792020086A
:10022000B1002108B2001530B6008B204921792099
:1002300021192E151030B6008B202E1D2C29492196
:1002400079202008AF002108B0004921792020083A
:10025000B1002108B2002F290230B6008B200430F3
:10026000B6008B2049217920A11B3A29211F3A2968
:10027000211AAE159530B6008B20AE13AE1C0800C7
:10028000AE190800AE1708002130B600B60B46299B
:10029000080052212C088839083C031908002C1C3E
:1002A0004929080005202C08803903190800522923
:1002B00052212C1F582908000030B8000430B90022
:1002C0000030BA0064210800851102306E21380820
:1002D0006E213A086E2139086E2108008516B50096
:1002E000083005118510B50D031885140515851204
:1002F000000B71290511080003138316AC012008B7
:100300002407A8000318AC1421082507A900031826
:100310002C14AC18A90A03182C14AC1022082607B8
:10032000AA000318AC142C18AA0A0318AC142C1039
:1003300023082707AB0003182C14AC18AB0A0318CA
:100340002C14AC1003138312080003138316AC01A2
:1003500024082002A800031CAC1425082102A900CF
:10036000031C2C14AC18A903031C2C14AC10260875
:100370002202AA00031CAC142C18AA03031CAC1400
:100380002C1027082302AB00031C2C14AC18AB0361
:10039000031C2C14AC10031383120800A00DA10D34
:1003A000A20DA30DAC0D080003138316AC010310BE
:1003B000CE2103138312080003138316AC0103102C
:1003C000CE21CE2103138312080003138316AC0140
:1003D0000310CE21CE21CE21031383120800031374
:1003E0008316AC010310CE21CE21CE21CE210313E2
:1003F00083120800A30CA20CA10CA00CAC0C0800EA
:1004000003138316AC010310CE21031383120800DB
:1004100003138316AC010310CE21CE2103138312E4
:10042000080003138316AC010310CE21CE21CE2188
:1004300003138312080003138316AC010310CE21AB
:10044000CE21CE21CE21031383120800031383167D
:10045000AC01FF30A005031D2C14A105031D2C14B5
:10046000A205031D2C14A305031D2C1403138312D2
:1004700008004130DB226830DB226F30DB226A303B
:10048000DB222130DB22080052219020E030AB003B
:100490000130A6003F30A700A801A901A401213026
:1004A000AD004D205221FF30DB2263228830DB2259
:1004B000FF30BA00492179202008DB222108DB2205
:1004C000BA0B5A2A08000D202208DB220920250831
:1004D000DB2211202608DB2215202708DB22192029
:1004E0002808DB221D202908DB2221202B08DB2203
:1004F00005202C08DB2208008030980090309800FE
:100500008C1E7C2A8C1280309800903098008715C1
:100510000800C122AE224421442144213922A320D3
:100520002E1C0000EA20A701A801A901AA01F522BA
:10053000E3228715F5228711F5224F30DB224B305D
:10054000DB22BE20A70AFF30BA004921792020080B
:10055000DB222108DB22BA0BA52A992A0313831672
:10056000FF3085000030870000308900FF308600B2
:10057000880003138312073089003F30870085010C
:10058000080003138316C730810020308C00003030
:100590008D00C0308B00263098000313831280300A
:1005A0009800031383166730990007309F000313E8
:1005B00083129F01080003138316981CDB2A031380
:1005C0008312990008008317903084001430B6001D
:1005D0000008B700840A0008840ADB223708DB22FF
:1005E000B60BE82A8313080009004730B7002B3008
:1005F000B600D930B800B80BFB2AB60BF92AB70BF6
:04060000F72A0800CD
:02400E003A3F37
:00000001FF
