:020000040000FA
:020000001028C6
:08000800F0000308F1000408F8
:10001000F2000A08F6008A01031383128313CF2A21
:10002000C221AF217D247D247D248A150A12BE20A1
:100030008A150A16F0258A110A12C6232E1C1D28BD
:10004000000032248A150A12DD208A110A1278086B
:10005000F301013C031D22282E089A22AA228A11AC
:100060000A1600208A110A128A150A12DD20F501EB
:10007000E2208A110A16D3218A110A12751CF30193
:100080002E1E34287308FF3903196B28F5018A15D1
:100090000A12E2208A110A16D3218A150A120821AF
:1000A0001521462168218F21BD21F0218A110A16D0
:1000B0001223342378238A150A121E228A22A922A7
:1000C000BF22F3228A110A169623F32302248A11EF
:1000D0000A12751CF30157085805FF3C03197428D0
:1000E00055085604031919246E1C0729EE1C07290C
:1000F0006D084C02031DCA2853085404031DA02890
:100100006908BC006A08BD006B08BE006C08BF002F
:10011000ED01EB243B1C922817216E1C0729EE1CD5
:100120000729CA283C08E9003D08EA003E08EB0020
:100130003F08EC0073255108D3005208D400CA28A8
:100140002F08FF390319BA280A30B6000030B7006B
:100150004230B8008A150A121C208A110A120D308A
:10016000B6002F08B7000030B8008A150A121C200C
:100170008A110A120130D3020318BF28D402E90AF7
:10018000031DC928EA0A031DC928EB0A031DC92853
:10019000EC0AED016F1CE528CD146F1DD928680805
:1001A000143C0318D928CD106808193C031DD92820
:1001B000E8010030B6004D08B700B8018A150A12F0
:1001C0001C208A110A126F19E80A6908BC006A0823
:1001D000BD006B08BE006C08BF006D08BB00882422
:1001E0000130A600E12387140030B6008A150A12F8
:1001F00097208A110A12822320088A150A120020E9
:10020000210800208A110A12B60BF628ED0A6E1C8E
:100210004228EE184228EE1942286E1A42286E1F14
:1002200042288A110A16102C8A110A1242284C22DE
:10023000EE106E116F10EE1908006E1E5129EE1EA1
:1002400051296208BC006308BD006408BE0065084F
:10025000BF006608E0006708E1008A150A12612302
:100260008A110A123B1808008A150A12E1238A1122
:100270000A1283171C3084000008E900BC00840ABD
:100280000008EA00BD00840A0008EB00BE00840AF2
:100290000008EC00BF0073255108D3005208D400B9
:1002A0009D290630D9006208DA006308DB00640883
:1002B000DC006508DD006608E0006708E1008A15DB
:1002C0000A1279248A110A12831730308400000838
:1002D000063C031980296E1E08000630D91F0E3017
:1002E000D9000130E000E1018A150A1279248A114F
:1002F0000A128317303084000008063C031D0800F2
:1003000083173C3084000008E900BC00840A000820
:10031000EA00BD00840A0008EB00BE00840A000861
:10032000EC00BF00840A0008E600840A0008E70029
:1003300073255108D3005208D400ED016E14EE1459
:100340006E158A150A124D20CD106F100030B600C0
:100350004D08B700B8011C208A110A1208000313C7
:100360008316913087000030850000308900FF300F
:100370008600880003138312073089003730850018
:100380008701080003138312313090008F018E0122
:1003900003138316C730810020308C0000308D009D
:1003A0000C14C0308B002630980003138312903059
:1003B0009800031383164030990007309F00031301
:1003C00083129F01031383169401141703138312DE
:1003D00094019416F3017030D7001730D800E20171
:1003E000E301E401E501E601E701EE01EF01031796
:1003F00083128D01031783160C14031783120C0844
:1004000003138312CF00031783128D0A0317831679
:100410000C14031783120C0803138312D000031764
:1004200083128D0A031783160C14031783120C080A
:1004300003138312EE00031783128D0A031783162A
:100440000C14031783120C0803138312EF00080027
:10045000031783120C0803138312B60003178316C5
:100460000C14031783120C020313831203190800E0
:100470003608031783128C00031783168B130C1591
:1004800055308D00AA308D008C148B178C18462A9D
:100490000C120313831208000317831200308D001F
:1004A000031383124F08031783128C0028220317AB
:1004B000831201308D000313831250080317831237
:1004C0008C0028220317831202308D00031383123D
:1004D0006E08031783128C0028220317831203303F
:1004E0008D00031383126F08031783128C002822D8
:1004F00083130430B7004030840037080317831299
:100500008D0000088C00840A2822B70A3708083CAE
:10051000031D7D2A623084003708031783128D0083
:1005200000088C00840A2822B70A3708133C031DF0
:100530008C2A080003138316981C9A2A031383122B
:1005400099000800822320089A2221089A22B60BDB
:10055000A22A08008317903084001430B6000008E7
:10056000B700840A0008840A9A2237089A22B60B38
:10057000AF2A8313080083173030840000089A22C2
:10058000840AB60BBE2A8313080083171030840038
:1005900000089A22840AB60BC82A831308008C1A12
:1005A000E22A0C18D42AEE2A0C10DF308E000B3011
:1005B0008F00550856040319EE2A0130D502031C9A
:1005C000D602EE2A1A08F4007308073C031CEE2A30
:1005D0007308783E840074088000F30A76088A0065
:1005E0007208840071088300700809001030B6009A
:1005F000CF30B800B80BFA2AB60BF82A080015302D
:10060000B7005930B600B130B800B80B052BB60BA7
:10061000032BB70B012B080027308B135F238B179D
:10062000AC00080026308B135F238B17AB0008004B
:100630002308B5001E308B136C238B1708002D0880
:10064000B50027308B136C238B1708002608B500E4
:1006500022308B136C238B1708002708B50023303A
:100660008B136C238B1708002808B50024308B13DC
:100670006C238B1708002908B50025308B136C23D9
:100680008B1708002B08B50026308B136C238B17B3
:1006900008002408B50021308B136C238B17080049
:1006A0000C232C18572BAC1B502B2C1F502B4923E1
:1006B00026232D2334233B2342231F2308008500B8
:1006C00003138316FF308600880003138312091179
:1006D0000000060809150800850003138316003082
:1006E000860088000313831235088600880189106C
:1006F0000000891403138316FF308600880003135B
:100700008312080027308B135F238B17AC002C1843
:100710008D2BAC1B822BAC1D822B5708D5005808A3
:10072000D600AE122030850003138316FF308600FA
:100730008800031383120911000000000608A000BE
:100740000808A100091508008223B60BA42B080095
:10075000E030AB00422308008317903084008223EE
:1007600020088000840A21088000840AB60BAF2B81
:10077000831308004030B600831710308400003027
:100780008000840AB60BC02B83130800AE01091049
:100790007D2409148224A82382240230A300182374
:1007A000E030AB00A601A701A801A901A401003017
:1007B000AD005023822412232B08E03C03192E1491
:1007C00008000C232C18E62BAC1BE12BE030AB000F
:1007D00042230C232C18F02BAC1BE92B2C1FE92BEC
:1007E0002E19012CA401492326232D2334233B2336
:1007F0002A080F39E038AB0042232030AD001F2318
:1008000008000030B50022306C2326230030B500EC
:1008100025306C230030B50024306C232A08B50045
:1008200023306C233B2334232D232430AD001F239E
:100830000800AE1A0800A401A601A701A801A90199
:100840009630AD000C232C18292CAC1B222C2C1F0D
:10085000222C492326232D2334233B2342231F23E9
:10086000AE1608008224A8238224E030AB00A60143
:10087000A701A801A901A401EC30AD0050231B3051
:10088000B600A4231430B600AC230230B600A42373
:100890008223A118AE140A30B600A42382232008B4
:1008A00021088223200821081530B600A4238223C2
:1008B00021192E151030B600A4232E1D662C82237C
:1008C00020082108822320082108692C0230B60064
:1008D000A4230430B600A4238223A11B732C211F60
:1008E000732C211AAE159530B600A423AE13AE1C9E
:1008F0000800AE190800AE1708002A30B600B60B83
:100900007F2C08000C232C08803903190800822C46
:100910008313A03084003C088000840A3D088000D6
:10092000840A3E088000840A3F088000840A3E272B
:10093000031383162C18AC2C03138312A0308400ED
:1009400048088000840A49088000840A4A08800018
:10095000840A4B088000840A03138312CC1897265C
:100960004C199F26CC19A8264C1AB226CC1ABD26A3
:100970004C1BC926CC1BD62640088000840A41089F
:100980008000840A42088000840A43088000840AA8
:1009900029263B0803138316A400A501A601A7017D
:1009A0002808A0002908A1002A08A2002B08A300FB
:1009B0000313831229268313A83084000008A7009C
:1009C000840A0008A800840A0008A900840A000814
:1009D000AA00840A0800BB018313A03084003C08ED
:1009E0008000840A3D088000840A3E088000840A52
:1009F0003F0880003E27031383162C180F2D031386
:100A00008312A030840048088000840A49088000CE
:100A1000840A4A088000840A4B088000840A031371
:100A200083122F27AC3084000008B600A430840065
:100A300044088000840A45088000840A4608800033
:100A4000840A47088000840A29260008A700840A2F
:100A50000008A800840A0008A900840A0008AA0067
:100A6000840AA4010130A600E1230310360DB6006C
:100A7000FF39031DA423A0308400822320088000B6
:100A8000BC00840A21088000BD00840A822320085B
:100A90008000BE00840A21088000BF00840A3E272F
:100AA000031383162C18592D03138312FF30BB0038
:100AB000702D03138312F7308000840AFF3080000A
:100AC000840AFF308000840A0F308000840A552693
:100AD000031383162C18702D03138312FF30BB00F1
:100AE000031383120800BB01D201D1018313A0308C
:100AF00084003C08DA008000840A3D08DB008000A6
:100B0000840A3E08DC008000840A3F08DD00800083
:100B10002F27AC3084000008BA00A43084004408B9
:100B20008000840A45088000840A46088000840A00
:100B300047088000840A29260008A700840A0008C4
:100B4000A800840A0008A900840A0008AA00840AF0
:100B5000A4010130A600E12303103A0DB6003A08C3
:100B6000FF39031DA423B82DA4010130A600E12301
:100B7000A0308400822320088000840A210880009D
:100B8000840A822320088000840A21088000840AC5
:100B90003E27031383162C18D02D03138312262E01
:100BA00003138312F7308000840AFF308000840A28
:100BB000FF308000840A0F308000840A552603131A
:100BC00083162C1C262E03138312A43084005A088B
:100BD0008000840A5B088000840A5C088000840A24
:100BE0005D0880005526031383162B082A04290468
:100BF000031D262E2808013C031D262E03138312F5
:100C0000D21B262ED10A0319D20AA0308400000874
:100C1000DA00840A0008DB00840A0008DC00840A89
:100C20000008DD00BA0A3A08803C031DB82DBA015D
:100C30000130A707031C232EA807031C232EA90796
:100C4000031C232EAA0703138312B42D031383124C
:100C5000080003138316AC0120082407A80003181A
:100C6000AC1421082507A900013003182C14AC1876
:100C7000A90703182C14AC1022082607AA0001307B
:100C80000318AC142C18AA070318AC142C10230852
:100C90002707AB00013003182C14AC18AB0703185E
:100CA0002C14AC1003138312080003138316AC0139
:100CB00024082002A800031CAC1425082102A90066
:100CC0000130031C2C14AC18A902031C2C14AC100A
:100CD00026082202AA000130031CAC142C18AA0218
:100CE000031CAC142C1027082302AB000130031C9A
:100CF0002C14AC18AB02031C2C14AC10031383127D
:100D00000800031383160130A00203188E2EA102DF
:100D100003188E2EA20203188E2EA3020313831231
:100D20000800A00DA10DA20DA30DAC0D080003132A
:100D30008316AC01031091260313831208000313DA
:100D40008316AC0103109126912603138312080029
:100D500003138316AC0103109126912691260313E9
:100D60008312080003138316AC0103109126912609
:100D70009126912603138312080003138316AC01F6
:100D80000310912691269126912691260313831212
:100D9000080003138316AC010310912691269126B7
:100DA00091269126912603138312080003138316BC
:100DB000AC01031091269126912691269126912629
:100DC00091260313831208000310A30CA20CA10C9C
:100DD000A00C08000313831620080139AC00E42698
:100DE0000313831208000313831620080339AC0091
:100DF000E426E42603138312080003138316200855
:100E00000739AC00E426E426E42603138312080025
:100E10000313831620080F39AC00E426E426E426E9
:100E2000E4260313831208000313831620081F39D6
:100E3000AC00E426E426E426E426E4260313831229
:100E400008000313831620083F39AC00E426E4268B
:100E5000E426E426E426E4260313831208000313A1
:100E6000831620087F39AC00E426E426E426E42635
:100E7000E426E426E42603138312080003138316F2
:100E8000AC01FF30A005031D2C14A105031D2C147B
:100E9000A205031D2C14A305031D2C140313831298
:020EA000080048
:101000000715930000000000000000000000000031
:1010100007118C1D09288C1108000715003093005A
:1010200000000000000000000000000007118C1DFF
:1010300017288C1113080800071C1C288710023081
:101040000020360800203808002037080020D8206B
:1010500087140800071C2A28871003300020360850
:1010600000200D20B8000D20B700D82087140800FC
:101070008A110A12FF228A150A120030B6004D1595
:101080004D08B7000030B8001C208A110A12F62261
:101090008A150A1288204D1108008A110A12FF22AF
:1010A0008A150A120030B6004D154D08B700003001
:1010B000B8001C208A110A12F6228A150A1288200A
:1010C0004D110A30B6000030B7004230B8001C2085
:1010D0000D30B6000030B7000030B8001C200D30D5
:1010E000B6002F30B7000030B8001C202F08FF39A1
:1010F000031D08000A30B600B701B8011C20080023
:1011000097202030B70000300020B70B832808005C
:1011100087142030B6008020B60B8B2808000B30D7
:10112000B6004F08B7005008B8001C200800071C84
:10113000972808009720453000207830002069303B
:1011400000207430002000300020003000200030EB
:101150000020003000200800871453300020EF30BA
:1011600000206E3000203E30002000300020003093
:10117000002000300020003000200800CD01CE010A
:101180000330BA0038208F20BA0BC2280330BA00CF
:10119000AC208A110A12FF228A150A129A208A119B
:1011A0000A12FF228A150A12BA0BC8283820080032
:1011B0000830B600B60BDA2808007308FF390319A7
:1011C000DD2808007808023C031D08007514730828
:1011D000013C031808008A110A1600208A150A1219
:1011E00079080339B6000310B60DB60DB60D360DED
:1011F000103E840083171030B60000088A110A12CE
:101200009A228A150A12840AB60BFD28F3010800F7
:101210007808043C031D080075144C088A110A1252
:101220009A228A150A12F30108007808053C031D6A
:10123000080075147308063C031808007908BC0000
:101240007A08BD007B08BE007C08BF0027233B1C3A
:101250002F29831710308400813080003D297D08BC
:10126000E0007E08E10061233B1C3C29831710301D
:101270008400803080003D29E1231030B6008A11BF
:101280000A12C5228A150A12F30108007808063CE2
:10129000031D080075147308043C0318080079083E
:1012A000BC007A08BD007B08BE007C08BF008A1124
:1012B0000A12EB243B089A223C089A223D089A2203
:1012C0003E089A223F089A228A150A12F301080062
:1012D0007808073C031D080075147308043C0318C4
:1012E00008007908BC007A08BD007B08BE007C08B5
:1012F000BF00BB018A110A1288244C08A600E12312
:101300008A150A124C08B7000030B6008A110A127A
:10131000A2228A150A12B70B8429F3010800780863
:10132000083C031D080075147308063C03180800E8
:101330007908BC007A08BD007B08BE007C08BF00AD
:1013400027233B1CA6298130B600B2297D08E00086
:101350007E08E10061233B1CB0298030B600B22931
:101360005C24B60136088A110A129A220430B600AB
:10137000C5228A150A12F30108007808093C031DEA
:10138000080075147308073C031808007908BC00AE
:101390007A08BD007B08BE007C08BF0027233B18ED
:1013A000E1297908DA007A08DB007B08DC007C0898
:1013B000DD007D08E0007E08E1007F08D900792487
:1013C000E729031783128130B00003138312123010
:1013D000B6008A110A12BB228A150A12F30108000C
:1013E00078080A3C031D080075147308063C0318AE
:1013F00008007908DA00BC007A08DB00BD007B0831
:10140000DC00BE007C08DD00BF0027233B1C0E2A49
:101410008317103084008130BB00132A7D08E00060
:101420007E08E10059268A110A123B089A224130AF
:10143000B600C5228A150A12F30108007808803C1C
:10144000031D080075147308063C0318080079088A
:10145000BC007A08BD007B08BE007C08BF002723C3
:101460003B1C382A831710308400813080007F2A8B
:101470007D08E0007E08E10061233B1C452A8317BC
:1014800010308400803080007F2AE12383171030E1
:1014900084000008063C031D7F2A1C3084000008DD
:1014A000E900BC00840A0008EA00BD00840A0008C4
:1014B000EB00BE00840A0008EC00BF008A110A128B
:1014C00073258A150A125108D3005208D4007D08EA
:1014D000E6007E08E7007908E2007A08E3007B086E
:1014E000E4007C08E500ED016E14EE14CD106F10E1
:1014F0004D200030B6004D08B700B8011C208317FE
:101500001030840000088A110A129A228A150A12E1
:10151000F30108007808813C031D080075146E086B
:101520008A110A129A228A150A126F088A110A125F
:101530009A228A150A126E110430B6002A20370842
:101540008A110A129A2238089A228A150A12F3017D
:1015500008007808823C031D080075147308023CDB
:10156000031808007908D0007A08CF008F20FF30D8
:101570008A110A129A228A150A12F30108007808C1
:10158000833C031D080075140530B6002A20370877
:101590008A110A129A2238089A228A150A120830E9
:1015A000B6002A2037088A110A129A2238089A228D
:1015B0008A150A120930B6002A2037088A110A1241
:1015C0009A2238089A2262089A2263089A226408AA
:1015D0009A2265089A2266089A2267089A228A1532
:1015E0000A12F30108007808843C031D08007514F2
:1015F0007308023C031808006E080639EE007908EB
:10160000F9396E04EE007A08EF00CD10CD13EF1912
:10161000CD170030B6004D08B700B8011C200130CE
:101620002A203708CE004E116F1A4E150130B60031
:101630004E08B700B8011C206F1E8F208A110A12B5
:10164000FF309A228A150A12E801F3010800BB0153
:101650003C083D043E043F04031908008A110A12A5
:1016600088240130A600E1238A150A12FF30BB004E
:101670008A110A1282238A150A1220082E3C031DA1
:10168000602B2108203C031D602B0430B6008A111A
:101690000A1282238A150A122008203C031D602B9F
:1016A0002108203C031D602BB60B472B8A110A1220
:1016B00082238A150A122008203C031D602BBB01DF
:1016C0000800600803138316A00003138312610847
:1016D00003138316A100A201A301031383128A112D
:1016E0000A120827031383162C0803138312BA0067
:1016F00003138316AC0103138312CC18EA264C198A
:10170000F326CC19FD264C1A0827CC1A14274C1B9B
:101710002127CC1B2F27031383162C0803138312B6
:10172000B9008A110A123E278A150A12031383167A
:101730002C1CBF2B031383128313A03084000008DA
:10174000B700840A0008B8008A110A12EB248A152F
:101750000A123B18DE2B8313A03084003708800068
:10176000840A3808800003138316A201A30103131F
:1017700083128A110A1281268A150A12912B0313E9
:1017800083123908BB008A110A1288240130A6008E
:10179000E1238A150A121030DE003A08DE023A0808
:1017A0000F39B600FF390319DB2BB60E8A110A1266
:1017B000A4238A150A120030BB00E02BFF30BB00C7
:1017C000080083171030840000308000840A053040
:1017D000B6008A110A1282238A150A122008800094
:1017E000840A21088000840AB603031DE92B8A11AC
:1017F0000A1282238A150A12200880001130840000
:101800000008FF390319542CE53C0319542C210816
:101810000F390F3C0319542CA119542C211A252CD3
:101820000230B6001930840000084D3C031D272CFF
:10183000840A0008503C031D272C840A0008333C0E
:10184000031D272C0630B600272C0130B6001030BF
:101850008400360880000430B6008A110A12A423DE
:101860008A150A121E3084008A110A1282238A15F0
:101870000A1220088000840A210880008A110A12B6
:10188000822382231C30840082238A150A122008B6
:101890008000840A210880000230B6008A110A12F2
:1018A000A4238A150A1208000A30B6008A110A1207
:1018B000A4238A150A1208000E30B6008A110A12F3
:1018C000A4238A150A128317103084008A110A1281
:1018D000822320088000840A21088000840A822351
:1018E0008A150A1220088000840A21088000840AD0
:1018F00008008A110A12BA238A150A12E6255A0824
:10190000BC005B08BD005C08BE005D08BF00D913C9
:10191000FF30BC05031DD917BD05031DD917BE0532
:10192000031DD917BF05031DD917D91DAA2CD91B13
:101930009B2C5912C02CD91EA22C0130E000E101D1
:101940005912AA2C0130E000E1016123E1231425A2
:101950003026132DD91FBA2C6108FF39031DBA2C6C
:101960006008FF390319B72C013C031DBA2C591A22
:10197000132DC02C61233B18132DE1231425F225D0
:10198000E001E101D91BE014DE015A08BC005B084C
:10199000BD005C08BE005D08BF00BB015E08FF39EA
:1019A000031961233B18F62CDE03E1231425E00A1A
:1019B0000319E10A2125361CC52C5625591AEF2C8E
:1019C000361CF52C03178312300803138312FF39DA
:1019D0000319ED2C4325B61CF52C3026F52CB61C2E
:1019E000F52C4325361CF52C3026C52C591E132DFD
:1019F000D91F132D03178312300803138312FF39E5
:101A0000031D132DD91A132D5A08BC005B08BD0005
:101A10005C08BE005D08BF000130E000E101612309
:101A2000E123142530260800600803178312A00064
:101A300003138312610803178312A1000313831297
:101A40000800B60103178312100803138312B700AE
:101A5000FF3903190800D91C3A2D591D372D591C7F
:101A6000342D371C3614080037193614080037187F
:101A700036140800591C3E2D361408003718361449
:101A8000371936140800B601831703138312103078
:101A9000840000080339B70030308400000803399F
:101AA00037020319692D031CE12DDC2DB6018317C4
:101AB000031383121030840000080339B7009030FC
:101AC00084000008033937020319692D031CE12D36
:101AD000DC2D03178312840A000811020319732DE9
:101AE000031CE12DDC2D03178312840A0008120267
:101AF00003197D2D031CE12DDC2D03178312840AAD
:101B0000000813020319872D031CE12DDC2D031798
:101B10008312840A000814020319912D031CE12D7D
:101B2000DC2D03178312840A0008150203199B2D6C
:101B3000031CE12DDC2D03178312840A0008160212
:101B40000319A52D031CE12DDC2D03178312840A34
:101B5000000817020319AF2D031CE12DDC2D03171C
:101B60008312840A000818020319B92D031CE12D01
:101B7000DC2D03178312840A000819020319C32DF0
:101B8000031CE12DDC2D03178312840A00081A02BE
:101B90000319CD2D031CE12DDC2D03178312840ABC
:101BA00000081B020319D72D031CE12DDC2D0313A4
:101BB00083120030B6000800031383120130B60010
:101BC0000800031383120230B60008004030B6004C
:101BD00083179030840000308000840AB60BEC2D0F
:101BE00083130800831703178312903084001008B2
:101BF0008000840A11088000840A12088000840A88
:101C000013088000840A14088000840A15088000E4
:101C1000840A16088000840A17088000840A1808BD
:101C20008000840A19088000840A1A088000840A47
:101C30001B088000840A1C088000840A1D0880009C
:101C4000840A1E088000840A1F088000840A200875
:101C50008000840A21088000840A0313831208008C
:101C6000031783121008B0001108B1001208B20067
:101C70001308B3001408B4001508B5001608B60020
:101C80001708B7001808B8001908B9001A08BA00F0
:101C90001B08BB001C08BC001D08BD001E08BE00C0
:101CA0001F08BF002008C0002108C10003138312D1
:101CB00008008A110A12BA238A150A12DE01BB0132
:101CC0006008043C031C6C2E6108FF39031D6C2E58
:101CD0006008D900E001722E0530E002031CE10328
:101CE0000530D9005908FF390319DD2E5A08BC0008
:101CF0005B08BD005C08BE005D08BF005E08FF39E0
:101D0000031961233B18E02E1030B6008A110A1225
:101D1000AC238A150A12031783161008FF3903191A
:101D2000D02EE53C0319D02E1B080F3C031DD02EEE
:101D3000031383125908B60000300D3EB60B9D2EDA
:101D4000033E840003178316831711088000840A5A
:101D500013088000840A15088000840A1708800090
:101D6000840A19088000840A1E088000840A20085A
:101D70008000840A22088000840A24088000840AE3
:101D800026088000840A28088000840A2C08800025
:101D9000840A2E088000840A831303138312D72E2B
:101DA000031383128A110A12BA238A150A12E00A4F
:101DB0000319E10AD903DE03722E0130BB000800CB
:101DC0000030BB0008003C08DA003D08DB003E089C
:101DD000DC003F08DD00BB018A110A1288240130B3
:101DE000A600E1231A30B600A42382232008BE00F7
:101DF0002108BF000230B600A42382232008BC00C3
:101E00002108BD008A150A128317903084003C080F
:101E10008000840A3D088000840A3E088000840A0D
:101E20003F088000840AE001E101BB018A110A1227
:101E300088240130A600E1238A150A121030B70069
:101E4000B8018A110A1282232008FF3903193814B5
:101E50002008E53C031938140430B600A42382237B
:101E600021081039103C031D38140430B600A42397
:101E7000822320085C02031D381421085D02031D23
:101E800038140230B600A423822320085A02031D0E
:101E9000381421085B02031D38140230B600A42355
:101EA0008A150A123808FF390319692FE00A031945
:101EB000E10AB70B202FBB0A3B084C02031D162F6B
:101EC0008A110A12EB248A150A123B08FF390319FA
:041ED000152F0800C2
:102000008A110A12BA238A110A16A701A801A90186
:10201000AA01BB010130A6008A110A12E123DF30B8
:10202000B600A4232030B600AC230130B600A423B0
:102030008A110A168313A430840027088000840ABA
:1020400028088000840A29088000840A2A08800061
:10205000840A83179430840000080C3C031D013C63
:10206000031D5B2803138316983084000008A0002A
:10207000840A0008A100840A0008A200840A00085B
:10208000A300031383128A110A1229268A110A1641
:102090008313A83084000008A700840A0008A80061
:1020A000840A0008A900840A0008AA00840A8A2079
:1020B0008317A43084000008053C031D0A3C031D5F
:1020C00089280408043E840003138316831700083C
:1020D000A000840A0008A100840A0008A200840A63
:1020E0000008A300031383128A110A1229268A11F9
:1020F0000A168313A83084000008A700840A000889
:10210000A800840A0008A900840A0008AA00840A1A
:102110000A28080083173B08B6000310B60DB60D59
:10212000B60DB60D3608113E840027088000840ADB
:1021300028088000840A29088000840A2A08800070
:10214000840A0130A6008A110A12E1232330B60066
:10215000A42382238A110A1621088000840A0530EC
:10216000B6008A110A1282238A110A1620088000FA
:10217000840A21088000840AB60BB128103084023A
:102180008A110A1282238A110A162008463C031D6E
:10219000E6282108413C031DE6288A110A12822301
:1021A0008A110A162008543C031DE6282108333CF6
:1021B000031DE6288A110A1282238A110A162008B2
:1021C000323C031DE628FF308000BB0A08002E12B7
:1021D000C001C101C201C301C401C501C601C701DB
:1021E000C801C901CA01CB01A4010130A6008A11AE
:1021F0000A12E1230530B600A42382238A110A16AD
:102200002108FF39031DD2298A110A1282238A115B
:102210000A162008023C031DD2292108CC00803C6C
:10222000031CD2298A110A1282238A110A16200855
:10223000C4002108C5008A110A1282238A110A16D5
:102240002008023C031DD2290930B6008A110A1267
:10225000A42382232008C0002108C1008223200873
:10226000C2002108C3008223822382232008C800E1
:102270002108C90082232008CA002108CB001130A0
:10228000B600A42382238A110A162008463C031DA7
:10229000D2292108413C031DD2298A110A12822326
:1022A0008A110A162008543C031DD2292108333C08
:1022B000031DD2298A110A1282238A110A162008C4
:1022C000323C031DD2298313A030840044088000CF
:1022D000840A45088000840A46088000840A47086A
:1022E0008000840A27088000840A28088000840A65
:1022F00029088000840A2A088000840A8A110A12A8
:1023000029268A110A160008C400840A0008C5009C
:10231000840A0008C600840A0008C700840AA030A6
:10232000840040088000840A41088000840A420832
:102330008000840A43088000840A8A110A129726C2
:1023400044088000840A45088000840A460880000A
:10235000840A47088000840A29268A110A164C0D2F
:1023600003138316A400A501A601A7012808A00055
:102370002908A1002A08A2002B08A3000313831236
:102380008A110A1255268A110A160008C000840A0A
:102390000008C100840A0008C200840A0008C300C3
:1023A000840A2E1608007808033C031D08007514E3
:1023B0007308043C03180800831790308400400819
:1023C0008000840A41088000840A42088000840A50
:1023D00043088000840A44088000840A450880007D
:1023E000840A46088000840A47088000840A480856
:1023F0008000840A49088000840A4A088000840A10
:102400004B088000840A2E0880007908A7007A080B
:10241000A8007B08A9007C08AA00E7202E088A11E2
:102420000A129A22F3018A110A162E1E8F2AEE1F13
:10243000082B8317903084000430B6003608031749
:1024400083128D00031783160C14031783120C08D4
:102450008000840A03138312B60A3608133C031D56
:102460001E2A9030840040080002031DB92A840A05
:1024700041080002031DB92A840A42080002031D14
:10248000B92A840A43080002031DB92A840A0008F5
:10249000E200BC00840A0008E300BD00840A0008D2
:1024A000E400BE00840A0008E500BF00840A8A1523
:1024B0000A1227238A110A163B18B92A8317983063
:1024C00084000008E000E600840A0008E100E7005C
:1024D0008A150A1261238A110A163B18B92A8A152D
:1024E0000A12E1238A110A168317103084000008AB
:1024F000063C031DB92AD301D40183179B30840005
:102500000008E900840A0008EA00840A0008EB00D9
:10251000840A0008EC00840A4C08ED00B82A8317EE
:10252000903084000008C000840A0008C100840ABA
:102530000008C200840A0008C300840A0008C4001E
:10254000840A0008C500840A0008C600840A00083E
:10255000C700840A0008C800840A0008C900840A69
:102560000008CA00840A0008CB00840A0008AE00F4
:102570000800D301D401E201E301E401E501E60131
:10258000E701EE10DA01DB01DC01DD012E30D900BC
:102590008A150A1279248A110A1603178312300841
:1025A00003138312063C031D080083173C3084008C
:1025B0000008E900BC00840A0008EA00BD00840AA3
:1025C0000008EB00BE00840A0008EC00BF00840A8B
:1025D0000008E600840A0008E7008A110A12732541
:1025E0008A110A165108D3005208D400ED016E1466
:1025F000EE146E15CD106F108A150A124D200030A2
:10260000B6004D08B700B8011C208A110A16080050
:10261000D301D401E201E301E401E501E601E701B0
:10262000EE10080078080B3C031D080075147308B1
:10263000043C031808007908BC007A08BD007B0838
:10264000BE007C08BF008A110A1273258A110A167F
:102650008A110A123B089A2251089A2252089A2299
:102660008A110A16F301080078080C3C031D0800C3
:1026700075147308043C031808007908BC007A0834
:10268000BD007B08BE007C08BF003C083D043E0442
:102690003F0403195D2B8A150A1227238A110A1693
:1026A0003B08FF39031D5B2B8A150A12E3268A11AA
:1026B0000A1600305E2B81305E2B01308A110A121F
:1026C0009A2283179030840000089A22840A000816
:1026D0009A22840A00089A22840A00089A22840A0C
:1026E00060089A2261089A228A110A16F3010800EA
:1026F00078080D3C031D080075147308023C03188C
:10270000080079087A0403198C2B7908D700D500C2
:102710007A08D800D6008E2BD501D6018A110A126C
:10272000FF309A228A110A16F30108007808853CC6
:10273000031D080075147308013C0318080079088C
:10274000FF390319D82B79080C3C031CD12B7908CD
:10275000AF000A30B6000030B7004230B8008A152A
:102760000A121C208A110A160D30B6000030B7007C
:102770000030B8008A150A121C208A110A160D3082
:10278000B6002F08B7000030B8008A150A121C20C6
:102790008A110A168A110A12FF309A228A110A1621
:1027A000F12B8A110A1200309A228A110A16F12B93
:1027B000AF010D30B6000030B7000030B8008A1508
:1027C0000A121C208A110A160A30B600B701B80195
:1027D0008A150A121C208A110A12FF309A228A11C5
:1027E0000A16F30108007808863C031D08007514DA
:1027F0008A110A1250089A224F089A228A110A1640
:10280000F30108007808873C031D080075148A113D
:102810000A124C22FF309A228A110A16F30108008C
:1028200062086304640465040A30031D0230D900A1
:102830000130E000E1016208DA006308DB006408AF
:10284000DC006508DD008A150A1279248A110A164F
:1028500003178312300803138312FF39031D662CFC
:102860006208630464046504031D382C6E10BA2CDE
:102870006208BC006308BD006408BE006508BF00B4
:102880008A150A12E3268A110A16831790308400EB
:102890000008E200DA00840A0008E300DB00840A92
:1028A0000008E400DC00840A0008E500DD000230D6
:1028B0008A150A1279248A110A160317831230081E
:1028C00003138312013C031D302C662C83173C300C
:1028D00084000008E200DA00840A0008E300DB005C
:1028E000840A0008E400DC00840A0008E500DD003A
:1028F0002E30D9006E158A150A1279248A110A160B
:1029000003178312300803138312063C031DBA2CED
:1029100083173C3084000008E900BC00840A0008EA
:10292000EA00BD00840A0008EB00BE00840A00082B
:10293000EC00BF00840A0008E600840A0008E700F3
:102940008A110A1273258A110A165108D3005208F7
:10295000D400ED016E14EE146E15CD106F108A15B3
:102960000A124D200030B6004D08B700B8011C20F7
:0A2970008A110A168A110A121429AE
:10300000133436342434003412343E341734B83494
:1030100012343E341534383405343E341434B83464
:103020001534363424340034003400340A34803407
:1030300010343E340434B834003400348234003464
:1030400004343E341234783424346034243400346C
:10305000043400349134E5341034283415348A347F
:103060009434403424340034003431344C349834B3
:103070008434423424340034043400341234E034D0
:10308000103428344534873400340034913400340B
:103090001034F1344034B83410342934C034D334CB
:1030A0000934303450343834043400341234E234C7
:1030B00000340034913400341034F13450349834F6
:1030C00010342934C034D33413343034243400342D
:1030D00009343034D0341B341034283480349034E4
:1030E00009343034C0341B341034F1344034B83433
:1030F000103429344034C634093430345034383430
:10310000043400341234E234003400349134003496
:103110001034F13450349834103429344034C634E7
:10312000133430342434003409343034D0341B3474
:10313000103428348034903409343034C0341B3493
:1031400000340034023401341034283415348F3400
:103150000034003424340034003431344C34983496
:103160008434423424340034043400341234E034DF
:103170001034283485348D34003400345134003414
:10318000803441344034B83410342934C034D3341A
:10319000093430345034383409343034D0341B34AA
:1031A000103428348034903409343034C0341B3423
:1031B000803441344034B834103429344034C63477
:1031C000093430345034383409343034D0341B347A
:1031D000103428348034903409343034C0341B34F3
:1031E0002434603424340034003400342434003473
:1031F00010342834953490340034003424340034AE
:103200001034293440349234883441342434003426
:10321000F434363412345834F034363404349834B8
:103220000534343414349034F334363424340034D4
:10323000F234363415341834003420340034003479
:10324000F23436341734983413343634243400349A
:1032500022343E341534B83405343E341434B83492
:103260002534363424340034003400340A348034B5
:1032700010343E3401343834043400340034E03443
:1032800011343E341034783413343E340E34F83470
:1032900003343E344C34503488344434C0343334F2
:1032A00004340034D034E034103428349534983465
:1032B00000340034CE34033410342434CE34963405
:1032C0008034B8344C341034053434342434C034AD
:1032D00010343F342434003405343C342434C034B6
:1032E000043400340034E03404340034D034E034A6
:1032F00070343834CC341334043400340034E234C1
:10330000103428340034C4341334303424340034BA
:103310007034303424340034803440344C3400343D
:10332000043400340034E0341034283445349B3401
:103330000034003424340034003430342434003475
:1033400080344034243400340034003424340034D5
:103350001034283495349C3490344434243400346C
:10336000043400340034E03404340034D034E03425
:103370007034383424340034043400340034E234FB
:103380001334303424340034903444340034203442
:1033900000340034803400341034283495349F34A1
:1033A000013400341034E034103400348034A2345A
:1033B00009343034403420340F34003400347C3449
:1033C00009343034403420342034003400340034A4
:1033D0000934303440342034073400340034E034CD
:1033E000103428340034C2340934303400342034EA
:1033F000003464342434003400340034C0340034E5
:1034000010342834D534A234003400342434003449
:103410000E34003440349134093430344034203494
:10342000113400344034973409343034403420347B
:103430002034003400340034093430344034203433
:10344000073400340034D734103428340034C23404
:1034500009343034003420340034643424340034EB
:103460000034003400340134103428341534A634C8
:1034700000340034243400341134003440346634D1
:1034800009343034403420340E3400344034BA34FB
:1034900009343034403420342034003400340034D3
:1034A0000934303440342034073400348034C2349A
:1034B000103428340034C234093430340034203419
:1034C0000034643424340034003400344034013493
:1034D000103428345534A9340034003424340034F2
:1034E00012340034803414340934303440342034FD
:1034F0000E3400340034293409343034403420345C
:103500002034003400340034093430344034203462
:10351000073400344034E134103428340034C234E9
:10352000093430340034203400346434243400341A
:103530000034003480340134103428345534AC3431
:1035400000340034243400341034003400340034A7
:103550008034B8344034A03409343034403420341A
:1035600038340034003429340934303440342034C1
:103570003834003480341034103428340034C234E9
:1035800009343034003420340034643424340034BA
:1035900000340034C0340134103428349534AF344E
:1035A000003400342434003418340034003400343F
:1035B0000934303440342034393400340034FC349D
:1035C0000934303440342034383400340034293461
:1035D00009343034403420343834003480341034EA
:1035E000103428340034C2340934303400342034E8
:1035F00000346434243400340034003400340234A1
:1036000010342834D534B234013400341034E0346A
:103610001534003400345834093430344034203404
:1036200038340034C03488340934303440342034E1
:1036300038340034403433340934303440342034A6
:103640003834003480341034103428340034C23418
:1036500009343034003420340034643424340034E9
:103660000034003440340234103428341534B63475
:103670000034003424340034193400340034D3349A
:1036800009343034403420340634003400342D34CE
:103690000934303440342034383400344034083471
:1036A0000934303440342034383400348034103419
:1036B000103428340034C234093430340034203417
:1036C0000034643424340034003400348034023450
:1036D000103428341534B934003400342434003420
:1036E00010340034003400348034B8344034A03412
:1036F0000934303440342034383400348034663473
:10370000093430344034203438340034003429341F
:10371000103428340034C2340934303400342034B6
:10372000003464342434003400340034C0340234AF
:10373000103428345534BC3400340034243400347C
:103740001834003400340034093430344034203428
:10375000393400340034FC340934303440342034FB
:103760003834003400347B3409343034403420346D
:103770003834003440343334103428340034C23404
:1037800009343034003420340034643424340034B8
:103790000034003400340334103428349534BF34FA
:1037A00000340034243400341534003400345834E8
:1037B000093430344034203438340034C034883450
:1037C00009343034403420343834003480346634A2
:1037D000093430344034203438340034C034243494
:1037E000103428340034C2340934303400342034E6
:1037F0000034643424340034103400340034003491
:10380000103428341534C2340034003424340034E5
:1038100009343034403420340934303440342034D6
:103820003834003480341434093430344034203493
:103830003834003400345234093430340034203405
:10384000013400341034E1340034003400340034E6
:103850000034003401340134123464340034A034B0
:103860000034003440340034103428341934C43463
:10387000043400349034E53490344034243400343B
:103880000034383424340034F334363424344034AF
:10389000F33436340E34D834F134363410345834EA
:1038A000F03436340134183405343434143490345C
:1038B000E33436342434003400342034003400340B
:1038C000F23436341534983412343E341734B83464
:1038D00012343E341534383414343E341134383410
:1038E00014343E341334B83415343E340D34383483
:1038F00010343E340134383410343E340334B83498
:1039000011343E340534383411343E340734B8347D
:1039100003343E340E34F8340034F43497344434F1
:10392000003400340A34003433343734243400345F
:103930002434373424348034013400341434E034F3
:10394000203400341534013490344034C5341F34ED
:10395000103424344034D0342034003493340034D0
:103960008E34BF34043400344834F1342434003409
:103970008734BD344834AC340934FE3449342834F7
:103980000734523448342934073452344C342934FF
:10399000D634583485341C34DE34583445341C3421
:1039A000BE34463462341F34D2344F34043492343B
:1039B000C2344C3424340034C6344C3424340034FF
:1039C000EA34F13443343C34E2344D3421343C3471
:1039D00086344C3445341C3410343F342434403461
:1039E000103428345234D034D8343F3424340034A2
:1039F000103428345434D0341F340034C334FF34EA
:103A0000E0340F3403340034803438342434C03488
:103A1000F33437342434003404343F3424348034D1
:103A2000F33436340E34D834F13436340734983421
:103A3000F134363405341834F034363403349834E1
:103A4000F034363401341834F53436340D34183447
:103A5000F434363413349834F4343634113418349E
:103A6000F234363415341834003420340034003441
:103A7000F23436341734983412343E341734B834B0
:103A800012343E341534383414343E34113438345E
:103A900014343E341334B83415343E340D343834D1
:103AA00010343E340134383410343E340334B834E6
:103AB00011343E340534383411343E340734B834CC
:103AC00013343E340E34F8348634BD3497344434E1
:103AD000093430340C341D34013400341434E034EF
:103AE00020340034D534003491344034E234E234AC
:103AF000113437342434403410342434C034DD34A9
:103B0000F83437340A349834893445344834063428
:103B10000D34FE3448342134173450344834A6343C
:103B2000B6344D34853448348434433443344834D3
:103B30003134FE3466346734AE34503424340034C7
:103B4000BE34463400349234D7344E346434653451
:103B50003034FE3481344034AA345034E0344034BC
:103B6000BA34443424340034EA346F342434003416
:103B700082344C342434003400340034243400348F
:103B800010342834D234DD34EB344E3462346334B0
:103B900082344C342434003400340034243400346F
:103BA00010342834D434DD341F340034C134FF34AD
:103BB000E0340F3401340034EA344E34013422341A
:103BC00011343F3424344034103428340034D13498
:103BD000F8343F34CC349B3461088A00600882009A
:103BE0000730B6000030B7008230B8008A150A12DC
:103BF0001C208A150A160030E0001830E10006305B
:103C0000B600EC25B700E00AEC25B8008A150A12C8
:103C10001C208A150A16E00A0319E10A61081D3CF6
:103C2000031DFF2D6008EC3C031DFF2DAF018A151D
:0A3C30000A124D208A150A1608003A
:02400E003A3F37
:1042000030003000C300000000000000000000008B
:10421000000000000000000000000000000000009E
:0642200000000000000098
:00000001FF
