:020000040000FA
:02000000BC281A
:08000800F0000308F1000408F8
:10001000F2000A08F6008A010313831283136A2987
:1000200097212520972125209721252097212520DC
:10003000972125203620063083200130832081211E
:1000400008000130832081210800383083200F30E0
:1000500083200800803083200800AA308320080015
:10006000903083200800D03083200800A401403065
:10007000832024084220A020A40A40302402031D2B
:10008000392808008207023404341E3401340F3446
:1000900011340F340034023404340C340434043486
:1000A00004340E3400340A3404340E3411341F3452
:1000B00010340E3400340A3404340E3410340E3448
:1000C00001341E3400340A3404340E341034103435
:1000D00011340E3400340A34043416341934103414
:1000E0001034103400340A3404341F34023404341D
:1000F00008341F34003402340434113411340F3402
:1001000001340E340034061186100000880000000F
:1001100000000000000000000000000000000000DF
:10012000000006140000000000000000000006109F
:10013000000000000000000000000614A9210800D3
:100140000615861000008800000000000000000076
:100150000000000000000000000000000614000085
:100160000000000000000000061000000000000079
:1001700000000000A92108004F214021102031304B
:10018000A0202E30A0202030A0200530A02000305C
:10019000A0206430A0206530A0206B30A0202D204E
:1001A0003230A0202E30A0202030A0200530A0200A
:1001B0000030A0206430A0206530A0206B30A0204B
:1001C00030203330A0202E30A0202030A020053059
:1001D000A0200030A0206430A0206530A0206B302B
:1001E000A02033203430A0202E30A0202030A020AA
:1001F0000530A0200030A0206430A0206530A02071
:100200006B30A02074217421742174217421212069
:100210002A200430A0206530A0207330A0206B304D
:10022000A0200230A0202030A0207A30A0206E3004
:10023000A0206130A0206B30A0207930A0203A307F
:10024000A0202D200030A0200130A0200230A020CE
:100250000330A0200430A0200530A0200630A020CC
:100260000730A0207421742174217421742121206D
:100270002A20A60187162608A0208A21A60A3B2943
:1002800003138316FF308500F8308600DF308700C7
:100290000030880003308900031383120800031321
:1002A0008316C7308100203000308C0000308D0074
:1002B000C0308B00263098000313831290309800D2
:1002C000031383168130990007309F0003138312B4
:1002D0009F0108008C1E6C2976088A007208840031
:1002E00071088300700809001A30A3005E30A10075
:1002F0006E30A000A00B7A29A10B7A29A30B7A29D2
:1003000008001030A100CF30A000A00B8529A10B60
:10031000832908000830A3009D30A1000630A0000A
:10032000A00B9029A10B9029A30B90290800A030C5
:10033000A100CF30A000A00B9B29A10B9929080098
:100340000130A100A530A000A00BA429A10BA42975
:0C03500008005330A000A00BAB290800EF
:02400E003A3F37
:00000001FF
