:020000040000FA
:02000000C42812
:08000800F0000308F1000408F8
:10001000F2000A08F3008A010313831283132B29C9
:10002000A0212520A0212520A0212520A0212520B8
:10003000A02125203E2006308B2001308B208A21F4
:10004000080001308B208A21080038308B200F30C7
:100050000C308B2008001430A1002030A820A10B08
:100060002D28080080308B200800AA308B20080043
:1000700094308B200800D4308B200800A40140303D
:100080008B2024084A20A820A40A40302402031D03
:10009000412808008207023404341E3401340F342E
:1000A00011340F340034023404340C340434043476
:1000B00004340E3400340A3404340E3411341F3442
:1000C00010340E3400340A3404340E3410340E3438
:1000D00001341E3400340A3404340E341034103425
:1000E00011340E3400340A34043416341934103404
:1000F0001034103400340A3404341F34023404340D
:1001000008341F34003402340434113411340F34F1
:1001100001340E34003406118610000088000000FF
:1001200000000000000000000000000000000000CF
:10013000000006140000000000000000000006108F
:10014000000000000000000000000614B2210800BA
:100150000615861000008800000000000000000066
:100160000000000000000000000000000614000075
:100170000000000000000000061000000000000069
:1001800000000000B22108000621F72010201A0804
:100190001A0810223A227D217D21212010225E2280
:1001A0000D237D21C7212508013C0319DA281025DC
:1001B000A817E028ED21A81BE028F0220000DE2887
:1001C000FC2483179130840052308000840A4F3021
:1001D0008000840A4F308000840A54308000840AF2
:1001E000FF308000AB01AC01AD01AE018F2D0313D8
:1001F0008316FF308500F8308600CF30870000304E
:100200008800033089000313831208000130900036
:10021000FF308F008E01031383160C148B170B17FE
:100220000313831203138316C7308100263098000E
:1002300003138312903098000313831681309900C2
:1002400007309F00031383129F01BE30A7002816BA
:10025000A812BA01080069308E009E308F000C1081
:100260003108FF39031DB1032817851C3A29C51B26
:100270003A29C417051D3F29451B3F294417851DF1
:100280004429C51A4429C416051C4929451A492977
:100290004416891C4E2945194E294415091C532919
:1002A000C5185329C414091D582945185829441440
:1002B000C5018518C517051945178519C5160518EF
:1002C0004516891845150918C51409194514281E1D
:1002D0006D29A81A6F298716752987127529871E17
:1002E0007329871274298716752973088A00720882
:1002F000840071088300700809001A30A3005E3082
:10030000A1006E30A000A00B8329A10B8329A30BB1
:10031000832908001030A100CF30A000A00B8E2947
:10032000A10B8C2908000830A3009D30A1000630E5
:10033000A000A00B9929A10B9929A30B99290800CA
:10034000A030A100CF30A000A00BA429A10BA229AE
:1003500008000130A100A530A000A00BAD29A10B21
:10036000AD2908005330A000A00BB42908000313E6
:100370008316981CB72903138312990008008C1E5A
:10038000BF291A080800BF21A10BC32908008A153C
:100390000A1200208A110A12A813A401A5018317CA
:1003A000103084000230B7212408B721BF2180001B
:1003B000001CE429840A0F30A300BF218000840AB6
:1003C000A30BDD29A50AE7290F30A100C321A40A48
:1003D0002408043C031DD22908000330B7218317E9
:1003E000113084000008B721840A0008B721840A6C
:1003F0000008B721840A0008B721BF21A600A8136E
:10040000261AA8170800031783128D0003178316F6
:100410008C130C14031783120C08031383120800A7
:1004200032203C30A8203C30A8203C30A8204D3061
:10043000A8205030A8203330A8202030A820203019
:10044000A8207030A8200530A8206530A82068308A
:10045000A8207230A8200030A8207630A820613073
:10046000A8200430A8203E30A8203E30A8203E30EE
:10047000A820080038202030A8202030A8202030D4
:10048000A8204B30A8206130A8207230A8207230FC
:10049000A8207930A8202030A8202030A82026309D
:1004A000A8202030A8202030A8204230A8206F307B
:1004B000A8206730A8206130A8200800352004302B
:1004C000A8206530A8206B30A8200030A8206D300F
:1004D000A8202030A8206E30A8206130A82020302D
:1004E000A8206430A8206930A8207330A8206B3081
:1004F000A8202E30A82093212E30A82093212E3022
:10050000A8209321080038204430A8204930A82092
:100510005330A8204B30A8202030A8204F30A820EE
:100520004B30A820080038204E30A8204530A820A5
:100530005030A8204F30A8204430A8205030A820A8
:100540004F30A8205230A8204F30A8205630A82085
:100550004130A8204E30A8205930A8202030A820B3
:100560004430A8204930A8205330A8204B30A82080
:10057000080032206430A8206930A8207330A820F9
:100580006B30A8202030A8206F30A8206230A8202F
:100590007330A8206130A8206830A8207530A820CA
:1005A0006A30A8206530A82035207630A820013098
:1005B000A8206330A8206530A8202030A8206F3004
:1005C000A8206430A8206430A8200130A8206C3016
:1005D000A8207530A8202130A8200000ED2A0800AE
:1005E000212032204E30A8204530A8205030A820AD
:1005F0004C30A8204130A8205430A8204E30A820EC
:100600005930A8202030A8204430A8204430A82009
:100610004930A8204C30A82008000130B721BF2164
:10062000A300A31B8322A31F93223B201430A1000D
:10063000BF21A820A10B182B1430A100C321A31B9C
:1006400008000000212B8130B721BF21A900BF2164
:10065000AA00BF21BF2129142A10F4248330B72116
:100660000630A100C321BF21AB00E700BF21AC00D1
:10067000E800BF21AD00E900BF21AE00EA00BF21C4
:10068000AF00EB00BF21B000EC008A150A12322047
:100690008A110A121130C2009130C3006430B100D7
:1006A000C401A815212032202B2032200030A500C3
:1006B000812335202B2035200130A5008123F32311
:1006C0008A150A12DC208A110A12B8232919232B51
:1006D000A8245D243108FF39031D682B6430B10064
:1006E0002919232B441D782B44118A150A12A2299B
:1006F00044187D2BC4187D2B802B4410C4108F2DE3
:10070000532BA6011330A10083174208251C430870
:1007100084000008FF3C0319261403199D2B0008D0
:10072000A820840A0008FF3C0319A61403199D2B76
:100730000008A820840AA10B922B2608FF39031970
:10074000B22B261CAB2B251CA82B1130C200080095
:100750009130C30008004208251C43087F39113C32
:1007600003190800251CB62BC20A0800C30A08009A
:10077000A81D0800A1308B202A1AE42B5630A8208F
:100780004F30A8204C30A8202030A8202708A600F1
:100790000310A60CA3016430A30AA6020318CC2BF5
:1007A000A607A30330302307A820A3010A30A30A19
:1007B000A6020318D72BA607A30330302307A820CF
:1007C00030302607A82008004D30A8205530A8203A
:1007D0005430A8204530A8202030A8202030A82060
:1007E0002030A82008008130B721BF21A900BF21F7
:1007F000AA00BF21B200BF21B3003820A91C042CDD
:100800002918042C28192A2C28154B243408C00038
:100810003508C10038243708A10038244008FF39C2
:100820000319142C303E152C2030A8203708303EF8
:10083000A8202108303EA8203A30A8203208C00065
:100840003308C10038244008303EA8203708303E25
:10085000A820080028112030A8202030A82020300F
:10086000A8203A30A8202030A8202030A820080056
:10087000B7011030B600C00DC10DB70D0A303702F8
:100880000318B700B80DB90DB60B3B2C3808C000E3
:100890003908C1000800B7011030B600B20DB30D21
:1008A000B70D3C3037020318B700B40DB50DB60BC9
:1008B0004E2C3708B200B3010800C41BBA24C4137D
:1008C000C41E6F2C9321C412851D762C2A14291462
:1008D000F424F32393218519692C2A10F424441A53
:1008E000722C080044121630A600782C0630A600A0
:1008F0000930B7212B08B7212C08B7212D08B721C3
:100900002E08B7212F08B7213008B7212608B721B4
:10091000BF21063C031DA42C0F30A100C321BF2121
:10092000AF00BF21B0008030B7212B08B7212C08C1
:10093000B7212D08B7212E08B7212F08B72130087D
:10094000B721BF21291508001130A100C3210800DB
:10095000051EB52C851EB52C2A16F424A819B8231B
:10096000A021A021A021A021B92C051AC224851AFA
:10097000DB240800291CBE2C2910BF2C29142A10A6
:10098000F42408002A1EC62C2A12F4240230270759
:10099000031CCB2C08008230B721A70AA70A27081E
:1009A000FF3CB7212708FF3CB721A021A021BF2190
:1009B000A819B82308002A1EDF2C2A12F4240230BA
:1009C00027020318E42C08008230B721A703A703ED
:1009D0002708FF3CB7212708FF3CB721A021A02111
:1009E000BF21A819B82308008430B7212908B721EE
:1009F0002A08B721BF2108008130B721BF21A900F3
:100A0000BF21AA00BF21BF212A12F4248230B721BE
:100A10002708FF3CB7212708FF3CB721BF2108006A
:100A200021203220C4015630A8205930A82042305D
:100A3000A8204530A8205230A8202030A8204F30D0
:100A4000A8204430A8204430A8204930A8204C30A9
:100A5000A820A401A501A60183172408FF390319C2
:100A60003520013C031938202408023C03193B209F
:100A70000B30A100240E103E84000008FF3903193A
:100A8000572D2030A8202408313EA8202E30A82041
:100A90002030A8200408053E84000008A820840A0D
:100AA000A10B4D2DA40A2408033C031D2D2DA403E6
:100AB0002608FF3903192927013C03193327260883
:100AC000023C03193D27C418832D4418892DC41EE8
:100AD000632DC4120330B721260E113E8400000896
:100AE000B721840A0008B721840A0008B721840AC4
:100AF0000008B721BF21A100211A0800F0227D21A2
:100B00007D217D21102DC4102608FF39031DA60369
:100B1000582D441024082602031CA60A582D8A15B5
:100B20000A1218208A110A122B08C6002C08C700C6
:100B30002D08C8002E08C900212032201430A10041
:100B4000113084000008FF3C0319AB2D0008A820D9
:100B5000840AA10BA22D0930B7214608B721470806
:100B6000B7214808B7214908B721B721B721083074
:100B7000B7213520CC01A401A301A501D001D801E2
:100B8000E001DF2D2308FF3903193520013C03194B
:100B900038202308023C03193B200930B7214608BE
:100BA000B7214708B7214808B7214908B7214A08A3
:100BB000B7214B08B72110304C1C0030B7218313EC
:100BC0002308A1000310A10DA10D210D503E8400AA
:100BD0002030A820BF21A6008000840AFF39031915
:100BE000822E063C2F3003192030A8200830A100A7
:100BF000BF210322A820A10BF82D2030261C2E3067
:100C0000A8200330A100BF210322A820A10B032E9E
:100C1000BF218000840ABF218000840ABF21800098
:100C2000840ABF218000840ABF21CA008000840A90
:100C3000BF21CB008000840AA40A4C1C252E230867
:100C4000FF3903192B2EA303C22DA30A2308033C4B
:100C5000031DC22DA3032508FF3903192927013CD1
:100C6000031933272508023C03193D27A811A8249E
:100C7000C418862E4418A12EC41A412E441A7E2E62
:100C8000362E8313C4122508A1000310A10DA10D57
:100C9000210D503E84000008840A013C031D652E8E
:100CA0000008C600E700840A0008C700E800840ABC
:100CB0000008C800E900840A0008C900EA008A1593
:100CC0000A129F208A110A129C2D8030B7214608F3
:100CD000B7214708B7214808B7214908B7210408B8
:100CE000043E84000008B721840A0008B721BF2110
:100CF0008A150A1225208A110A12232B4412A91CD4
:100D0000362E232B1130A100C3212B2EC410250811
:100D1000FF3903198D2EA5032B2EF2262108FF394A
:100D200003192B2E4C14A4010230A300A50035207A
:100D30002B2038202B203B202B20D001D801E00194
:100D4000C22D4410240325020318A82EA50A2B2E19
:100D5000BB262108FF3903192B2ECC01A401A301C6
:100D6000A50135202B2038202B203B202B20D00123
:100D7000D801E001C22DA1015008580460040319F4
:100D800008000930B7214608B7214708B7214808AD
:100D9000B7214908B7215008FF390319D12E553022
:100DA00084005808FF390319D72E5D30840060088D
:100DB000FF390319DD2E653084000008CA00B72111
:100DC000840A0008CB00B7210030B721BF21A6005C
:100DD0001130A100C321A1012608FF390319080021
:100DE00021140800A10150085804600403190800E8
:100DF0000930B7214608B7214708B7214808B7216D
:100E00004908B7216008FF390319082F65308400AD
:100E10005808FF3903190E2F5D3084005008FF3940
:100E20000319142F553084000008CA00B721840A22
:100E30000008CB00B7211030B721BF21A600113028
:100E4000A100C321A1012608FF39031908002114BC
:100E5000080035203E30A82038202030A8203B2034
:100E60002030A820080035202030A82038203E302F
:100E7000A8203B202030A820080035202030A820C2
:0E0E800038202030A8203B203E30A82008005B
:101000004030A10083171030840000308000840A33
:10101000A10B0628831308004030A10083179030ED
:10102000840000308000840AA10B1228831308007A
:1010300083174330A100903084000008841380009F
:101040008417840AA10B1D28080083174330A100D0
:10105000103084000008841780008413840AA10BD8
:101060002A2808008A110A120A30B7216708B72116
:101070006808B7216908B7216A08B7216B08B7214A
:101080006C08B7218317103084004230A1008A1108
:101090000A12BF2103228A150A128000840AA10BBA
:1010A0004728103084000008013C031D5C28840A96
:1010B0000008FF3C031D9A288A110A120530B72147
:1010C0006708B7216808B7216908B7216A08B721FE
:1010D0006B08B7216C08B721103084000930A100DB
:1010E0008A110A12BF2103228A150A128000840A7B
:1010F000A10B7028103084000008063C2E30031D20
:101100002030A1001930840021088000840A0330B7
:10111000A1008A110A12BF2103228A150A12800037
:10112000840AA10B89280430A1008A110A12C32164
:101130008A150A1252308400FF30800008008A119C
:101140000A120C30B7216708B7216808B72169086F
:10115000B7216A08B721BF218A150A12FF39031D7A
:10116000C3288A110A12BF21E700BF21E800BF216E
:10117000E900BF21EA00BF21EB00BF21EC008A1586
:101180000A12322008000630A1008A110A12C32177
:101190008A150A1283171130840052308000840AA5
:1011A0004F308000840A4F308000840A5430800021
:1011B000840AFF308000080083308A110A12B721A8
:1011C000BF21ED00BF21EE000A30A100C3213B206A
:1011D0002B203B208A150A124D30EE1B5330702312
:1011E000203070238A110A126D08C0006E08013980
:1011F000C10038243708A10038248A150A12400893
:10120000FF3903190529303E062920308A110A12B8
:10121000A8203708303EA8202108303EA8208A1593
:101220000A126B3070236230702370307023733079
:1012300070232F3070236E081E39A100023C031961
:1012400066216E081E39A100043C03196F216E0847
:101250001E39A100063C031974216E081E39A10035
:10126000083C031979216E081E39A1000A3C0319B4
:101270007E216E081E39A1000C3C031983216E08E3
:101280001E39A1000E3C031988216E081E39A100E9
:10129000103C03198D216E081E39A100123C031960
:1012A00092219521291E5C29A91E612957295230B6
:1012B00070233130702308004E3070235230702379
:1012C00008005230702344307023080034307023FB
:1012D000343070232E3070233130702308003430C6
:1012E000702338307023080033307023323070237D
:1012F00008003230702332307023080032307023FF
:1013000034307023080031307023363070230800E9
:101310003130702331307023080031307023323087
:10132000702308003830702308006B307023483079
:1013300070237A307023203070230800C4018A1192
:101340000A12232BA6012608FF390319172A26089B
:10135000013C03191E2A2608023C0319252A2608E7
:10136000033C03192C2A2608043C0319332A2608B7
:10137000053C03193A2AA8118A110A12A8248A15D1
:101380000A12C4180B2A4418112A441A9E29C41A96
:10139000CA29BB29C4122608FF390319DC292608EB
:1013A000013C0319E9292608023C0319EF29260804
:1013B000043C0319FA29A329281EE629A81EE329BB
:1013C0002816A812A3292812A812A3292816A8169D
:1013D000A329071EED290712A3290716A329AA1D71
:1013E000F329AA11F429AA158A110A12F4248A15DC
:1013F0000A12A3293A080C3C031D002ABA01012A4B
:10140000BA0A85308A110A12B7213A08B721BF21DA
:101410008A150A12A329C4102608003C031DA6033E
:10142000A32944102608053C031DA60AA32941222E
:101430008A110A1229278A150A12BB2941228A1108
:101440000A1233278A150A12BB2941228A110A126D
:101450003D278A150A12BB29D2228A110A1229278E
:101460008A150A12BB29D2228A110A1233278A1539
:101470000A12BB29D2228A110A123D278A150A12A2
:10148000BB298A110A12212032208A150A128A15D4
:101490000A124D307023453070234E307023553082
:1014A000702320307023313070232F30702332307E
:1014B00070238A110A1235208A150A1220307023EF
:1014C000703070236F30702364307023733070235A
:1014D00076307023013070236330702365307023C1
:1014E0006E30702301307023203070234C30702315
:1014F0004330702344307023203070232030702319
:1015000041238A110A1238208A150A1220307023CA
:10151000703070236F307023643070237330702309
:101520007630702301307023633070236530702370
:101530006E3070230130702320307023743070239C
:101540006C307023203070232030702320307023C3
:101550004E238A110A123B208A150A12203070236A
:1015600062307023613070237330702379307023C0
:1015700020307023203070232030702320307023DF
:1015800020307023203070232030702320307023CF
:1015900020307023203070232030702320307023BF
:1015A000532308008A110A12212032208A150A12B8
:1015B0004D307023453070234E30702355307023EA
:1015C00020307023323070232F307023323070235C
:1015D0008A110A1235208A150A12203070237630BB
:1015E000702379307023703070236E307023753023
:1015F0007023743070230130702320307023483002
:1016000070234430702344307023203070235823DB
:101610008A110A1238208A150A1220307023653088
:1016200070236B30702376307023613070236C3000
:101630007023693070237A307023653070237230E4
:10164000702320307023203070232030702320300E
:10165000702359238A110A123B208A150A1220305E
:1016600070237230702365307023703070236530C2
:1016700070236130702374307023203070236A230C
:101680000800281E4B2BA81E482B31307023080061
:101690003230702308003030702308003130071ECC
:1016A0003030702308003130AA1D3030702308001C
:1016B00008003A08A5000A30A301A30AA5020318EE
:1016C0005D2BA507A3033030230770233030250797
:1016D0007023080008004F3070234E30702308003C
:1016E00006158610000088000000000000000000C1
:1016F00000000000000000000000000006140000D0
:1017000000000000000000000610000000000000C3
:10171000000000008A110A12B2218A150A1208007C
:022000000000DE
:023000000000CE
:02400E003A3F37
:10420000FF00010002000300040005000600070093
:10421000080009000A000B000C000D000E000F0042
:1042200010001100120013001400150016001700F2
:10423000180019001A001B001C001D001E001F00A2
:104240002000210022002300240025002600270052
:10425000280029002A002B002C002D002E002F0002
:1042600030003100320033003400350036003700B2
:10427000380039003A003B003C003D003E003F0062
:104280004000410042004300440045004600470012
:10429000480049004A004B004C004D004E004F00C2
:1042A0005000510052005300540055005600570072
:1042B000580059005A005B005C005D005E005F0022
:1042C00060006100620063006400650066006700D2
:1042D000680069006A006B006C006D006E006F0082
:1042E0007000710072007300740075007600770032
:1042F000780079007A007B007C007D00DE007F0082
:104300008000810082008300840085008600870091
:104310008800890003008B008C008D0006008F0050
:1043200090009100920093009400950096009700F1
:104330009800990003009B009C009D0006009F00D0
:10434000A000A100A200A300A400A500A600A70051
:10435000A800A900AA00AB00AC00AD00AE00AF0001
:10436000B000B100B200B300B400B500B600B700B1
:10437000B800B900BA00BB00BC00BD00BE00BF0061
:10438000C0000000C200C300C400C500C600C700D2
:1043900004004500CA00CB0002000100CE0044002A
:1043A000D000D1004E004F00D400D500D600D70079
:1043B000050055005500DB00DC000700DE00DF00D3
:1043C000E0000000E200E300E400E500E600E700B2
:1043D00004006500EA00EB0002000100EE0064004A
:1043E000F000F1006E006F00F400F500F600F70039
:1043F000050075007500FB00FC000700FE00FF00D3
:00000001FF
