:020000040000FA
:02000000C42812
:08000800F0000308F1000408F8
:10001000F2000A08F3008A010313831283133429C0
:10002000A9212520A9212520A9212520A921252094
:10003000A92125203E2006308B2001308B209321E2
:10004000080001308B209321080038308B200F30BE
:100050000C308B2008001430A1002030A820A10B08
:100060002D28080080308B200800AA308B20080043
:1000700094308B200800D4308B200800A40140303D
:100080008B2024084A20A820A40A40302402031D03
:10009000412808008207023404341E3401340F342E
:1000A00011340F340034023404340C340434043476
:1000B00004340E3400340A3404340E3411341F3442
:1000C00010340E3400340A3404340E3410340E3438
:1000D00001341E3400340A3404340E341034103425
:1000E00011340E3400340A34043416341934103404
:1000F0001034103400340A3404341F34023404340D
:1001000008341F34003402340434113411340F34F1
:1001100001340E34003406118610000088000000FF
:1001200000000000000000000000000000000000CF
:10013000000006140000000000000000000006108F
:10014000000000000000000000000614BB210800B1
:100150000615861000008800000000000000000066
:100160000000000000000000000000000614000075
:100170000000000000000000061000000000000069
:1001800000000000BB2108001021012110201622D0
:1001900040228621862121201622642212238621D4
:1001A000D02121202508013C0319D8287625DB28F9
:1001B000F021A81FF4226225772D0000DD28803071
:1001C000C0210230C0210030C0210030C0210030E9
:1001D000C0214830C0210030C021C8218317913090
:1001E000840052308000840A4F308000840A4F30EF
:1001F0008000840A54308000840AFF308000622529
:10020000442B03138316FF308500F8308600DF305F
:100210008700003088000330890003138312080030
:1002200009309000FF308F008E01031383160C14E9
:100230008B170B170313831203138316C730810028
:10024000263098000313831290309800031383160E
:100250008130990007309F00031383129F01BE3045
:10026000A7002816A812080069308E009E308F0063
:100270000C103108FF39031DB1032817851C4329D1
:10028000C51B4329C417051D4829451B4829441788
:10029000851D4D29C51A4D29C416051C5229451A1C
:1002A00052294416891C5729451957294415091CF8
:1002B0005C29C5185C29C414091D612945186129E8
:1002C0004414C5018518C517051945178519C516A4
:1002D00005184516891845150918C5140919451436
:1002E000281E7629A81A782987167E2987127E2942
:1002F000871E7C2987127D2987167E2973088A002C
:100300007208840071088300700809001A30A30085
:100310005E30A1006E30A000A00B8C29A10B8C29AF
:10032000A30B8C2908001030A100CF30A000A00B37
:100330009729A10B952908000830A3009D30A10042
:100340000630A000A00BA229A10BA229A30BA22971
:100350000800A030A100CF30A000A00BAD29A10B58
:10036000AB2908000130A100A530A000A00BB629E0
:10037000A10BB62908005330A000A00BBD2908002E
:1003800003138316981CC0290313831299000800D5
:100390008C1EC8291A080800C821A10BCC29080006
:1003A000A813A401A5018317903084000230C02156
:1003B0002408C021C8218000001CE7290F30A300B9
:1003C000840AC8218000A30BE029A50AEA290F307E
:1003D000A100CC21A40A2408043C031DD62908004E
:1003E0000330C0218317913084000008C02192306F
:1003F00084000008C021933084000008C02194309C
:1004000084000008C021C821A600A813261AA81736
:100410000800031783128D00031783168C130C1426
:10042000031783120C0803138312080032203C3098
:10043000A8203C30A8203C30A8204D30A8205030C7
:10044000A8203330A8202030A8207030A820053004
:10045000A8206530A8207030A8207230A820633012
:10046000A8200030A8207630A8206130A8200430D1
:10047000A8203E30A8203E30A8203E30A82008000A
:1004800038202030A8202030A8202030A8204B3051
:10049000A8206130A8207230A8207230A8207930BE
:1004A000A8202030A8202030A8202630A8202030E6
:1004B000A8202030A8204230A8206F30A820673024
:1004C000A8206130A820080035200430A82065301D
:1004D000A8206B30A8200030A8206D30A820203044
:1004E000A8206E30A8206130A8202030A8206430D9
:1004F000A8206930A8207330A8206B30A8202E30A7
:10050000A8209C212E30A8209C212E30A8209C21A0
:10051000080038204430A8204930A8205330A820B3
:100520004B30A8202030A8204F30A8204B30A820E6
:10053000080038204E30A8204530A8205030A82090
:100540004430A8205030A8204F30A8205230A82096
:100550004F30A8205630A8204130A8204E30A82087
:100560005930A8202030A8204430A8204930A820A5
:100570005330A8204B30A820080032206430A82037
:100580006930A8207330A8206B30A8202030A82024
:100590006F30A8206230A8207330A8206130A820D6
:1005A0006830A8207530A8206A30A8206530A820BF
:1005B00035207630A8200130A8206330A82065308F
:1005C000A8202030A8206F30A8206430A8206430F4
:1005D000A8200130A8206C30A8207530A820213038
:1005E000A8200000F12A080038204330A820483015
:1005F000A8205930A8204230A8204130A82020301F
:10060000A8204F30A8204430A8204430A8204930EA
:10061000A8204C30A8205530A8202030A820000069
:100620000F2B08000130C021C821A300A31B892281
:10063000A31F99223B201430A100C821A820A10BA0
:100640001D2B1430A100CC21A31B08000000262B79
:1006500021203220A8204E30A8204530A8204E303E
:10066000A8204930A8202030A8204830A8204F30AA
:10067000A8205430A8204F30A8205630A8204F3052
:10068000A82086218621442B8130C021C821A900C1
:10069000C821AA00C821C82129142A105A2583304C
:1006A000C0210630A100CC21C821AB00C821AC007C
:1006B000C821AD00C821AE00C821AF00C821B000DC
:1006C0000A30C0212B08C0212C08C0212D08C021D0
:1006D0002E08C0212F08C0213008C02183171030F8
:1006E00084004230A100C82109228000840AA10BA5
:1006F000732B103084000008013C031D842B840AF6
:100700000008FF3C031DA82B0530C0212B08C02189
:100710002C08C0212D08C0212E08C0212F08C0217F
:100720003008C021103084000930A100C8218000A9
:10073000840AA10B962B2E308000840A0330A1007E
:10074000C8218000840AA10BA02B0430A100CC2179
:100750001130C2009130C3006430B100A8152120CF
:1007600032202B2032200030A500D72335202B202B
:1007700035200130A500D72347240E242919442B06
:10078000FC24B1243108FF39031DC02B6430B100B3
:100790002919442B441DCE2B4411282B4418D32B4C
:1007A000C418D32BD62B4410C410772DB02BA60120
:1007B0001330A10083174208251C43088400000859
:1007C000FF3C031926140319F32B0008A820840A00
:1007D0000008FF3C0319A6140319F32B0008A820F6
:1007E000840AA10BE82B2608FF390319082C261CC4
:1007F000012C251CFE2B1130C20008009130C300D3
:1008000008004208251C43087F39113C03190800E1
:10081000251C0C2CC20A0800C30A0800A1308B203A
:100820002A1A382C5630A8204F30A8204C30A82047
:100830002030A8202708A6000310A60CA3016430CE
:10084000A30AA6020318202CA607A303303023070F
:10085000A820A3010A30A30AA60203182B2CA6077E
:10086000A30330302307A82030302607A820080033
:100870004D30A8205530A8205430A8204530A8205D
:100880002030A8202030A8202030A8200800813067
:10089000C021C821A900C821AA00C821B200C821CE
:1008A000B3003820A91C582C2918582C28197E2C44
:1008B00028159F243408C0003508C1008C2437084F
:1008C000A1008C244008FF390319682C303E692CA4
:1008D0002030A8203708303EA8202108303EA8202C
:1008E0003A30A8203208C0003308C1008C244008E8
:1008F000303EA8203708303EA820080028112030BC
:10090000A8202030A8202030A8203A30A82020306D
:10091000A8202030A8200800B7011030B600C00D74
:10092000C10DB70D0A3037020318B700B80DB90D65
:10093000B60B8F2C3808C0003908C1000800B70179
:100940001030B600B20DB30DB70D3C3037020318AE
:10095000B700B40DB50DB60BA22C3708B200B30129
:100960000800C41B0E25C413C41EC32C9C21C41232
:10097000851DCA2C2A1429145A2547249C2185191F
:10098000BD2C2A105A25441AC62C080044121630D1
:10099000A600CC2C0630A6000930C0212B08C021AF
:1009A0002C08C0212D08C0212E08C0212F08C021ED
:1009B0003008C0212608C021C821063C031DF82CA0
:1009C0000F30A100CC21C821AF00C821B000803079
:1009D000C0212B08C0212C08C0212D08C0212E08C1
:1009E000C0212F08C0213008C021C82129150800C6
:1009F0001130A100CC210800051E092D851E092DEE
:100A00002A165A25A8190E24A921A921A921A9210C
:100A10000D2D051A2825851A41250800291C122D9F
:100A20002910132D29142A105A2508008430C021BA
:100A300029142908C0212A08C021C82108008430AF
:100A4000C0212908C0212A142A08C021C821080071
:100A50002A1E2C2D2A125A2502302707031C312D5D
:100A600008008230C021A70AA70A2708FF3CC0213E
:100A70002708FF3CC021A921A921C821A8190E24BB
:100A800008002A1E452D2A125A2502302702031873
:100A90004A2D08008230C021A703A7032708FF3C86
:100AA000C0212708FF3CC021A921A921C821A819DC
:100AB0000E2408008430C0212908C0212A08C02142
:100AC000C82108008130C021C821A900C821AA007E
:100AD000C821C8212A125A258230C0212708FF3C8C
:100AE000C0212708FF3CC021C821080008002120A0
:100AF0003220A8204E30A8204530A8204E30A82013
:100B00004930A8202030A8204830A8204F30A82005
:100B10005430A8204F30A8205630A8204F30A820AD
:060B200086218621912DC3
:02400E003A3F37
:10420000FF00010002000300040005000600070093
:10421000080009000A000B000C000D000E000F0042
:1042200010001100120013001400150016001700F2
:10423000180019001A001B001C001D001E001F00A2
:104240002000210022002300240025002600270052
:10425000280029002A002B002C002D002E002F0002
:1042600030003100320033003400350036003700B2
:10427000380039003A003B003C003D003E003F0062
:104280004000410042004300440045004600470012
:10429000480049004A004B004C004D004E004F00C2
:1042A0005000510052005300540055005600570072
:1042B000580059005A005B005C005D005E005F0022
:1042C00060006100620063006400650066006700D2
:1042D000680069006A006B006C006D006E006F0082
:1042E0007000710072007300740075007600770032
:1042F000780079007A007B007C007D007E007F00E2
:104300008000810082008300840085008600870091
:104310008800890003008B008C008D0006008F0050
:1043200090009100920093009400950096009700F1
:104330009800990003009B009C009D0006009F00D0
:10434000A000A100A200A300A400A500A600A70051
:10435000A800A900AA00AB00AC00AD00AE00AF0001
:10436000B000B100B200B300B400B500B600B700B1
:10437000B800B900BA00BB00BC00BD00BE00BF0061
:10438000C0000000C200C300C400C500C600C700D2
:1043900004004500CA00CB0002000100CE0044002A
:1043A000D000D1004E004F00D400D500D600D70079
:1043B000050055005500DB00DC000700DE00DF00D3
:1043C000E0000000E200E300E400E500E600E700B2
:1043D00004006500EA00EB0002000100EE0064004A
:1043E000F000F1006E006F00F400F500F600F70039
:1043F000050075007500FB00FC000700FE00FF00D3
:00000001FF
